:020000040800F2
:10000000501F0020592D000865EB000867EB000821
:100010006BEB00086FEB000873EB000800000000BA
:1000200000000000000000000000000077EB000866
:1000300079EB0008000000007BEB00087DEB000876
:10004000732D0008732D0008732D0008732D000810
:10005000732D0008732D0008732D0008732D000800
:10006000732D0008732D0008732D0008732D0008F0
:10007000732D0008732D0008732D0008732D0008E0
:10008000732D0008732D0008732D0008732D0008D0
:10009000732D0008732D0008732D0008732D0008C0
:1000A000732D0008732D0008732D0008732D0008B0
:1000B000732D0008732D0008732D0008732D0008A0
:1000C000732D0008732D0008732D0008732D000890
:1000D000732D0008C9EB000895EC000859ED0008E5
:1000E000732D0008732D0008732D0008732D000870
:1000F000732D0008732D0008732D0008732D000860
:10010000732D0008732D0008732D0008732D00084F
:1001100025EE0008F9EE0008732D0008732D000885
:10012000732D0008732D0008732D0008732D00082F
:1001300000F002F800F05AF80AA090E8000C82449F
:100140008344AAF10107DA4501D100F04FF8AFF27C
:10015000090EBAE80F0013F0010F18BFFB1A43F0A5
:100160000103184728060100480601000A444FF021
:10017000000C10F8013B13F0070408BF10F8014B06
:100180001D1108BF10F8015B641E05D010F8016B4B
:10019000641E01F8016BF9D113F0080F1EBF10F8AF
:1001A000014BAD1C0C1B09D16D1E58BF01F801CBD2
:1001B000FAD505E014F8016B01F8016B6D1EF9D555
:1001C0009142D6D37047000000230024002500266A
:1001D000103A28BF78C1FBD8520728BF30C148BFAA
:1001E0000B6070471FB51FBD10B510BD0FF024FC8C
:1001F0001146FFF7F7FF02F0EDFF0FF042FC03B4EA
:10020000FFF7F2FF03BC02F0C7FD00000CB50020B1
:10021000019000906C48006840F480306A490860A2
:1002200000BF6948006800F4003000900198401C4D
:100230000190009818B90198B0F5A06FF1D162480B
:10024000006800F4003010B10120009001E00020AF
:1002500000900098012843D15C48006840F01000ED
:100260005A4908600846006820F003000860084604
:10027000006840F0020008605348406852494860F6
:100280000846406848600846406840F4806048601E
:100290000846406820F47C1048600846406840F4F6
:1002A000E81048600846006840F08070086000BFB1
:1002B0004548006800F000700028F9D042484068C6
:1002C00020F00300404948600846406840F00200C2
:1002D000486000BF3C48406800F00C000828F9D195
:1002E0000CBD10B5FFF792FF10BD10B53648006881
:1002F00040F001003449086008464068344908402D
:100300003149486008460068324908402E49086073
:100310000846006820F4802008600846406820F401
:10032000FE0048604FF41F008860FFF7DAFF4FF0CF
:1003300000602949086010BD10B50021002000228E
:10034000214B5B6803F00C0121B1042906D0082978
:1003500028D107E0214B224C236027E01F4B204C83
:10036000236023E0184B5B6803F47010164B5B6846
:1003700003F48032022303EB904022B9194B43432C
:10038000174C23600DE0104B5B6803F4003323B17E
:10039000144B4343124C236003E0104B4343104C77
:1003A000236003E00D4B0E4C236000BF00BF064BE3
:1003B0005B68C3F303130C4CE15C094B1B68CB4037
:1003C000074C236010BD00000010024000200240D6
:1003D0000000FFF8FFFFF6FE08ED00E000127A00D3
:1003E0000000002000093D0004000020DF480068F4
:1003F00040F00100DD49086008464068DC490840DB
:10040000DA49486008460068DA490840D749086078
:100410000846006820F4802008600846406820F400
:10042000FE0048604FF41F0088607047CF4909689C
:1004300021F48031CD4A11601146096821F48021F0
:100440001160B0F5803F03D0B0F5802F0ED106E0EB
:10045000C649096841F48031C44A116007E0C349C4
:10046000096841F4A021C14A116000E000BF00BF4B
:10047000704710B501460022002300204A11012ACE
:1004800002D1BA4C236806E0022A02D1B74C236A93
:1004900001E0B64C636A01F01F02012494401C4045
:1004A0000CB1012000E0002010BD38B50020009004
:1004B0000024002500BF3120FFF7DBFF0546009830
:1004C000401C00900098B0F5A06F01D0002DF2D034
:1004D0003120FFF7CEFF08B1012400E000242046C0
:1004E00038BD01460020A14A106820F0F80040EA1B
:1004F000C10010607047A0490860704702460020A4
:100500009A4B586820F47C1042EA01031843974B39
:100510005860704798490866704701460020934A22
:10052000506820F003000843506070478F484068CF
:1005300000F00C007047014600208C4A506820F003
:10054000F00008435060704701460020874A506819
:1005500020F4E06008435060704701460020834A61
:10056000506820F4605040EAC1005060704729B1E3
:100570007E4A527A02437D4B5A7204E07B4A527A99
:1005800082437A4B5A7270477B49D8310860704772
:1005900001460020754A506820F4404008435060EE
:1005A00070470021714A20321170704A82F8201081
:1005B000012802D004280AD104E001216B4A20322C
:1005C000117005E00521694A2032117000E000BF7A
:1005D00000BF70476949086070476449096A014370
:1005E000624A11627047654944390860704730B506
:1005F00000210022002400235C4D6D6805F00C01F1
:1006000021B1042905D0082923D105E05C4D0560FE
:1006100022E05B4D05601FE0544D6D6805F47012DB
:10062000524D6D6805F48034022505EB92421CB9E9
:10063000544D554305600BE04C4D6D6805F4003595
:100640001DB1504D5543056002E04D4D55430560C9
:1006500002E04B4D056000BF00BF444D6D6805F0E2
:10066000F0010909484D6B5C0568DD4045603F4D70
:100670006D6805F4E061090A434D6B5C4568DD4037
:1006800085603A4D6D6805F46051C90A3E4D6B5C5A
:100690004568DD40C560354D6D6805F44041890B06
:1006A0003A4D6B5CC568B5FBF3F5056130BD29B10A
:1006B0002E4A526902432D4B5A6104E02B4A52697B
:1006C00082432A4B5A61704729B1284A92690243F2
:1006D000264B9A6104E0254A92698243234B9A6132
:1006E000704729B1214AD2690243204BDA6104E004
:1006F0001E4AD26982431D4BDA61704729B11B4AF9
:10070000D2680243194BDA6004E0184AD268824387
:10071000164BDA60704729B1144A12690243134B31
:100720001A6104E0114A12698243104B1A61704742
:1007300012494039086070470F49C86470470B4937
:10074000C87170470948406A40F0807007494862A4
:10075000704701460020054A92680A400AB101200C
:1007600000E0002070470149887270470010024085
:100770000000FFF8FFFFF6FE000042428004424204
:1007800000127A0000093D0014000020240000201F
:1007900031490143314A1160704770B5002100238F
:1007A0000F22C47804B32D4C246804F4E064C4F52B
:1007B000E064210AC1F10403CA40447804FA03F159
:1007C0008478144021430901254C0678A15504780A
:1007D00004F01F050124AC4005786D11AD0005F152
:1007E000E025C5F8004109E0047804F01F05012464
:1007F000AC401C4D0678761145F8264070BD1A4A6B
:100800000A400243154B1B1F1A60704739B1134A47
:10081000121D12680243114B1B1D1A6006E00F4A9D
:10082000121D126882430D4B1B1D1A60704704286D
:1008300008D14FF0E021096941F004014FF0E022B6
:10084000116107E04FF0E021096921F004014FF048
:10085000E0221161704700000000FA050CED00E095
:1008600000E400E080E100E080FFFF1F10B50446D7
:10087000CC48844208D101210420FFF73FFF00212A
:100880000420FFF73BFF46E0C748844208D101211E
:100890000820FFF733FF00210820FFF72FFF3AE081
:1008A000C248844208D101211020FFF727FF002110
:1008B0001020FFF723FF2EE0BD48844208D101211C
:1008C0002020FFF71BFF00212020FFF717FF22E069
:1008D000B848844208D101214020FFF70FFF0021D2
:1008E0004020FFF70BFF16E0B348844208D10121F6
:1008F0008020FFF703FF00218020FFF7FFFE0AE0C2
:10090000AE48844207D101218015FFF7F7FE002190
:10091000A015FFF7F3FE10BD10B501210846FFF743
:10092000EDFE00210120FFF7E9FE10BD2DE9F041A9
:10093000024600250026002000230024002791F80D
:1009400003C00CF00F0591F803C00CF0100CBCF1C3
:10095000000F03D091F802C04CEA050591F800C0E1
:10096000BCF1000F31D0146800202BE04FF0010CD7
:100970000CFA00F3B1F800C00CEA03069E4220D145
:1009800083004FF00F0C0CFA03F7BC4305FA03FC8D
:100990004CEA040491F803C0BCF1280F06D14FF0D3
:1009A000010C0CFA00FCC2F814C00AE091F803C074
:1009B000BCF1480F05D14FF0010C0CFA00FCC2F855
:1009C00010C0401C0828D1D31460B1F800C0BCF19D
:1009D000FF0F34DD546800202EE000F1080C4FF0CA
:1009E000010808FA0CF3B1F800C00CEA03069E42B5
:1009F00021D183004FF00F0C0CFA03F7BC4305FA2A
:100A000003FC4CEA040491F803C0BCF1280F05D1A3
:100A100000F1080C08FA0CF8C2F8148091F803C031
:100A2000BCF1480F07D100F1080C4FF0010808FA9B
:100A30000CF8C2F81080401C0828CED35460BDE8E2
:100A4000F0814FF6FF710180022181700421C17095
:100A500070470246002093680B400BB1012000E074
:100A6000002070470146886880B270470246002027
:100A7000D3680B400BB1012000E000207047014615
:100A8000C86880B2704701617047416170470AB120
:100A9000016100E041617047C16070474FF48032EE
:100AA0000A4382618161826182698269704702467C
:100AB0000020434B18684FF68073184040EA02103C
:100AC00008433F4B186070473E49C8617047F0B516
:100AD0000A46002300240021002500F00046B6F15C
:100AE000004F02D1364EF16901E0354E7168C0F316
:100AF000034583B200F44016B6F5401F08D121F03B
:100B000070612F4E766826F070662D4F7E6012E081
:100B100000F48016B6F5801F06D1032606FA05F408
:100B2000A14341F0706106E0460D360103FA06F676
:100B3000B14341F0706122B1460D360103FA06F669
:100B4000314300F00046B6F1004F02D11C4EF16176
:100B500001E01B4E7160F0BD30B500228B071C0F09
:100B60000F2303FA04F2164B08338C1053F8243089
:100B70009343134C08348D1044F8253023468C10D1
:100B800053F824308C07240F00FA04F423430C4C50
:100B900008348D1044F8253030BD0A49DC31086036
:100BA0007047000000080140000C014000100140A7
:100BB0000014014000180140001C014000200140C9
:100BC000000001400000204210B50446FB4884426A
:100BD00009D101218803FFF791FD00214FF48040E6
:100BE000FFF78CFD32E0F648844209D10121480428
:100BF000FFF791FD00214FF40030FFF78CFD25E059
:100C0000F048844209D101218804FFF784FD0021C6
:100C10004FF48020FFF77FFD18E0EB48844209D1B4
:100C20000121C804FFF777FD00214FF40020FFF7F2
:100C300072FD0BE0E548844208D101210805FFF769
:100C40006AFD00214FF48010FFF765FD10BD2DE90E
:100C5000F04786B005460E460024A24600BFA146D6
:100C60000027B08900B100BF2F462C8A4CF6FF70D8
:100C70000440F08804432C82AC894EF6F310044003
:100C8000B08831890843718908430443AC81AC8A38
:100C90004FF6FF400440B0890443AC8201A8FFF73F
:100CA000A6FCC648874202D1DDF810A001E0DDF8BD
:100CB0000CA0A88900F4004040B10AEBCA0000EB88
:100CC0000A1031684900B0FBF1F807E00AEBCA00EE
:100CD00000EB0A1031688900B0FBF1F86420B8FB22
:100CE000F0F004012009642101FB1089A88900F4B7
:100CF000004040B1322000EBC900B0FBF1F000F041
:100D00000700044308E0322000EB09106421B0FB27
:100D1000F1F000F00F0004432C8106B0BDE8F0872D
:100D20004FF41651016000218180C18001810C21A6
:100D3000418100218181704710B502460020108A50
:100D40004FF2FF0318400B884C8823438C882343C1
:100D5000CC8823431843108210BD002101804180BC
:100D60008180C180704721B1828942F40052828122
:100D700004E082894DF6FF731A4082817047F0B516
:100D80000346002400260025002040F66A17B942D9
:100D900000D100BF1846C1F3421401F01F0601271D
:100DA00007FA06F5012C01D10C3004E0022C01D128
:100DB000103000E014301AB107682F43076002E0DA
:100DC0000768AF430760F0BD1AB1838A0B43838283
:100DD00002E0838A8B4383827047028A4FF6F07366
:100DE0001A400282028A0A430282704782894FF2C5
:100DF000FF731A40828182890A438281704721B140
:100E0000828942F00202828104E082894FF6FD73FA
:100E10001A4082817047028A4FF6DF731A400282BD
:100E2000028A0A430282704721B1028A42F4804258
:100E3000028204E0028A4BF6FF731A400282704776
:100E4000C1F308028280704701468888C0F3080019
:100E50007047818941F0010181817047028BD2B2D4
:100E60000283028B42EA012202837047028B02F462
:100E70007F420283028B0A430283704721B1828A38
:100E800042F02002828204E0828A4FF6DF731A4029
:100E90008282704721B1828A42F01002828204E08D
:100EA000828A4FF6EF731A408282704721B1828A9C
:100EB00042F00802828204E0828A4FF6F7731A40F9
:100EC0008282704721B1828942F40042828103E02C
:100ED0008289C2F30E028281704721B1828A42F474
:100EE0000062828204E0828A4FF2FF731A4082829B
:100EF0007047828A4FF6FB731A408282828A0A43C5
:100F00008282704721B1828A42F00202828204E02A
:100F1000828A4FF6FD731A40828270470246002093
:100F2000B1F5007F00D100BF13880B400BB1012049
:100F300000E00020704701F40072B2F5007F00D19C
:100F400000BFCA430280704770B5024600240023E8
:100F50000025002040F66A16B14200D100BFC1F35F
:100F6000421501F01F03012606FA03F3012D02D1F9
:100F70009689334006E0022D02D1168A334001E003
:100F8000968A33400C12012606FA04F4168834407F
:100F900013B10CB1012000E0002070BD10B500229B
:100FA000002340F66A14A14200D100BF0A120124B6
:100FB0009440A3B2DC43048010BD0000003801401F
:100FC0000044004000480040004C004000500040F9
:100FD00001460020FE4A106800F038000843106007
:100FE0007047FB49096821F00801F94A1160114670
:100FF0000968014311607047F549096821F0100143
:10100000F34A116011460968014311607047F148C5
:10101000EF494860F04848607047EE48EC49486046
:10102000ED4848607047EA48006940F08000E849B0
:1010300008617047E648006940F08000E4490861B3
:1010400070470420E249C96801F0010109B101209B
:101050000EE0DF49C96801F0040109B1022007E090
:10106000DB49C96801F0100109B1032000E0042048
:10107000704700B502460423FFF7E3FF034603E091
:10108000FFF7DFFF0346521E012B01D1002AF7D1E3
:1010900002B90523184600BD30B5044604254FF4B7
:1010A0003020FFF7E6FF0546042D17D1C848006938
:1010B00040F00200C649086108464461006940F0FA
:1010C000400008614FF43020FFF7D3FF0546C048C9
:1010D000006941F6FD710840BD490861284630BDF0
:1010E00010B504244FF43020FFF7C3FF0446042C4E
:1010F00016D1B748006940F00400B54908610846B8
:10110000006940F0400008614FF43020FFF7B1FF64
:101110000446AF48006941F6FB710840AC490861DC
:10112000204610BD00B502460423FFF78AFF0346A0
:1011300003E0FFF786FF0346521E012B01D1002A70
:10114000F7D102B90523184600BD10B504244FF4A9
:101150003020FFF7E7FF0446042C16D19C480069B5
:1011600040F004009A4908610846006940F04000D8
:1011700008614FF43020FFF7D5FF0446944800691A
:1011800041F6FB71084092490861204610BD0020DD
:101190008F49C96901F0020109B1012000E0002076
:1011A000704730B5A5250424FFF7F1FF00B10025F5
:1011B0004FF43020FFF75DFF0446042C3AD18548F8
:1011C00083498860844888600846006940F02000B0
:1011D00008610846006940F0400008614FF4302083
:1011E000FFF747FF0446042C1BD17948006941F6FC
:1011F000DF710840764908610846006940F0100038
:10120000086176480580E002FFF733FF0446052CAD
:1012100010D06F48006941F6EF7108406C490861D1
:1012200008E0052C06D06A48006941F6EF710840D5
:1012300067490861204630BD78B506460C4604254E
:1012400000200090E802FFF714FF0546042D24D18A
:101250005F48006940F001005D4908613480E802A0
:10126000FFF707FF0546042D10D1B01C0090200C9D
:1012700000990880E802FFF7FCFE05465448006923
:1012800041F6FE7108405249086106E05048006985
:1012900041F6FE7108404E490861284678BD70B598
:1012A00004460D460426F002FFF7E3FE0646042E30
:1012B00011D14748006940F0010045490861258087
:1012C000F002FFF7D6FE06464148006941F6FE717E
:1012D00008403F490861304670BD70B505460E466E
:1012E0000424E002FFF7C5FE0446042C17D1394858
:1012F00037498860384888600846006940F0100027
:1013000008612E80E002FFF7B4FE0446052C06D0EB
:101310002F48006941F6EF7108402D4908612046C9
:1013200070BD2DE9F04304464FF6FF763746B046D0
:10133000B1460425E443E6B2C4F30727C4F30748E3
:101340004FEA1469E802FFF794FE0546042D49D1DF
:1013500020481F498860204888600846006940F09E
:1013600010000861FF2E06D01C4808300680E802F5
:10137000FFF77FFE0546042D08D1FF2F06D0174842
:101380000A300780E802FFF774FE0546042D0AD1F3
:10139000B8F1FF0F07D011480C30A0F80080E80228
:1013A000FFF767FE0546042D0AD1B9F1FF0F07D0FC
:1013B0000A480E30A0F80090E802FFF75AFE0546F2
:1013C000052D0FD00248006941F6EF71084007E093
:1013D0000020024023016745AB89EFCD00F8FF1FD5
:1013E000664908612846BDE8F08330B50546042407
:1013F0004FF43020FFF73DFE0446042C41D16048F5
:101400005E4988605F4888600846006940F02000B7
:1014100008610846006940F0400008614FF4302040
:10142000FFF727FE0446042C22D15448006941F6F8
:10143000DF710840514908610846006940F010001A
:1014400008611DB100205049088002E0A5204E49E6
:1014500008804FF43020FFF70CFE0446052C10D016
:101460004648006941F6EF7108404449086108E0C8
:10147000052C06D04148006941F6DF7108403F491C
:101480000861204630BDF0B505460E4617460424D7
:101490003B483A4988603B488860E002FFF7E9FD35
:1014A0000446042C19D13548006940F01000334936
:1014B000086147F0F800304328433349891C08800D
:1014C000E002FFF7D6FD0446052C06D02B48006944
:1014D00041F6EF710840294908612046F0BD2748D0
:1014E000C069800870472548006A7047002023497A
:1014F000096801F0200109B1012000E000207047D7
:1015000029B11E4A126902431C4B1A6104E01B4AAE
:1015100012698243194B1A61704701460020012964
:1015200008D1164AD26902F001020AB1012008E08E
:10153000002006E0114AD2680A400AB1012000E00A
:10154000002070470D49C860704704200B49C968E6
:1015500001F0010109B101200EE00849C96801F05C
:10156000040109B1022007E00449C96801F0100133
:1015700009B1032000E00420704700000020024071
:1015800023016745AB89EFCD00F8FF1F10B5044676
:10159000BE48844208D101218014FFF7AFF8002132
:1015A000A014FFF7ABF816E0B948844208D1012136
:1015B0000014FFF7B0F800212014FFF7ACF80AE0A0
:1015C000B448844207D10121C013FFF7A4F80021D9
:1015D000E013FFF7A0F810BD10B50022028802F456
:1015E00041520B884C8823438C882343CC88234367
:1015F0000C8923434C8923438C892343CC8923437F
:101600001A430280838B4FF2FF74234083830B8A3B
:10161000038210BD2DE9F04F85B005460C464FF012
:10162000000902274FF000084FF0010B0026B246D8
:10163000A88B4FF240010840A88302202884B5F807
:101640001C90A068022801D100BF38E0A08810B922
:101650004FF0010B01E04FF0020B8D48854200D1A5
:1016600000E000BF6846FEF7C2FFDDF800A0E0889A
:10167000B0F5007F0AD14FEA1A2000EB800040004D
:10168000A168B0FBF1F0401D86B20BE04FEA4B10B1
:10169000BAFBF0F000EB80004000A168B0FBF1F075
:1016A000401D86B20A20B6FBF0F606F00108A6EB54
:1016B0000800C0F34F074FF6FF7000EA0828022F1A
:1016C00001DBFF2F02DD02274FF00008E08840EA2F
:1016D000080038432884A088A1890843618808430A
:1016E0002188084340F4006040EA0909A5F81C90ED
:1016F00005B0BDE8F08F0021018041808180C1806C
:10170000018141818181C1810721018270470021CE
:10171000018041808180C18002218160002181811E
:10172000704721B1028842F04002028004E0028842
:101730004FF6BF731A400280704721B1828B42F48A
:101740008062828304E0828B4FF6FF331A408283EB
:10175000704730B5002400230C110125A540ABB221
:101760001AB185881D43858002E085889D43858068
:1017700030BD1AB183880B43838002E083888B439A
:1017800083807047818170470146888970474FF692
:10179000FF62914204D0028842F48072028004E029
:1017A00002884FF6FF631A400280704721B1828899
:1017B00042F00402828004E082884FF6FB731A40F4
:1017C0008280704702884FF2FF731A4002800288BD
:1017D0000A4302807047018841F4805101807047BC
:1017E00021B1028842F40052028004E002884DF6E2
:1017F000FF731A400280704702460020012901D081
:10180000108B00E0908A70470146088A7047B1F556
:10181000804F04D1028842F48042028004E00288B2
:101820004BF6FF731A40028070470246002013896E
:101830000B400BB1012000E000207047CA43028139
:101840007047F0B50246002000240023002501F077
:101850000F070126BE40B4B20B1101269E40B3B261
:10186000968806EA03051689264016B10DB10120B7
:1018700000E00020F0BD10B5002201F00F040123AC
:10188000A3409AB2D343038110BD00000030014051
:1018900000380040003C004010B50446FE48844239
:1018A00008D10121C014FEF729FF0021E014FEF742
:1018B00025FFC4E0B4F1804F08D101210846FEF7AE
:1018C0002AFF00210120FEF726FFB8E0F3488442FA
:1018D00008D101210220FEF71EFF00210220FEF7A1
:1018E0001AFFACE0EE48844208D101210420FEF743
:1018F00012FF00210420FEF70EFFA0E0E948844219
:1019000008D101210820FEF706FF00210820FEF77C
:1019100002FF94E0E448844208D101211020FEF740
:10192000FAFE00211020FEF7F6FE88E0DF48844230
:1019300008D101212020FEF7EEFE00212020FEF735
:10194000EAFE7CE0DA48844208D101214014FEF727
:10195000D5FE00216014FEF7D1FE70E0D548844228
:1019600009D10121C804FEF7C9FE00214FF400206F
:10197000FEF7C4FE63E0D048844209D10121080586
:10198000FEF7BCFE00214FF48010FEF7B7FE56E0D4
:10199000CA48844209D101214805FEF7AFFE002163
:1019A0004FF40010FEF7AAFE49E0C548844208D172
:1019B00001214020FEF7AFFE00214020FEF7ABFEE4
:1019C0003DE0C048844208D101218020FEF7A3FEFB
:1019D00000218020FEF79FFE31E0BB48844208D101
:1019E00001218015FEF797FE0021A015FEF793FE5A
:1019F00025E0B648844209D101210804FEF77EFEA5
:101A000000214FF48030FEF779FE18E0B0488442A0
:101A100009D101214804FEF771FE00214FF4003086
:101A2000FEF76CFE0BE0AB48844208D1012188042C
:101A3000FEF764FE00214FF48020FEF75FFE10BD2C
:101A400000220288944B98420ED0994B98420BD0BA
:101A5000B0F1804F08D0914B984205D0904B9842FE
:101A600002D0904B984204D14FF68F731A404B88A6
:101A70001A438D4B984207D08C4B984204D04FF6B6
:101A8000FF431A40CB881A4302808B8883850B88DA
:101A90000385814B98420BD0854B984208D08B4BE5
:101AA000984205D08A4B984202D08A4B984201D185
:101AB0000B7A038601238382704770B500240022CD
:101AC0000023058C4FF6FE7635400584028C838812
:101AD000048B4FF68F752C40B51E2C400D882C437F
:101AE000751E2A400D892A434D882A436A4DA84213
:101AF0000BD06F4DA84208D0744DA84205D0744D4C
:101B0000A84202D0734DA84213D14FF6F7752A4070
:101B10004D892A434FF6FB752A408D882A434FF69C
:101B2000FF652B404FF6FF552B408D892B43CD8908
:101B30002B4383800483CD888586028470BD70B575
:101B4000002400220023058C4FF6EF7635400584F3
:101B5000028C8388048B48F6FF752C404FF6FF45B6
:101B60002C400D884FF6FF7606EA05252C434FF6EC
:101B7000DF752A400D8906EA05152A434D8806EAD5
:101B800005152A43444DA84202D0494DA8421DD113
:101B90004FF67F752A404D894FF6FF7606EA051508
:101BA0002A434FF6BF752A408D8806EA05152A4359
:101BB0004FF6FF352B404FF2FF752B408D8906EA1B
:101BC00085052B43CD8906EA85052B438380048355
:101BD000CD880587028470BD70B5002400220023E3
:101BE000058C4FF6FF6635400584028C8388848B14
:101BF0004FF68F752C404FF6FC752C400D882C430A
:101C00004FF6FF552A400D894FF6FF7606EA052567
:101C10002A434D8806EA05252A431F4DA84202D0D3
:101C2000234DA8421DD14FF2FF752A404D894FF632
:101C3000FF7606EA05252A434FF6FF352A408D88B0
:101C400006EA05252A434EF6FF752B404DF6FF7533
:101C50002B408D8906EA05152B43CD8906EA05152B
:101C60002B4383808483CD888587028470BD70B5C3
:101C7000002200230024058C4EF6FF7635400584B3
:101C8000038C8488828B48F6FF752A404FF6FF4507
:101C90002A400D8820E00000002C01400004004094
:101CA00000080040000C00400010004000140040FC
:101CB00000340140004C01400050014000540140FC
:101CC00000180040001C004000200040004001407F
:101CD00000440140004801404FF6FF7606EA052522
:101CE0002A434DF6FF752B400D8906EA05352B4337
:101CF0004D8806EA05352B43FA4DA84202D0FA4D2D
:101D0000A84208D14BF6FF752C408D894FF6FF761F
:101D100006EA85152C4384808283CD88A0F8405044
:101D2000038470BD828B4FF2FF331A408283828B13
:101D30004FF6FF7303EA01231A4382837047F0B51D
:101D40000C461546002200210026078C4EF6FF7C2B
:101D500007EA0C070784828B018C4FF6FF7707EAAE
:101D6000043640F6FF473A404FF6FF7707EA05276B
:101D70003A434FF6FF7707EA03373A43D94FB84261
:101D80000ED0D94FB8420BD0B0F1804F08D0D74F0A
:101D9000B84205D0D64FB84202D0D64FB84206D18D
:101DA0004DF6FF77394046F48057394305E047F652
:101DB000FF57394044F48057394382830184F0BD92
:101DC000828B4FF6F3731A408283828B0A4382839D
:101DD0007047F0B50C461546002200210026078CFE
:101DE0004FF6FF6C07EA0C070784828B018C4FF6D5
:101DF000FF7707EA04264FF60C773A404FF6FF7755
:101E000007EA03172F433A43B64FB8420ED0B64FF6
:101E1000B8420BD0B0F1804F08D0B44FB84205D0D3
:101E2000B34FB84202D0B34FB84206D14FF6FF5776
:101E3000394046F48077394305E04FF2FF57394087
:101E400044F48077394382830184F0BD028B4FF2E2
:101E5000FF331A400283028B4FF6FF7303EA01231C
:101E60001A4302837047F0B50C4615460022002144
:101E70000026078C4FF6EF7C07EA0C070784028BDD
:101E8000018C4FF6FF7707EA041640F6FF473A4009
:101E90004FF6FF7707EA03373A434FF6FF7707EA33
:101EA00005273A438F4FB8420ED08F4FB8420BD020
:101EB000B0F1804F08D08D4FB84205D08C4FB8425A
:101EC00002D08C4FB84206D14FF6DF77394046F04A
:101ED0001007394305E04FF65F77394044F01007AB
:101EE000394302830184F0BD028B4FF6F3731A402D
:101EF0000283028B0A4302837047F0B50C461546F5
:101F000000220021068C4FF6FE773E400684028BAD
:101F1000018C4FF60C7632407E1C06EA03162E43E7
:101F20003243704EB0420ED06F4EB0420BD0B0F183
:101F3000804F08D06D4EB04205D06D4EB04202D0F9
:101F40006C4EB04206D14FF6FD76314044F00106AA
:101F5000314305E04FF6F576314044F00106314358
:101F600002830184F0BD70B505460C465D4885428C
:101F70000ED05D4885420BD0B5F1804F08D05B484C
:101F8000854205D05A48854202D05A48854200D140
:101F900000E000BF208850B92389A28861882846C4
:101FA000FFF7ABFFE1882846FFF79EFF25E020887A
:101FB00004280AD12389A28861882846FFF753FFA5
:101FC000E1882846FFF742FF17E0208808280AD159
:101FD0002389A28861882846FFF7FBFEE18828460E
:101FE000FFF7EEFE09E02389A28861882846FFF703
:101FF000A6FEE1882846FFF795FE70BD2DE9F04169
:1020000005460C4600260127608808B9022600E034
:102010000026A088012801D1022700E0012720889E
:10202000A0B92389A28861882846FFF766FFE18866
:102030002846FFF759FF23893A4631462846FFF7DD
:1020400012FFE1882846FFF701FF13E02389A288E9
:1020500061882846FFF707FFE1882846FFF7F6FE6C
:1020600023893A4631462846FFF747FFE18828464C
:10207000FFF73AFFBDE8F0810A884B881A438B8846
:102080001A43CB881A430B891A434B891A438B890D
:102090001A43A0F8442070474FF6FF718180002159
:1020A0000180C18041800172704700210180418020
:1020B0008180C180018141818181C181704700217E
:1020C00001804180012181800021C1800181704710
:1020D0000021018041808180C18001814181818115
:1020E00070470000002C0140003401400004004013
:1020F00000080040000C004021B1028842F00102BB
:10210000028004E002884FF6FE731A400280704796
:1021100031B1B0F8442042F40042A0F8442005E078
:10212000B0F84420C2F30E02A0F8442070471AB160
:1021300083890B43838102E083898B4383817047CA
:102140008182704741EA0203A0F8483070471AB113
:1021500083890B43838102E083898B4383817047AA
:1021600001894FF6F8721140018170470A4600213B
:1021700001894FF68F73194011430181704730B5C3
:1021800004460D4629462046FFF7F0FF208940F01F
:102190000700208130BD2DE9F04104460D4616466A
:1021A0001F46602D06D13B46012231462046FFF7EF
:1021B0005AFE05E03B46012231462046FFF79DFED0
:1021C00029462046FFF7D2FF208940F007002081F2
:1021D000BDE8F08130B50C4600210189C9B24FF647
:1021E000FF7505EA0325154325432943018130BDC9
:1021F0002DE9F04105460E46174698460024434611
:102200003A4631462846FFF7E5FF2C894FF6F8702D
:10221000044044F007044FF68F70044044F070040B
:102220002C81BDE8F081F0B504460D4616461F46E8
:102230003B46324629462046FFF7CCFF208940F432
:1022400080402081F0BD0185828270470A460021CE
:1022500001884FF68F731940114301807047F0B524
:102260000C4615461E460021002200230189028BE0
:10227000038C4FF6F877394021434FF6FC473A403C
:1022800040F201173A434FF6DD773B404FF6FF77B8
:1022900007EA06172F433B43018102830384F0BD05
:1022A0000A460021018B4FF68F73194011430183B9
:1022B00070470A460021018B48F6FF7319404FF61C
:1022C000FF7303EA02231943018370470A46002182
:1022D000818B4FF68F7319401143818370470A46F3
:1022E0000021818B48F6FF7319404FF6FF7303EA14
:1022F000022319438183704721B1028842F0800292
:10230000028004E002884FF67F731A400280704713
:1023100021B1828842F00402828004E082884FF674
:10232000FB731A408280704721B1828842F0080214
:10233000828004E082884FF6F7731A4082807047EB
:1023400021B1828842F00102828004E082884FF647
:10235000FE731A40828070470A460021018B4FF6B7
:10236000F77319401143018370470A460021018B1E
:102370004FF2FF7319404FF6FF7303EA022319432C
:10238000018370470A460021818B4FF6F77319408D
:102390001143818370470A460021818B4FF2FF73FE
:1023A00019404FF6FF7303EA0223194381837047F4
:1023B0000A460021018B4FF6FB731940114301833C
:1023C00070470A460021018B4FF6FF3319404FF644
:1023D000FF7303EA02231943018370470A46002171
:1023E000818B4FF6FB7319401143818370470A4676
:1023F0000021818B4FF6FF3319404FF6FF7303EA3C
:1024000002231943818370470A460021018B4FF64E
:102410007F7319401143018370470A460021018BE5
:10242000C1F30E014FF6FF7303EA02231943018340
:1024300070470A460021818B4FF67F731940114384
:10244000818370470A460021818BC1F30E014FF64C
:10245000FF7303EA02231943818370470A46002170
:10246000018C4FF6FD7319401143018470470A46F1
:102470000021018C4FF6F773194011430184704716
:102480000A460021018C4FF6DF7319404FF6FF73A7
:1024900003EA02131943018470470A460021018CA4
:1024A0004FF67F7319404FF6FF7303EA0213194387
:1024B000018470470A460021018C4FF6FF531940F2
:1024C0004FF6FF7303EA02231943018470470A465B
:1024D0000021018C4FF2FF7319404FF6FF7303EA9E
:1024E00002231943018470470A460021018C4DF6EE
:1024F000FF7319404FF6FF7303EA02331943018457
:10250000704730B5002301248C40A3B2048C9C4357
:102510000484048C02FA01F5ADB22C43048430BD6E
:1025200030B5002304248C40A3B2048C9C43048463
:10253000048C02FA01F5ADB22C43048430BD70B5B1
:102540000346002000241846183001258D40ACB207
:102550001D8CA5431D8409B1082909D100EB610038
:10256000056825F0700505600568154305600EE0F7
:102570000D1FC5F34E052844056825F4E0450560A8
:1025800005684FF6FF7606EA02263543056070BD02
:1025900021B1028842F00202028004E002884FF674
:1025A000FD731A400280704721B1028842F0040294
:1025B000028004E002884FF6FB731A4002807047E5
:1025C00021B1828842F08002828004E082884FF646
:1025D0007F731A408280704702884FF6F7731A4063
:1025E000028002880A430280704782884FF68F7308
:1025F0001A40828082880A438280704702894FF69F
:10260000F8731A40028102890A43028170470289E5
:102610004FF67F731A40028102890A430281704794
:102620008184704781857047818670470187704734
:1026300081877047A0F84010704702884FF6FF432B
:102640001A40028002880A43028070470146888E41
:1026500070470146088F70470146888F70470146D2
:10266000B1F8400070470146888C70470146088DDC
:10267000704702460020138A0B400BB1012000E096
:1026800000207047CA430282704730B502460020DE
:1026900000230024158A05EA0103958905EA01044F
:1026A00013B10CB1012000E0002030BDCA4302820A
:1026B0007047000010B50446FA48844208D1012151
:1026C0004015FEF71BF800216015FEF717F817E01C
:1026D000F548844208D101210015FEF70FF80021CA
:1026E0002015FEF70BF80BE0F048844208D10121D9
:1026F000C803FEF703F800214FF40040FDF7FEFF8A
:1027000010BD30B50246002000235068E84C204040
:102710000D790C6844EA0524204350609068E54C2C
:102720002040D1E902542C434D7944EA450420432A
:102730009060D06A20F470000C7C641EE4B22343E5
:1027400040EA0350D06230BD002101600171417147
:102750008160C16001210174704721B1826842F03B
:102760000102826003E0826822F001028260704709
:1027700021B1826842F48072826003E0826822F4B0
:1027800080728260704710B50023CBB21AB14468E2
:102790001C43446002E044689C43446010BD81686F
:1027A00041F0080181607047014600208A6802F00C
:1027B00008020AB1012000E000207047816841F062
:1027C000040181607047014600208A6802F004021B
:1027D0000AB1012000E00020704721B1826842F474
:1027E000A002826003E0826822F4A0028260704747
:1027F000014600208A6802F480020AB1012000E04C
:102800000020704710B50A4600210023416821F4DA
:102810006041531E41EA4331416010BD21B142681D
:1028200042F40062426003E0426822F400624260C7
:102830007047F0B504460D4600200021092D11DD3A
:10284000E068A5F10A0606EB4607072606FA07F137
:102850008843A5F10A0606EB460603FA06F108438B
:10286000E0600CE0206905EB4507072606FA07F152
:10287000884305EB450603FA06F108432061072A61
:102880000FDA606B561E06EB86071F2606FA07F165
:102890008843561E06EB860605FA06F10843606378
:1028A00022E00D2A0FDA206BD61F06EB86071F26C3
:1028B00006FA07F18843D61F06EB860605FA06F1ED
:1028C0000843206310E0E06AA2F10D0606EB8607DC
:1028D0001F2606FA07F18843A2F10D0606EB8606CD
:1028E00005FA06F10843E062F0BD21B1826842F4C6
:1028F0008012826003E0826822F480128260704756
:102900000146C86C80B2704766484C30006870471A
:1029100021B1426842F48062426003E0426822F4DE
:1029200080624260704721B1426842F48052426046
:1029300003E0426822F48052426070470A46002158
:10294000816821F4E04111438160704721B18268C0
:1029500042F40042826003E0826822F40042826016
:10296000704721B1826842F40212826003E08268FB
:1029700022F4021282607047014600208A6802F445
:1029800000120AB1012000E000207047F0B50446B3
:102990001546002000220026092911DDE068A1F17A
:1029A0000A0707EB470C072707FA0CF29043A1F13F
:1029B0000A0707EB470703FA07F21043E0600CE051
:1029C000206901EB410C072707FA0CF2904301EB59
:1029D000410703FA07F210432061A06BC0F30156D0
:1029E000EF1C06F1010CA7EB0C0707EB870C1F2768
:1029F00007FA0CF29043EF1C06F1010CA7EB0C0751
:102A000007EB870701FA07F21043A063F0BD10B58A
:102A10000A4600210023816B21F44011531E41EA34
:102A20000351816310BD08B5002300930090009B03
:102A30000B440093009B1A6008BD08B502460020B5
:102A40000090009201F12800009B1844009000982B
:102A5000006880B208BD0A4600214168164B194043
:102A60001143416070474162826270470A4600210B
:102A7000416821F01F0111434160704740B109498D
:102A80000831096841F40001064A0832116007E084
:102A900004490831096821F40001024A0832116032
:102AA000704700000024014000280140003C014024
:102AB000FFFEF0FFFDF7F1FFFFFD3FFF02460020A4
:102AC00013680B400BB1012000E000207047CA439F
:102AD0000260704770B502460020002300240B12EC
:102AE0005568CEB205EA060415681D4015B10CB153
:102AF000012000E0002070BD00220A12D3430360D1
:102B00007047000001684FF6FE721140016000211D
:102B1000016041608160C1608D49884208D18C4963
:102B20000839496841F00F01894A083A51608AE042
:102B300087491431884208D185490839496841F0EC
:102B4000F001834A083A51607DE08149283188428A
:102B500008D17F490839496841F470617C4A083AD4
:102B6000516070E07A493C31884208D1784908398F
:102B7000496841F47041764A083A516063E074490B
:102B80005031884208D172490839496841F47021AE
:102B90006F4A083A516056E06D496431884208D165
:102BA0006B490839496841F47001694A083A516033
:102BB00049E067497831884208D165490839496850
:102BC00041F07061624A083A51603CE061498842D4
:102BD00006D1011F096841F00F01021F116032E0A8
:102BE0005C491431884208D15A49091F096841F0EB
:102BF000F001584A121F116025E0564928318842D9
:102C000008D15449091F096841F47061514A121FE3
:102C1000116018E04F493C31884208D14D49091FE5
:102C2000096841F470414B4A121F11600BE0494999
:102C30005031884207D14749091F096841F4702182
:102C4000444A121F1160704710B50022026847F60F
:102C5000F0739A430C6A8B6823430C6923434C69D5
:102C600023438C692343CC6923434C6A23438C6AF6
:102C700023431A430260CB6843600B6883604B6850
:102C8000C36010BD0021016041608160C1600161CD
:102C900041618161C161016241628162704721B11C
:102CA000026842F00102026004E002684FF6FE731F
:102CB0001A40026070471AB103680B43036002E0D8
:102CC00003688B4303607047416070470146486862
:102CD00080B2704701460020002201F080531BB1F2
:102CE0001C4B083B1A6802E0194B083B1A6802EAC1
:102CF00001030BB1012000E00020704700F080517B
:102D000019B11449091F086002E0114908394860E7
:102D1000704701460020002201F080531BB10D4B8B
:102D2000083B1A6802E00A4B083B1A6802EA0103F2
:102D30000BB1012000E00020704700F0805119B174
:102D40000449091F086002E00149083948607047DA
:102D5000080002400804024009488047094800472B
:102D6000FEE7FEE7FEE7FEE7FEE7FEE7FEE7FEE73B
:102D7000FEE7FEE704480549054A064B7047000098
:102D8000EB0200083101000850190020501F0020FC
:102D9000501B0020501B0020014600BF70474AF620
:102DA000AA20F9490860704745F25552F64B1A605F
:102DB0001A46506091604AF6AA221A604CF6CC423C
:102DC0001A607047704710B500214FF00060FDF7A2
:102DD00016FD4FF4C060FDF7DBFC2520EB490870C1
:102DE00001204870022088700120C8700846FDF755
:102DF000D4FC2720E5490870002048700320887023
:102E00000120C8700846FDF7C8FC2620DF4908707D
:102E10000020487001208870C8700846FDF7BDFC8E
:102E20003520DA490870002048700220887001209F
:102E3000C8700846FDF7B1FC3420D4490870012061
:102E400048708870C8700846FDF7A7FC10BD00B533
:102E500087B00120ADF814004820ADF81000002024
:102E6000ADF816001020ADF8120004A98006FEF798
:102E7000E7FDC748FEF710FD40F6FF70ADF81400FF
:102E80000020ADF81000ADF816008DF81800ADF870
:102E9000120004A9BE48FEF7D3FD7020ADF8000073
:102EA0000120ADF802000020ADF80400ADF80600E6
:102EB0000220ADF808000020ADF80A004FF4807041
:102EC000ADF80C000020ADF80E006946B048FEF7E2
:102ED000F4FD6946AE48FEF732FE6946AC48FEF79F
:102EE0007BFE6946AA48FEF7C2FE0821A848FFF704
:102EF00033FA0821A648FFF738FA0821A448FFF75B
:102F000041FA0821A248FFF746FA0121A048FFF73D
:102F1000F3F901219E48FFF7EFF801219C48FFF7E4
:102F2000F7F807B000BD08B501219A48FDF7CFFDBD
:102F300003208DF80200F820ADF8000010208DF875
:102F4000030069469448FDF7F1FC03208DF8020068
:102F50004FF40040ADF8000010208DF803006946E2
:102F60008E48FDF7E3FC01208D4908608D49C1F8CA
:102F700098018B4908390860091F0860091F08601B
:102F80008949C1F8BC013020ADF8000000208DF85F
:102F9000030069468148FDF7C9FC3020ADF8000008
:102FA00000208DF8030069468048FDF7BFFC022031
:102FB0008DF802004FF46070ADF8000004208DF829
:102FC000030069467948FDF7B1FC02208DF8020044
:102FD000C001ADF8000004208DF8030069466F4879
:102FE000FDF7A4FC02208DF802000820ADF80000D7
:102FF00010208DF8030069466C48FDF797FC02200D
:103000008DF802000420ADF8000014208DF80300B4
:1030100069466648FDF78AFC02208DF80200ADF88B
:10302000000010208DF8030069466048FDF77EFC23
:1030300002208DF802004FF4C050ADF800001020BF
:103040008DF8030069465548FDF770FC012058498A
:1030500008605549C1F8B001C020ADF80000182043
:103060008DF8030003208DF8020069464B48FDF7F8
:103070005DFC0320ADF8000018208DF8030003204C
:103080008DF8020069464448FDF750FC03208DF896
:1030900002000120ADF8000010208DF80300694601
:1030A0004248FDF743FC01214048FDF7ECFC0220BB
:1030B0008DF80200C001ADF8000010208DF803006B
:1030C00069463548FDF732FC4FF480713248FDF710
:1030D000DCFC08BD10B5FDF789F94FF48030FDF731
:1030E000A5F9FDF7E2F90446012C27D10020FDF7F0
:1030F00022FA0020FDF731FAA002FDF725FAE003DD
:10310000FDF746FA0220FDF763FF1020FDF774FF7C
:103110004FF4E0112004FDF7F1F90120FDF7FAF971
:1031200000BF3920FDF7A5F90028FAD00220FDF7ED
:10313000F4F900BFFDF7FAF90828FBD101213D2081
:10314000FDF7C2FA01218803FDF7BEFA0121480408
:10315000FDF7C7FA01214FF4E010FDF7C2FA012193
:103160000846FDF7BEFA01210846FDF7A0FA012145
:103170004802FDF7A9FA01214805FDF7B2FA01213D
:103180000220FDF7AEFA10BD003000400C01002017
:103190000004004000023000000C01400008014023
:1031A0009C81214200802142000021420010014008
:1031B000AC012142014648F6A04005E000E0401E77
:1031C0000028FCD148F6A0400A00A1F1010399B201
:1031D000F4D17047FFF77EFFFFF7A5FE4FF496701E
:1031E000FFF7E8FFFFF776FFFFF79DFE6449481EF3
:1031F000B0F1807F00D31BE0481E4FF0E022506109
:1032000050170F22002807DA13071D0E5D4B00F040
:103210000F04241F1D5503E013071C0E5A4B1C54AA
:1032200000BF00204FF0E02290610720106100BF36
:10323000FFF70DFE0CF0C3F900F016FA00F04AFAA1
:1032400000F0A2FB03F003F90CF04FF9FFF7BBFD10
:10325000FFF7B8FD40F2AA310420FFF7A5FD03F007
:10326000EFFB01204949087000F094F800F011F9D3
:1032700007F0DAFF08F0CAFC09F09EF909F06DFFCB
:103280000AF082FD00F0E1F94EE000F07DFB03F072
:10329000DEF800F0FFF800F090FD01F04EFD02F0C6
:1032A000BDFA02F0C0FD3A48B0F82002002802DD65
:1032B0000BF0EEFE14E002F013FD02F06CFD02F0E4
:1032C0001AFF3348B0F8F400012809D12F480078DC
:1032D000012805D107F0C4FE09F0D5FC0BF0A9F9CF
:1032E00000F036FC00F001FD03F04DFB03F019FB8C
:1032F00008F00BFB07F0BCFF08F0E6F808F0B9FF98
:1033000008F08FFC08F0C0FD09F063F909F04FFAEE
:103310000AF06EFA09F02EFF0AF0A2F80AF065FD35
:103320000AF07FFFFFF73BFDAFE731B5BDF8004086
:1033300001218807FEF7E0FE21464FF08040FFF7AD
:103340006FF904E04FF08040FFF78DF90446012C3F
:10335000F8DC00214FF08040FEF7CEFE38BD31B5DD
:10336000002407E04FF47A70FFF7DFFFFFF717FD47
:10337000601C84B2BDF800008442F3DB38BD00005D
:103380004019010018ED00E000E400E08601002093
:103390001604002010B5FE48FFF7B4FBFD48FE49B7
:1033A0000860FE48486000208860A020C8600020B7
:1033B000086180204861400088618000C861202049
:1033C00008620002486200208862F148FFF73CFC76
:1033D0000121EF48FFF763FC0020F149086001205C
:1033E000087148714FF4602088600020C860052093
:1033F0000874E8484C38FFF784F9052301220421BA
:10340000E4484C38FFF715FA052302221946E14833
:103410004C38FFF70EFA052303220E21DD484C3805
:10342000FFF707FA052304220F21DA484C38FFF78B
:1034300000FA072305221021D6484C38FFF7F9F986
:103440000121D4484C38FFF793F90121D1484C3879
:10345000FFF783F90120FFF711FBCE484C38FFF747
:103460009EF900BFCB484C38FFF79EF90028F9D1F0
:10347000C8484C38FFF7A2F900BFC6484C38FFF7E0
:10348000A2F90028F9D10121C2484C38FFF7A5F96B
:1034900010BD70477CB5C3484078C349097888425D
:1034A00057D0C2480078002853D1BE484078BE4962
:1034B0000870BF480088401CBD4908800846008845
:1034C000142846DD6420B84908700020B8490880F7
:1034D00068460BF001FF002416E01DF80400C21737
:1034E00000EB12721211A0EB02121DF80410CB17A0
:1034F00001EB13731B1103EB830302EB4302D2B204
:103500000DF80420601CC4B2072CE6DB00240CE09C
:103510001DF80410A74A04F12D0022F810101DF820
:103520000400A5490855601CC4B2052CF0DB9DF8C9
:103530000500A049A1F866009DF8060000F5FA60B4
:10354000A1F864009DF805009B4988719DF806006C
:1035500048719648007800286DD092484078974985
:103560000978884267D08F48407894490870944819
:103570000088401C92490880084600880A2808DD17
:103580009048007828B990208DF8000001208D49DE
:1035900008708B480088142837DD8A480078012895
:1035A00033D1894800882D30824931F8105086483F
:1035B0000088052808D1A5F5FA6085B28248008800
:1035C000401C814908800AE07F480088062805D110
:1035D0007D480088401E7C49088000E000BF0A202A
:1035E00095FBF0F100FB115195FBF0F001EB0010A1
:1035F00085B2E8B28DF800009DF80010724A10788C
:103600000BF056FE02206F4908706D4800881E2896
:1036100011DD6C48007802280DD180208DF8000063
:1036200000206849087064206449087000206449DB
:1036300008805E4908705F48B0F85A003C2803DDF6
:103640001E2100200BF034FE7CBD704700220020BC
:1036500006E0521C002100E0491C0629FCDB401C4E
:103660005A4B9842F5DB704785205249A1F8280251
:1036700040F2E370A1F8040540F2A230A1F806057B
:103680000020A1F81802A1F82002A1F8920201205E
:103690004F49087000204F4908704649A1F88C0234
:1036A00001204D4908704D4908704D4908700020AF
:1036B0004C49087001204C4908704C4908704C492D
:1036C000087000204B4908704B49087001204B4995
:1036D0000870704710B50320494908704FF4FF7215
:1036E000002134480CF086F94FF48072910045486F
:1036F0000CF080F90422D10143480CF07BF904223C
:103700004FF40171404866380CF074F91E224FF4F2
:1037100002713C48A2380CF06DF9142240F22621C7
:1037200038484E380CF066F92248808D30B90422B2
:103730004FF41171344862300CF05CF904224FF4FC
:103740001271314866300CF055F91A48B0F86C0225
:10375000B0F5804F05DA1748B0F86E02B0F5804F2B
:103760000EDD00201349A1F86C02A1F86E020120C1
:10377000234908700F49B1F86C1288010BF0C3FFA0
:103780000C48B0F86C02002847DD0A483EE0000013
:10379000080002404C240140200B0020660B002052
:1037A0000C0B00202A0000202D010020F900002031
:1037B0002E01002016040020C40300203001002048
:1037C000320100203401002092000020FFFF0F0092
:1037D000FC01002014010020F0000020280000203F
:1037E00029000020BD000020D1000020F5000020AD
:1037F0008C0000204E0100206200002039000020D3
:103800007E0000201608002082060020B0F86C021E
:10381000401EFE49A1F81C0205E0FC48B0F86C020D
:10382000FA49A1F81C02F948B0F81C02401CF849FA
:103830000880F648B0F80602402808DBF348B0F8E4
:103840000802402803DB0020F049A1F80602EF48F7
:10385000B0F80802402803DB0020EC49A1F8080278
:10386000EA48B0F80602402803DB0620E749A1F841
:1038700006020120E549A1F81A020846B0F81A022A
:10388000401CA1F81E020846B0F80802062810DB0A
:103890000846B0F80802801F84B20320DD49087092
:1038A000400200EBC40081B23022DB480CF0A2F8E9
:1038B00030E0D648B0F80802B0B10320D54908700E
:1038C000D249B1F808124FF6FF7303EAC102CF499B
:1038D000B1F80812C1F106018B00CF4901EB43009A
:1038E0004FF4C0610CF086F8C848B0F808023A30CE
:1038F00084B2C648B0F80802C0F106004FF6FF7364
:1039000003EAC0024FF4C06000EBC40081B2C248B9
:103910000CF070F80320BF4908700422D101BE48A2
:1039200038300CF047F80320BA49087004224FF4ED
:103930000171B9482E380CF03DF8B448B0F81A01BE
:10394000B249A1F80E020846B0F81C01A1F8100215
:103950000846B0F81E01A1F812020846B0F830017E
:10396000A1F814020846B0F83201A1F8160210BD01
:1039700010B5002305E031F8024B20F8024B5C1C27
:10398000A3B29342F7DB10BD10B500249F48408AD4
:10399000B0F5FA6F09D19D48C08D41F2E10188422E
:1039A00003D19E48007800B901249848B0F8F4008B
:1039B000B0F5FA6F08DD9548C08AB0F5FA6F03DDFF
:1039C0009648007800B90124012C0ED1FF229449B9
:1039D0008E48FFF7CDFF4FF4FA608C49488241F2E0
:1039E000E100C88501208D4908708E4840788E49D5
:1039F000097888422ED08948007858B389484078A1
:103A00008949087089480088401C88490880084610
:103A1000008896280BDD81480078012807D1022014
:103A20007E49087041F270707849C88512E07F487D
:103A30000088B0F5967F0DDD78480078022809D11E
:103A4000642079490870002078490880734908701B
:103A50006E49C88510BD08B50020754908806B48BF
:103A6000B0F89202002872D16849B1F86C02C1170F
:103A700000EB91518912A0EB812121BB0120654906
:103A800008706248B0F86C028101022268460BF0AF
:103A900016FFBDF800004FF6FF71884205D05B4964
:103AA000B1F86C1288010BF02EFE5848B0F86E0287
:103AB000B0F5804F07DB5548B0F86E02A0F5806086
:103AC0005249A1F86E020120524908704F48B0F8DF
:103AD0006C0281014022504872300BF05FFE4B486F
:103AE000B0F86C02401C4949A1F86C020846B0F8D5
:103AF0006E02401CA1F86E020846B0F86C02B0F5E8
:103B0000804F02DB0020A1F86C02032041490870BD
:103B10000422D101404838300BF04CFF3B48B0F84C
:103B20006C02002807DD3948B0F86C02401E3749A6
:103B3000A1F81C0205E03548B0F86C023349A1F841
:103B40001C023248B0F81C02401C3149088008BDF4
:103B500010B538480078012823D13748007800BBD9
:103B600000202A49488203202A4908704FF4FF7236
:103B7000002126480BF01EFF4FF4807291002F4861
:103B80000BF018FF11202149488201202A490870B2
:103B900000202849087011201C49A1F8A602FFF74F
:103BA0005AFF1A48408A41F28831884221D122487E
:103BB0000078F0B9002015494882032015490870A3
:103BC0004FF4FF72002111480BF0F4FE4FF48072A5
:103BD00091001A480BF0EEFE41F288300B49488202
:103BE0000120154908701C200849A1F8A602FFF71A
:103BF00032FF0C4840781249097888424BD00E4871
:103C00000078A0B3074840780D491BE01604002057
:103C1000940000207E0000204A0600201E010020A3
:103C20008E0301082A000020160100201801002040
:103C30003601002039010020220100201608002052
:103C40001F0100200870FE480088401CFC490880C5
:103C50000846008896280BDDFA480078012807D12D
:103C60000220F849087041F27070F749488212E06A
:103C7000F3480088B0F5967F0DDDF2480078022801
:103C800009D16420F14908700020ED490880ED4910
:103C90000870ED494882EC48408A41F288318842F8
:103CA0001FD0EB488078EB49097888421CD0E8485F
:103CB0008078E8490870E8480088401CE649088098
:103CC000E148B0F84200098888420DDA0020E24954
:103CD00008806420DF49087041F28830DA49488260
:103CE00002E00020DC49088010BDD748408AB0F5CA
:103CF000FA6F20D1D6488078D849097888421AD0FE
:103D0000D148B0F82002B0B9D1488078D3490870C2
:103D1000D3480088401CD249088008460088B0F586
:103D2000617F08DD6420CD4908700020CC490880FF
:103D30000120CC490870704701200021CA4A117047
:103D4000CA4A1170CA4A117016E0CA49095CC64ACB
:103D500012781144C44A1170C749095CC34A1278E9
:103D60001144C24A1170C549095CC14A1278114414
:103D7000BF4A1170411CC8B2B349098B8142E4DAD1
:103D8000BC494978BB4A92781144BA4AD278114466
:103D9000B84A12791144AC4AA2F85015B64949788C
:103DA000B54A92781144B44AD2781144B24A127991
:103DB0001144A54AA2F8521570472DE9F047FFF7C4
:103DC000BBFFA148B0F81A019F49B1F80E12884212
:103DD00007D09D48B0F81A019B49A1F80E0207F0E0
:103DE000F5F99948B0F81C019749B1F810128842CA
:103DF00007D09548B0F81C019349A1F8100207F0CC
:103E0000D7FE9148B0F81E018F49B1F812128842CE
:103E100007D08D48B0F81E018B49A1F8120208F0B6
:103E20009CFB8948B0F830018749B1F814128842E8
:103E300007D08548B0F830018349A1F8140209F091
:103E40005BF98148B0F832017F49B1F81612884217
:103E500007D07D48B0F832017B49A1F8160209F07D
:103E600064FF794880880A2190FBF1F201FB12007F
:103E700068B17548808890FBF1F01FFA80F808EB74
:103E800088004FF6FF7101EA40006F4988806E4854
:103E9000B0F88A000A2190FBF1F201FB120078B120
:103EA0006948B0F88A0090FBF1F01FFA80F808EB3F
:103EB00088004FF6FF7101EA40006349A1F88A00CB
:103EC0006148B0F890000A2190FBF1F201FB12006A
:103ED00078B15D48B0F8900090FBF1F01FFA80F8DF
:103EE00008EB88004FF6FF7101EA40005649A1F83F
:103EF00090005548B0F896000A2190FBF1F201FBC2
:103F0000120078B15048B0F8960090FBF1F01FFA1B
:103F100080F808EB88004FF6FF7101EA40004A493B
:103F2000A1F896004848B0F89C000A2190FBF1F2F5
:103F300001FB120078B14448B0F89C0090FBF1F00E
:103F40001FFA80F808EB88004FF6FF7101EA400085
:103F50003D49A1F89C003C48B0F8A2000A2190FB22
:103F6000F1F201FB120078B13748B0F8A20090FBE3
:103F7000F1F01FFA80F808EB88004FF6FF7101EAB4
:103F800040003149A1F8A2002F48B0F8A8000A214A
:103F900090FBF1F201FB120078B12B48B0F8A800B9
:103FA00090FBF1F01FFA80F808EB88004FF6FF71E4
:103FB00001EA40002449A1F8A8002348B0F84600CF
:103FC0000A2190FBF1F201FB120078B11E48B0F813
:103FD000460090FBF1F01FFA80F808EB88004FF6DE
:103FE000FF7101EA40001849A1F846001648B0F8F0
:103FF0008400A0B92248007888B92248007870B9B6
:104000002148007858B92148007840B90E48808886
:104010000D49A1F8B60208468088A1F8FE031C48A5
:10402000007801283ED10020194908700320194961
:104030000870022204210448001D0BF0BBFC2BE099
:104040002001002022010020160400201F01002072
:104050002A000020620100206001002038010020B9
:104060003A01002039010020C8020020C9020020C6
:10407000CA020020C1000020C70000203A00002032
:10408000E9000020EA000020690000205300002021
:10409000460000207E0000201E20FE49A1F8A60256
:1040A000FFF7D9FCFC48007801280BD10020FA4921
:1040B00008700320F949087002225821F548583049
:1040C0000BF078FCF348B0F81E02F249B1F81A126E
:1040D000884248D0EF48B0F81A02402803DB00209D
:1040E000EC49A1F81A02EB48B0F81A02E949A1F824
:1040F0001E020846B0F80802B1F81A12884214DD10
:10410000E448B0F80802E349B1F81A12401A1FFA5D
:1041100080F80320E1490870400200EBC80081B23A
:104120000822DF480BF066FC14E0DA48B0F8080219
:104130004030D849B1F81A12401A1FFA80F803200B
:10414000D6490870400200EBC80081B20822D4486A
:104150000BF050FCCF48B0F86402642803DD002067
:10416000CC49A1F86402CB48B0F81C02CD490988BB
:10417000884279D0C748B0F81C02B0F5804F03DB05
:104180000020C449A1F81C02C248B0F81C02C5496D
:1041900008800120C1490870BE48B0F81C028101A6
:1041A0004022BF4892300BF08AFBBA48B0F8F602C2
:1041B000642803DD0020B749A1F8F602B548B0F83D
:1041C000F80200F4807020B10120B249A1F8360352
:1041D00003E00020AF49A1F83603AE4890F8F8029A
:1041E00000F0010020B10120AA49A1F83A0303E040
:1041F0000020A849A1F83A03A648B0F8FA0200F452
:10420000807020B10120A349A1F83E0303E0002003
:10421000A049A1F83E039F4890F8FA0200F001007F
:1042200020B101209B49A1F8420303E000209949F5
:10423000A1F842039748B0F8FC0200F4807020B166
:1042400001209449A1F8460303E000209149A1F818
:1042500046039048B0F8F80200F4007028B101203D
:104260008C49A1F838031AE0ADE08A48B0F8F802AA
:1042700000F4806020B102208649A1F838030EE0E6
:104280008448B0F8F80200F4006020B103208149AE
:10429000A1F8380303E000207E49A1F838037D48E7
:1042A00090F8F80200F0020020B101207949A1F84D
:1042B0003C0319E0774890F8F80200F0040020B1C0
:1042C00002207449A1F83C030EE0724890F8F8020D
:1042D00000F0080020B103206E49A1F83C0303E080
:1042E00000206C49A1F83C036A48B0F8FA0200F4D7
:1042F000007020B101206749A1F8400319E065482A
:10430000B0F8FA0200F4806020B102206149A1F8FF
:1043100040030EE05F48B0F8FA0200F4006020B1FC
:1043200003205C49A1F8400303E000205949A1F8AB
:104330004003584890F8FA0200F0020020B1012032
:104340005449A1F8440319E0524890F8FA0200F0E9
:10435000040020B102204F49A1F844030EE04D486B
:1043600090F8FA0200F0080020B103204949A1F8B2
:10437000440303E000204749A1F844034548B0F84E
:10438000FC0200F4007020B101204249A1F848036A
:1043900019E04048B0F8FC0200F4806020B102202F
:1043A0003C49A1F848030EE03A48B0F8FC0200F49A
:1043B000006020B103203749A1F8480303E0002042
:1043C0003449A1F848033348B0F89202B0B93148F3
:1043D000B0F86C022F49B1F86E1288420EDD002051
:1043E0002C49A1F86C02A1F86E0201202B4908703B
:1043F0002849B1F86C1288010BF085F92548B0F80E
:10440000F40010B90020284908702248B0F8E600EE
:10441000022807D100201F49A1F8C000A1F8C2005E
:10442000A1F84C01214840782149097888427DD083
:104430001E4840781E4908701E480078401C1D49DF
:10444000087008460078142870DD002008700024E9
:10445000002600271848407808B144F40064174843
:10446000407850B91648007848B10A48B0F8C00200
:104470000849898EB0EB211F01DD44F480641148A6
:10448000407820B10D48407808B944F400740A48D7
:10449000807819E016040020470000207E000020EC
:1044A0007A06002094000020D10000202A0000207D
:1044B00048010020490100203A000020C7000020E8
:1044C000D2000020C100002008B144F00804FD48DB
:1044D000807850B9FC48007848B1FC48B0F8C20276
:1044E000FA49C98EB0EB211F01DD44F00404F848FD
:1044F000807820B1F348807808B944F00204F54888
:10450000C07808B146F40066EE48C07850B9EE486D
:10451000007848B1ED48B0F8C402EC49098FB0EB1F
:10452000211F01DD46F48066E94800E0FEE3C07823
:1045300020B1E448C07808B946F40076E54800792F
:1045400008B146F00806DF48007950B9DE48007827
:1045500048B1DE48B0F8C602DC49498FB0EB211FF4
:1045600001DD46F00406DA48007920B1D54800792B
:1045700008B946F00206D748407908B147F4006709
:10458000D048407950B9D048007848B1CF48B0F809
:10459000C802CE49898FB0EB211F01DD47F4806747
:1045A000CB48407908B147F40077CB48407928B927
:1045B000C548007810B9C948007808B147F4807739
:1045C000C248A0F8A842A0F8AA62A0F8AC720024E1
:1045D00000260027A146C248007808B144F40044F0
:1045E000C048007808B144F48044BF48007808B15E
:1045F00044F40054BD48007808B144F48054BC48E9
:10460000007808B144F48064BA48007808B144F4F2
:104610000074B948007808B144F08004B7480078C5
:1046200008B144F04004B648007810B9B5480078A5
:1046300008B144F02004B448007808B144F01004F4
:10464000B248007808B144F00804A04890F880050A
:1046500000F0040088B99D4890F8BE0500F0040001
:1046600058B99A4890F8FC0500F0040028B997481A
:1046700090F83A0600F0040008B144F00404A4489D
:10468000007808B144F002048F48007808B144F083
:104690000104A048007808B146F400569E4800780E
:1046A00008B146F480569D48007808B146F480660B
:1046B0009B48007808B146F480769A48007808B1A3
:1046C00046F080069848007808B146F010069748F2
:1046D000007828B97D4890F8820500F0040008B100
:1046E00046F004069248007808B146F00206914868
:1046F000007808B146F001068F48007808B147F409
:1047000000478E48007808B147F480478C4800780D
:1047100008B147F400578B48007808B147F4805738
:104720008948007808B147F010078848007808B138
:1047300047F00807654890F8C00500F0040008B18C
:1047400047F00407614890F8FE0500F0040008B146
:1047500047F002075D4890F83C0600F0040008B1FD
:1047600047F001077A48007808B149F400497948D0
:10477000007808B149F480497748007808B149F4D5
:1047800000597648007808B149F480594F48A0F89C
:10479000AE42A0F8B062A0F8B272A0F8B492554848
:1047A0000078E8BB56480078D0BB57480078B8BBC3
:1047B00056480078A0BB5148007888BB5D48007817
:1047C00070BB4D48007858BB404890F8800500F019
:1047D000040028BB3D4890F8BE0500F00400F8B97D
:1047E0003A4890F8FC0500F00400C8B9374890F842
:1047F0003A0600F0040098B95448007880B935486A
:10480000407868B93348807850B93248C07838B9B0
:104810003048007920B94A48007808B9494800E092
:1048200004E0007810B94848007840B12748B0F853
:10483000560020B101202549A1F86A0503E00020B7
:104840002249A1F86A0546480179407900EBC00287
:1048500002EB001001EB80001C49A1F8E002404887
:1048600080783F49C97801EBC10202EB011100EBEE
:1048700081001649A1F8E20239480178407800EB3E
:10488000C00202EB001001EB80001049A1F8E40225
:104890000846B0F8A80200F4807018B10120A1F811
:1048A0004A0303E000200949A1F84A03074890F8A9
:1048B000A80200F0010020B101200449A1F84E0334
:1048C00054E04FE0C7000020D20000201604002072
:1048D000C10000203A00002040000020E500002038
:1048E000D7000020DA000020E8000020D8000020D7
:1048F000EE000020DF000020ED000020D6000020A8
:10490000D500002055000020D0000020D400002059
:10491000D1000020E7000020F4000020E900002082
:10492000DD000020DC000020DB000020EB00002088
:10493000EC000020DE000020E1000020E20000206A
:104940004A0000204B0000205A0000205B0000209D
:104950005600002057000020580000205900002079
:10496000C40300200020FE49A1F84E03FC48B0F823
:10497000AA0200F4807020B10120F949A1F8520385
:1049800003E00020F649A1F85203F54890F8AA0286
:1049900000F0010020B10120F149A1F8560303E025
:1049A0000020EF49A1F85603ED48B0F8AC0200F43E
:1049B000807020B10120EA49A1F85A0303E00020E9
:1049C000E749A1F85A03E648B0F8A80200F40070DD
:1049D00020B10120E249A1F84C0319E0E048B0F809
:1049E000A80200F4806020B10220DD49A1F84C0348
:1049F0000EE0DB48B0F8A80200F4006020B103200C
:104A0000D749A1F84C0303E00020D549A1F84C0395
:104A1000D34890F8A80200F0020020B10120D0494C
:104A2000A1F8500319E0CE4890F8A80200F0040065
:104A300020B10220CA49A1F850030EE0C84890F8FE
:104A4000A80200F0080020B10320C549A1F85003D6
:104A500003E00020C249A1F85003C148B0F8AA02FF
:104A600000F4007020B10120BD49A1F8540319E001
:104A7000BB48B0F8AA0200F4806020B10220B84917
:104A8000A1F854030EE0B648B0F8AA0200F40060A2
:104A900020B10320B249A1F8540303E00020B0493B
:104AA000A1F85403AE4890F8AA0200F0020020B129
:104AB0000120AB49A1F8580319E0A94890F8AA02CF
:104AC00000F0040020B10220A549A1F858030EE02F
:104AD000A34890F8AA0200F0080020B10320A049E2
:104AE000A1F8580303E000209D49A1F858039C4811
:104AF000B0F8AC0200F4007020B101209849A1F890
:104B00005C0319E09648B0F8AC0200F4806020B174
:104B100002209349A1F85C030EE09148B0F8AC0282
:104B200000F4006020B103208D49A1F85C0303E08C
:104B300000208B49A1F85C038948B0F86201E8B312
:104B40000020884908708848807888490978884218
:104B500066D0854880788549087000255EE08449E4
:104B6000681C095C834A105C084440B305F2AF102E
:104B70007B4931F81000401C81B205F2AF10784A31
:104B800022F81010114631F810003C2844DB0021B7
:104B900005F2AF1022F81010680000F5DA70114627
:104BA00031F81000401C81B2680000F5DA7022F87C
:104BB0001010680000F5DA70114601E031E02BE0DA
:104BC00031F810003C2827DB0021680000F5DA707E
:104BD00022F81010680000F2B510114631F81000EC
:104BE000401C81B2680000F2B51022F81010624833
:104BF0000068401C60490860680000F2B51011466A
:104C000031F810004FF6FF71884205DB0021680083
:104C100000F2B51022F81010681CC5B2052D9EDBFD
:104C200018E04F48B0F86201A0B94E48007888B942
:104C3000002507E0002105F2AF10494A22F81010C4
:104C4000681CC5B20F2DF5DB012046490870002015
:104C500049490860484800884149A1F8C8044648C5
:104C60000068000CA1F8CA04444800784449097857
:104C7000084408B33C4880784249097888421BD0F0
:104C8000394880783F4908703F480088401C3E49B9
:104C90000880084600880A280EDD6420394908701B
:104CA0000020394908800320384908701E224FF43B
:104CB000027137480AF07EFE3648007801280DD18F
:104CC000002034490870DFF898A05046B0F8A202DE
:104CD0005146B1F8A0122AF8110009E0DFF880A0CF
:104CE0005046B0F8A0023AF810005146A1F8A202CE
:104CF000294800881A49A1F89C0327484088A1F850
:104D00009E0325488088A1F8A0032348C088A1F805
:104D1000A20321480089A1F8A4031F484089A1F8F3
:104D2000A6031D488089A1F8A80300E003E01A4803
:104D3000C089A1F8AA03BDE8F08710B500210020C2
:104D4000164B1B780BB14B1CD9B2154B1B780BB112
:104D50004B1CD9B2134B1B780BB14B1CD9B223E0BF
:104D600016040020010100202A000020400100203C
:104D7000C1000020C700002050010020C802002010
:104D8000C90200203C0100203E0100207E000020DE
:104D90007407002049000020CE030020D20000202C
:104DA000D1000020D6000020FE4B1B780BB14B1C1D
:104DB000D9B2FD4B1B780BB14B1CD9B2FB4B1B7806
:104DC00033B1FB4BB3F8F430012B01D14B1CD9B2FA
:104DD000F84B1B780BB14B1CD9B2F74B1B780BB1BE
:104DE0004B1CD9B2F54B1B780BB14B1CD9B2F44B11
:104DF0001B780BB14B1CD9B2F24B1B780BB14B1C7F
:104E0000D9B2F14B1B780BB14B1CD9B2EF4B1B78CD
:104E10000BB14B1CD9B2EE4B1B780BB14B1CD9B26A
:104E2000EC4B1B780BB14B1CD9B2EB4B1B780BB185
:104E30004B1CD9B2E94B1B780BB14B1CD9B2E84BD8
:104E40001B780BB14B1CD9B2E64B1B780BB14B1C3A
:104E5000D9B2E54B1B780BB14B1CD9B2E34B1B7895
:104E60000BB14B1CD9B2E24B1B780BB14B1CD9B226
:104E7000E04B1B780BB14B1CD9B2CD4BA3F83212CF
:104E800019B90023CA4CA4F83032DB4B1B78D3B1DC
:104E9000DA4B5B78DA4C2478A34214D0D74B5B789A
:104EA000D74C2370D74B1B885B1CD64C23802346E2
:104EB0001B88642B07DD6423D14C23700023D14C65
:104EC0002380CD4C2370CC4B1B78002B7ED1CE4B56
:104ED0001B785B1CCC4C237023461B78182B01DD00
:104EE000012323700122B14B1B7843B1B04BB3F8BF
:104EF000F430012B03D1C44B1B78012B67D0C34B7B
:104F00001B781BB1C04B1B78022BF7D0C04B1B7812
:104F10001BB1BD4B1B78032BF0D0A24B1B781BB1F0
:104F2000B94B1B78042BE9D0A34B1B781BB1B64BB4
:104F30001B78052B4BD09C4B1B781BB1B24B1B78BD
:104F4000062B7AD0B34B1B781BB1AF4B1B78072BCA
:104F500073D0984B1B781BB1AB4B1B78082B6CD0D4
:104F6000964B1B781BB1A84B1B78092B65D0944B33
:104F70001B781BB1A44B1B780A2B5ED0954B1B787A
:104F80001BB1A14B1B780B2B57D08E4B1B781BB141
:104F90009D4B1B780C2B50D08B4B1B781BB19A4B25
:104FA0001B780D2B49D08C4B1B781BB1964B1B7873
:104FB0000E2B42D0854B1B781BB1934B1B780F2BCC
:104FC0003BD0834B1B7833B18F4B01E03EE034E0A4
:104FD0001B78102B31D0814B1B781BB18A4B1B786F
:104FE000112B2AD07E4B1B781BB1874B1B78122BC1
:104FF00023D07C4B1B781BB1834B1B78132B1CD00D
:10500000794B1B781BB1804B1B78142B15D0784B38
:105010001B781BB17C4B1B78162B0ED0754B1B7865
:105020001BB1794B1B78172B07D0704B1B781BB12A
:10503000754B1B78152B00D000223AB1724B1B78B0
:105040005B4CA4F8303201236B4C23700020724B70
:105050001B780BB1431CD8B2704B1B780BB1431CAF
:10506000D8B26F4B1B780BB1431CD8B26D4B1B7879
:105070000BB1431CD8B26C4B1B780BB1431CD8B29C
:105080006A4B1B780BB1431CD8B2694B1B780BB130
:10509000431CD8B2674B5B780BB1431CD8B2654B4D
:1050A0009B780BB1431CD8B2624BDB780BB1431C2D
:1050B000D8B2604B1B790BB1431CD8B25D4B5B7906
:1050C0000BB1431CD8B25C4B1B780BB1431CD8B25C
:1050D0005A4B1B780BB1431CD8B2594B1B780BB100
:1050E000431CD8B2574B1B780BB1431CD8B2564B5C
:1050F0001B780BB1431CD8B2544B1B780BB1431C2B
:10510000D8B2534B1B780BB1431CD8B2514B1B7810
:105110000BB1431CD8B2504B1B780BB1431CD8B217
:10512000334B1B7833B1224BB3F87C32012B01D1C6
:10513000431CD8B22E4B1B7833B11D4BB3F87E32D3
:10514000012B01D1431CD8B2294B1B7833B1184B2A
:10515000B3F88032012B01D1431CD8B2244B1B7809
:1051600033B1134BB3F88232012B01D1431CD8B2B7
:105170003A4B1B780BB1431CD8B2394B1B780BB19F
:10518000431CD8B2374B1B780BB1431CD8B2364BFB
:105190001B780BB1431CD8B2344B1B7803B167E0CA
:1051A00068E00000D3000020D5000020D0000020DF
:1051B00016040020D7000020D4000020D8000020D2
:1051C000E7000020DB000020DC000020DE000020E3
:1051D000DF000020DA000020DD000020E0000020D9
:1051E000E3000020E4000020E10000208E00002009
:1051F000E5000020E60000202B0100202A0000200E
:1052000027010020280100202A010020D1000020D1
:10521000D2000020D6000020E8000020E20000209C
:10522000E9000020EC000020F4000020EA0000204B
:10523000ED0000203A000020EB000020F1000020EB
:10524000F3000020CB020020CC020020CD02002081
:10525000CE020020CF020020EE0000206B000020D4
:105260006C0000206D0000206E0000204B0000202C
:10527000431CD8B2FE4B1B780BB1431CD8B2FD4B7C
:105280001B780BB1431CD8B2FB4B1B780BB1431CF2
:10529000D8B2FA4B93F8803503F040030BB1431CAE
:1052A000D8B2F64B93F8BE3503F040030BB1431C64
:1052B000D8B2F24B93F8FC3503F040030BB1431C1A
:1052C000D8B2EE4B93F83A3603F040030BB1431CCF
:1052D000D8B2EA4B93F8803503F004030BB1431CBA
:1052E000D8B2E64B93F8BE3503F004030BB1431C70
:1052F000D8B2E24B93F8FC3503F004030BB1431C26
:10530000D8B2DE4B93F83A3603F004030BB1431CDA
:10531000D8B2DA4B93F8823503F004030BB1431C87
:10532000D8B2D64B93F8C03503F004030BB1431C3D
:10533000D8B2D24B93F8FE3503F004030BB1431CF3
:10534000D8B2CE4B93F83C3603F004030BB1431CA8
:10535000D8B2CB4B1B780BB1431CD8B2C94B1B78CE
:105360000BB1431CD8B2C84B1B780BB1431CD8B24D
:10537000C64B1B780BB1431CD8B2C54B1B780BB185
:10538000431CD8B2BD4BB3F89631012B01D1431C5D
:10539000D8B2BA4BA3F82E0251B1BE4B1B783BB921
:1053A000B64BB3F82E325B1CB44CA4F82E3204E09A
:1053B00018B90023B14CA4F82C32B74B1B78D3B1E9
:1053C000B64B5B78B64C2478A34214D0B34B5B78D1
:1053D000B34C2370B34B1B885B1CB24C2380234619
:1053E0001B88642B07DD6423AD4C23700023AD4C78
:1053F0002380A94C2370A84B1B78002B7ED1AA4B8D
:105400001B785B1CA84C237023461B783D2B01DDC9
:1054100001232370012231B19E4B1B781BB9A24B93
:105420001B78012B6BD0A14B1B781BB19E4B1B78BB
:10543000022BF7D09E4B1B781BB19B4B1B78032B89
:10544000F0D09C4B1B781BB1974B1B78042BE9D0F9
:10545000994B1B781BB1944B1B78052BE2D0974BD3
:105460001B781BB1904B1B78062BDBD0894B1B782C
:105470001BB18D4B1B78072BD4D0914B5B781BB1A4
:10548000894B1B78082BCDD08D4B9B781BB1864B5D
:105490001B78092BC6D08A4BDB781BB1824B1B785B
:1054A0000A2BBFD0864B1B791BB17F4B1B780B2B74
:1054B000B8D0834B5B791BB17B4B1B780C2BB1D0E5
:1054C000804B1B781BB1784B1B780D2BAAD07E4BE1
:1054D0001B781BB1744B1B780E2BA3D07B4B1B7816
:1054E0001BB1714B1B780F2B9CD0794B1B781BB1D8
:1054F0006D4B1B78102B95D0764B01E08DE19EE033
:105500001B781BB1684B1B78122B8BD0724B1B780E
:105510001BB1654B1B78132B84D0704B1B781BB1D0
:10552000614B1B78142B84D06D4B1B781BB15E4BE9
:105530001B78152B84D06B4B1B781BB15A4B1B78F7
:10554000162B7CD0684B1B781BB1574B1B78172B45
:1055500075D0664B1B7843B1484BB3F87C32012BB6
:1055600003D1514B1B78182B69D0604B1B7843B18A
:10557000424BB3F87E32012B03D14B4B1B78192BD6
:105580005DD05A4B1B7843B13C4BB3F88032012BB2
:1055900003D1454B1B781A2B51D0544B1B7843B188
:1055A000364BB3F88232012B03D13F4B1B781B2BB8
:1055B00045D04F4B1B781BB13B4B1B781C2B3ED06F
:1055C0004C4B1B781BB1384B1B781D2B37D04A4BEB
:1055D0001B781BB1344B1B781E2B30D0474B1B78EC
:1055E0001BB1314B1B781F2B29D0244B93F88035EE
:1055F00003F040031BB12C4B1B78262B1FD01F4BF5
:1056000093F8BE3503F040031BB1274B1B78272BC3
:1056100015D01A4B93F8FC3503F040031BB1224B15
:105620001B78282B0BD0154B93F83A3603F0400328
:105630001BB11D4B1B78292B01D0104B00E086E0DD
:1056400093F8803503F004031BB1174B1B782A2B0A
:105650007DD00A4B93F8BE3503F004031BB1124B07
:105660001B782B2B73D0054B93F8FC3548E00000DA
:105670004A0000205A0000205B0000201604002091
:105680005500002056000020570000205800002040
:1056900059000020EA0000202C0100202A000020F0
:1056A000230100202401002026010020E800002022
:1056B000E2000020E9000020EC000020F4000020BF
:1056C0003A000020EB000020ED000020F100002057
:1056D000F3000020CB020020CC020020CD020020ED
:1056E000CE020020CF020020EE000020E5000020C6
:1056F0006B0000206C0000206D0000206E00002078
:1057000003F004031BB1F84B1B782C2B7CD0F74B18
:1057100093F83A3603F004031BB1F34B1B782D2B9F
:1057200072D0F24B93F8823503F004031BB1EE4BB9
:105730001B782E2B68D0ED4B93F8C03503F0040393
:105740001BB1E94B1B782F2B5ED0E84B00E05BE0F0
:1057500093F8FE3503F004031BB1E34B1B78302BA9
:1057600052D0E24B93F83C3603F004031BB1DE4BFE
:105770001B78312B48D0DE4B1B781BB1DA4B1B78E2
:10578000322B41D0DB4B1B781BB1D74B1B78332B13
:105790003AD0D94B1B781BB1D34B1B78342B33D069
:1057A000D64B1B781BB1D04B1B78352B2CD0D44B50
:1057B0001B781BB1CC4B1B78372B25D0D14B1B78DA
:1057C0001BB1C94B1B78382B1ED0CF4B1B781BB19C
:1057D000C54B1B78392B17D0CC4B1B781BB1C24B58
:1057E0001B783A2B10D0CA4B1B781BB1BE4B1B78D1
:1057F0003B2B09D0BD4BB3F89631012B03D1BA4BEB
:105800001B783C2B00D000223AB1B74B1B78B74C29
:10581000A4F82C320123BF4C237010BD10B500201A
:105820000021BD4B1B680BB1431CD8B2BA4B1B1FE8
:105830001B680BB1431CD8B2B84B1B680BB1431C9F
:10584000D8B2B54B1B1D1B680BB1431CD8B2A74B7C
:10585000A3F8CA0318B90023A44CA4F8CE33B04B64
:105860001B78D3B1AF4B5B78AF4C2478A34214D0F4
:10587000AC4B5B78AC4C2370AC4B1B885B1CAB4CCB
:10588000238023461B88642B07DD6423A64C2370EA
:105890000023A64C2380A24C2370A14B1B78002B25
:1058A00033D1A34B1B785B1CA14C237023461B7880
:1058B000042B01DD012323700122974B1B681BB1D0
:1058C0009B4B1B78012B17D0934B1B1F1B681BB1E5
:1058D000974B1B78022B0FD0904B1B681BB1944B3E
:1058E0001B78032B08D08C4B1B1D1B681BB1904BE6
:1058F0001B78042B00D000223AB18D4B1B787B4CD7
:10590000A4F8CE330123864C2370844B0C331B68E0
:105910000BB94B1CD9B2814B10331B680BB94B1C14
:10592000D9B2724BA3F8CC1319B900236F4CA4F869
:10593000D033804B1B78D3B17A4B5B787E4C247884
:10594000A34214D0774B5B787B4C23707B4B1B8836
:105950005B1C7A4C238023461B88642B07DD642361
:10596000754C23700023754C2380724C2370714B4F
:105970001B782BBB724B1B785B1C714C237023462E
:105980001B78022B01DD012323700122634B0C33B2
:105990001B681BB96A4B1B78012B08D05F4B103377
:1059A0001B681BB9664B1B78022B00D000223AB152
:1059B000634B1B784D4CA4F8D03301235D4C23700E
:1059C00010BD6048007820BB53480068B8B15E48FD
:1059D00001880088401C5C4A10804448B0F8D2001E
:1059E00081423ADD0020114608805848007840F096
:1059F0000100564908700120524908702DE05248B4
:105A00000088002829DD50480088401E4E49088043
:105A100023E041480068B8B94B4801880088401C21
:105A2000494A10803148B0F8D200814215DD00208B
:105A3000114608804548007800F0FE004349087090
:105A400000204049087008E03F480088002804DD35
:105A50003D480088401E3C4908803D48007828BBEE
:105A60002D48001F0068B8B13A4801880088401CE2
:105A7000384A10801D48B0F8D200814275DD002000
:105A8000114608803148007840F002002F49087024
:105A900001202F49087068E02E480088002864DD46
:105AA0002C480088401E2B4908805EE01A48001FE1
:105AB0000068B8B9274801880088401C254A108032
:105AC0000A48B0F8D20081424FDD0020114608801C
:105AD0001E48007800F0FD001C49087000201C4999
