:020000040800F2
:1000000070310020E1270008319F0008339F00086D
:10001000379F00083B9F00083F9F0008000000003A
:10002000000000000000000000000000439F0008E6
:10003000459F000800000000479F0008499F0008F6
:10004000FB270008FB270008FB270008FB27000808
:10005000FB270008FB270008FB270008FB270008F8
:1000600057A40008FB270008FB270008FB2700080F
:10007000FB270008FB270008FB270008FB270008D8
:10008000FB270008FB270008FB270008FB270008C8
:10009000FB270008FB270008FB27000873A40008C3
:1000A000FB270008FB270008FB270008FB270008A8
:1000B000FB270008FB270008FB270008FB27000898
:1000C000FB270008FB270008FB270008FB27000888
:1000D000FB270008CDA000087FA100081DA2000892
:1000E000FB270008FB270008FB270008FB27000868
:1000F000FB270008FB270008FB270008FB27000858
:10010000FB270008FB270008FB270008FB27000847
:10011000D3A20008FB270008FB270008FB270008E4
:10012000FB270008FB270008FB270008FB27000827
:1001300000F002F800F062F80AA090E8000C824497
:100140008344AAF10107DA4501D100F057F8AFF274
:10015000090EBAE80F0013F0010F18BFFB1A43F0A5
:100160000103184774300200943002000A444FF033
:10017000000C10F8013B13F0070408BF10F8014B06
:100180001D1108BF10F8015B641E05D010F8016B4B
:10019000641E01F8016BF9D113F0080F1EBF10F8AF
:1001A000014BAD1C0C1B09D16D1E58BF01F801CBD2
:1001B000FAD505E014F8016B01F8016B6D1EF9D555
:1001C0009142D6D37047000000230024002500266A
:1001D000103A28BF78C1FBD8520728BF30C148BFAA
:1001E0000B607047642920F0CB80782920F00481CF
:1001F000002070471FB51FBD10B510BD20F09AFA42
:100200001146FFF7F7FF02F015FD20F0B8FA03B42E
:10021000FFF7F2FF03BC02F003FB00000CB5002067
:10022000019000906C48006840F480306A49086092
:1002300000BF6948006800F4003000900198401C3D
:100240000190009818B90198B0F5A06FF1D16248FB
:10025000006800F4003010B10120009001E000209F
:1002600000900098012843D15C48006840F01000DD
:100270005A4908600846006820F0030008600846F4
:10028000006840F0020008605348406852494860E6
:100290000846406848600846406840F4806048600E
:1002A0000846406820F47C1048600846406840F4E6
:1002B000E81048600846006840F08070086000BFA1
:1002C0004548006800F000700028F9D042484068B6
:1002D00020F00300404948600846406840F00200B2
:1002E000486000BF3C48406800F00C000828F9D185
:1002F0000CBD10B5FFF792FF10BD10B53648006871
:1003000040F001003449086008464068344908401C
:100310003149486008460068324908402E49086063
:100320000846006820F4802008600846406820F4F1
:10033000FE0048604FF41F008860FFF7DAFF4FF0BF
:1003400000602949086010BD10B50021002000227E
:10035000214B5B6803F00C0121B1042906D0082968
:1003600028D107E0214B224C236027E01F4B204C73
:10037000236023E0184B5B6803F47010164B5B6836
:1003800003F48032022303EB904022B9194B43431C
:10039000174C23600DE0104B5B6803F4003323B16E
:1003A000144B4343124C236003E0104B4343104C67
:1003B000236003E00D4B0E4C236000BF00BF064BD3
:1003C0005B68C3F303130C4CE15C094B1B68CB4027
:1003D000074C236010BD00000010024000200240C6
:1003E0000000FFF8FFFFF6FE08ED00E000127A00C3
:1003F0000000002000093D0004000020DF480068E4
:1004000040F00100DD49086008464068DC490840CA
:10041000DA49486008460068DA490840D749086068
:100420000846006820F4802008600846406820F4F0
:10043000FE0048604FF41F0088607047CF4909688C
:1004400021F48031CD4A11601146096821F48021E0
:100450001160B0F5803F03D0B0F5802F0ED106E0DB
:10046000C649096841F48031C44A116007E0C349B4
:10047000096841F4A021C14A116000E000BF00BF3B
:10048000704710B501460022002300204A11012ABE
:1004900002D1BA4C236806E0022A02D1B74C236A83
:1004A00001E0B64C636A01F01F02012494401C4035
:1004B0000CB1012000E0002010BD38B500200090F4
:1004C0000024002500BF3120FFF7DBFF0546009820
:1004D000401C00900098B0F5A06F01D0002DF2D024
:1004E0003120FFF7CEFF08B1012400E000242046B0
:1004F00038BD01460020A14A106820F0F80040EA0B
:10050000C10010607047A049086070470246002093
:100510009A4B586820F47C1042EA01031843974B29
:100520005860704798490866704701460020934A12
:10053000506820F003000843506070478F484068BF
:1005400000F00C007047014600208C4A506820F0F3
:10055000F00008435060704701460020874A506809
:1005600020F4E06008435060704701460020834A51
:10057000506820F4605040EAC1005060704729B1D3
:100580007E4A527A02437D4B5A7204E07B4A527A89
:1005900082437A4B5A7270477B49D8310860704762
:1005A00001460020754A506820F4404008435060DE
:1005B00070470021714A20321170704A82F8201071
:1005C000012802D004280AD104E001216B4A20321C
:1005D000117005E00521694A2032117000E000BF6A
:1005E00000BF70476949086070476449096A014360
:1005F000624A11627047654944390860704730B5F6
:1006000000210022002400235C4D6D6805F00C01E0
:1006100021B1042905D0082923D105E05C4D0560EE
:1006200022E05B4D05601FE0544D6D6805F47012CB
:10063000524D6D6805F48034022505EB92421CB9D9
:10064000544D554305600BE04C4D6D6805F4003585
:100650001DB1504D5543056002E04D4D55430560B9
:1006600002E04B4D056000BF00BF444D6D6805F0D2
:10067000F0010909484D6B5C0568DD4045603F4D60
:100680006D6805F4E061090A434D6B5C4568DD4027
:1006900085603A4D6D6805F46051C90A3E4D6B5C4A
:1006A0004568DD40C560354D6D6805F44041890BF6
:1006B0003A4D6B5CC568B5FBF3F5056130BD29B1FA
:1006C0002E4A526902432D4B5A6104E02B4A52696B
:1006D00082432A4B5A61704729B1284A92690243E2
:1006E000264B9A6104E0254A92698243234B9A6122
:1006F000704729B1214AD2690243204BDA6104E0F4
:100700001E4AD26982431D4BDA61704729B11B4AE8
:10071000D2680243194BDA6004E0184AD268824377
:10072000164BDA60704729B1144A12690243134B21
:100730001A6104E0114A12698243104B1A61704732
:1007400012494039086070470F49C86470470B4927
:10075000C87170470948406A40F080700749486294
:10076000704701460020054A92680A400AB10120FC
:1007700000E0002070470149887270470010024075
:100780000000FFF8FFFFF6FE0000424280044242F4
:1007900000127A0000093D0014000020240000200F
:1007A00031490143314A1160704770B5002100237F
:1007B0000F22C47804B32D4C246804F4E064C4F51B
:1007C000E064210AC1F10403CA40447804FA03F149
:1007D0008478144021430901254C0678A1550478FA
:1007E00004F01F050124AC4005786D11AD0005F142
:1007F000E025C5F8004109E0047804F01F05012454
:10080000AC401C4D0678761145F8264070BD1A4A5A
:100810000A400243154B1B1F1A60704739B1134A37
:10082000121D12680243114B1B1D1A6006E00F4A8D
:10083000121D126882430D4B1B1D1A60704704285D
:1008400008D14FF0E021096941F004014FF0E022A6
:10085000116107E04FF0E021096921F004014FF038
:10086000E0221161704700000000FA050CED00E085
:1008700000E400E080E100E080FFFF1F10B50446C7
:10088000CC48844208D101210420FFF73FFF00211A
:100890000420FFF73BFF46E0C748844208D101210E
:1008A0000820FFF733FF00210820FFF72FFF3AE071
:1008B000C248844208D101211020FFF727FF002100
:1008C0001020FFF723FF2EE0BD48844208D101210C
:1008D0002020FFF71BFF00212020FFF717FF22E059
:1008E000B848844208D101214020FFF70FFF0021C2
:1008F0004020FFF70BFF16E0B348844208D10121E6
:100900008020FFF703FF00218020FFF7FFFE0AE0B1
:10091000AE48844207D101218015FFF7F7FE002180
:10092000A015FFF7F3FE10BD10B501210846FFF733
:10093000EDFE00210120FFF7E9FE10BD2DE9F04199
:10094000024600250026002000230024002791F8FD
:1009500003C00CF00F0591F803C00CF0100CBCF1B3
:10096000000F03D091F802C04CEA050591F800C0D1
:10097000BCF1000F31D0146800202BE04FF0010CC7
:100980000CFA00F3B1F800C00CEA03069E4220D135
:1009900083004FF00F0C0CFA03F7BC4305FA03FC7D
:1009A0004CEA040491F803C0BCF1280F06D14FF0C3
:1009B000010C0CFA00FCC2F814C00AE091F803C064
:1009C000BCF1480F05D14FF0010C0CFA00FCC2F845
:1009D00010C0401C0828D1D31460B1F800C0BCF18D
:1009E000FF0F34DD546800202EE000F1080C4FF0BA
:1009F000010808FA0CF3B1F800C00CEA03069E42A5
:100A000021D183004FF00F0C0CFA03F7BC4305FA19
:100A100003FC4CEA040491F803C0BCF1280F05D193
:100A200000F1080C08FA0CF8C2F8148091F803C021
:100A3000BCF1480F07D100F1080C4FF0010808FA8B
:100A40000CF8C2F81080401C0828CED35460BDE8D2
:100A5000F0814FF6FF710180022181700421C17085
:100A600070470246002093680B400BB1012000E064
:100A7000002070470146886880B270470246002017
:100A8000D3680B400BB1012000E000207047014605
:100A9000C86880B2704701617047416170470AB110
:100AA000016100E041617047C16070474FF48032DE
:100AB0000A4382618161826182698269704702466C
:100AC0000020434B18684FF68073184040EA02102C
:100AD00008433F4B186070473E49C8617047F0B506
:100AE0000A46002300240021002500F00046B6F14C
:100AF000004F02D1364EF16901E0354E7168C0F306
:100B0000034583B200F44016B6F5401F08D121F02A
:100B100070612F4E766826F070662D4F7E6012E071
:100B200000F48016B6F5801F06D1032606FA05F4F8
:100B3000A14341F0706106E0460D360103FA06F666
:100B4000B14341F0706122B1460D360103FA06F659
:100B5000314300F00046B6F1004F02D11C4EF16166
:100B600001E01B4E7160F0BD30B500228B071C0FF9
:100B70000F2303FA04F2164B08338C1053F8243079
:100B80009343134C08348D1044F8253023468C10C1
:100B900053F824308C07240F00FA04F423430C4C40
:100BA00008348D1044F8253030BD0A49DC31086026
:100BB0007047000000080140000C01400010014097
:100BC0000014014000180140001C014000200140B9
:100BD000000001400000204210B50446FB4884425A
:100BE00009D101218803FFF791FD00214FF48040D6
:100BF000FFF78CFD32E0F648844209D10121480418
:100C0000FFF791FD00214FF40030FFF78CFD25E048
:100C1000F048844209D101218804FFF784FD0021B6
:100C20004FF48020FFF77FFD18E0EB48844209D1A4
:100C30000121C804FFF777FD00214FF40020FFF7E2
:100C400072FD0BE0E548844208D101210805FFF759
:100C50006AFD00214FF48010FFF765FD10BD2DE9FE
:100C6000F04786B005460E460024A24600BFA146C6
:100C70000027B08900B100BF2F462C8A4CF6FF70C8
:100C80000440F08804432C82AC894EF6F3100440F3
:100C9000B08831890843718908430443AC81AC8A28
:100CA0004FF6FF400440B0890443AC8201A8FFF72F
:100CB000A6FCC648874202D1DDF810A001E0DDF8AD
:100CC0000CA0A88900F4004040B10AEBCA0000EB78
:100CD0000A1031684900B0FBF1F807E00AEBCA00DE
:100CE00000EB0A1031688900B0FBF1F86420B8FB12
:100CF000F0F004012009642101FB1089A88900F4A7
:100D0000004040B1322000EBC900B0FBF1F000F030
:100D10000700044308E0322000EB09106421B0FB17
:100D2000F1F000F00F0004432C8106B0BDE8F0871D
:100D30004FF41651016000218180C18001810C2196
:100D4000418100218181704710B502460020108A40
:100D50004FF2FF0318400B884C8823438C882343B1
:100D6000CC8823431843108210BD002101804180AC
:100D70008180C180704721B1828942F40052828112
:100D800004E082894DF6FF731A4082817047F0B506
:100D90000346002400260025002040F66A17B942C9
:100DA00000D100BF1846C1F3421401F01F0601270D
:100DB00007FA06F5012C01D10C3004E0022C01D118
:100DC000103000E014301AB107682F43076002E0CA
:100DD0000768AF430760F0BD1AB1838A0B43838273
:100DE00002E0838A8B4383827047028A4FF6F07356
:100DF0001A400282028A0A430282704782894FF2B5
:100E0000FF731A40828182890A438281704721B12F
:100E1000828942F00202828104E082894FF6FD73EA
:100E20001A4082817047028A4FF6DF731A400282AD
:100E3000028A0A430282704721B1028A42F4804248
:100E4000028204E0028A4BF6FF731A400282704766
:100E5000C1F308028280704701468888C0F3080009
:100E60007047818941F0010181817047028BD2B2C4
:100E70000283028B42EA012202837047028B02F452
:100E80007F420283028B0A430283704721B1828A28
:100E900042F02002828204E0828A4FF6DF731A4019
:100EA0008282704721B1828A42F01002828204E07D
:100EB000828A4FF6EF731A408282704721B1828A8C
:100EC00042F00802828204E0828A4FF6F7731A40E9
:100ED0008282704721B1828942F40042828103E01C
:100EE0008289C2F30E028281704721B1828A42F464
:100EF0000062828204E0828A4FF2FF731A4082828B
:100F00007047828A4FF6FB731A408282828A0A43B4
:100F10008282704721B1828A42F00202828204E01A
:100F2000828A4FF6FD731A40828270470246002083
:100F3000B1F5007F00D100BF13880B400BB1012039
:100F400000E00020704701F40072B2F5007F00D18C
:100F500000BFCA430280704770B5024600240023D8
:100F60000025002040F66A16B14200D100BFC1F34F
:100F7000421501F01F03012606FA03F3012D02D1E9
:100F80009689334006E0022D02D1168A334001E0F3
:100F9000968A33400C12012606FA04F4168834406F
:100FA00013B10CB1012000E0002070BD10B500228B
:100FB000002340F66A14A14200D100BF0A120124A6
:100FC0009440A3B2DC43048010BD0000003801400F
:100FD0000044004000480040004C004000500040E9
:100FE00001460020FE4A106800F0380008431060F7
:100FF0007047FB49096821F00801F94A1160114660
:101000000968014311607047F549096821F0100132
:10101000F34A116011460968014311607047F148B5
:10102000EF494860F04848607047EE48EC49486036
:10103000ED4848607047EA48006940F08000E849A0
:1010400008617047E648006940F08000E4490861A3
:1010500070470420E249C96801F0010109B101208B
:101060000EE0DF49C96801F0040109B1022007E080
:10107000DB49C96801F0100109B1032000E0042038
:10108000704700B502460423FFF7E3FF034603E081
:10109000FFF7DFFF0346521E012B01D1002AF7D1D3
:1010A00002B90523184600BD30B5044604254FF4A7
:1010B0003020FFF7E6FF0546042D17D1C848006928
:1010C00040F00200C649086108464461006940F0EA
:1010D000400008614FF43020FFF7D3FF0546C048B9
:1010E000006941F6FD710840BD490861284630BDE0
:1010F00010B504244FF43020FFF7C3FF0446042C3E
:1011000016D1B748006940F00400B54908610846A7
:10111000006940F0400008614FF43020FFF7B1FF54
:101120000446AF48006941F6FB710840AC490861CC
:10113000204610BD00B502460423FFF78AFF034690
:1011400003E0FFF786FF0346521E012B01D1002A60
:10115000F7D102B90523184600BD10B504244FF499
:101160003020FFF7E7FF0446042C16D19C480069A5
:1011700040F004009A4908610846006940F04000C8
:1011800008614FF43020FFF7D5FF0446944800690A
:1011900041F6FB71084092490861204610BD0020CD
:1011A0008F49C96901F0020109B1012000E0002066
:1011B000704730B5A5250424FFF7F1FF00B10025E5
:1011C0004FF43020FFF75DFF0446042C3AD18548E8
:1011D00083498860844888600846006940F02000A0
:1011E00008610846006940F0400008614FF4302073
:1011F000FFF747FF0446042C1BD17948006941F6EC
:10120000DF710840764908610846006940F0100027
:10121000086176480580E002FFF733FF0446052C9D
:1012200010D06F48006941F6EF7108406C490861C1
:1012300008E0052C06D06A48006941F6EF710840C5
:1012400067490861204630BD78B506460C4604253E
:1012500000200090E802FFF714FF0546042D24D17A
:101260005F48006940F001005D4908613480E80290
:10127000FFF707FF0546042D10D1B01C0090200C8D
:1012800000990880E802FFF7FCFE05465448006913
:1012900041F6FE7108405249086106E05048006975
:1012A00041F6FE7108404E490861284678BD70B588
:1012B00004460D460426F002FFF7E3FE0646042E20
:1012C00011D14748006940F0010045490861258077
:1012D000F002FFF7D6FE06464148006941F6FE716E
:1012E00008403F490861304670BD70B505460E465E
:1012F0000424E002FFF7C5FE0446042C17D1394848
:1013000037498860384888600846006940F0100016
:1013100008612E80E002FFF7B4FE0446052C06D0DB
:101320002F48006941F6EF7108402D4908612046B9
:1013300070BD2DE9F04304464FF6FF763746B046C0
:10134000B1460425E443E6B2C4F30727C4F30748D3
:101350004FEA1469E802FFF794FE0546042D49D1CF
:1013600020481F498860204888600846006940F08E
:1013700010000861FF2E06D01C4808300680E802E5
:10138000FFF77FFE0546042D08D1FF2F06D0174832
:101390000A300780E802FFF774FE0546042D0AD1E3
:1013A000B8F1FF0F07D011480C30A0F80080E80218
:1013B000FFF767FE0546042D0AD1B9F1FF0F07D0EC
:1013C0000A480E30A0F80090E802FFF75AFE0546E2
:1013D000052D0FD00248006941F6EF71084007E083
:1013E0000020024023016745AB89EFCD00F8FF1FC5
:1013F000664908612846BDE8F08330B505460424F7
:101400004FF43020FFF73DFE0446042C41D16048E4
:101410005E4988605F4888600846006940F02000A7
:1014200008610846006940F0400008614FF4302030
:10143000FFF727FE0446042C22D15448006941F6E8
:10144000DF710840514908610846006940F010000A
:1014500008611DB100205049088002E0A5204E49D6
:1014600008804FF43020FFF70CFE0446052C10D006
:101470004648006941F6EF7108404449086108E0B8
:10148000052C06D04148006941F6DF7108403F490C
:101490000861204630BDF0B505460E4617460424C7
:1014A0003B483A4988603B488860E002FFF7E9FD25
:1014B0000446042C19D13548006940F01000334926
:1014C000086147F0F800304328433349891C0880FD
:1014D000E002FFF7D6FD0446052C06D02B48006934
:1014E00041F6EF710840294908612046F0BD2748C0
:1014F000C069800870472548006A7047002023496A
:10150000096801F0200109B1012000E000207047C6
:1015100029B11E4A126902431C4B1A6104E01B4A9E
:1015200012698243194B1A61704701460020012954
:1015300008D1164AD26902F001020AB1012008E07E
:10154000002006E0114AD2680A400AB1012000E0FA
:10155000002070470D49C860704704200B49C968D6
:1015600001F0010109B101200EE00849C96801F04C
:10157000040109B1022007E00449C96801F0100123
:1015800009B1032000E00420704700000020024061
:1015900023016745AB89EFCD00F8FF1F10B5044666
:1015A000BE48844208D101218014FFF7AFF8002122
:1015B000A014FFF7ABF816E0B948844208D1012126
:1015C0000014FFF7B0F800212014FFF7ACF80AE090
:1015D000B448844207D10121C013FFF7A4F80021C9
:1015E000E013FFF7A0F810BD10B50022028802F446
:1015F00041520B884C8823438C882343CC88234357
:101600000C8923434C8923438C892343CC8923436E
:101610001A430280838B4FF2FF74234083830B8A2B
:10162000038210BD2DE9F04F85B005460C464FF002
:10163000000902274FF000084FF0010B0026B246C8
:10164000A88B4FF240010840A88302202884B5F8F7
:101650001C90A068022801D100BF38E0A08810B912
:101660004FF0010B01E04FF0020B8D48854200D195
:1016700000E000BF6846FEF7C2FFDDF800A0E0888A
:10168000B0F5007F0AD14FEA1A2000EB800040003D
:10169000A168B0FBF1F0401D86B20BE04FEA4B10A1
:1016A000BAFBF0F000EB80004000A168B0FBF1F065
:1016B000401D86B20A20B6FBF0F606F00108A6EB44
:1016C0000800C0F34F074FF6FF7000EA0828022F0A
:1016D00001DBFF2F02DD02274FF00008E08840EA1F
:1016E000080038432884A088A189084361880843FA
:1016F0002188084340F4006040EA0909A5F81C90DD
:1017000005B0BDE8F08F0021018041808180C1805B
:10171000018141818181C1810721018270470021BE
:10172000018041808180C18002218160002181810E
:10173000704721B1028842F04002028004E0028832
:101740004FF6BF731A400280704721B1828B42F47A
:101750008062828304E0828B4FF6FF331A408283DB
:10176000704730B5002400230C110125A540ABB211
:101770001AB185881D43858002E085889D43858058
:1017800030BD1AB183880B43838002E083888B438A
:1017900083807047818170470146888970474FF682
:1017A000FF62914204D0028842F48072028004E019
:1017B00002884FF6FF631A400280704721B1828889
:1017C00042F00402828004E082884FF6FB731A40E4
:1017D0008280704702884FF2FF731A4002800288AD
:1017E0000A4302807047018841F4805101807047AC
:1017F00021B1028842F40052028004E002884DF6D2
:10180000FF731A400280704702460020012901D070
:10181000108B00E0908A70470146088A7047B1F546
:10182000804F04D1028842F48042028004E00288A2
:101830004BF6FF731A40028070470246002013895E
:101840000B400BB1012000E000207047CA43028129
:101850007047F0B50246002000240023002501F067
:101860000F070126BE40B4B20B1101269E40B3B251
:10187000968806EA03051689264016B10DB10120A7
:1018800000E00020F0BD10B5002201F00F0401239C
:10189000A3409AB2D343038110BD00000030014041
:1018A00000380040003C004010B50446FE48844229
:1018B00008D10121C014FEF729FF0021E014FEF732
:1018C00025FFC4E0B4F1804F08D101210846FEF79E
:1018D0002AFF00210120FEF726FFB8E0F3488442EA
:1018E00008D101210220FEF71EFF00210220FEF791
:1018F0001AFFACE0EE48844208D101210420FEF733
:1019000012FF00210420FEF70EFFA0E0E948844208
:1019100008D101210820FEF706FF00210820FEF76C
:1019200002FF94E0E448844208D101211020FEF730
:10193000FAFE00211020FEF7F6FE88E0DF48844220
:1019400008D101212020FEF7EEFE00212020FEF725
:10195000EAFE7CE0DA48844208D101214014FEF717
:10196000D5FE00216014FEF7D1FE70E0D548844218
:1019700009D10121C804FEF7C9FE00214FF400205F
:10198000FEF7C4FE63E0D048844209D10121080576
:10199000FEF7BCFE00214FF48010FEF7B7FE56E0C4
:1019A000CA48844209D101214805FEF7AFFE002153
:1019B0004FF40010FEF7AAFE49E0C548844208D162
:1019C00001214020FEF7AFFE00214020FEF7ABFED4
:1019D0003DE0C048844208D101218020FEF7A3FEEB
:1019E00000218020FEF79FFE31E0BB48844208D1F1
:1019F00001218015FEF797FE0021A015FEF793FE4A
:101A000025E0B648844209D101210804FEF77EFE94
:101A100000214FF48030FEF779FE18E0B048844290
:101A200009D101214804FEF771FE00214FF4003076
:101A3000FEF76CFE0BE0AB48844208D1012188041C
:101A4000FEF764FE00214FF48020FEF75FFE10BD1C
:101A500000220288944B98420ED0994B98420BD0AA
:101A6000B0F1804F08D0914B984205D0904B9842EE
:101A700002D0904B984204D14FF68F731A404B8896
:101A80001A438D4B984207D08C4B984204D04FF6A6
:101A9000FF431A40CB881A4302808B8883850B88CA
:101AA0000385814B98420BD0854B984208D08B4BD5
:101AB000984205D08A4B984202D08A4B984201D175
:101AC0000B7A038601238382704770B500240022BD
:101AD0000023058C4FF6FE7635400584028C838802
:101AE000048B4FF68F752C40B51E2C400D882C436F
:101AF000751E2A400D892A434D882A436A4DA84203
:101B00000BD06F4DA84208D0744DA84205D0744D3B
:101B1000A84202D0734DA84213D14FF6F7752A4060
:101B20004D892A434FF6FB752A408D882A434FF68C
:101B3000FF652B404FF6FF552B408D892B43CD89F8
:101B40002B4383800483CD888586028470BD70B565
:101B5000002400220023058C4FF6EF7635400584E3
:101B6000028C8388048B48F6FF752C404FF6FF45A6
:101B70002C400D884FF6FF7606EA05252C434FF6DC
:101B8000DF752A400D8906EA05152A434D8806EAC5
:101B900005152A43444DA84202D0494DA8421DD103
:101BA0004FF67F752A404D894FF6FF7606EA0515F8
:101BB0002A434FF6BF752A408D8806EA05152A4349
:101BC0004FF6FF352B404FF2FF752B408D8906EA0B
:101BD00085052B43CD8906EA85052B438380048345
:101BE000CD880587028470BD70B5002400220023D3
:101BF000058C4FF6FF6635400584028C8388848B04
:101C00004FF68F752C404FF6FC752C400D882C43F9
:101C10004FF6FF552A400D894FF6FF7606EA052557
:101C20002A434D8806EA05252A431F4DA84202D0C3
:101C3000234DA8421DD14FF2FF752A404D894FF622
:101C4000FF7606EA05252A434FF6FF352A408D88A0
:101C500006EA05252A434EF6FF752B404DF6FF7523
:101C60002B408D8906EA05152B43CD8906EA05151B
:101C70002B4383808483CD888587028470BD70B5B3
:101C8000002200230024058C4EF6FF7635400584A3
:101C9000038C8488828B48F6FF752A404FF6FF45F7
:101CA0002A400D8820E00000002C01400004004084
:101CB00000080040000C00400010004000140040EC
:101CC00000340140004C01400050014000540140EC
:101CD00000180040001C004000200040004001406F
:101CE00000440140004801404FF6FF7606EA052512
:101CF0002A434DF6FF752B400D8906EA05352B4327
:101D00004D8806EA05352B43FA4DA84202D0FA4D1C
:101D1000A84208D14BF6FF752C408D894FF6FF760F
:101D200006EA85152C4384808283CD88A0F8405034
:101D3000038470BD828B4FF2FF331A408283828B03
:101D40004FF6FF7303EA01231A4382837047F0B50D
:101D50000C461546002200210026078C4EF6FF7C1B
:101D600007EA0C070784828B018C4FF6FF7707EA9E
:101D7000043640F6FF473A404FF6FF7707EA05275B
:101D80003A434FF6FF7707EA03373A43D94FB84251
:101D90000ED0D94FB8420BD0B0F1804F08D0D74FFA
:101DA000B84205D0D64FB84202D0D64FB84206D17D
:101DB0004DF6FF77394046F48057394305E047F642
:101DC000FF57394044F48057394382830184F0BD82
:101DD000828B4FF6F3731A408283828B0A4382838D
:101DE0007047F0B50C461546002200210026078CEE
:101DF0004FF6FF6C07EA0C070784828B018C4FF6C5
:101E0000FF7707EA04264FF60C773A404FF6FF7744
:101E100007EA03172F433A43B64FB8420ED0B64FE6
:101E2000B8420BD0B0F1804F08D0B44FB84205D0C3
:101E3000B34FB84202D0B34FB84206D14FF6FF5766
:101E4000394046F48077394305E04FF2FF57394077
:101E500044F48077394382830184F0BD028B4FF2D2
:101E6000FF331A400283028B4FF6FF7303EA01230C
:101E70001A4302837047F0B50C4615460022002134
:101E80000026078C4FF6EF7C07EA0C070784028BCD
:101E9000018C4FF6FF7707EA041640F6FF473A40F9
:101EA0004FF6FF7707EA03373A434FF6FF7707EA23
:101EB00005273A438F4FB8420ED08F4FB8420BD010
:101EC000B0F1804F08D08D4FB84205D08C4FB8424A
:101ED00002D08C4FB84206D14FF6DF77394046F03A
:101EE0001007394305E04FF65F77394044F010079B
:101EF000394302830184F0BD028B4FF6F3731A401D
:101F00000283028B0A4302837047F0B50C461546E4
:101F100000220021068C4FF6FE773E400684028B9D
:101F2000018C4FF60C7632407E1C06EA03162E43D7
:101F30003243704EB0420ED06F4EB0420BD0B0F173
:101F4000804F08D06D4EB04205D06D4EB04202D0E9
:101F50006C4EB04206D14FF6FD76314044F001069A
:101F6000314305E04FF6F576314044F00106314348
:101F700002830184F0BD70B505460C465D4885427C
:101F80000ED05D4885420BD0B5F1804F08D05B483C
:101F9000854205D05A48854202D05A48854200D130
:101FA00000E000BF208850B92389A28861882846B4
:101FB000FFF7ABFFE1882846FFF79EFF25E020886A
:101FC00004280AD12389A28861882846FFF753FF95
:101FD000E1882846FFF742FF17E0208808280AD149
:101FE0002389A28861882846FFF7FBFEE1882846FE
:101FF000FFF7EEFE09E02389A28861882846FFF7F3
:10200000A6FEE1882846FFF795FE70BD2DE9F04158
:1020100005460C4600260127608808B9022600E024
:102020000026A088012801D1022700E0012720888E
:10203000A0B92389A28861882846FFF766FFE18856
:102040002846FFF759FF23893A4631462846FFF7CD
:1020500012FFE1882846FFF701FF13E02389A288D9
:1020600061882846FFF707FFE1882846FFF7F6FE5C
:1020700023893A4631462846FFF747FFE18828463C
:10208000FFF73AFFBDE8F0810A884B881A438B8836
:102090001A43CB881A430B891A434B891A438B89FD
:1020A0001A43A0F8442070474FF6FF718180002149
:1020B0000180C18041800172704700210180418010
:1020C0008180C180018141818181C181704700216E
:1020D00001804180012181800021C1800181704700
:1020E0000021018041808180C18001814181818105
:1020F00070470000002C0140003401400004004003
:1021000000080040000C004021B1028842F00102AA
:10211000028004E002884FF6FE731A400280704786
:1021200031B1B0F8442042F40042A0F8442005E068
:10213000B0F84420C2F30E02A0F8442070471AB150
:1021400083890B43838102E083898B4383817047BA
:102150008182704741EA0203A0F8483070471AB103
:1021600083890B43838102E083898B43838170479A
:1021700001894FF6F8721140018170470A4600212B
:1021800001894FF68F73194011430181704730B5B3
:1021900004460D4629462046FFF7F0FF208940F00F
:1021A0000700208130BD2DE9F04104460D4616465A
:1021B0001F46602D06D13B46012231462046FFF7DF
:1021C0005AFE05E03B46012231462046FFF79DFEC0
:1021D00029462046FFF7D2FF208940F007002081E2
:1021E000BDE8F08130B50C4600210189C9B24FF637
:1021F000FF7505EA0325154325432943018130BDB9
:102200002DE9F04105460E46174698460024434600
:102210003A4631462846FFF7E5FF2C894FF6F8701D
:10222000044044F007044FF68F70044044F07004FB
:102230002C81BDE8F081F0B504460D4616461F46D8
:102240003B46324629462046FFF7CCFF208940F422
:1022500080402081F0BD0185828270470A460021BE
:1022600001884FF68F731940114301807047F0B514
:102270000C4615461E460021002200230189028BD0
:10228000038C4FF6F877394021434FF6FC473A402C
:1022900040F201173A434FF6DD773B404FF6FF77A8
:1022A00007EA06172F433B43018102830384F0BDF5
:1022B0000A460021018B4FF68F73194011430183A9
:1022C00070470A460021018B48F6FF7319404FF60C
:1022D000FF7303EA02231943018370470A46002172
:1022E000818B4FF68F7319401143818370470A46E3
:1022F0000021818B48F6FF7319404FF6FF7303EA04
:10230000022319438183704721B1028842F0800281
:10231000028004E002884FF67F731A400280704703
:1023200021B1828842F00402828004E082884FF664
:10233000FB731A408280704721B1828842F0080204
:10234000828004E082884FF6F7731A4082807047DB
:1023500021B1828842F00102828004E082884FF637
:10236000FE731A40828070470A460021018B4FF6A7
:10237000F77319401143018370470A460021018B0E
:102380004FF2FF7319404FF6FF7303EA022319431C
:10239000018370470A460021818B4FF6F77319407D
:1023A0001143818370470A460021818B4FF2FF73EE
:1023B00019404FF6FF7303EA0223194381837047E4
:1023C0000A460021018B4FF6FB731940114301832C
:1023D00070470A460021018B4FF6FF3319404FF634
:1023E000FF7303EA02231943018370470A46002161
:1023F000818B4FF6FB7319401143818370470A4666
:102400000021818B4FF6FF3319404FF6FF7303EA2B
:1024100002231943818370470A460021018B4FF63E
:102420007F7319401143018370470A460021018BD5
:10243000C1F30E014FF6FF7303EA02231943018330
:1024400070470A460021818B4FF67F731940114374
:10245000818370470A460021818BC1F30E014FF63C
:10246000FF7303EA02231943818370470A46002160
:10247000018C4FF6FD7319401143018470470A46E1
:102480000021018C4FF6F773194011430184704706
:102490000A460021018C4FF6DF7319404FF6FF7397
:1024A00003EA02131943018470470A460021018C94
:1024B0004FF67F7319404FF6FF7303EA0213194377
:1024C000018470470A460021018C4FF6FF531940E2
:1024D0004FF6FF7303EA02231943018470470A464B
:1024E0000021018C4FF2FF7319404FF6FF7303EA8E
:1024F00002231943018470470A460021018C4DF6DE
:10250000FF7319404FF6FF7303EA02331943018446
:10251000704730B5002301248C40A3B2048C9C4347
:102520000484048C02FA01F5ADB22C43048430BD5E
:1025300030B5002304248C40A3B2048C9C43048453
:10254000048C02FA01F5ADB22C43048430BD70B5A1
:102550000346002000241846183001258D40ACB2F7
:102560001D8CA5431D8409B1082909D100EB610028
:10257000056825F0700505600568154305600EE0E7
:102580000D1FC5F34E052844056825F4E045056098
:1025900005684FF6FF7606EA02263543056070BDF2
:1025A00021B1028842F00202028004E002884FF664
:1025B000FD731A400280704721B1028842F0040284
:1025C000028004E002884FF6FB731A4002807047D5
:1025D00021B1828842F08002828004E082884FF636
:1025E0007F731A408280704702884FF6F7731A4053
:1025F000028002880A430280704782884FF68F73F8
:102600001A40828082880A438280704702894FF68E
:10261000F8731A40028102890A43028170470289D5
:102620004FF67F731A40028102890A430281704784
:102630008184704781857047818670470187704724
:1026400081877047A0F84010704702884FF6FF431B
:102650001A40028002880A43028070470146888E31
:1026600070470146088F70470146888F70470146C2
:10267000B1F8400070470146888C70470146088DCC
:10268000704702460020138A0B400BB1012000E086
:1026900000207047CA430282704730B502460020CE
:1026A00000230024158A05EA0103958905EA01043F
:1026B00013B10CB1012000E0002030BDCA430282FA
:1026C00070470000002044490860091D0860091D8A
:1026D0000860091D086041483F491431086070478F
:1026E00000213D498279002A3AD00A4612680368DF
:1026F0009A430B461A600A1D126803689A430B1D21
:102700001A60027911440A6803681A430A60324A5F
:102710000832126803689A432F4B08331A601A1D57
:10272000126803689A432C4B0C331A604279102AC2
:102730000ED11A1F126803681A43274B08331A6018
:102740001A1D126803681A43234B0C331A600DE0FC
:102750002149427911440A6803681A430A6005E076
:10276000027911440A6803689A430A60704700219D
:10277000016001710C21417100218171704716497E
:10278000103109680143144A103211607047014644
:102790000020114A143212680A400AB1012000E0F8
:1027A000002070470C491431086070470146002032
:1027B0000022094B1B6803EA0102074B14331B6814
:1027C0000B4013B10AB1012000E00020704702491C
:1027D000143108607047000000040140FFFF0F0043
:1027E0000948804709480047FEE7FEE7FEE7FEE7A5
:1027F000FEE7FEE7FEE7FEE7FEE7FEE704480549E1
:10280000054A064B70470000FB0200083101000832
:10281000702B002070310020702D0020702D0020C2
:10282000014600BF70474AF6AA20F7490860704782
:1028300010B500214FF00060FDF7E9FF4FF4C060D4
:10284000FDF7AEFF2720F1490870002048700120F5
:102850008870C8700846FDF7A8FF2620EB4908706D
:1028600000204870022088700120C8700846FDF7DB
:102870009CFF2520E54908700020487003208870DF
:102880000120C8700846FDF790FF3420DF4908702A
:102890000020487088700120C8700846FDF785FF49
:1028A0000320DA4908700120487000208870012058
:1028B000C8700846FDF779FF10BD704710B54FF09E
:1028C0008040FEF7F1FF40F6FF70D149888000207C
:1028D0000880C880087248804FF08040FFF7B8F841
:1028E0007020CC4908800120488000208880C88062
:1028F00002200881002048814FF4807088810020E8
:10290000C8814FF08040FFF722F901218807FFF7C7
:10291000FBFB0120BE498880472008800020C8803A
:1029200010204880BC48FFF793F810BD08B501217E
:10293000BA48FEF7D4F84FF44240ADF80000032047
:102940008DF8020014208DF803006946B448FDF7A5
:10295000F5FF4FF47470ADF8000003208DF802000D
:1029600014208DF803006946AE48FDF7E7FF49F2F1
:102970008010ADF8000003208DF8020014208DF8BF
:1029800003006946A848FDF7D9FF02208DF8020030
:102990000420ADF8000014208DF803006946A1481A
:1029A000FDF7CCFF0120ADF8000002208DF80200F9
:1029B00010208DF8030069469948FDF7BFFF0120FC
:1029C0009A4908603020ADF8000002208DF802001E
:1029D00004208DF8030069469348FDF7AFFF82207D
:1029E000ADF8000002208DF8020004208DF80300ED
:1029F00069468B48FDF7A2FF2020ADF800000220B9
:102A00008DF8020004208DF8030069468548FDF723
:102A100095FF46F20800ADF8000002208DF8020094
:102A200004208DF8030069467E48FDF787FF0320E8
:102A3000ADF800008DF8020010208DF80300694603
:102A40007948FDF77BFF0420ADF800008DF8030006
:102A500003208DF8020069467548FDF76FFF40209E
:102A6000ADF8000004208DF8030003208DF802006B
:102A700069466D48FDF762FF4FF44050ADF8000025
:102A800010208DF8030003208DF802006946644889
:102A9000FDF754FF4FF41040ADF8000010208DF802
:102AA000030002208DF8020069465E48FDF746FFEC
:102AB0004FF480515A48FDF7F0FF4FF40051584849
:102AC000FDF7EBFF4FF400415648FDF7E4FF4FF4EC
:102AD00080515448FDF7DFFF4FF40060ADF800006F
:102AE00010208DF8030003208DF8020069464E483F
:102AF000FDF724FF4FF400614B48FDF7CCFF4FF486
:102B00008070ADF8000004208DF8030003208DF8DC
:102B1000020069464248FDF711FF0120ADF80000B0
:102B200002208DF8020004208DF8030069463D481C
:102B3000FDF704FF0220ADF800008DF80200102020
:102B40008DF8030069463748FDF7F8FE0221354845
:102B5000FDF7A3FF3820ADF8000003208DF8020038
:102B600018208DF8030069462D48FDF7E7FE402048
:102B7000ADF8000003208DF8020010208DF803004E
:102B800069462748FDF7DAFE40212548FDF783FF17
:102B900008BD10B501213D20FDF79EFD01218803F0
:102BA000FDF79AFD01214804FDF7A3FD01218804EA
:102BB000FDF79FFD0121C804FDF79BFD012108469B
:102BC000FDF797FD01210220FDF793FD0121084645
:102BD000FDF775FD01214802FDF77EFD0121C803C7
:102BE000FDF787FD10BD014648F6A04005E000E076
:102BF000401E0028FCD148F6A0400A1EA1F10103A6
:102C000099B2F4D170470000003000406C00002001
:102C1000920F00209C0F00200004004000023000B2
:102C2000000C014000100140000801408081214259
:102C300000140140FFF7ADFFFFF778FE4FF49670E8
:102C4000FFF7D1FFFFF7A5FFFFF770FEA449481E6D
:102C5000B0F1807F00D31BE0481E4FF0E0225061AE
:102C600050170F22002807DA13071D0E9D4B00F0A6
:102C70000F04241F1D5503E013071C0E9A4B1C5410
:102C800000BF00204FF0E02290610720106100BFDC
:102C9000FFF714FE07F00AFC1DF090F900F04CF964
:102CA00000F06DF900F09EFAFFF707FE01F0F9F968
:102CB00001F0EDFE02F0E5FB06F0CBFB1AF096FC0E
:102CC000FFF7B6FD1DF07AF94FF400618748FDF774
:102CD000E2FE1AF0EFFD864908600968086880473F
:102CE000834909688868804707F0C6FD01F0FAF853
:102CF0000120804908704FF4487019F07CFD19F0EC
:102D00009FFB00F015F900207B4988844FF47A700E
:102D10007A4908807848C088012804D14FF4FA70B5
:102D20007749088010E07448C08868B97248408DBF
:102D3000012803D1C8207249088005E06E48408D03
:102D400010B900206E49088002216E48FDF7A3FEED
:102D50008CE000F047FA00F006FF00F071FB00F095
:102D6000BDF900F049FB01F0C5FA01F0BEF901F030
:102D7000C0FA02F014FB01F095FE02F026F905F00E
:102D800072F803F033FC04F0CDF907F0B2F806F066
:102D900078FB06F028FF5848808CB8B95648203098
:102DA00000F0704000F1007053492031C1F313016D
:102DB00000EB4110006848B14F48C088012801D19C
:102DC00008F045FA07F09AFD08F000F94A48808CAF
:102DD000012801D108F047FD08F041FCFFF723FD71
:102DE0004948008C012802DB01F0FAF800E000BF3E
:102DF0004648007820B909F06CFA01204349087070
:102E000042480078012831D117F044FC18F0CBFE7D
:102E10003948223000F0704000F10070364922310C
:102E2000C1F3130100EB41100068F8B13848007895
:102E3000032803DB364800781B2802DB06F073F812
:102E40000EE03448007848B93348007830B9334848
:102E5000007818B932480088642801DB06F063F86E
:102E600030480078022801D102F0DAFB71E745F220
:102E700055522D4B1A601A46506091604AF6AA22AC
:102E80001A604CF6CC421A6070477047704731B5F3
:102E9000BDF8004001212548FFF736F921462348B7
:102EA000FFF7C6FB03E02148FFF7E5FB0446012CD2
:102EB000F9DC00211D48FFF727F938BD31B50024A2
:102EC00005E04FF47A70FFF7E2FF601C84B2BDF8B2
:102ED00000008442F5DB38BDC2684A40C2607047DA
:102EE0004019010018ED00E000E400E00008014096
:102EF00000020020BA0000200A0D00204C02002031
:102F00004A020020001001402E070020700000201F
:102F10000D0100200E0100200F010020B90100204A
:102F20000A010020F10000200030004000040040B1
:102F30007047014670477047D220FA49A1F89000C7
:102F400040F2E570A1F8920040F26640A1F89400CA
:102F50006D20A1F882000020F34908804FF47A70B8
:102F6000F249A1F85A01F2490880F2490880F24971
:102F70000880F24908800120F1490880704710B5A7
:102F800007F0B8FA64220021E64807F052FC07F087
:102F9000B1FA4FF490724FF48071EA4807F049FC9F
:102FA000E048808FDF49A1F864000846C08FA1F88F
:102FB00066000846B0F84800E3494843E349086022
:102FC000D84890F84A0040B20871D64890F84C00B2
:102FD0004871D44890F84E008871D24890F850005B
:102FE000C871D048B0F8520008B1012000E00020BC
:102FF000D6490872CB48B0F8540008B1012000E06F
:103000000020D2494872C748B0F8560008B10120E4
:1030100000E00020CD498872C248B0F8580008B1DD
:10302000012000E00020C949C872BE4890F85A004B
:103030000873BC48B0F85E000861BA48B0F8600098
:103040004861B84890F85C000876B648808AB5496F
:10305000A1F8A8000846C08AA1F8AA000846008B7B
:10306000A1F8AC000846408BA1F8AE0010BD2DE9D8
:10307000F04105460C461646FDF7D1FF3520FEF718
:1030800069FA2846FEF710F8002708E034F8028BAA
:103090002846AD1C4146FEF70AF9781C87B2B742B4
:1030A000F4DBFDF7C8FFBDE8F08110B5002305E0B3
:1030B00031F8024B20F8024B5C1CA3B29342F7DBC1
:1030C00010BD30B51346002405E011F8012B00F8BF
:1030D000012B651CACB29C42F7DB30BD10B59C489F
:1030E000007801281ED19B480078D8B900208D496E
:1030F000A1F8700007F0FEF964220021894807F06A
:1031000078FB4FF490724FF480718E4807F071FB9A
:1031100011208449A1F8700001208E490870002018
:103120008B4908707F48B0F8700041F288318842BE
:1031300003D08948408A88421CD186480078C8B9A3
:1031400000207849A1F8700007F0D4F9642200212A
:10315000744807F04EFB4FF490724FF48071794839
:1031600007F047FB41F288306E49A1F8700001205A
:10317000784908707948407879490978884230D090
:103180007448007868B37548407875490870754888
:103190000088401C734908800846008896280CDD8A
:1031A0006C480078012808D102206A49087041F271
:1031B00070705C49A1F8700013E06A480088B0F5AF
:1031C000967F0EDD6348007802280AD164206449A6
:1031D00008700020634908805E4908705149A1F8D1
:1031E000700010BD2DE9FF4700254E48B0F8700073
:1031F000B0F5FA6F0BD14B48B0F8720041F2E10123
:10320000884204D15848007808B9012538E045487B
:10321000C088B0F5FA6F0CDD42488088B0F5FA6FCF
:1032200007DD5148007820B902250120484908707F
:1032300026E03C48C08890B93A48808878B9394837
:10324000B0F84E0058B93748B0F8500038B9464881
:10325000007820B9032501203D49087010E031486D
:10326000808FB0F5614F0BDD2E48C08FB0F5614FF8
:1032700006DD3D48007818B904250120344908705E
:10328000002D4EDD002407E004F122002D49085CEA
:103290000DF80400601CC4B20B2CF5DB002407E021
:1032A0001DF8041004F12200264A1154601CC4B217
:1032B0000B2CF5DB1B48068D478DB0F82C80B0F841
:1032C000129032222949FFF7F0FE164806854785FD
:1032D000A0F82C80A0F81290012D04D140F2DF302C
:1032E000104948870CE0022D04D14FF478700D4945
:1032F000488705E0032D03D140F2E13009494887B2
:1033000000251348007898BB4FF4FA600549A1F8EE
:10331000700041F2E100A1F872000120124908702A
:1033200031E031E00A0D0020860000204603002035
:1033300052000020540000205600002058000020B9
:103340009E000020720E002040420F00E802002084
:1033500082000020800000202E0700202C03002087
:103360007D0000207E0000207C00002092260208C4
:10337000FFE70020FE4908704FF47A70FD49A1F87C
:103380007200FFF7ABFE00BFFB488078FB4909786D
:1033900088422FD0FA48007860B3F7488078F74920
:1033A0000870F8480088401CF649088008460088E4
:1033B00002280CDDF2480078012808D10220F049EB
:1033C000087041F27070EB49A1F8720012E0ED480C
:1033D000008804280EDDEA48007802280AD164201B
:1033E000E64908700020E7490880E5490870E1498E
:1033F000A1F87200BDE8FF87DE48B0F87000B0F5B4
:10340000FA6F1CD1DC488078DF490978884216D0F1
:10341000D9488078DC490870DC480088401CDB49CA
:10342000088008460088B0F5617F08DD6420D64931
:1034300008700020D54908800120D54908707047E0
:103440002DE9F84FCB48B0F84C000A281AD2DFE833
:1034500000F00507090B0D0F11131517CD4D13E0E3
:10346000CD4D11E0CD4D0FE0CD4D0DE0CD4D0BE03C
:10347000CD4D09E0CD4D07E0CD4D05E0CD4D03E04C
:10348000CD4D01E0CA4D00BF00BFBA48B0F85000B2
:10349000052810D2DFE800F00306080A0C004FF000
:1034A0007E560AE0C54E08E0C54E06E0C54E04E073
:1034B0004FF07C5601E0C24E00BF00BFAD49B1F8ED
:1034C0004E001EF019FF8246294650461EF028FF86
:1034D000834631461EF024FF8246A64890F84E10DF
:1034E0000120884084B220461EF006FF014600906D
:1034F00050461EF003FE8346B3491EF011FF82467C
:1035000050461EF0D9FE9B49A1F8840001F120002D
:1035100000F0704000F100702031C1F3130100EBA6
:103520004110406868B100229248223000F070409B
:1035300000F100708F492231C1F3130100EB4110FB
:1035400042608C48223000F0704000F100708949E0
:103550002231C1F3130100EB4110806868B10022F1
:103560008448223000F0704000F10070814922311F
:10357000C1F3130100EB4110C2607E48C088E8BB74
:10358000924800887B49A1F8B0009048408DA1F88E
:10359000B2008E48008CA1F8B4008C48008EA1F8CF
:1035A000B6008A48C08DA1F8B8008848408FA1F8BD
:1035B000C2008648808FA1F8BA008448B0F8400065
:1035C000A1F8BC008148B0F86A00A1F8BE007F48AD
:1035D000B0F86C00A1F8C0007D48B0F8B400A1F8C4
:1035E00000017B48B0F8B600A1F802017848B0F8B5
:1035F000B000A1F804017648808D00E009E0A1F850
:1036000006017348008EA1F808010846408AA1F817
:103610000A017048008800281CDD01206E490860FE
:10362000554840786D490978884213D0524840780F
:103630006A49087067480088401C66490880084647
:10364000008842F6E061884204DD0020614908807C
:10365000614908604FF0000800240DE004F180008B
:103660005F490F5C5F48005DB84203DB08F1010071
:103670001FFA80F8601C84B2042CEFDB4FF00009C5
:10368000002409E05848005D0A2803DB09F1010025
:103690001FFA80F9601C84B2042CF3DB3548223019
:1036A00000F0704000F1007032492231C1F3130183
:1036B00000EB4110406870B92E48223000F0704095
:1036C00000F100702B492231C1F3130100EB4110CE
:1036D000C06800284AD04548008808B1012000E0B1
:1036E0000020E8B14248007842490978084442493C
:1036F000097808444149097808444149097808444F
:10370000404909780844404448443F4909780844FE
:103710003E49097808443E4909780844002826DDD6
:10372000154880783B49097888421FD01248807834
:103730003849087038480088401C374908800846D6
:103740000088502812DD6420324908700020324978
:103750000880012240F2255124480C38FDF717FB60
:103760002248008840F00400204957E07BE077E0E1
:10377000800000200A0D00202C030020780000208B
:103780007C0000207A0000208100002084000020BE
:10379000820000209A99F940666626419A997941FB
:1037A0006666A6419A99F9416666264200007A4209
:1037B0000000FA4200007A430000FA43CDCC4C3FAF
:1037C000ABAA2A3F2549123F0000C842DE0B002069
:1037D0002E0700209E000020808121429C000020B6
:1037E000720E002034010020520100200C440040E1
:1037F00017010020180100209A010020B4010020C8
:10380000190100201A0100208C01002090010020E5
:1038100094010020900000209200002008800020E9
:10382000FE490870FE490870FE490870002404E053
:103830000020FD490855601C84B2042CF8DB0024EC
:1038400004E00020F9490855601C84B2042CF8DB20
:103850000120F749087040F6B83018F0CCFF02E0BC
:103860000020F4490880F24800781B281CD1F24857
:103870008078F2490978884216D0EF488078EF497D
:103880000870EF480088401CED4908800846008811
:10389000B0F5257F08DD002008800120E44908708C
:1038A00040F6B83018F0A7FFE14800781B281CD17B
:1038B000E1488078E3490978884216D0DE4880786C
:1038C000E0490870E0480088401CDF49088008464D
:1038D0000088B0F5257F08DD002008800120D4494C
:1038E000087040F6B83018F086FFD84890F8397064
:1038F00090F83A0000EB0720D549C887D34890F8E4
:103900003B00A1F84000D14890F83C00A1F84200EB
:10391000CE4890F83D00A1F84400CC4890F83E0015
:10392000A1F846000846C08FB1F8661088421FD142
:10393000C748B0F84000C649B1F86810884217D1AE
:10394000C348B0F84200C249B1F86A1088420FD1AA
:10395000BF48B0F84400BE49B1F86C10884207D1A6
:10396000BB48B0F84600BA49B1F86E1088421AD088
:10397000B748C08FB649A1F866000846B0F84000C5
:10398000A1F868000846B0F84200A1F86A000846AD
:10399000B0F84400A1F86C000846B0F84600A1F861
:1039A0006E0000F0E7FFAB480088B0F5967F19DDA8
:1039B000A748B0F88000082804DBA548B0F88000CC
:1039C00063280FD10020A3490880A348006820B1D4
:1039D0000020A1498031086012E001209E49803119
:1039E00008600DE09A48B0F88000082808DB984885
:1039F000B0F88000632803D0002097498031086028
:103A00008B480078112819DA0120944908609448FD
:103A10000088B0F5967F21DD0020914908808F480D
:103A20008C380068012804D100208C490C390860CA
:103A300014E0012089490C3908600FE07C480078C7
:103A400011280BDB7A4800781B2807DA002082490E
:103A50008031086001208349C1F8B00174480078C2
:103A60001B2842DB804800787F49497808447E491A
:103A7000897808447C49C978084490B97848008816
:103A8000322821DD0020764908807448803800689B
:103A900018B100207149086016E001206F490860E4
:103AA00012E06F480088B0F57A7F0DDD00206C4988
:103AB00008806A488038006818B1002067490860AB
:103AC00002E0012065490860684800886849098863
:103AD0000844002805DD4FF480516648FFF7FCF9E3
:103AE00003E001205D490C390860634800886349A0
:103AF00009880844002804DD20216148FFF7ECF91B
:103B000003E001205449783108604B4840785D4912
:103B10000978884224D051488C380068B8B94648A2
:103B200040785849087058480088401C5649088019
:103B300008460088B0F5FA6F12DD002008800120E9
:103B40003B49087040F6B83018F055FE08E04E4882
:103B50000088002804DD4C480088401E4A4908803F
:103B6000BDE8F88F70473A48C08FB0F5166F1CD08B
:103B70003748C08FB0F5965F17D03548C08FB0F585
:103B8000165F12D03248C08FB0F5964F0DD0304836
:103B9000C08FB0F5164F08D02D48C08FB0F5614FDB
:103BA00003D04FF416502A49C8872948008D0328AE
:103BB00002DB0020264908852548408D50B1244865
:103BC000408D012806D02248408D022802D00020D6
:103BD0001F4948851E48808D032803DA1C48808DC4
:103BE000012802DA02201A49888519480089B0F5AF
:103BF0007A7F02DB00201649088115484089B0F51C
:103C00007A7F02DB00201249488111488089B0F593
:103C10007A7F02DB00200E49888137E017010020FF
:103C2000180100209A0100203401002052010020D8
:103C30000D010020920000202C03002094000020A1
:103C400096000020980000209A000020720E0020AC
:103C50000A0D00208E0000201C812242BC0122425D
:103C6000880000200000224269010020DC000020C2
:103C7000DE00002000100140F6000020F8000020C7
:103C8000001401408A0000208C000020D548C08923
:103C9000B0F57A7F02DB0020D249C881D148B0F864
:103CA0004800892805DBCF48B0F84800B0F57F7F91
:103CB00004DD4FF4D970CB49A1F84800C948B0F8E9
:103CC0004A0014280DD0C748B0F84A00072804DB82
:103CD000C448B0F84A000E2803DD1420C149A1F8F9
:103CE0004A00C048B0F84C00092803DD0720BD4950
:103CF000A1F84C00BB48B0F84E00062804DBB948D8
:103D0000B0F84E000C2803DD0720B649A1F84E009C
:103D1000B448B0F85000012804DBB248B0F85000B5
:103D2000042803DD0220AF49A1F85000AD48B0F8E7
:103D30005200012803DD0120AA49A1F85200A94838
:103D4000B0F85400012803DD0020A649A1F8540072
:103D5000A448B0F85600012803DD0020A149A1F8CD
:103D60005600A048B0F85800012803DD00209D4906
:103D7000A1F858009B48B0F85E000A2806DB994875
:103D8000B0F85E0041F27071884204DD4FF47A7041
:103D90009449A1F85E009348B0F860000A2806DB59
:103DA0009048B0F8600041F27071884204DD4FF431
:103DB0007A708C49A1F860008A48C088012802DD29
:103DC00000208849C8808748C088012809D102207E
:103DD000844988800846008903280CDA032008817A
:103DE00009E08048C08830B97E488088032802DA1C
:103DF00003207C49888070477B4880783C283DDBE5
:103E00000020794988700846C078401CC870084670
:103E1000C078744988867448C0783C282EDB00201E
:103E20007149C87008460079401C0871084600793D
:103E30006C49C8866C48007918281FDB00206A4945
:103E4000087108464079401C487108464079654928
:103E50000887654840791E2810DD012062494871B5
:103E600008468079401C8871084680790C2805DD59
:103E7000012088710846C079401CC8715A48807872
:103E8000584948865848C078888657480079C88677
:103E90007047564A1268127803781A440379D21A86
:103EA000037A1A440A70514A1268527843781A40C9
:103EB00043795A40437A1A434A70827883795A4048
:103EC000837A5A40494B1B689B781A438A70474A49
:103ED0001268D278C378D21AC3791A44C37A1A40C6
:103EE000CA70704700B542484249086042480068BD
:103EF00080784249087040480068C07848703E4861
:103F00000068807988703C480068C079C8703A4879
:103F1000006800790871384800684079487136486F
:103F20000068807A887134480068C07AC871324865
:103F300000680078087230480068407848722E485F
:103F40000068007A88722C480068407AC8722C4950
:103F50002A48FFF79EFF2A4800782A49096809780D
:103F6000884218D12648407826490968497888420D
:103F700011D12348807823490968897888420AD179
:103F80001F48C0781F490968C978884203D10120B9
:103F90001D49087002E000201B49087000BDF8B5FB
:103FA00004460D466E460020184908800C21204624
:103FB00000F082F8009030782870707868700B48B4
:103FC00000688078A178484061784840A870074828
:103FD0000068C078E178484021784840E870F8BD32
:103FE000704700000A0D00202C030020B4000020C0
:103FF000FF001100AC000020A4000020AC0F002046
:10400000B0000020A8000020BA000020B800002066
:1040100008B54FF40070ADF8000003208DF80200E1
:1040200018208DF803006946FD48FCF787FC4FF423
:104030008060ADF8000003208DF8020004208DF8A8
:1040400003006946F648FCF779FC08BD1FB5F54842
:10405000FCF7C2FD6846FCF76BFE4FF41650F249C0
:10406000A1F81E010846B0F81E0100900020ADF82E
:104070000400ADF80600ADF80800ADF80C000C2007
:10408000ADF80A006946E748FCF7E9FD012240F275
:104090002551E448FCF77BFE0121E248FCF76BFE6A
:1040A0001FBD10B5FFF7B4FFFFF7D0FF0020DF49B9
:1040B0000880DF49088010BDF0B50246FF23FF24C9
:1040C0000025002009E012F8016B86EA0305D94EAD
:1040D000765D86EA0403D84E745D0E1EA1F10107D9
:1040E000F9B2F0D144EA0320F0BD2DE9F0410025FA
:1040F000CF48008800287CDDD0480078D049097876
:10410000884276D0CD480078CD490870CD480088E7
:10411000401CCC490880084600882328EBDD00229B
:1041200040F22551BF48FCF732FEC1480088C6491D
:1041300008800020C3490880C3480088C82871DC73
:10414000C248007802286ED1BF480078801EC1B2F4
:10415000BE48FFF7B1FF0446271204F0FF08BA4833
:104160000088801EB949085CB8427DD1B6480088F5
:10417000401E085C4045F8D10846407803287ED1AF
:10418000B3488478C07800EB0420B2490880084620
:10419000008842F21071884205DAA34EAD480088CB
:1041A00006EB40064CE0AB48008842F210718842B2
:1041B0000CDBA84800884900884207DAA64EA548CB
:1041C0000088A0EB610006EB400639E0A1480088BA
:1041D00044F62061884210DB9E48008847F2305147
:1041E00088420ADA9D4E9B480088A0F59C40203802
:1041F00000E06BE006EB400622E09648008847F2BC
:104200003051884210DB9348008849F6404188428B
:104210000ADA934E8F480088A0F5EA40303806EB62
:1042200040060DE048E045E08A48008849F64041F4
:10423000884205DB8B4E87480088401A06EB400613
:1042400000250EE0032000EB450080490C5C0420B3
:1042500000EB4500085C00EB042026F81500681C04
:10426000C5B27A49887801E022E008E000EBD0711D
:10427000B5EB610FE6DB0A207B4908701DE073484F
:104280004078062803D10B207749087015E06F4865
:104290004078102803D10C20734908700DE06B485A
:1042A0004078012802D17149087006E0012504E038
:1042B000022502E0032500E00425012240F22551F9
:1042C0005848FCF764FD002059490880002D0EDD98
:1042D000002404E000205D490855601C84B2142CC1
:1042E000F8DB012240F225514E48FCF750FDBDE8B5
:1042F000F0817047704770B504460D465C48007801
:10430000C0B94E4840785B490978884212D04B4882
:1043100040785849087058480088401C5649088021
:10432000084600880A2805DD012051490870002050
:10433000514908804E480078012835D102204C4967
:104340000870434908700320487020128870CC70B0
:10435000281208714D7106213D48FFF7ADFE47490F
:10436000088008460088001239498871434800785F
:10437000C87108204249088000202C49088001208B
:1043800039490870012240F226612648FCF7FFFCFB
:10439000264802880088401C244B18802C48815CE9
:1043A0002048FCF755FD8AE031480078022814D1F6
:1043B0002D4800780A2819D100202B4908702C4973
:1043C000087030490880304908703048007828B9B2
:1043D0002F480078401C2E49087070E02B48007868
:1043E00001286CD164202B49087068E0134840789C
:1043F00029490978884262D01048407826490870D7
:1044000020480088401C1F49088008460088502822
:1044100055DD002008801D480078F8BB01203EE0F3
:10442000000801400038014046030020BE00002083
:10443000BC000020F6260208F62702082C03002004
:10444000CD000020CE000020C00000208010002001
:10445000B80F00204C0000202E070020160B002073
:10446000DE0B00200A0D0020D2000020CA00002030
:10447000D1000020D6000020D8000020C400002079
:10448000C2000020D4000020D000002062020020E2
:10449000DA0000204A000020D300002007E0FD4998
:1044A0000870FD480078401CFB49087007E00020B8
:1044B000F8490870F84908706420F8490870F6480F
:1044C0000078032806DB0020F2490870F4490880D0
:1044D000F149087070BD70B504460D46ED4800788E
:1044E00010B96520EB490870EA480078652836D194
:1044F0006620E84908700220EA49087006204870E2
:1045000020128870CC70281208714D710621E54880
:10451000FFF7D2FDE4490880084600880012E1490F
:104520008871E1480078C8710820E04908800020BF
:10453000DF4908800120DF490870012240F226612E
:10454000DD48FCF724FCDA4802880088401CD84B80
:104550001880D448815CD848FCF77AFC4CE0CD4800
:104560000078662848D1D34800780B2826D100204F
:10457000D0490870C7490870C9490880C649087001
:10458000C6480078012803D0C448007802280AD120
:104590000120CA490870CA480078401CC849087000
:1045A0000020C8490870BD480078642802D1002066
:1045B000C54908700020B94908701DE0C34800785B
:1045C000C3490978884217D0C0480078C0490870AC
:1045D000B3480088401CB249088008460088B0F5FE
:1045E000487F09DD002008806520AA490870AA4894
:1045F0000078401CA8490870A7480078032810DB01
:104600000020A4490870A6490880A3490870A3485F
:104610000078642802D10020AB49087000209F492F
:10462000087070BD2DE9F04106460D4617469948C1
:10463000007810B9C9209749087096480078C928B1
:104640005BD1CA2093490870022096490870102057
:10465000487030128870CE70281208714D7168064B
:10466000000E8871002410E037F8140000120721B2
:1046700001EB44018B4A505417F81410072000EB4B
:104680004400401C1154601C84B2AC42ECDB072097
:1046900000EB4400C1B28348FFF70EFD8249088059
:1046A000084600880012072101EB44017D4A50545E
:1046B0007D480178072000EB4400401C115407207E
:1046C00000EB4400801C794908800020784908806C
:1046D000012078490870012240F226617648FCF7F3
:1046E00056FB734802880088401C714B18806D4847
:1046F000815C7148FCF7ACFB31E066480078CA2861
:104700002DD16C4800780C280BD100206949087025
:1047100060490870624908805F4908705F49087005
:104720001DE06A4800786A490978884217D06748CE
:104730000078674908705A480088401C584908802A
:1047400008460088B0F5487F09DD00200880C920B0
:104750005049087050480078401C4F4908704E4836
:104760000078032808DB00204A4908704C4908807B
:104770004949087049490870BDE8F0810246881A25
:10478000C0F34F00704710B504460B4633B92146BD
:104790005048FFF7F3FF504908802EE0012B09D164
:1047A00021464E48FFF7EAFF42F2107108444A4999
:1047B000088022E0022B09D121464948FFF7DEFF9D
:1047C00044F6206108444449088016E0032B09D1CF
:1047D00021464448FFF7D2FF47F2305108443E4992
:1047E00008800AE0042B08D121463F48FFF7C6FFA6
:1047F00049F640410844384908803748008810BDD0
:104800003549098842F21072914205DA314832493D
:10481000098800EB410075E02F49098842F21072C7
:1048200091420CDB2C4909885200914207DA2B484F
:1048300029490988A1EB620100EB410062E02649A9
:10484000098844F6206291420EDB2349098847F229
:104850003052914208DA22481F490988A1F59C414B
:10486000203900EB41004DE01B49098847F23052E6
:1048700091423BDB1849098849F64042914235DABA
:10488000184815490988A1F5EA41303900EB410083
:1048900038E00000D1000020D00000204A000020B5
:1048A000D4000020B80F0020C4000020C200002067
:1048B000BE000020D2000020003801404F0200203E
:1048C0005002002058020020620200202C03002029
:1048D000D3000020460300204C0000202E070020BB
:1048E000160B0020DE0B00200A0D0020114909885C
:1048F00049F64042914205DB0F480E490988891A62
:1049000000EB4100704770B504460D46294620462D
:10491000FCF79EFA00BF80212046FCF707FB002829
:10492000F9D000BF40212046FCF700FB0028F9D059
:1049300070BD00004C0000200A0D002008B50820C2
:10494000ADF8000003208DF8020004208DF803006C
:104950006946FC48FBF7F2FF0420ADF80000032095
:104960008DF8020018208DF803006946F548FBF722
:10497000E5FF08BD1FB5F448FCF72EF96846FCF7C3
:10498000D7F9F248C08F0090F048B0F8440038B929
:104990000020ADF804000320EC49A1F8400011E02C
:1049A000EA48B0F84400082804D0E848B0F84400C9
:1049B000182807D10320E549A1F840004FF48050A2
:1049C000ADF80400E148B0F8420018B90020ADF895
:1049D00006000EE0DD48B0F84200042803D1C00212
:1049E000ADF8060005E00020D849A1F84200ADF876
:1049F0000600D648B0F8440018B90020ADF8080009
:104A000019E0D248B0F84400082804D14FF4C0603F
:104A1000ADF808000FE0CD48B0F84400182804D1E4
:104A20004FF48060ADF8080005E00020C749A1F808
:104A30004400ADF80800C548B0F84600032803D18B
:104A40000020ADF80C0010E0C048B0F84600022885
:104A500004D14FF44070ADF80C0006E00320BB49D0
:104A6000A1F846000020ADF80C000C20ADF80A00BB
:104A70006946B548FCF7F3F8012240F22551B248E7
:104A8000FCF785F90121B048FCF775F91FBD10B599
:104A9000FFF754FFFFF76EFF0020AD490880AD49D6
:104AA000088010BD2DE9F0410027AA4800880028A1
:104AB0007BDDA9480078A9490978884275D0A648C5
:104AC0000078A6490870A6480088401CA4490880C0
:104AD000084600882328EBDD002240F225519A4841
:104AE000FCF755F99B4800889E49088000209C49A6
:104AF00008809C480088B0F5006F70DC9348203037
:104B000000F0704000F1007090492031C1F31301B2
:104B100000EB4110406800287BD18C48223000F027
:104B2000704000F1007089492231C1F3130100EB9C
:104B30004110406800286CD18448223000F0704059
:104B400000F1007081492231C1F3130100EB4110E3
:104B5000006900285DD184480078022857D1814837
:104B60000078801EC1B28048FFF7A6FA04462512DD
:104B7000E6B27C480088801E7B49085CA84244D18C
:104B800078480088401E085CB0423ED10846407814
:104B900003280BD101207549087073488478C078C8
:104BA00000EB042072490880F3E1FBE16E48407895
:104BB00010280DD100206F49088001206E4908702F
:104BC00069488478C07800EB042069490880E0E1F6
:104BD00065484078012803D168490870D9E1D7E1D8
:104BE0006148407806280ED10020624908800120E3
:104BF000634908705C488478C07800EB04205C4905
:104C00000880C6E105E00127C3E10227C1E10327CF
:104C1000BFE14E48203000F0704000F100704B4979
:104C20002031C1F3130100EB4110406878B100243A
:104C300008E04D48005D534908550220524908706C
:104C4000601C84B2474800888442F2DBA1E13F48FF
:104C5000223000F0704000F100703C492231C1F375
:104C6000130100EB41104068002868D03D480088DF
:104C7000B0F5006F64DC3C480078402818D13A4811
:104C80004078392814D138488078392810D13648EE
:104C9000C07823280CD133480088042808D13B4829
:104CA00001783BA01BF02CFB40F6B830FEF706F96C
:104CB0002D480078402813D12B48407831280FD157
:104CC0002948807831280BD12748C078232807D17C
:104CD00024480088042803D101203249087016E0D6
:104CE00021480078402812D11F48407832280ED140
:104CF0001D48807832280AD11B48C078232806D165
:104D000018480088042802D1022026490870164855
:104D1000007840284ED11448407833284AD11248B0
:104D20008078332846D11048C078232842D10D48D6
:104D3000008804283ED101201B49087036E0F4E0C9
:104D4000C8E0000000080140004400400A0D0020B7
:104D5000DE000020DC0000202C030020ED000020FD
:104D6000EE000020E000002048130020E8000020B2
:104D7000E600002084000020E9000020EA00002076
:104D8000EB0000209127002006020020D701002020
:104D90005465737420526573746172744E6F3D254F
:104DA000640D0A00B4010020F1000020F6A01BF001
:104DB000A7FA4EE0FC480078402819D1FA4840781C
:104DC000342815D1F8488078342811D1F648C078B5
:104DD00023280DD1F5480088042809D10020F44982
:104DE00008700120F3490870F3A01BF089FA30E045
:104DF000EF480078012803D10220ED49087028E02F
:104E0000F7480078F64949780844F5498978084414
:104E1000F349C9780844E0B1F2480078C8B9F248CB
:104E20000078022803D0F048007803280BD1DE4830
:104E3000807801280DD1DC48C0783D2809D10320B5
:104E4000E949087005E00120E84908700020E849B8
:104E50000880E4480078E8B3002505E0D248405DCA
:104E6000E4494855681CC5B2D04800888542F5DB46
:104E7000CE480088E04908800020E04908800120F1
:104E8000DF490860012240F22661DE48FBF77FFF20
:104E9000DA4802880088401CD84B1880D548815CCD
:104EA000D848FBF7D5FF002505E0BF48405DD6494F
:104EB0004855681CC5B2BD4800888542F5DBBB4833
:104EC0000088D24908800020D14908800120CC49BF
:104ED000086000E017E0012240F22661CD48FBF7B0
:104EE00056FFCB4802880088401CC94B1880C64832
:104EF000815CC848FBF7ACFFBA480078022802D1B1
:104F00000020B8490870B9480078E8BB012240F297
:104F10002551C048FBF73BFFBE480C30008840F0ED
:104F20000400BC490C31088033E0BB4800F07040FD
:104F300000F10070B849C1F3130100EB41100069A2
:104F400010B3002405E09848005DB4490855601C82
:104F500084B2964800888442F5DB94480088B049C2
:104F600008800020AF490880084602880088401C5D
:104F70000B461880A948815CAB48FBF769FF01220A
:104F800040F22661A84800E003E0FBF700FF00E0E4
:104F90000427012240F225519E48FBF7F8FE00202D
:104FA000A2490880002F0EDD002404E000207E4985
:104FB0000855601C84B2142CF8DB012240F2255104
:104FC0009448FBF7E4FEBDE8F0812DE9F05F4FF077
:104FD000000B9748007800287ED002208A4908708C
:104FE000714840784870704840794006000E8870DB
:104FF0009048008842F21071884205DA8E4E8D4842
:1050000000888C49088034E08A48008844F6206192
:10501000884207DA894E87480088A0EB61008549FD
:10502000088026E08348008847F23051884208DA39
:10503000834E80480088A0F59C4020387D49088038
:1050400017E07C48008849F64041884208DA7D4EE6
:1050500078480088A0F5EA4030387649088008E0B2
:105060006D4E223E73480088A0F51C4040387149BF
:105070000880DFF8948100240FE06E48008806EB7A
:10508000400030F81450291208F1030000F8141001
:1050900000EB44004570601CC4B243484079A04214
:1050A000EBDC59488078C01CC1B25748FFF704F8C0
:1050B0006549088008460088011253488078C01C62
:1050C000514A11546048017810468078001D1154EF
:1050D00010468078401D00E018E04C490880002010
:1050E000534908704A490880084602880088401CD5
:1050F0000B4618804448815C4648FBF7A9FE012214
:1051000040F226614348FBF742FE46E14F480078F3
:1051100018B94F4800780028F7D04FF0010BBBF1C9
:10512000000F2FD04348008842F21071884205DA00
:10513000414F404800883F4908809FE03D48008833
:1051400044F62061884207DA3C4F3A480088A0EBD9
:1051500061003849088091E03648008847F23051B4
:1051600088427FDA364F33480088A0F59C402038CB
:10517000304908803748007818B90120354908704F
:105180007CE069E0C0E06DE00D0A456E7465722058
:1051900050432073657420677072732070617220B1
:1051A0006D6F64650D0A000048130020E0000020C8
:1051B000F1000020820000200D0A51756974205012
:1051C0004320736574206770727320706172206D64
:1051D0006F64652C2053657420656E64210D0A0090
:1051E00069010020B40100209E0100209A010020E6
:1051F00082010020481B0020FC000020F800002055
:105200008C8122420048004048110020E20000202A
:10521000DE000020004400402C0D0020F525002079
:10522000E2010020DE010020004C0040DC000020F4
:10523000E8000020E6000020460300202E070020A2
:10524000160B0020DE0B0020E4000020E900002007
:10525000EB000020F000002000205C4908705C4951
:1052600008700BE05B48008849F64041884205DB46
:10527000594F58480088401A5649088054480078C9
:10528000A8B156480579407900EB052085B2514810
:10529000008827F8105052480078A8B34D4800887D
:1052A0005049A1F8D8010846A0F8DA512CE0474847
:1052B000007848B3494840795A2825DADFF81C912C
:1052C000002412E009F1070010F8145000EB44002C
:1052D00090F801A00AEB052085B23E48008807EB54
:1052E000400020F81450601CC4B23C484079A042F1
:1052F000E8DC3B48007838B1364800883949A1F8E5
:10530000D8010846A0F8DA513048007810B9304882
:105310000078E0B302203449087030484078487083
:105320002E48807888702D48C078C8702B48007946
:1053300008712A4840794871BBF1000F02D1FF2063
:105340000871487106212848FEF7B6FE27490880F3
:105350000846008800122449887124480078C871E2
:10536000082023490880002018490870184908704F
:1053700020490880084602880088401C0B46188097
:105380001948815C1C48FBF763FD012200E004E042
:1053900040F226611848FBF7FAFCBDE8F09F704721
:1053A00070B504460D46012014490860E1B2124868
:1053B000FBF74EFD00BF40210F48FBF7B7FD00286B
:1053C000F9D000200D490860204670BDE90000209A
:1053D000EB000020E60000200A0D0020481300200A
:1053E000F00000202E07002048110020E4000020DB
:1053F000E2000020DE000020004400408C812242B8
:1054000008B54FF40060ADF8000003208DF80200ED
:1054100004208DF803006946FA48FBF78FFA4FF431
:105420008060ADF8000003208DF8020018208DF890
:1054300003006946F348FBF781FA08BD1FB5F2483F
:10544000FBF7CAFB6846FBF773FC4FF46140EF497A
:1054500088870846808F00900020ADF80400ADF8E2
:105460000600ADF80800ADF80C000C20ADF80A00FD
:105470006946E548FBF7F3FB0121E348FBF77BFCBA
:105480001FBD10B5FFF7BCFFFFF7D8FF0020E049B4
:105490000880E04908802320FDF710FD10BD10B5FD
:1054A0000146002042F21072914200DB0AE0B1F5A1
:1054B0007A7F00DB12E0642900DB21E00A2900DBAF
:1054C0002FE03EE042F2107291FBF2F23032D4B2A1
:1054D0000246431CD8B2D04B9C5400BF42F210721B
:1054E00091FBF2F302FB13124FF47A7392FBF3F287
:1054F0003032D4B20246431CD8B2C74B9C5400BFD2
:105500004FF47A7291FBF2F302FB1312642392FBC5
:10551000F3F23032D4B20246431CD8B2BE4B9C5494
:1055200000BF642291FBF2F302FB13120A2392FBE9
:10553000F3F23032D4B20246431CD8B2B64B9C547C
:1055400000BF0A2291FBF2F302FB13123032D4B2F5
:105550000246431CD8B2B04B9C5410BD30B5034634
:105560000C46002019460AE00D78954205D0451CEE
:10557000E8B2491CFF2802D104E0FF2002E00D78C8
:10558000A542F1D100BF30BD30B503460020002454
:10559000194612E00A78412A03DBA2F13705EAB284
:1055A00002E0A2F13005EAB20CB9104602E002EBCB
:1055B0000015A8B2491C651CECB20D780D2D0BD05E
:1055C0000D782C2D08D00D782E2D05D00D783B2D83
:1055D00002D00D78292DDDD130BD70B503460020F5
:1055E000002419460FE00A781CB9A2F13005A8B2D0
:1055F00006E0A2F1300500EB800605EB4605A8B2F7
:10560000491C651CECB20D780D2D08D00D782C2DA1
:1056100005D00D782E2D02D00D783B2DE3D170BD35
:105620002DE9FF5F0020039000267C4800780228C7
:1056300006D17BA17B481AF00BFF7B49086005E08F
:1056400077A17A481AF004FF77490860312077493A
:10565000087075480068002874D0754800780028E4
:1056600070D171480068001DFFF78EFF7149087006
:1056700008460078632806DC0022084601786E4858
:10568000FFF76CFF064600222C2167480068FFF7F1
:1056900065FF804600223B2163480068FFF75EFFFC
:1056A0008146CDF80890FF2E09D0B8F1FF0F06D043
:1056B0000298FF2803D05F480078A02812DD01205F
:1056C000039000240BE05D48015D594802780078A2
:1056D000401C574B18705A488154601CC4B2102C9F
:1056E000F1DB17E0B9F1960F01DB4FF095090024CB
:1056F00006E04D480068005D51490855601CC4B281
:105700004C45F6DB2C204E4901F8090009F1010057
:1057100047490870444800684044401C42490860BA
:105720000846006890F800B00398002809D1414865
:105730000078822807D1BBF1310FF7D10120414910
:10574000087031E3EEE33B480078912806D1BBF1C5
:10575000310FF6D101203C49087025E33548007827
:1057600092280DD1BBF1310F02D0BBF1300FE8D13F
:10577000ABF130003549087001203549087013E35A
:105780002C480078952806D1BBF1310FD9D10120E2
:105790003049087008E327480078892806D1BBF112
:1057A000310FCED101202C490870FDE2214800784C
:1057B00020280FD01F48007830280BD01D480078D3
:1057C000402807D01B480078502803D0194800789B
:1057D000622875D1002461E013480068FFF7FDFEE0
:1057E0002DF8140054B93DF8140038B90020ADF874
:1057F0000200ADF80400ADF806000324032C3ED1EE
:10580000002739E0000C0140004800400A0D00204C
:10581000F8000020F600002053250020F1000020B1
:105820004750570048130020A8010020481D0020C1
:105830008B0100208A010020162A0208062C02088B
:105840005F2500209B0100209C0100209F0100207B
:105850009E0100209D0100200D010020FE48C05D3A
:1058600040B138012030FD490978884202D1012039
:10587000FB49C855781CC7B2042FEFDB10E00022AB
:105880002E21F8480068FFF769FE8046F548006859
:105890004044401CF3490860601CC4B2042C9BDBEC
:1058A00000BF002422E03DF81400FF2809DC1DF8A9
:1058B0001400ED4931F816102144EC4A505413E01D
:1058C00017E00220039000240BE0E948015DE9485D
:1058D00002780078401CE74B1870E7488154601C40
:1058E000C4B2122CF1DB03E0601CC4B2042CDADB7E
:1058F0005AE2DA480078012817D0D84800780528FD
:1059000013D0D648007806280FD0D4480078212834
:105910000BD0D2480078312807D0D04800784128F1
:1059200003D0CE48007851287ED1CC480078012899
:1059300006D1A9EB0800401E082801DD03200390D2
:10594000C6480078052806D1A9EB0800401E182893
:1059500001DD03200390C1480078062806D1A9EB99
:105960000800401E0B2801DD03200390BB4800788F
:10597000212806D1A9EB0800401E1E2801DD0320C6
:105980000390B6480078312806D1A9EB0800401EE4
:105990001E2801DD03200390B0480078412806D17D
:1059A000A9EB0800401E1E2801DD03200390AB4830
:1059B0000078512806D1A9EB0800401E1E2801DD01
:1059C0000320039008F10100814501DA03200390D0
:1059D0000398032810D100240BE0A848025DA548D5
:1059E00001780078401CA34B1870A3484254601CF7
:1059F000C4B21F2CF1DBD7E100240AE0994800680B
:105A0000005D994931F816102144984A5054601CA1
:105A1000C4B2A9EB0800401EA042EFDC002092496E
:105A200031F81610214400E012E0904A50548B489F
:105A300000780628DFD1002707E08748C05D10B155
:105A400001208749C855781CC7B2042FF5DBABE1AC
:105A5000824800780D287AD182480068FFF7BDFDA2
:105A60000546B5F5966F11D0B5F5166F0ED0B5F5A4
:105A7000965F0BD0B5F5165F08D0B5F5964F05D0FB
:105A8000B5F5164F02D0B5F5614F0CD12912764805
:105A900030F81600801C754A1154734830F816000F
:105AA000C01C155412E08DB10420039000240BE0BB
:105AB0007348015D6F4802780078401C6D4B187088
:105AC0006D488154601CC4B2152CF1DB00222C21DE
:105AD00064480068FFF742FD8046B8F1FF0F01D12E
