:020000040800F2
:10000000485A00207D28000875BC000877BC00080D
:100010007BBC00087FBC000883BC00080000000017
:1000200000000000000000000000000087BC000885
:1000300089BC0008000000008BBC00088DBC0008D3
:100040009728000897280008972800089728000894
:100050009728000897280008972800089728000884
:10006000C3C10008972800089728000897280008AF
:100070009728000897280008972800089728000864
:100080009728000897280008972800089728000854
:10009000972800089728000897280008DFC1000863
:1000A0009728000897280008972800089728000834
:1000B000FFC1000897280008972800089728000823
:1000C0009728000897280008972800089728000814
:1000D000972800081FBE0008DFBE00087DBF00088B
:1000E00097280008972800089728000897280008F4
:1000F00097280008972800089728000897280008E4
:1001000097280008972800089728000897280008D3
:100110003BC0000897280008972800089728000887
:1001200097280008972800089728000897280008B3
:1001300000F002F800F0B0F80AA090E8000C824449
:100140008344AAF10107DA4501D100F0A5F8AFF226
:10015000090EBAE80F0013F0010F18BFFB1A43F0A5
:1001600001031847E8940200089502000A444FF082
:10017000000C10F8013B13F0070408BF10F8014B06
:100180001D1108BF10F8015B641E05D010F8016B4B
:10019000641E01F8016BF9D113F0080F1EBF10F8AF
:1001A000014BAD1C0C1B09D16D1E58BF01F801CBD2
:1001B000FAD505E014F8016B01F8016B6D1EF9D555
:1001C0009142D6D37047000000230024002500266A
:1001D000103A28BF78C1FBD8520728BF30C148BFAA
:1001E0000B6070476E2925F0B682702925F02184B6
:1001F000662928F0B483652928F0B183672928F09F
:10020000AE836129AFF3008003681B0A28BF41F069
:100210008001692925F02E80642925F02B8075291D
:1002200025F028806F2925F0AE83782925F0ED830D
:10023000E92925F04983E42925F04683F52925F0AD
:100240004383EF2925F0AB83F82925F0EC8303687D
:10025000DB0928BF41F08001632925F0B8827329AA
:1002600025F0BD82E32925F0C386F32925F0C88651
:10027000002070471FB525F05FFF0400002000211B
:1002800027F01EFA401C60600020002127F02EFAA3
:10029000E0601FBD10B510BD25F029FF1146FFF726
:1002A000E9FF02F023FD26F00BF803B4FFF7F2FF9D
:1002B00003BC02F003FB00000CB50020019000908D
:1002C0006C48006840F480306A49086000BF6948A3
:1002D000006800F4003000900198401C01900098E4
:1002E00018B90198B0F5A06FF1D16248006800F428
:1002F000003010B10120009001E000200090009833
:10030000012843D15C48006840F010005A49086059
:100310000846006820F0030008600846006840F0C6
:1003200002000860534840685249486008464068E7
:1003300048600846406840F480604860084640686D
:1003400020F47C1048600846406840F4E81048609B
:100350000846006840F08070086000BF45480068AB
:1003600000F000700028F9D04248406820F00300F7
:10037000404948600846406840F00200486000BFBD
:100380003C48406800F00C000828F9D10CBD10B5BD
:10039000FFF792FF10BD10B53648006840F001002D
:1003A000344908600846406834490840314948608B
:1003B00008460068324908402E490860084600682F
:1003C00020F4802008600846406820F4FE00486061
:1003D0004FF41F008860FFF7DAFF4FF000602949F3
:1003E000086010BD10B5002100200022214B5B6881
:1003F00003F00C0121B1042906D0082928D107E017
:10040000214B224C236027E01F4B204C236023E02C
:10041000184B5B6803F47010164B5B6803F4803272
:10042000022303EB904022B9194B4343174C23603E
:100430000DE0104B5B6803F4003323B1144B4343CE
:10044000124C236003E0104B4343104C236003E045
:100450000D4B0E4C236000BF00BF064B5B68C3F31F
:1004600003130C4CE15C094B1B68CB40074C236029
:1004700010BD000000100240002002400000FFF804
:10048000FFFFF6FE08ED00E000127A0000000020F9
:1004900000093D0004000020DF48006840F0010032
:1004A000DD49086008464068DC490840DA49486090
:1004B00008460068DA490840D749086008460068DD
:1004C00020F4802008600846406820F4FE00486060
:1004D0004FF41F0088607047CF49096821F48031CC
:1004E000CD4A11601146096821F480211160B0F5F0
:1004F000803F03D0B0F5802F0ED106E0C6490968D1
:1005000041F48031C44A116007E0C349096841F4ED
:10051000A021C14A116000E000BF00BF704710B5C4
:1005200001460022002300204A11012A02D1BA4CC0
:10053000236806E0022A02D1B74C236A01E0B64CD8
:10054000636A01F01F02012494401C400CB1012099
:1005500000E0002010BD38B50020009000240025E8
:1005600000BF3120FFF7DBFF05460098401C0090DC
:100570000098B0F5A06F01D0002DF2D03120FFF728
:10058000CEFF08B1012400E00024204638BD01461A
:100590000020A14A106820F0F80040EAC100106075
:1005A0007047A04908607047024600209A4B58687F
:1005B00020F47C1042EA01031843974B58607047BF
:1005C00098490866704701460020934A506820F019
:1005D00003000843506070478F48406800F00C00EB
:1005E0007047014600208C4A506820F0F000084314
:1005F0005060704701460020874A506820F4E06050
:1006000008435060704701460020834A506820F438
:10061000605040EAC1005060704729B17E4A527A6A
:1006200002437D4B5A7204E07B4A527A82437A4BF2
:100630005A7270477B49D8310860704701460020E4
:10064000754A506820F440400843506070470021CC
:10065000714A20321170704A82F82010012802D0AD
:1006600004280AD104E001216B4A2032117005E010
:100670000521694A2032117000E000BF00BF7047B9
:100680006949086070476449096A0143624A116216
:100690007047654944390860704730B50021002231
:1006A000002400235C4D6D6805F00C0121B1042984
:1006B00005D0082923D105E05C4D056022E05B4DA3
:1006C00005601FE0544D6D6805F47012524D6D6861
:1006D00005F48034022505EB92421CB9544D554374
:1006E00005600BE04C4D6D6805F400351DB1504DB3
:1006F0005543056002E04D4D5543056002E04B4D0A
:10070000056000BF00BF444D6D6805F0F0010909A8
:10071000484D6B5C0568DD4045603F4D6D6805F4F4
:10072000E061090A434D6B5C4568DD4085603A4DE8
:100730006D6805F46051C90A3E4D6B5C4568DD404B
:10074000C560354D6D6805F44041890B3A4D6B5CD1
:10075000C568B5FBF3F5056130BD29B12E4A526974
:1007600002432D4B5A6104E02B4A526982432A4BC3
:100770005A61704729B1284A92690243264B9A610F
:1007800004E0254A92698243234B9A61704729B15C
:10079000214AD2690243204BDA6104E01E4AD26941
:1007A00082431D4BDA61704729B11B4AD26802436C
:1007B000194BDA6004E0184AD2688243164BDA60BB
:1007C000704729B1144A12690243134B1A6104E0BD
:1007D000114A12698243104B1A617047124940391D
:1007E000086070470F49C86470470B49C87170476B
:1007F0000948406A40F080700749486270470146E6
:100800000020054A92680A400AB1012000E0002059
:100810007047014988727047001002400000FFF8DD
:10082000FFFFF6FE000042428004424200127A00BE
:1008300000093D001400002024000020314901433C
:10084000314A1160704770B5002100230F22C4782F
:1008500004B32D4C246804F4E064C4F5E064210A78
:10086000C1F10403CA40447804FA03F184781440C7
:1008700021430901254C0678A155047804F01F0591
:100880000124AC4005786D11AD0005F1E025C5F8F7
:10089000004109E0047804F01F050124AC401C4D20
:1008A0000678761145F8264070BD1A4A0A40024380
:1008B000154B1B1F1A60704739B1134A121D12687D
:1008C0000243114B1B1D1A6006E00F4A121D1268ED
:1008D00082430D4B1B1D1A607047042808D14FF04E
:1008E000E021096941F004014FF0E022116107E0C5
:1008F0004FF0E021096921F004014FF0E02211617D
:10090000704700000000FA050CED00E000E400E094
:1009100080E100E080FFFF1F10B50446CC48844210
:1009200008D101210420FFF73FFF00210420FFF739
:100930003BFF46E0C748844208D101210820FFF769
:1009400033FF00210820FFF72FFF3AE0C24884421E
:1009500008D101211020FFF727FF00211020FFF709
:1009600023FF2EE0BD48844208D101212020FFF75B
:100970001BFF00212020FFF717FF22E0B848844228
:1009800008D101214020FFF70FFF00214020FFF791
:100990000BFF16E0B348844208D101218020FFF705
:1009A00003FF00218020FFF7FFFE0AE0AE488442EB
:1009B00007D101218015FFF7F7FE0021A015FFF7F1
:1009C000F3FE10BD10B501210846FFF7EDFE002132
:1009D0000120FFF7E9FE10BD2DE9F0410246002598
:1009E0000026002000230024002791F803C00CF00B
:1009F0000F0591F803C00CF0100CBCF1000F03D0F0
:100A000091F802C04CEA050591F800C0BCF1000F56
:100A100031D0146800202BE04FF0010C0CFA00F3E9
:100A2000B1F800C00CEA03069E4220D183004FF0CB
:100A30000F0C0CFA03F7BC4305FA03FC4CEA040460
:100A400091F803C0BCF1280F06D14FF0010C0CFA4D
:100A500000FCC2F814C00AE091F803C0BCF1480FD2
:100A600005D14FF0010C0CFA00FCC2F810C0401C7C
:100A70000828D1D31460B1F800C0BCF1FF0F34DDF9
:100A8000546800202EE000F1080C4FF0010808FA2D
:100A90000CF3B1F800C00CEA03069E4221D183009A
:100AA0004FF00F0C0CFA03F7BC4305FA03FC4CEAB9
:100AB000040491F803C0BCF1280F05D100F1080C23
:100AC00008FA0CF8C2F8148091F803C0BCF1480F82
:100AD00007D100F1080C4FF0010808FA0CF8C2F831
:100AE0001080401C0828CED35460BDE8F0814FF63A
:100AF000FF710180022181700421C170704702469C
:100B0000002093680B400BB1012000E000207047EB
:100B10000146886880B2704702460020D3680B40C7
:100B20000BB1012000E0002070470146C86880B288
:100B3000704701617047416170470AB1016100E08F
:100B400041617047C16070474FF480320A4382614F
:100B50008161826182698269704702460020434B4D
:100B600018684FF68073184040EA021008433F4B64
:100B7000186070473E49C8617047F0B50A460023C7
:100B800000240021002500F00046B6F1004F02D1FC
:100B9000364EF16901E0354E7168C0F3034583B20A
:100BA00000F44016B6F5401F08D121F070612F4EB9
:100BB000766826F070662D4F7E6012E000F4801695
:100BC000B6F5801F06D1032606FA05F4A14341F0CD
:100BD000706106E0460D360103FA06F6B14341F0B6
:100BE000706122B1460D360103FA06F6314300F07A
:100BF0000046B6F1004F02D11C4EF16101E01B4EE0
:100C00007160F0BD30B500228B071C0F0F2303FA73
:100C100004F2164B08338C1053F824309343134CD2
:100C200008348D1044F8253023468C1053F82430B6
:100C30008C07240F00FA04F423430C4C08348D1065
:100C400044F8253030BD0A49DC31086070470000A7
:100C500000080140000C0140001001400014014058
:100C600000180140001C014000200140000001402C
:100C70000000204210B50446FB48844209D10121FE
:100C80008803FFF791FD00214FF48040FFF78CFDB2
:100C900032E0F648844209D101214804FFF791FD72
:100CA00000214FF40030FFF78CFD25E0F04884422E
:100CB00009D101218804FFF784FD00214FF4802031
:100CC000FFF77FFD18E0EB48844209D10121C804F9
:100CD000FFF777FD00214FF40020FFF772FD0BE0D6
:100CE000E548844208D101210805FFF76AFD00218B
:100CF0004FF48010FFF765FD10BD2DE9F04786B079
:100D000005460E460024A24600BFA1460027B08932
:100D100000B100BF2F462C8A4CF6FF700440F088CB
:100D200004432C82AC894EF6F3100440B08831891C
:100D30000843718908430443AC81AC8A4FF6FF40F5
:100D40000440B0890443AC8201A8FFF7A6FCC64862
:100D5000874202D1DDF810A001E0DDF80CA0A889DF
:100D600000F4004040B10AEBCA0000EB0A10316801
:100D70004900B0FBF1F807E00AEBCA0000EB0A10EB
:100D800031688900B0FBF1F86420B8FBF0F0040191
:100D90002009642101FB1089A88900F4004040B1BA
:100DA000322000EBC900B0FBF1F000F00700044373
:100DB00008E0322000EB09106421B0FBF1F000F0F4
:100DC0000F0004432C8106B0BDE8F0874FF41651A4
:100DD000016000218180C18001810C2141810021BD
:100DE0008181704710B502460020108A4FF2FF0340
:100DF00018400B884C8823438C882343CC8823439A
:100E00001843108210BD0021018041808180C18083
:100E1000704721B1828942F40052828104E08289C4
:100E20004DF6FF731A4082817047F0B503460024E7
:100E300000260025002040F66A17B94200D100BF05
:100E40001846C1F3421401F01F06012707FA06F500
:100E5000012C01D10C3004E0022C01D1103000E053
:100E600014301AB107682F43076002E00768AF43E8
:100E70000760F0BD1AB1838A0B43838202E0838A44
:100E80008B4383827047028A4FF6F0731A400282C6
:100E9000028A0A430282704782894FF2FF731A4026
:100EA000828182890A438281704721B1828942F01E
:100EB0000202828104E082894FF6FD731A4082812A
:100EC0007047028A4FF6DF731A400282028A0A4391
:100ED0000282704721B1028A42F48042028204E019
:100EE000028A4BF6FF731A4002827047C1F3080270
:100EF0008280704701468888C0F308007047818966
:100F000041F0010181817047028BD2B20283028BD2
:100F100042EA012202837047028B02F47F4202837D
:100F2000028B0A430283704721B1828A42F0200279
:100F3000828204E0828A4FF6DF731A408282704711
:100F400021B1828A42F01002828204E0828A4FF646
:100F5000EF731A408282704721B1828A42F0080200
:100F6000828204E0828A4FF6F7731A4082827047C9
:100F700021B1828942F40042828103E08289C2F376
:100F80000E028281704721B1828A42F4006282821D
:100F900004E0828A4FF2FF731A4082827047828A8D
:100FA0004FF6FB731A408282828A0A43828270471C
:100FB00021B1828A42F00202828204E0828A4FF6E4
:100FC000FD731A408282704702460020B1F5007F0F
:100FD00000D100BF13880B400BB1012000E00020BE
:100FE000704701F40072B2F5007F00D100BFCA4320
:100FF0000280704770B502460024002300250020BF
:1010000040F66A16B14200D100BFC1F3421501F0AB
:101010001F03012606FA03F3012D02D196893340FE
:1010200006E0022D02D1168A334001E0968A334051
:101030000C12012606FA04F41688344013B10CB1E0
:10104000012000E0002070BD10B50022002340F612
:101050006A14A14200D100BF0A1201249440A3B235
:10106000DC43048010BD0000003801400044004013
:1010700000480040004C0040005000400146002065
:10108000FE4A106800F03800084310607047FB49C2
:10109000096821F00801F94A116011460968014305
:1010A00011607047F549096821F01001F34A116099
:1010B00011460968014311607047F148EF494860E3
:1010C000F04848607047EE48EC494860ED48486099
:1010D0007047EA48006940F08000E84908617047BD
:1010E000E648006940F08000E44908617047042048
:1010F000E249C96801F0010109B101200EE0DF49B0
:10110000C96801F0040109B1022007E0DB49C968A0
:1011100001F0100109B1032000E00420704700B580
:1011200002460423FFF7E3FF034603E0FFF7DFFF78
:101130000346521E012B01D1002AF7D102B9052323
:10114000184600BD30B5044604254FF43020FFF7A3
:10115000E6FF0546042D17D1C848006940F002009B
:10116000C649086108464461006940F040000861D2
:101170004FF43020FFF7D3FF0546C048006941F621
:10118000FD710840BD490861284630BD10B50424F2
:101190004FF43020FFF7C3FF0446042C16D1B748A4
:1011A000006940F00400B54908610846006940F054
:1011B000400008614FF43020FFF7B1FF0446AF480C
:1011C000006941F6FB710840AC490861204610BD3A
:1011D00000B502460423FFF78AFF034603E0FFF74A
:1011E00086FF0346521E012B01D1002AF7D102B916
:1011F0000523184600BD10B504244FF43020FFF736
:10120000E7FF0446042C16D19C48006940F0040016
:101210009A4908610846006940F0400008614FF4AF
:101220003020FFF7D5FF04469448006941F6FB7172
:10123000084092490861204610BD00208F49C969C5
:1012400001F0020109B1012000E00020704730B533
:10125000A5250424FFF7F1FF00B100254FF430204D
:10126000FFF75DFF0446042C3AD185488349886026
:10127000844888600846006940F0200008610846FC
:10128000006940F0400008614FF43020FFF747FF4D
:101290000446042C1BD17948006941F6DF710840EF
:1012A000764908610846006940F0100008617648F8
:1012B0000580E002FFF733FF0446052C10D06F488D
:1012C000006941F6EF7108406C49086108E0052C9F
:1012D00006D06A48006941F6EF7108406749086125
:1012E000204630BD78B506460C4604250020009007
:1012F000E802FFF714FF0546042D24D15F4800697A
:1013000040F001005D4908613480E802FFF707FF03
:101310000546042D10D1B01C0090200C00990880C7
:10132000E802FFF7FCFE05465448006941F6FE71ED
:1013300008405249086106E05048006941F6FE71D4
:1013400008404E490861284678BD70B504460D46F0
:101350000426F002FFF7E3FE0646042E11D14748AB
:10136000006940F00100454908612580F002FFF75F
:10137000D6FE06464148006941F6FE7108403F49E5
:101380000861304670BD70B505460E460424E00283
:10139000FFF7C5FE0446042C17D139483749886049
:1013A000384888600846006940F0100008612E80C7
:1013B000E002FFF7B4FE0446052C06D02F48006972
:1013C00041F6EF7108402D490861204670BD2DE9B6
:1013D000F04304464FF6FF763746B046B146042543
:1013E000E443E6B2C4F30727C4F307484FEA14699D
:1013F000E802FFF794FE0546042D49D120481F4915
:101400008860204888600846006940F01000086144
:10141000FF2E06D01C4808300680E802FFF77FFE4A
:101420000546042D08D1FF2F06D017480A30078043
:10143000E802FFF774FE0546042D0AD1B8F1FF0F4C
:1014400007D011480C30A0F80080E802FFF767FED3
:101450000546042D0AD1B9F1FF0F07D00A480E3016
:10146000A0F80090E802FFF75AFE0546052D0FD0C0
:101470000248006941F6EF71084007E00020024091
:1014800023016745AB89EFCD00F8FF1F664908616E
:101490002846BDE8F08330B5054604244FF43020DB
:1014A000FFF73DFE0446042C41D160485E49886048
:1014B0005F4888600846006940F0200008610846DF
:1014C000006940F0400008614FF43020FFF727FE2C
:1014D0000446042C22D15448006941F6DF710840CB
:1014E000514908610846006940F0100008611DB1CB
:1014F00000205049088002E0A5204E4908804FF4A2
:101500003020FFF70CFE0446052C10D04648006939
:1015100041F6EF7108404449086108E0052C06D007
:101520004148006941F6DF7108403F4908612046A3
:1015300030BDF0B505460E46174604243B483A49EF
:1015400088603B488860E002FFF7E9FD0446042C10
:1015500019D13548006940F010003349086147F05F
:10156000F800304328433349891C0880E002FFF724
:10157000D6FD0446052C06D02B48006941F6EF71D4
:101580000840294908612046F0BD2748C069800805
:1015900070472548006A704700202349096801F018
:1015A000200109B1012000E00020704729B11E4A46
:1015B000126902431C4B1A6104E01B4A1269824300
:1015C000194B1A61704701460020012908D1164ABB
:1015D000D26902F001020AB1012008E0002006E011
:1015E000114AD2680A400AB1012000E00020704789
:1015F0000D49C860704704200B49C96801F001011A
:1016000009B101200EE00849C96801F0040109B1DF
:10161000022007E00449C96801F0100109B1032064
:1016200000E00420704700000020024023016745CD
:10163000AB89EFCD00F8FF1F10B50446BE488442C9
:1016400008D101218014FFF7AFF80021A014FFF7A3
:10165000ABF816E0B948844208D101210014FFF725
:10166000B0F800212014FFF7ACF80AE0B448844237
:1016700007D10121C013FFF7A4F80021E013FFF701
:10168000A0F810BD10B50022028802F441520B8868
:101690004C8823438C882343CC8823430C892343E1
:1016A0004C8923438C892343CC8923431A430280EA
:1016B000838B4FF2FF74234083830B8A038210BD18
:1016C0002DE9F04F85B005460C464FF00009022782
:1016D0004FF000084FF0010B0026B246A88B4FF2E6
:1016E00040010840A88302202884B5F81C90A06817
:1016F000022801D100BF38E0A08810B94FF0010BDB
:1017000001E04FF0020B8D48854200D100E000BFA0
:101710006846FEF7C2FFDDF800A0E088B0F5007F64
:101720000AD14FEA1A2000EB80004000A168B0FB0C
:10173000F1F0401D86B20BE04FEA4B10BAFBF0F01F
:1017400000EB80004000A168B0FBF1F0401D86B2C4
:101750000A20B6FBF0F606F00108A6EB0800C0F37D
:101760004F074FF6FF7000EA0828022F01DBFF2F1A
:1017700002DD02274FF00008E08840EA0800384305
:101780002884A088A18908436188084321880843E8
:1017900040F4006040EA0909A5F81C9005B0BDE8D6
:1017A000F08F0021018041808180C18001814181D1
:1017B0008181C18107210182704700210180418020
:1017C0008180C1800221816000218181704721B127
:1017D000028842F04002028004E002884FF6BF73A4
:1017E0001A400280704721B1828B42F4806282836A
:1017F00004E0828B4FF6FF331A408283704730B586
:10180000002400230C110125A540ABB21AB1858834
:101810001D43858002E085889D43858030BD1AB1D7
:1018200083880B43838002E083888B4383807047E7
:10183000818170470146888970474FF6FF62914267
:1018400004D0028842F48072028004E002884FF6DD
:10185000FF631A400280704721B1828842F004027F
:10186000828004E082884FF6FB731A4082807047C2
:1018700002884FF2FF731A40028002880A430280F6
:101880007047018841F480510180704721B102887E
:1018900042F40052028004E002884DF6FF731A40C1
:1018A0000280704702460020012901D0108B00E021
:1018B000908A70470146088A7047B1F5804F04D17D
:1018C000028842F48042028004E002884BF6FF73F3
:1018D0001A40028070470246002013890B400BB16A
:1018E000012000E000207047CA4302817047F0B534
:1018F0000246002000240023002501F00F070126E6
:10190000BE40B4B20B1101269E40B3B2968806EADF
:1019100003051689264016B10DB1012000E0002014
:10192000F0BD10B5002201F00F040123A3409AB2CC
:10193000D343038110BD0000003001400038004057
:10194000003C004010B50446FE48844208D1012105
:10195000C014FEF729FF0021E014FEF725FFC4E0C4
:10196000B4F1804F08D101210846FEF72AFF00217B
:101970000120FEF726FFB8E0F348844208D1012198
:101980000220FEF71EFF00210220FEF71AFFACE046
:10199000EE48844208D101210420FEF712FF002105
:1019A0000420FEF70EFFA0E0E948844208D101219F
:1019B0000820FEF706FF00210820FEF702FF94E052
:1019C000E448844208D101211020FEF7FAFE0021EC
:1019D0001020FEF7F6FE88E0DF48844208D101219E
:1019E0002020FEF7EEFE00212020FEF7EAFE7CE03C
:1019F000DA48844208D101214014FEF7D5FE0021C7
:101A00006014FEF7D1FE70E0D548844209D101216F
:101A1000C804FEF7C9FE00214FF40020FEF7C4FE03
:101A200063E0D048844209D101210805FEF7BCFEDD
:101A300000214FF48010FEF7B7FE56E0CA488442FA
:101A400009D101214805FEF7AFFE00214FF4001037
:101A5000FEF7AAFE49E0C548844208D10121402092
:101A6000FEF7AFFE00214020FEF7ABFE3DE0C04890
:101A7000844208D101218020FEF7A3FE00218020AE
:101A8000FEF79FFE31E0BB48844208D1012180155A
:101A9000FEF797FE0021A015FEF793FE25E0B6485D
:101AA000844209D101210804FEF77EFE00214FF493
:101AB0008030FEF779FE18E0B048844209D1012158
:101AC0004804FEF771FE00214FF40030FEF76CFE73
:101AD0000BE0AB48844208D101218804FEF764FE84
:101AE00000214FF48020FEF75FFE10BD0022028827
:101AF000944B98420ED0994B98420BD0B0F1804F46
:101B000008D0914B984205D0904B984202D0904B10
:101B1000984204D14FF68F731A404B881A438D4B6D
:101B2000984207D08C4B984204D04FF6FF431A409E
:101B3000CB881A4302808B8883850B880385814B71
:101B400098420BD0854B984208D08B4B984205D0D9
:101B50008A4B984202D08A4B984201D10B7A038675
:101B600001238382704770B5002400220023058C76
:101B70004FF6FE7635400584028C8388048B4FF641
:101B80008F752C40B51E2C400D882C43751E2A40A5
:101B90000D892A434D882A436A4DA8420BD06F4DC8
:101BA000A84208D0744DA84205D0744DA84202D076
:101BB000734DA84213D14FF6F7752A404D892A4339
:101BC0004FF6FB752A408D882A434FF6FF652B4060
:101BD0004FF6FF552B408D892B43CD892B438380B6
:101BE0000483CD888586028470BD70B500240022F0
:101BF0000023058C4FF6EF7635400584028C8388F0
:101C0000048B48F6FF752C404FF6FF452C400D889D
:101C10004FF6FF7606EA05252C434FF6DF752A407E
:101C20000D8906EA05152A434D8806EA05152A435B
:101C3000444DA84202D0494DA8421DD14FF67F75B0
:101C40002A404D894FF6FF7606EA05152A434FF6DE
:101C5000BF752A408D8806EA05152A434FF6FF35E1
:101C60002B404FF2FF752B408D8906EA85052B43EB
:101C7000CD8906EA85052B4383800483CD880587BB
:101C8000028470BD70B5002400220023058C4FF63D
:101C9000FF6635400584028C8388848B4FF68F75F0
:101CA0002C404FF6FC752C400D882C434FF6FF5509
:101CB0002A400D894FF6FF7606EA05252A434D880E
:101CC00006EA05252A431F4DA84202D0234DA8420B
:101CD0001DD14FF2FF752A404D894FF6FF7606EA77
:101CE00005252A434FF6FF352A408D8806EA05254B
:101CF0002A434EF6FF752B404DF6FF752B408D891C
:101D000006EA05152B43CD8906EA05152B4383808A
:101D10008483CD888587028470BD70B5002200233E
:101D20000024058C4EF6FF7635400584038C8488AC
:101D3000828B48F6FF752A404FF6FF452A400D88F2
:101D400020E00000002C014000040040000800409A
:101D5000000C00400010004000140040003401401E
:101D6000004C014000500140005401400018004068
:101D7000001C0040002000400040014000440140A1
:101D8000004801404FF6FF7606EA05252A434DF646
:101D9000FF752B400D8906EA05352B434D8806EA71
:101DA00005352B43FA4DA84202D0FA4DA84208D17E
:101DB0004BF6FF752C408D894FF6FF7606EA8515A8
:101DC0002C4384808283CD88A0F84050038470BD6A
:101DD000828B4FF2FF331A408283828B4FF6FF7360
:101DE00003EA01231A4382837047F0B50C46154677
:101DF000002200210026078C4EF6FF7C07EA0C0724
:101E00000784828B018C4FF6FF7707EA043640F691
:101E1000FF473A404FF6FF7707EA05273A434FF668
:101E2000FF7707EA03373A43D94FB8420ED0D94F6C
:101E3000B8420BD0B0F1804F08D0D74FB84205D090
:101E4000D64FB84202D0D64FB84206D14DF6FF77F2
:101E5000394046F48057394305E047F6FF5739408B
:101E600044F48057394382830184F0BD828B4FF65E
:101E7000F3731A408283828B0A4382837047F0B5E2
:101E80000C461546002200210026078C4FF6FF6CF9
:101E900007EA0C070784828B018C4FF6FF7707EA6D
:101EA00004264FF60C773A404FF6FF7707EA031700
:101EB0002F433A43B64FB8420ED0B64FB8420BD07C
:101EC000B0F1804F08D0B44FB84205D0B34FB842FC
:101ED00002D0B34FB84206D14FF6FF57394046F40F
:101EE0008077394305E04FF2FF57394044F480775B
:101EF000394382830184F0BD028B4FF2FF331A40D5
:101F00000283028B4FF6FF7303EA01231A43028315
:101F10007047F0B50C461546002200210026078CBC
:101F20004FF6EF7C07EA0C070784028B018C4FF613
:101F3000FF7707EA041640F6FF473A404FF6FF776F
:101F400007EA03373A434FF6FF7707EA05273A4394
:101F50008F4FB8420ED08F4FB8420BD0B0F1804FA8
:101F600008D08D4FB84205D08C4FB84202D08C4F6C
:101F7000B84206D14FF6DF77394046F010073943B3
:101F800005E04FF65F77394044F01007394302838C
:101F90000184F0BD028B4FF6F3731A400283028B6B
:101FA0000A4302837047F0B50C4615460022002113
:101FB000068C4FF6FE773E400684028B018C4FF66E
:101FC0000C7632407E1C06EA03162E433243704ED6
:101FD000B0420ED06F4EB0420BD0B0F1804F08D05F
:101FE0006D4EB04205D06D4EB04202D06C4EB04244
:101FF00006D14FF6FD76314044F00106314305E04D
:102000004FF6F576314044F00106314302830184F6
:10201000F0BD70B505460C465D4885420ED05D4862
:1020200085420BD0B5F1804F08D05B48854205D082
:102030005A48854202D05A48854200D100E000BF8C
:10204000208850B92389A28861882846FFF7ABFF12
:10205000E1882846FFF79EFF25E0208804280AD162
:102060002389A28861882846FFF753FFE188284624
:10207000FFF742FF17E0208808280AD12389A288A9
:1020800061882846FFF7FBFEE1882846FFF7EEFE51
:1020900009E02389A28861882846FFF7A6FEE18827
:1020A0002846FFF795FE70BD2DE9F04105460C4628
:1020B00000260127608808B9022600E00026A088D3
:1020C000012801D1022700E001272088A0B9238937
:1020D000A28861882846FFF766FFE1882846FFF757
:1020E00059FF23893A4631462846FFF712FFE18817
:1020F0002846FFF701FF13E02389A288618828465C
:10210000FFF707FFE1882846FFF7F6FE23893A46E6
:1021100031462846FFF747FFE1882846FFF73AFF98
:10212000BDE8F0810A884B881A438B881A43CB8814
:102130001A430B891A434B891A438B891A43A0F817
:10214000442070474FF6FF71818000210180C180DB
:102150004180017270470021018041808180C180EF
:10216000018141818181C1817047002101804180CD
:10217000012181800021C1800181704700210180FF
:1021800041808180C180018141818181704700004F
:10219000002C0140003401400004004000080040D1
:1021A000000C004021B1028842F00102028004E0EC
:1021B00002884FF6FE731A400280704731B1B0F8C2
:1021C000442042F40042A0F8442005E0B0F8442046
:1021D000C2F30E02A0F8442070471AB183890B4362
:1021E000838102E083898B438381704781827047BA
:1021F00041EA0203A0F8483070471AB183890B43C3
:10220000838102E083898B438381704701894FF684
:10221000F8721140018170470A46002101894FF68A
:102220008F73194011430181704730B504460D4644
:1022300029462046FFF7F0FF208940F00700208163
:1022400030BD2DE9F04104460D4616461F46602D6F
:1022500006D13B46012231462046FFF75AFE05E0F3
:102260003B46012231462046FFF79DFE2946204687
:10227000FFF7D2FF208940F007002081BDE8F08100
:1022800030B50C4600210189C9B24FF6FF7505EA49
:102290000325154325432943018130BD2DE9F04134
:1022A00005460E4617469846002443463A463146B0
:1022B0002846FFF7E5FF2C894FF6F870044044F0FC
:1022C00007044FF68F70044044F070042C81BDE881
:1022D000F081F0B504460D4616461F463B46324691
:1022E00029462046FFF7CCFF208940F4804020811A
:1022F000F0BD0185828270470A46002101884FF6B1
:102300008F731940114301807047F0B50C46154694
:102310001E460021002200230189028B038C4FF608
:10232000F877394021434FF6FC473A4040F2011715
:102330003A434FF6DD773B404FF6FF7707EA061743
:102340002F433B43018102830384F0BD0A460021F1
:10235000018B4FF68F7319401143018370470A4672
:102360000021018B48F6FF7319404FF6FF7303EA13
:1023700002231943018370470A460021818B4FF6DF
:102380008F7319401143818370470A460021818B66
:1023900048F6FF7319404FF6FF7303EA022319430F
:1023A0008183704721B1028842F08002028004E0FC
:1023B00002884FF67F731A400280704721B18288ED
:1023C00042F00402828004E082884FF6FB731A40D8
:1023D0008280704721B1828842F00802828004E046
:1023E00082884FF6F7731A408280704721B1828845
:1023F00042F00102828004E082884FF6FE731A40A8
:10240000828070470A460021018B4FF6F77319400E
:102410001143018370470A460021018B4FF2FF737D
:1024200019404FF6FF7303EA0223194301837047F3
:102430000A460021818B4FF6F773194011438183BF
:1024400070470A460021818B4FF2FF7319404FF607
:10245000FF7303EA02231943818370470A46002170
:10246000018B4FF6FB7319401143018370470A46F5
:102470000021018B4FF6FF3319404FF6FF7303EA3B
:1024800002231943018370470A460021818B4FF6CE
:10249000FB7319401143818370470A460021818BE9
:1024A0004FF6FF3319404FF6FF7303EA0223194337
:1024B000818370470A460021018B4FF67F731940D4
:1024C0001143018370470A460021018BC1F30E01BD
:1024D0004FF6FF7303EA02231943018370470A464C
:1024E0000021818B4FF67F73194011438183704720
:1024F0000A460021818BC1F30E014FF6FF7303EAF8
:1025000002231943818370470A460021018C4FF64C
:10251000FD7319401143018470470A460021018C64
:102520004FF6F77319401143018470470A460021A2
:10253000018C4FF6DF7319404FF6FF7303EA021365
:102540001943018470470A460021018C4FF67F73BE
:1025500019404FF6FF7303EA0213194301847047D1
:102560000A460021018C4FF6FF5319404FF6FF73C6
:1025700003EA02231943018470470A460021018CB3
:102580004FF2FF7319404FF6FF7303EA022319431A
:10259000018470470A460021018C4DF6FF731940F3
:1025A0004FF6FF7303EA023319430184704730B5D5
:1025B000002301248C40A3B2048C9C430484048C2B
:1025C00002FA01F5ADB22C43048430BD30B50023CE
:1025D00004248C40A3B2048C9C430484048C02FA2F
:1025E00001F5ADB22C43048430BD70B50346002024
:1025F00000241846183001258D40ACB21D8CA5432F
:102600001D8409B1082909D100EB6100056825F096
:10261000700505600568154305600EE00D1FC5F3E4
:102620004E052844056825F4E045056005684FF629
:10263000FF7606EA02263543056070BD21B10288A7
:1026400042F00202028004E002884FF6FD731A4055
:102650000280704721B1028842F00402028004E047
:1026600002884FF6FB731A400280704721B18288BE
:1026700042F08002828004E082884FF67F731A4025
:102680008280704702884FF6F7731A4002800288F2
:102690000A430280704782884FF68F731A40828007
:1026A00082880A438280704702894FF6F8731A4085
:1026B000028102890A430281704702894FF67F73C3
:1026C0001A40028102890A4302817047818470475F
:1026D0008185704781867047018770478187704781
:1026E000A0F84010704702884FF6FF431A4002805E
:1026F00002880A43028070470146888E704701466F
:10270000088F70470146888F70470146B1F8400036
:1027100070470146888C70470146088D7047024615
:102720000020138A0B400BB1012000E0002070470D
:10273000CA430282704730B50246002000230024BD
:10274000158A05EA0103958905EA010413B10CB164
:10275000012000E0002030BDCA4302827047000023
:10276000002044490860091D0860091D0860091D12
:10277000086041483F4914310860704700213D49D5
:102780008279002A3AD00A46126803689A430B46B7
:102790001A600A1D126803689A430B1D1A600279B9
:1027A00011440A6803681A430A60324A0832126800
:1027B00003689A432F4B08331A601A1D1268036886
:1027C0009A432C4B0C331A604279102A0ED11A1FEF
:1027D000126803681A43274B08331A601A1D1268DF
:1027E00003681A43234B0C331A600DE021494279E8
:1027F00011440A6803681A430A6005E0027911442B
:102800000A6803689A430A607047002101600171F9
:102810000C214171002181717047164910310968FE
:102820000143144A10321160704701460020114ADA
:10283000143212680A400AB1012000E000207047FB
:102840000C49143108607047014600200022094BF2
:102850001B6803EA0102074B14331B680B4013B1DA
:102860000AB1012000E000207047024914310860DD
:102870007047000000040140FFFF0F000948804737
:1028800009480047FEE7FEE7FEE7FEE7FEE7FEE752
:10289000FEE7FEE7FEE7FEE704480549054A064B6A
:1028A00070470000970300083101000848540020D9
:1028B000485A00204856002048560020014600BFD4
:1028C00070474AF6AA20F8490860704745F2555209
:1028D000F54B1A601A46506091604AF6AA221A60B7
:1028E0004CF6CC421A60704710B500214FF00060E2
:1028F000FDF7DBFF4FF4C060FDF7A0FF2720EB4999
:1029000008700020487001208870C8700846FDF7E4
:102910009AFF2620E5490870002048700220887040
:102920000120C8700846FDF78EFF2520DF4908709A
:1029300000204870032088700120C8700846FDF709
:1029400082FF3420D9490870002048708870012027
:10295000C8700846FDF777FF0320D44908700120AE
:102960004870002088700120C8700846FDF76BFF92
:1029700010BD704710B54FF08040FEF7E3FF40F602
:10298000FF70CB49888000200880C880087248808A
:102990004FF08040FFF7AAF87020C6490880012058
:1029A000488000208880C88002200881002048815B
:1029B0004FF4807088810020C8814FF08040FFF77D
:1029C00014F901218807FFF7EDFB0120B849888041
:1029D000472008800020C88010204880B648FFF7B4
:1029E00085F810BD08B50121B448FEF7C6F84FF4CC
:1029F0004240ADF8000003208DF8020014208DF84D
:102A000003006946AE48FDF7E7FF4FF47470ADF878
:102A1000000003208DF8020014208DF803006946A1
:102A2000A848FDF7D9FF49F28010ADF80000032057
:102A30008DF8020014208DF803006946A248FDF7C6
:102A4000CBFF02208DF802000420ADF80000142016
:102A50008DF8030069469B48FDF7BEFF0120ADF8E5
:102A6000000002208DF8020010208DF80300694656
:102A70009348FDF7B1FF0120944908603020ADF87C
:102A8000000002208DF8020004208DF80300694642
:102A90008D48FDF7A1FF8220ADF8000002208DF8DF
:102AA000020004208DF8030069468548FDF794FF75
:102AB0002020ADF8000002208DF8020004208DF8DF
:102AC000030069467F48FDF787FF46F20800ADF82E
:102AD000000002208DF8020004208DF803006946F2
:102AE0007848FDF779FF0320ADF800008DF802006B
:102AF00010208DF8030069467348FDF76DFF042030
:102B0000ADF800008DF8030003208DF8020069463F
:102B10006F48FDF761FF4020ADF8000004208DF8FC
:102B2000030003208DF8020069466748FDF754FF53
:102B30004FF44050ADF8000010208DF80300032042
:102B40008DF8020069465E48FDF746FF4FF480515C
:102B50005B48FDF7EEFF4FF400515948FDF7EBFFDE
:102B60004FF41040ADF8000010208DF80300022053
:102B70008DF8020069465348FDF72EFF4FF40060C0
:102B8000ADF8000010208DF8030003208DF802003E
:102B900069464D48FDF720FF4FF400414948FDF7D5
:102BA000C8FF4FF480514748FDF7C3FF4FF4006161
:102BB0004548FDF7BEFF4FF48070ADF800000420DB
:102BC0008DF8030003208DF8020069463C48FDF7AC
:102BD00003FF0120ADF8000002208DF80200042060
:102BE0008DF8030069463748FDF7F6FE0220ADF880
:102BF00000008DF8020010208DF80300694631486E
:102C0000FDF7EAFE02212F48FDF795FF3820ADF8C9
:102C1000000003208DF8020018208DF8030069469B
:102C20002748FDF7D9FE4020ADF8000003208DF8BD
:102C3000020010208DF8030069462148FDF7CCFE04
:102C400040211F48FDF775FF08BD10B501213D204B
:102C5000FDF790FD01218803FDF78CFD012148045B
:102C6000FDF795FD01218804FDF791FD0121C804C0
:102C7000FDF78DFD01210846FDF789FD01210220A8
:102C8000FDF785FD01210846FDF767FD012148029A
:102C9000FDF770FD0121C803FDF779FD10BD014668
:102CA00048F6A0401CE000000030004098000020E2
:102CB0000620002010200020000400400002300008
:102CC000000C0140001001400008014080812142B9
:102CD0000014014000E0401E0028FCD148F6A0404E
:102CE0000A1EA1F1010399B2F4D170474FF42F707D
:102CF000FFF7D5FFFFF7A9FFFFF774FE4FF49670BB
:102D0000FFF7CDFFFFF7A1FFFFF76CFEA849481EB4
:102D1000B0F1807F00D31BE0481E4FF0E0225061ED
:102D200050170122002807DA13071D0EA14B00F0EF
:102D30000F04241F1D5503E013071C0E9E4B1C544B
:102D400000BF00204FF0E02290610720106100BF1B
:102D5000FFF710FE09F060FA22F08CF800F054F949
:102D600000F076F900F0A7FAFFF703FE01F027FB69
:102D700002F0FBFB03F0A4F808F001FA1FF092FB4D
:102D8000FFF7B2FD22F076F84FF400618B48FDF7B3
:102D9000D0FE1FF0EBFC8A4908600968086880478C
:102DA000874909688868804709F01CFC01F00BFA24
:102DB0000120844908704FF448701EF066FC1EF034
:102DC00089FA00F01DF940F2E2410520FFF77EFD8F
:102DD00000207D4988844FF47A707C4908807A48C5
:102DE000C088012804D14FF4FA707949088010E0B6
:102DF0007548C08868B97448408D012803D1C8203F
:102E00007349088005E07048408D10B90020704972
:102E1000088002216F48FDF78CFE01206E49087082
:102E20008CE000F048FA01F041F800F07AFB00F085
:102E3000BEF900F052FB01F0BFFE01F0E4FA01F030
:102E400032FD02F0C9FF02F09BFB02F029FE06F002
:102E500053FD05F045F805F09AFE08F0ECFE08F089
:102E6000A6F908F081FD5848808CB8B95648203042
:102E700000F0704000F1007053492031C1F313019C
:102E800000EB4110006848B14F48C088012801D1CB
:102E90000AF0EFF809F0E8FB09F0A5FF4A48808C3A
:102EA000012801D10AF053FE0AF03CFDFFF709FDAD
:102EB0004A48008C012802DB01F003FA00E000BF61
:102EC0004748007820B90BF0BEFC01204449087047
:102ED00043480078012831D11CF09FF91DF04DFDC9
:102EE0003948223000F0704000F10070364922313C
:102EF000C1F3130100EB41100068F8B139480078C4
:102F0000032803DB374800781B2802DB07F00CFEA0
:102F10000EE03548007848B93448007830B9344874
:102F2000007818B933480088642801DB07F0FCFDFD
:102F300031480078022801D103F091F871E7704719
:102F4000704731B5BDF8004001212C48FFF72AF940
:102F500021462A48FFF7BAFB03E02848FFF7D9FBD0
:102F60000446012CF9DC00212448FFF71BF938BD89
:102F700031B5002405E04FF47A70FFF7E2FF601CE2
:102F800084B2BDF800008442F5DB38BD31B50024C1
:102F900005E04FF47A70FFF7D4FF601C84B2BDF8EF
:102FA00000008442F5DB38BDC2684A40C260704709
:102FB0004019010018ED00E000E400E000080140C5
:102FC00058020020EA000020820D0020C6020020E6
:102FD000C402002000100140B1020020A60700201A
:102FE0009C0000203D0100203E0100204101002006
:102FF0000D0200203A0100202101002000040040C1
:10300000704701467047704740F2A110FC49A1F893
:10301000900040F2E770A1F8920040F27320A1F80E
:1030200094006D20A1F882000020F64908804FF43A
:103030007A70F549A1F85A01F4490880F4490880EA
:10304000F4490880F44908800120F4490880704759
:1030500010B509F005F964220021E94809F09FFA4A
:1030600009F0FEF84FF490724FF48071EC4809F0CB
:1030700096FAE348808FE249A1F864000846C08FC1
:10308000A1F866000846B0F84800E6494843E6491A
:103090000860DB4890F84A0040B20871D84890F8C0
:1030A0004C004871D64890F84E008871D44890F88A
:1030B0005000C871D248B0F8520008B1012000E0B9
:1030C0000020D9490872CE48B0F8540008B1012058
:1030D00000E00020D4494872C948B0F8560008B151
:1030E000012000E00020D0498872C548B0F858009F
:1030F00008B1012000E00020CB49C872C04890F818
:103100005A000873BE48B0F85E000861BC48B0F8C9
:1031100060004861BA4890F85C000876B848808A38
:10312000C249A1F85002B648C08AA1F85202B44878
:10313000008BA1F85402B248408BA1F8560210BD92
:103140002DE9F04105460C461646FDF7B6FF352041
:10315000FEF74EFA2846FDF7F5FF002708E034F8A1
:10316000028B2846AD1C4146FEF7EFF8781C87B26B
:10317000B742F4DBFDF7ADFFBDE8F08110B50023E9
:1031800005E031F8024B20F8024B5C1CA3B29342DD
:10319000F7DB10BD30B51346002405E011F8012B14
:1031A00000F8012B651CACB29C42F7DB30BD10B5BA
:1031B0009F48007801281ED19E480078D8B9002089
:1031C0008F49A1F8700009F04BF8642200218C4867
:1031D00009F0C5F94FF490724FF48071904809F0EE
:1031E000BEF911208649A1F87000012091490870AC
:1031F00000208F4908708248B0F8700041F2883191
:10320000884203D08948408A88421CD18948007886
:10321000C8B900207A49A1F8700009F021F86422A9
:103220000021774809F09BF94FF490724FF48071B8
:103230007B4809F094F941F288307149A1F8700097
:1032400001207C4908707C4840787C490978884294
:1032500030D07848007868B377484078774908706C
:1032600077480088401C76490880084600889628E0
:103270000CDD70480078012808D102206D490870E3
:1032800041F270705E49A1F8700013E06C4800884C
:10329000B0F5967F0EDD6748007802280AD16420D9
:1032A00066490870002066490880624908705449E0
:1032B000A1F8700010BD2DE9FF4700255048B0F877
:1032C0007000B0F5FA6F0BD14D48B0F8720041F2C2
:1032D000E101884204D15B48007808B9012538E053
:1032E0004748C088B0F5FA6F0CDD45488088B0F5D6
:1032F000FA6F07DD5348007820B9022501204C49B8
:10330000087026E03E48C08890B93D48808878B96A
:103310003B48B0F84E0058B93948B0F8500038B9B9
:103320004848007820B9032501204149087010E081
:103330003348808FB0F5614F0BDD3148C08FB0F559
:10334000614F06DD3F48007818B90425012038494F
:103350000870002D7CDD002407E004F122003049D4
:10336000085C0DF80400601CC4B20B2CF5DB4FF4B4
:10337000907235492A48FFF70DFF002407E01DF839
:10338000041004F12200264A1154601CC4B20B2C14
:10339000F5DB1B48068D478DB0F82C80B0F81290F5
:1033A00032222A49FFF7EAFE154806854785A0F82C
:1033B0002C80A0F81290012D04D140F2DF3010498A
:1033C00048870CE0022D04D14FF478700C494887EF
:1033D00005E0032D03D140F2E1300949488700257B
:1033E00013480078A8BB4FF4FA600549A1F87000B3
:1033F00041F2E100A1F8720001201249087033E0A7
:10340000820D0020B2000020BE03002052000020E8
:10341000540000205600002058000020CA00002060
:10342000EA0E002040420F0060030020A6070020A3
:10343000AE000020AC000020A4030020A900002062
:10344000AA000020A8000020B68C0208528A0208B8
:103450000BE0FFE70020FE4908704FF47A70FD4949
:10346000A1F87200FFF7A3FE00BFFB488078FB497C
:10347000097888422FD0FA48007860B3F6488078FF
:10348000F6490870F7480088401CF649088008464D
:10349000008802280CDDF2480078012808D10220BB
:1034A000EF49087041F27070EA49A1F8720012E029
:1034B000EC48008804280EDDE948007802280AD18B
:1034C0006420E64908700020E6490880E449087055
:1034D000E049A1F87200BDE8FF87DE48B0F870004F
:1034E000B0F5FA6F1CD1DC488078DF490978884252
:1034F00016D0D9488078DC490870DC480088401C28
:10350000DA49088008460088B0F5617F08DD64204C
:10351000D54908700020D54908800120D449087099
:1035200070472DE9FE4FCB48B0F84C000A281AD25C
:10353000DFE800F00507090B0D0F11131517CD4E2D
:1035400013E0CD4E11E0CD4E0FE0CD4E0DE0CD4E4F
:103550000BE0CD4E09E0CD4E07E0CD4E05E0CD4E5F
:1035600003E0CD4E01E0CA4E00BF00BFB948B0F83D
:103570005000052810D2DFE800F00306080A0C000E
:103580004FF07E570AE0C54F08E0C54F06E0C54F33
:1035900004E04FF07C5701E0C14F00BF00BFAD49D0
:1035A000B1F84E0025F086F802903146029825F0D9
:1035B00095F83946019025F091F80290A54890F8C9
:1035C0004E100120884084B2204625F073F8014651
:1035D0000090029824F070FFB349019025F07EF826
:1035E0000290029825F046F89A49A1F8840001F16A
:1035F000200000F0704000F100702031C1F3130191
:1036000000EB4110406868B100229248223000F07F
:10361000704000F100708F492231C1F3130100EBBB
:10362000411042608B48223000F0704000F1007081
:1036300088492231C1F3130100EB4110806868B161
:1036400000228448223000F0704000F1007081496F
:103650002231C1F3130100EB4110C2607D48C088E4
:10366000E8BB924800887B49A1F8B0008F48408DA4
:10367000A1F8B2008D48008CA1F8B4008B48008EF0
:10368000A1F8B6008948C08DA1F8B8008748408FDE
:10369000A1F8C2008548808FA1F8BA008348B0F82D
:1036A0004000A1F8BC008148B0F86A00A1F8BE0053
:1036B0007E48B0F86C00A1F8C0007D48B0F8B400B6
:1036C000A1F800017A48B0F8B600A1F802017848E4
:1036D000B0F8B000A1F804017548808D00E009E061
:1036E000A1F806017248008EA1F808010846408A38
:1036F000A1F80A016F48008800281CDD01206E49EE
:103700000860554840786D490978884213D052487E
:1037100040786A49087067480088401C65490880FD
:103720000846008842F6E061884204DD00206149D5
:103730000880614908604FF0000900240EE004F1A0
:1037400080005F4911F800805E48005D404503DB62
:1037500009F101001FFA80F9601C84B2042CEEDB31
:103760004FF0000A002409E05748005D0A2803DBF7
:103770000AF101001FFA80FA601C84B2042CF3DB0A
:103780003448223000F0704000F10070314922319D
:10379000C1F3130100EB4110406870B92D4822308D
:1037A00000F0704000F100702A492231C1F313018A
:1037B00000EB4110C068002848D04448008800F061
:1037C0000400E8B142480078424909780844424977
:1037D000097808444149097808444149097808446E
:1037E000404909780844484450443F49097808440E
:1037F0003E49097808443E4909780844002826DDF6
:10380000154880783B49097888421FD01248807853
:103810003849087038480088401C374908800846F5
:103820000088502812DD6420324908700020324997
:103830000880012240F2255124480C38FDF7F5FAA2
:103840002248008840F00400204957E07BE077E000
:10385000AC000020820D0020A4030020A400002062
:10386000A8000020A6000020AD000020B00000202D
:10387000AE0000209A99F940666626419A997941EE
:103880006666A6419A99F9416666264200007A4228
:103890000000FA4200007A430000FA43CDCC4C3FCE
:1038A000ABAA2A3F2549123F0000C842560C00200F
:1038B000A6070020CA00002080812142C800002005
:1038C000EA0E0020680100208A0100200C4400401C
:1038D000490100204A010020EC01002008020020DC
:1038E0004B0100204C010020DE010020E2010020FD
:1038F000E6010020BC000020BE000020088000205F
:10390000F9490870F9490870F9490870002404E081
:103910000020F8490855601C84B2042CF8DB002410
:1039200004E00020F4490855601C84B2042CF8DB44
:103930000120F249087040F6B8301DF0A6FE02E002
:103940000020EF490880ED4800781B281CD1ED4885
:103950008078ED490978884216D0EA488078EA49AB
:103960000870EA480088401CE8490880084600883A
:10397000B0F5E16F08DD002008800120DF49087004
:1039800040F6B8301DF081FEDC4800781B281CD1C1
:10399000DC488078DE490978884216D0D94880789A
:1039A000DB490870DB480088401CDA49088008467B
:1039B0000088B0F5E16F08DD002008800120CF49C4
:1039C000087040F6B8301DF060FED34890F839809A
:1039D00090F83A0000EB0820D049C887CE4890F80C
:1039E0003B00A1F84000CC4890F83C00A1F8420010
:1039F000C94890F83D00A1F84400C74890F83E003F
:103A0000A1F846000846C08FB1F8661088421FD161
:103A1000C248B0F84000C149B1F86810884217D1D7
:103A2000BE48B0F84200BD49B1F86A1088420FD1D3
:103A3000BA48B0F84400B949B1F86C10884207D1CF
:103A4000B648B0F84600B549B1F86E1088421AD0B1
:103A5000B248C08FB149A1F866000846B0F84000EE
:103A6000A1F868000846B0F84200A1F86A000846CC
:103A7000B0F84400A1F86C000846B0F84600A1F880
:103A80006E0001F0D9FCA6480088B0F5967F18DDDD
:103A9000A248B0F88000082804DBA048B0F88000F5
:103AA00063280ED100209E4908809E48006820B1FE
:103AB00000209C498031086003E001209949803151
:103AC00008608E480078112819DA012096490860AC
:103AD00096480088B0F5967F21DD00209349088044
:103AE00091488C380068012804D100208E490C3997
:103AF000086014E001208C490C3908600FE07F4811
:103B0000007811280BDB7D4800781B2807DA00209D
:103B100084498031086001208549C1F8B0017748A7
:103B200000781B287BDB8348007882494978084469
:103B30008049897808447F49C978084490B97B480E
:103B4000008832285ADD002078490880764880387D
:103B5000006818B10020744908604FE001207249E4
:103B600008604BE04FF0000B002411E0482000EB10
:103B700084006949095CC4EB44109D30664A105CBE
:103B8000084418B10BF1010000F0FF0B601C84B277
:103B9000042CEBDB6848007867494978084466499B
:103BA000897808446449C9780844584513D15F4866
:103BB0000088B0F57A7F21DD00205C4908805A48F2
:103BC0008038006818B100205749086016E00120CD
:103BD0005549086012E055480088B0F5967F0DDD24
:103BE00000205249088050488038006818B10020F1
:103BF0004D49086002E001204B4908604F480088A9
:103C00004F4909880844002805DD4FF480514D488C
:103C1000FFF7CAF903E0012043490C3908604A481C
:103C200000884A4909880844002804DD20214848C2
:103C3000FFF7BAF902E001204649086031484078B0
:103C400045490978884224D037488C380068B8B98B
:103C50002C4840784049087040480088401C3F4943
:103C6000088008460088B0F5FA6F12DD0020088051
:103C700001202249087040F6B8301DF006FD08E02A
:103C800036480088002804DD34480088401E334947
:103C900008803348808F05B2002D0DDA6842304924
:103CA000A1F83C050846B0F83C0542F21071084402
:103CB0002B49A1F83C0504E02948808F2849A1F848
:103CC0003C052748C08F05B2002D4BDA68422449D5
:103CD000A1F83E050846B0F83E0542F210710844CE
:103CE0001F49A1F83E0542E0490100204A01002099
:103CF000EC010020680100208A0100203D01002025
:103D0000BE000020A4030020C0000020C20000204C
:103D1000C4000020C6000020EA0E0020820D002012
:103D2000BA0000202C012142BC012242B400002034
:103D300000002242B3010020C50100200C01002038
:103D40000E01002000100140260100202801002063
:103D50000014014094812242B6000020B8000020E7
:103D60000A100020FE48C08FFD49A1F83E05FC481E
:103D7000B0F88C0005B2002D0DDA6842F849A1F8C0
:103D800040050846B0F8400542F210710844F44975
:103D9000A1F8400505E0F248B0F88C00F049A1F820
:103DA0004005EF48B0F88E0005B2002D0DDA6842EC
:103DB000EB49A1F842050846B0F8420542F21071FD
:103DC0000844E749A1F8420505E0E548B0F88E004F
:103DD000E349A1F84205E248B0F8DC0005B2002D45
:103DE0000DDA6842DE49A1F844050846B0F84405FA
:103DF00042F210710844DA49A1F8440505E0D848B8
:103E0000B0F8DC00D649A1F84405D548B0F8DE008A
:103E100005B2002D0DDA6842D149A1F846050846E1
:103E2000B0F8460542F210710844CD49A1F84605A4
:103E300005E0CB48B0F8DE00C949A1F84605C848FE
:103E4000B0F82C0105B2002D0DDA6842C449A1F882
:103E500048050846B0F8480542F210710844C049C8
:103E6000A1F8480505E0BE48B0F82C01BC49A1F80E
:103E70004805BB48B0F82E0105B2002D0DDA6842A6
:103E8000B749A1F84A050846B0F84A0542F2107150
:103E90000844B349A1F84A0505E0B148B0F82E013D
:103EA000AF49A1F84A05BDE8FE8F7047AD48C08F05
:103EB000B0F5166F1CD0AB48C08FB0F5965F17D029
:103EC000A848C08FB0F5165F12D0A648C08FB0F5D5
:103ED000964F0DD0A348C08FB0F5164F08D0A1481B
:103EE000C08FB0F5614F03D04FF416509D49C8877D
:103EF0009C48008D032802DB00209A4908859948D8
:103F0000408D50B19748408D012806D09548408D8E
:103F1000022802D00020934948859248808D0328CA
:103F200003DA9048808D012802DA02208D498885C5
:103F30008C480089B0F57A7F02DB0020894908812E
:103F400088484089B0F57A7F02DB002085494881A6
:103F500084488089B0F57A7F02DB0020814988811E
:103F60008048C089B0F57A7F02DB00207D49C88196
:103F70007C48B0F84800892805DB7A48B0F848004A
:103F8000B0F57F7F04DD4FF4D9707649A1F8480081
:103F90007448B0F84A0014280DD07248B0F84A00AE
:103FA000072804DB6F48B0F84A000E2803DD142010
:103FB0006C49A1F84A006B48B0F84C00092803DDB1
:103FC00007206849A1F84C006648B0F84E00062862
:103FD00004DB6448B0F84E000C2803DD072061497B
:103FE000A1F84E005F48B0F85000012804DB5D489E
:103FF000B0F85000042803DD02205A49A1F850000F
:104000005848B0F85200012803DD01205549A1F8B5
:1040100052005448B0F85400012803DD00205149F3
:10402000A1F854004F48B0F85600012803DD0020E5
:104030004C49A1F856004B48B0F85800012803DD60
:1040400000204849A1F858004648B0F85E000A2808
:1040500006DB4448B0F85E0041F27071884204DD2E
:104060004FF47A703F49A1F85E003E48B0F8600016
:104070000A2806DB3B48B0F8600041F270718842C4
:1040800004DD4FF47A703749A1F860003548C088E4
:10409000012802DD00203349C8803248C088012849
:1040A00009D102202F4988800846008903280CDAAC
:1040B0000320088109E02B48C08830B9294880884E
:1040C000032802DA03202749888070472648807831
:1040D0003C283DDB0020244988700846C078401CFD
:1040E000C8700846C0781F4988861F48C0783C2899
:1040F0002EDB00201C49C87008460079401C08715E
:10410000084600791749C8861748007918281FDB28
:1041100000201549087108464079401C487108463E
:10412000407910490887104840791E2810DD012089
:104130000D49487108468079401C8871084680798D
:104140000C2805DD012088710846C079401CC87123
:1041500005488078034948860348C078888605E08A
:104160000A100020820D0020A4030020634800797B
:10417000C8867047624A1268127803781A44037935
:10418000D21A037A1A440A705D4A12685278437848
:104190001A4043795A40437A1A434A7082788379A5
:1041A0005A40837A5A40564B1B689B781A438A7050
:1041B000534A1268D278C378D21AC3791A44C37AA0
:1041C0001A40CA70704700B54E484F4908604F48C2
:1041D000006880784E4908704C480068C078487084
:1041E0004A4800688079887048480068C079C8707B
:1041F0004648006800790871444800684079487171
:1042000042480068807A887140480068C07AC87166
:104210003E480068007808723C4800684078487260
:104220003A480068007A887238480068407AC87254
:1042300038493748FFF79EFF364800783649096805
:104240000978884218D13348407833490968497859
:10425000884211D12F4880782F490968897888428F
:104260000AD12C48C0782C490968C978884203D102
:1042700001202A49087002E000202849087000BD8A
:10428000F8B504460D466E460020254908800C21ED
:10429000204600F09FF800903078287070786870A1
:1042A000174800688078A178484061784840A87035
:1042B00013480068C078E178484021784840E870A9
:1042C000F8BD70472DE9F04704468946201215498C
:1042D000C8708C704FEA2920487081F800900868F7
:1042E00024F05CF8074600220F4B23F0EDFC054656
:1042F00023F056FC82465046BDE8F087A403002018
:10430000E4000020FF001100DC000020D4000020A9
:1043100020200020E0000020D8000020EA0000203B
:10432000E8000020D00000200000244008B54FF431
:104330000070ADF8000003208DF8020018208DF801
:1043400003006946F848FCF747FB4FF48060ADF87E
:10435000000003208DF8020004208DF80300694658
:10436000F148FCF739FB08BD1FB5F048FCF782FCAB
:104370006846FCF72BFD4FF41650ED49A1F81E01DD
:104380000846B0F81E0100900020ADF80400ADF81A
:104390000600ADF80800ADF80C000C20ADF80A00DE
:1043A0006946E248FCF7A9FC012240F22551DF48AA
:1043B000FCF73BFD0121DD48FCF72BFD1FBD10B5CF
:1043C000FFF7B4FFFFF7D0FF0020DA490880DA4991
:1043D000088010BDF0B50246FF23FF240025002011
:1043E00009E012F8016B86EA0305D44E765D86EA91
:1043F0000403D34E745D0E1EA1F10107F9B2F0D192
:1044000044EA0320F0BD2DE9F0410025CA480088A8
:10441000002876DDCB480078CB490978884270D0F7
:10442000C8480078C8490870C8480088401CC74977
:104430000880084600880528EBDD002240F225515F
:10444000BA48FCF7F2FCBC480088C149088000204B
:10445000BE490880BE480088C82876DCBD48007880
:10446000022803D0BC48007801286FD1B8480078F2
:10447000801EC1B2B748FFF7ADFF0446271204F013
:10448000FF08B3480088801EB249085CB84270D16A
:10449000AF480088401E085C4045F8D10846407887
:1044A000032867D1AD488478C07800EB0420AC497C
:1044B0000880A948007801286FD1AA4E08460088D4
:1044C000092803D14FF48270088016E1A4480088BF
:1044D000172804D140F20510A14908800DE1A04839
:1044E00000880B2804D14FF483709D49088004E1B3
:1044F0009B4800889C2805D140F207109849088005
:10450000FBE0BDE1964800889D2804D14FF48470FB
:1045100093490880F1E0924800888E2804D140F247
:1045200009108F490880E8E08D480088012803D1F0
:1045300000028B490880E0E089480088022806D103
:1045400040F2011086490880D7E08FE18CE1844871
:104550000088032804D14FF4817081490880CCE0A1
:104560007F480088042806D140F203107C49088067
:10457000C3E077E15DE17A480088362804D14FF442
:10458000857077490880B8E0754800883C2805D1D7
:1045900040F20B1072490880AFE0B6E07048008826
:1045A000D42804D14FF486706D490880A5E06C488A
:1045B0000088D52804D140F20D10694908809CE09C
:1045C00067480088DA2804D14FF48770644908806E
:1045D00093E063480088E22804D140F20F1060495C
:1045E00008808AE05E480088E32804D14FF4887090
:1045F0005B49088081E05A480088E42804D140F2F1
:1046000011105749088078E055480088E52804D102
:104610004FF48970524908806FE051480088E628BD
:1046200004D140F213104E49088066E04C480088DF
:10463000E72804D14FF48A70494908805DE0484872
:104640000088E82804D140F215104549088054E05C
:1046500043480088E92804D14FF48B704049088012
:104660004BE03F480088EA2804D140F217103C494B
:10467000088042E03A480088EB2804D14FF48C705F
:104680003749088039E036480088EC2804D140F2E8
:1046900019103349088030E031480088ED2804D1F2
:1046A0004FF48D702E49088027E02D480088EE28B1
:1046B00004D140F21B102A4908801EE028480088D7
:1046C00040F2F511884204D14FF48F7024490880DC
:1046D00013E02348008840F28121884204D140F24F
:1046E0001F101F49088008E01D480088B0F5207F92
:1046F00003D14FF490701A4908801948008806EBDE
:10470000400600201449087077E01548008842F2FE
:104710001071884228DA064E11480088A0F54340FF
:10472000503806EB400668E00008014000380140C0
:10473000BE030020EE000020EC000020B68A020834
:10474000B68B0208A4030020FD000020FE0000201C
:10475000F00000202C2600200B0100202C2000203F
:104760004C000020A6070020FE48008842F210718D
:1047700088420CDBFB4800884900884207DAFA4E81
:10478000F8480088A0EB610006EB400635E0F548EC
:10479000008844F6206188420EDBF248008847F228
:1047A0003051884208DAF14EEE480088A0F59C406E
:1047B000203806EB400620E0EA48008847F23051F6
:1047C00088420EDBE748008849F64041884208DA13
:1047D000E74EE4480088A0F5EA40303806EB400692
:1047E0000BE0E048008849F64041884205DBE14E95
:1047F000DC480088401A06EB400600250EE0032046
:1048000000EB4500DC490C5C042000EB4500085C33
:1048100000EB042026F81500681CC5B2D64988783C
:1048200000EBD071B5EB610FE9DB0A20D3490870CA
:104830001DE0D1484078062803D10B20CF490870ED
:1048400015E0CD484078102803D10C20CB490870E2
:104850000DE0C9484078012802D1C949087006E036
:10486000012504E0022502E0032500E004250122E1
:1048700040F22551C348FCF7D8FA0020C24908800D
:10488000002D0EDD002404E00020BB490855601C0B
:1048900084B2142CF8DB012240F22551B948FCF710
:1048A000C4FABDE8F0812DE9F05F4FF0000BB74886
:1048B000007800287ED00220B5490870AE484078C4
:1048C0004870AD4840794006000E8870B1480088B5
:1048D00042F21071884208DAAF4EAE480088A0F567
:1048E00043405038AB49088033E0AA48008844F67A
:1048F0002061884207DA9C4EA6480088A0EB610040
:10490000A449088025E0A348008847F23051884236
:1049100008DA964E9F480088A0F59C4020389D49B3
:10492000088016E09B48008849F64041884208DA32
:104930008F4E98480088A0F5EA40303895490880A5
:1049400007E08C4E93480088A0F51C404038914900
:104950000880DFF83C8200240FE08E48008806EBD8
:10496000400030F81450291208F1030000F8141028
:1049700000EB44004570601CC4B27F484079A042FF
:10498000EBDC83488078C01CC1B28148FFF722FD70
:10499000824908800846008801127D488078C01C42
:1049A0007B4A11547D48017810468078001D1154CF
:1049B000104600E01AE08078401D79490880002008
:1049C0007249087077490880084602880088401CB0
:1049D0000B4618806E48815C6A48FCF787FA012212
:1049E00040F226616748FCF720FAE3E06E48007861
:1049F00018B96E4800780028F7D04FF0010BBBF1D2
:104A0000000F67D06348008842F21071884208DACC
:104A1000614F60480088A0F5434050385D490880E8
:104A200028E05C48008844F62061884207DA4E4F4F
:104A300058480088A0EB6100564908801AE05548A4
:104A4000008847F23051884208DA484F51480088C0
:104A5000A0F59C4020384F4908800BE04D48008865
:104A600049F64041884205DB424F4A480088401AD7
:104A7000484908804D48007850B13F480579407951
:104A800000EB052085B24348008827F8105021E04C
:104A900045480078F0B1384840795A281ADADFF8EA
:104AA000D890002412E009F1070010F8145000EB30
:104AB000440090F801A00AEB052085B23548008833
:104AC00007EB400020F81450601CC4B22A4840791B
:104AD000A042E8DC3448007818B93448007800284F
:104AE00068D002202A49087023484078487022483C
:104AF000807888702048C078C8701F484078487017
:104B00001D4840794871BBF1000F02D1FF20487069
:104B1000487106211E48FFF75DFC204908800846C1
:104B2000008800121A4988711C480078C871082052
:104B30001B49088000201C4908701C49087019494D
:104B40000880084602880088401C0B4618801048E0
:104B5000815C0C48FCF7CAF9012240F22661094841
:104B600026E027E04C000020A60700208E0B002046
:104B7000560C0020820D00202C260020020100206F
:104B8000FA00002000380140EC000020F80000206E
:104B90002C200020F6000020BE030020F40000209E
:104BA000F2000020EE000020F9000020FB000020B1
:104BB000FCF73BF9BDE8F09F704770B504460D4621
:104BC000FE480078C0B9FE484078FE49097888421E
:104BD00012D0FB484078FB490870FB480088401C15
:104BE000F9490880084600880A2805DD0120F349B4
:104BF00008700020F4490880F0480078012835D179
:104C00000220EE490870F149087003204870201214
:104C10008870CC70281208714D710621EB48FFF79F
:104C2000D9FBEB490880084600880012E7498871E3
:104C3000E7480078C8710820E64908800020E64966
:104C400008800120E5490870012240F22661E4480D
:104C5000FCF7EBF8E04802880088401CDE4B188027
:104C6000DA48815CDE48FCF741F94AE0D348007835
:104C7000022846D1D94800780A2819D10020D749FE
:104C80000870CE490870D7490880D7490870D748BE
:104C9000007828B9D6480078401CD549087030E023
:104CA000D248007801282CD16420D249087028E02D
:104CB000C3484078D0490978884222D0C04840781B
:104CC000CD490870C7480088401CC649088008467E
:104CD0000088502815DD00200880C448007840B9BD
:104CE0000120B6490870C0480078401CBE490870D1
:104CF00007E00020B1490870BB4908706420BD4935
:104D00000870B9480078032806DB0020AB4908701A
:104D1000B4490880B449087070BD70B504460D46AA
:104D2000A648007810B96520A4490870A348007807
:104D3000652836D16620A14908700220A349087071
:104D40000620487020128870CC70281208714D71AE
:104D500006219E48FFF73EFB9D49088008460088D3
:104D600000129A4988719A480078C87108209949B8
:104D70000880002098490880012098490870012285
:104D800040F226619648FCF750F893480288008864
:104D9000401C914B18808D48815C9148FCF7A6F827
:104DA0004CE086480078662848D18C4800780B286B
:104DB00026D10020894908708049087089490880F7
:104DC000894908708B480078012803D08948007809
:104DD00002280AD101208949087089480078401CBE
:104DE0008749087000208749087082480078642845
:104DF00002D100207D49087000207E4908701DE026
:104E00006F4800787C490978884217D06C48007850
:104E10007949087073480088401C72490880084628
:104E20000088B0F5487F09DD0020088065206349CF
:104E300008706D480078401C6B4908706A4800781B
:104E4000032810DB00205D49087066490880664928
:104E5000087068480078642802D10020634908700F
:104E600000206449087070BD2DE9F04106460D46EA
:104E700017465248007810B9C920504908704F4869
:104E80000078C9285BD1CA204C49087002204F49DC
:104E900008701020487030128870CE702812087187
:104EA0004D716806000E8871002410E037F8140078
:104EB0000012072101EB4401444A505417F8141022
:104EC000072000EB4400401C1154601C84B2AC422B
:104ED000ECDB072000EB4400C1B23C48FFF77AFA54
:104EE0003B490880084600880012072101EB440175
:104EF000364A505436480178072000EB4400401CE5
:104F00001154072000EB4400801C32490880002027
:104F100031490880012031490870012240F22661A0
:104F20002F48FBF782FF2C4802880088401C2A4B40
:104F300018802648815C2A48FBF7D8FF31E01F48DB
:104F40000078CA282DD1254800780C280BD10020E4
:104F500022490870194908702249088022490870BE
:104F6000244908701DE016480078234909788842D2
:104F700017D013480078204908701A480088401C50
:104F80001849088008460088B0F5487F09DD0020F0
:104F90000880C9200949087013480078401C12494C
:104FA00008701148007803282FDB0020034908709F
:104FB0000C4908800C4908700E4925E001010020C9
:104FC000A403002006010020080100202C2000205E
:104FD000F4000020F2000020EE000020020100207A
:104FE000003801400401002000010020DC02002004
:104FF0000A0100204A00002003010020C90200200D
:10500000CA020020D20200200870BDE8F0810246EA
:10501000881AC0F34F00704710B504460B460020B5
:10502000F04908704BB92146EF48FFF7F0FF4CF20A
:1050300050310844ED49088062E1012B09D1214635
:10504000EB48FFF7E4FF42F210710844E74908809B
:1050500056E1022B09D12146E648FFF7D8FF44F676
:1050600020610844E14908804AE1032B09D1214627
:10507000E148FFF7CCFF47F230510844DB49088094
:105080003EE1042B09D12146DC48FFF7C0FF49F679
:1050900040410844D549088032E1082BCCD1214653
:1050A000D348FFF7B4FFD14908800120CD490870EB
:1050B000CE480088B0F5827F03D10920CB49088013
:1050C0001EE1CA48008840F20511884203D117202A
:1050D000C649088014E1C5480088B0F5837F03D134
:1050E0000B20C24908800BE1C048008840F207113C
:1050F000884203D19C20BD49088001E1BB4800885B
:10510000B0F5847F03D19D20B8490880F8E0B74806
:10511000008840F20911884203D18E20B3490880EB
:10512000EEE0B2480088B0F5807F03D10120AF499E
:105130000880E5E0AD48008840F20111884203D1C3
:105140000220AA490880DBE0A8480088B0F5817FEA
:1051500003D10320A5490880D2E0A448008840F28A
:105160000311884203D10420A0490880C8E09F4869
:105170000088B0F5857F03D136209C490880BFE0C8
:105180009A48008840F20B11884203D13C2097498D
:105190000880B5E095480088B0F5867F03D1D4201B
:1051A00092490880ACE09148008840F20D11884295
:1051B00003D1D5208D490880A2E08C480088B0F545
:1051C000877F03D1DA208949088099E087480088E1
:1051D00040F20F11884203D1E220844908808FE019
:1051E00082480088B0F5887F03D1E3207F4908809A
:1051F00086E07E48008840F21111884203D1E42005
:105200007A4908807CE079480088B0F5897F03D12D
:10521000E5207649088073E07448008840F2131155
:10522000884203D1E6207149088069E06F48008810
:10523000B0F58A7F03D1E7206C49088060E06B48B5
:10524000008840F21511884203D1E82067490880A0
:1052500056E066480088B0F58B7F03D1E9206349AA
:1052600008804DE06148008840F21711884203D160
:10527000EA205E49088043E05C480088B0F58C7FF6
:1052800003D1EB20594908803AE05848008840F2A1
:105290001911884203D1EC205449088030E053486A
:1052A0000088B0F58D7F03D1ED205049088027E0BC
:1052B0004E48008840F21B11884203D1EE204B4932
:1052C00008801DE049480088B0F58F7F04D140F286
:1052D000F5104649088013E04448008840F21F1149
:1052E000884204D140F281204049088008E03F48CC
:1052F0000088B0F5907F03D14FF420703B490880BF
:105300003A48008810BD3949098842F2107291422A
:1053100008DA354835490988A1F54341503900EB91
:10532000410048E03149098842F2107291420CDB99
:105330002E4909885200914207DA2D482B490988E5
:10534000A1EB620100EB410035E02849098844F6F1
:10535000206291420EDB2549098847F23052914282
:1053600008DA244821490988A1F59C41203900EB3D
:10537000410020E01D49098847F2305291420EDB7E
:105380001A49098849F64042914208DA1A481749F1
:105390000988A1F5EA41303900EB41000BE01349DF
:1053A000098849F64042914205DB14480F490988B3
:1053B000891A00EB4100704770B504460D46294636
:1053C0002046FBF793FD00BF80212046FBF7FCFD44
:1053D0000028F9D000BF40212046FBF7F5FD00284A
:1053E000F9D070BD0B010020BE0300204C0000204E
:1053F000A60700208E0B0020560C0020820D0020F6
:1054000008B50820ADF8000003208DF80200042044
:105410008DF803006946FE48FBF7DEFA0420ADF87C
:10542000000003208DF8020018208DF80300694663
:10543000F748FBF7D1FA08BD1FB5F648FBF71AFC91
:105440006846FBF7C3FCF448C08F0090F248B0F800
:10545000440038B90020ADF804000320EE49A1F85B
:10546000400011E0EC48B0F84400082804D0EA48B5
:10547000B0F84400182807D10320E749A1F84000FC
:105480004FF48050ADF80400E348B0F8420018B97A
:105490000020ADF806000EE0DF48B0F84200042816
:1054A00003D1C002ADF8060005E00020DA49A1F8FA
:1054B0004200ADF80600D848B0F8440018B9002002
:1054C000ADF8080019E0D448B0F84400082804D129
:1054D0004FF4C060ADF808000FE0CF48B0F84400CA
:1054E000182804D14FF48060ADF8080005E00020D2
:1054F000C949A1F84400ADF80800C748B0F8460013
:10550000032803D10020ADF80C0010E0C248B0F829
:105510004600022804D14FF44070ADF80C0006E0BC
:105520000320BD49A1F846000020ADF80C000C2076
:10553000ADF80A000020ADF80400ADF80600ADF8A3
:105540000800ADF80C000C20ADF80A006946B1481F
:10555000FBF7D3FB012240F22551AE48FBF765FC77
:105560000121AC48FBF755FC1FBD10B5FFF748FF04
:10557000FFF762FF0020A9490880A949088010BDF3
:105580002DE9F0410027A648008800287BDDA548CA
:105590000078A5490978884275D0A2480078A249C8
:1055A0000870A2480088401CA0490880084600886E
:1055B0000528EBDD002240F225519648FBF735FC2B
:1055C000974800889A4908800020984908809848A0
:1055D0000088B0F5006F70DC8F48203000F070401C
:1055E00000F100708C492031C1F3130100EB411030
:1055F000406800287BD18848223000F0704000F1DC
:10560000007085492231C1F3130100EB411040685D
:1056100000286CD18048223000F0704000F100700A
:105620007D492231C1F3130100EB411000690028CC
:105630005DD180480078022857D17D480078801ECF
:10564000C1B27C48FEF7C6FE04462512E6B2784891
:105650000088801E7749085CA84244D174480088BD
:10566000401E085CB0423ED10846407803280BD16A
:105670000120714908706F488478C07800EB0420DD
:105680006E490880F0E1F8E16A48407810280DD1B1
:1056900000206B49088001206A49087065488478B9
:1056A000C07800EB042065490880DDE1614840785E
:1056B000012803D164490870D6E1D4E15D484078FF
:1056C00006280ED100205E49088001205F4908703D
:1056D00058488478C07800EB042058490880C3E11A
:1056E00005E00127C0E10227BEE10327BCE14A48EB
:1056F000203000F0704000F1007047492031C1F3C4
:10570000130100EB4110406878B1002408E04948DB
:10571000005D4F49085502204E490870601C84B254
:10572000434800888442F2DB9EE13B48223000F08F
:10573000704000F1007038492231C1F3130100EBD1
:1057400041104068002861D039480088B0F5006FEA
:105750005DDC38480078402818D136484078392830
:1057600014D134488078392810D13248C0782328A1
:105770000CD12F480088042808D13748017837A079
:1057800005F05CFC40F6B830FDF7F2FB29480078E4
:10579000402813D12748407831280FD125488078F8
:1057A00031280BD12348C078232807D1204800880E
:1057B000042803D101202E49087016E01D48007806
:1057C000402812D11B48407832280ED119488078E1
:1057D00032280AD11748C078232806D114480088F7
:1057E000042802D10220224908701248007840287B
:1057F0004BD110484078332847D10E488078332861
:1058000043D10C48C07823283FD133E0F8E0CDE005
:105810000008014000440040820D00200E010020DD
:105820000C010020A40300201D0100201E01002007
:1058300010010020F42C0020180100201601002087
:10584000B0000020190100201A0100201B010020D7
:10585000CA4F00205E0200202B02002054657374A2
:1058600020526573746172744E6F3D25640D0A0099
:1058700008020020F8480088042806D10120F749D2
:105880000870F7A005F0DAFB4EE0FD4800784028EC
:1058900019D1FB484078342815D1F948807834284C
:1058A00011D1F748C07823280DD1EB48008804288F
:1058B00009D10020E94908700120F2490870F2A0DE
:1058C00005F0BCFB30E0E5480078012803D1022058
:1058D000E249087028E0F6480078F549497808441C
:1058E000F34989780844F249C9780844E0B1F1489D
:1058F0000078C8B9F0480078022803D0EE48007854
:1059000003280BD1DE48807801280DD1DC48C0780F
:105910003D2809D10320E849087005E00120E74946
:1059200008700020E6490880E2480078F0B30025BE
:1059300005E0D348405DE3494855681CC5B2C648F8
:1059400000888542F5DBC4480088DF4908800020D4
:10595000DE4908800120DE490860012240F226610C
:10596000DC48FBF762FAD94802880088401CD74B14
:105970001880D448815CD748FBF7B8FA002505E0C9
:10598000BF48405DD4494855681CC5B2B24800883C
:105990008542F5DBB0480088D04908800020D04916
:1059A00008800120CA490860012200E016E040F2A8
:1059B0002661CC48FBF739FAC94802880088401CA8
:1059C000C74B1880C448815CC648FBF78FFAB948BA
:1059D0000078022802D10020B6490870B748007844
:1059E000E8BB012240F22551BE48FBF71EFABD4834
:1059F0000C30008840F00400BA490C31088033E0D4
:105A0000B94800F0704000F10070B749C1F31301CC
:105A100000EB4110006910B3002405E09848005DD8
:105A2000B2490855601C84B28B4800888442F5DB7B
:105A300089480088AE4908800020AE4908800846A1
:105A400002880088401C0B461880A848815CAA4840
:105A5000FBF74CFA012240F22661A74800E003E080
:105A6000FBF7E3F900E00427012240F225519D48AD
:105A7000FBF7DBF90020A1490880002F0EDD002490
:105A800004E000207E490855601C84B2142CF8DB29
:105A9000012240F225519348FBF7C7F9BDE8F08198
:105AA0002DE9F0419648007800287DD002208A49EF
:105AB0000870734840784870714840794006000E7D
:105AC00088709048008842F21071884205DA8E4E44
:105AD0008C4800888B49088043E08A48008844F657
