:020000040800F2
:10C800009885002011EF000821AB010823AB010837
:10C8100027AB01082BAB01082FAB0108000000007B
:10C8200000000000000000000000000033AB010821
:10C8300035AB01080000000037AB010839AB010837
:10C840002BEF00082BEF00082BEF00082BEF000860
:10C850002BEF00082BEF00082BEF00082BEF000850
:10C86000A1B001082BEF00082BEF00082BEF000808
:10C870002BEF00082BEF00082BEF00082BEF000830
:10C880002BEF00082BEF00082BEF00082BEF000820
:10C890002BEF00082BEF00082BEF0008BDB00108BC
:10C8A0002BEF00082BEF00082BEF00082BEF000800
:10C8B000DDB001082BEF00082BEF00082BEF00087C
:10C8C0002BEF00082BEF00082BEF00082BEF0008E0
:10C8D0002BEF0008D5AC0108BBAD010859AE01082B
:10C8E0002BEF00082BEF00082BEF00082BEF0008C0
:10C8F0002BEF00082BEF00082BEF00082BEF0008B0
:10C900002BEF00082BEF00082BEF00082BEF00089F
:10C91000FDAF01082BEF00082BEF00082BEF0008FC
:10C920002BEF00082BEF00082BEF00082BEF00087F
:10C93000DFF80CD031F00EFD0048004745F3000849
:10C940009885002080F30888704700000CB500200F
:10C95000019000906C48006840F480306A4908609B
:10C9600000BF6948006800F4003000900198401C46
:10C970000190009818B90198B0F5A06FF1D1624804
:10C98000006800F4003010B10120009001E00020A8
:10C9900000900098012843D15C48006840F01000E6
:10C9A0005A4908600846006820F0030008600846FD
:10C9B000006840F0020008605348406852494860EF
:10C9C0000846406848600846406840F48060486017
:10C9D0000846406820F47C1048600846406840F4EF
:10C9E000E81048600846006840F08070086000BFAA
:10C9F0004548006800F000700028F9D042484068BF
:10CA000020F00300404948600846406840F00200BA
:10CA1000486000BF3C48406800F00C000828F9D18D
:10CA20000CBD10B5FFF792FF10BD10B53648006879
:10CA300040F0010034490860084640683449084025
:10CA40003149486008460068324908402E4908606C
:10CA50000846006820F4802008600846406820F4FA
:10CA6000FE0048604FF41F008860FFF7DAFF4FF0C8
:10CA700000602949086010BD10B500210020002287
:10CA8000214B5B6803F00C0121B1042906D0082971
:10CA900028D107E0214B224C236027E01F4B204C7C
:10CAA000236023E0184B5B6803F47010164B5B683F
:10CAB00003F48032022303EB904022B9194B434325
:10CAC000174C23600DE0104B5B6803F4003323B177
:10CAD000144B4343124C236003E0104B4343104C70
:10CAE000236003E00D4B0E4C236000BF00BF064BDC
:10CAF0005B68C3F303130C4CE15C094B1B68CB4030
:10CB0000074C236010BD00000010024000200240CE
:10CB10000000FFF8FFFFF6FE08ED00E000127A00CB
:10CB20000000002000093D0004000020DF480068EC
:10CB300040F00100DD49086008464068DC490840D3
:10CB4000DA49486008460068DA490840D749086071
:10CB50000846006820F4802008600846406820F4F9
:10CB6000FE0048604FF41F0088607047CF49096895
:10CB700021F48031CD4A11601146096821F48021E9
:10CB80001160B0F5803F03D0B0F5802F0ED106E0E4
:10CB9000C649096841F48031C44A116007E0C349BD
:10CBA000096841F4A021C14A116000E000BF00BF44
:10CBB000704710B501460022002300204A11012AC7
:10CBC00002D1BA4C236806E0022A02D1B74C236A8C
:10CBD00001E0B64C636A01F01F02012494401C403E
:10CBE0000CB1012000E0002010BD38B500200090FD
:10CBF0000024002500BF3120FFF7DBFF0546009829
:10CC0000401C00900098B0F5A06F01D0002DF2D02C
:10CC10003120FFF7CEFF08B1012400E000242046B8
:10CC200038BD01460020A14A106820F0F80040EA13
:10CC3000C10010607047A04908607047024600209C
:10CC40009A4B586820F47C1042EA01031843974B32
:10CC50005860704798490866704701460020934A1B
:10CC6000506820F003000843506070478F484068C8
:10CC700000F00C007047014600208C4A506820F0FC
:10CC8000F00008435060704701460020874A506812
:10CC900020F4E06008435060704701460020834A5A
:10CCA000506820F4605040EAC1005060704729B1DC
:10CCB0007E4A527A02437D4B5A7204E07B4A527A92
:10CCC00082437A4B5A7270477B49D831086070476B
:10CCD00001460020754A506820F4404008435060E7
:10CCE00070470021714A20321170704A82F820107A
:10CCF000012802D004280AD104E001216B4A203225
:10CD0000117005E00521694A2032117000E000BF72
:10CD100000BF70476949086070476449096A014368
:10CD2000624A11627047654944390860704730B5FE
:10CD300000210022002400235C4D6D6805F00C01E9
:10CD400021B1042905D0082923D105E05C4D0560F7
:10CD500022E05B4D05601FE0544D6D6805F47012D4
:10CD6000524D6D6805F48034022505EB92421CB9E2
:10CD7000544D554305600BE04C4D6D6805F400358E
:10CD80001DB1504D5543056002E04D4D55430560C2
:10CD900002E04B4D056000BF00BF444D6D6805F0DB
:10CDA000F0010909484D6B5C0568DD4045603F4D69
:10CDB0006D6805F4E061090A434D6B5C4568DD4030
:10CDC00085603A4D6D6805F46051C90A3E4D6B5C53
:10CDD0004568DD40C560354D6D6805F44041890BFF
:10CDE0003A4D6B5CC568B5FBF3F5056130BD29B103
:10CDF0002E4A526902432D4B5A6104E02B4A526974
:10CE000082432A4B5A61704729B1284A92690243EA
:10CE1000264B9A6104E0254A92698243234B9A612A
:10CE2000704729B1214AD2690243204BDA6104E0FC
:10CE30001E4AD26982431D4BDA61704729B11B4AF1
:10CE4000D2680243194BDA6004E0184AD268824380
:10CE5000164BDA60704729B1144A12690243134B2A
:10CE60001A6104E0114A12698243104B1A6170473B
:10CE700012494039086070470F49C86470470B4930
:10CE8000C87170470948406A40F08070074948629D
:10CE9000704701460020054A92680A400AB1012005
:10CEA00000E000207047014988727047001002407E
:10CEB0000000FFF8FFFFF6FE0000424280044242FD
:10CEC00000127A0000093D00140000202400002018
:10CED00031490143314A1160704770B50021002388
:10CEE0000F22C47804B32D4C246804F4E064C4F524
:10CEF000E064210AC1F10403CA40447804FA03F152
:10CF00008478144021430901254C0678A155047802
:10CF100004F01F050124AC4005786D11AD0005F14A
:10CF2000E025C5F8004109E0047804F01F0501245C
:10CF3000AC401C4D0678761145F8264070BD1A4A63
:10CF40000A400243154B1B1F1A60704739B1134A40
:10CF5000121D12680243114B1B1D1A6006E00F4A96
:10CF6000121D126882430D4B1B1D1A607047042866
:10CF700008D14FF0E021096941F004014FF0E022AF
:10CF8000116107E04FF0E021096921F004014FF041
:10CF9000E0221161704700000000FA050CED00E08E
:10CFA00000E400E080E100E080FFFF1F10B50446D0
:10CFB000CC48844208D101210420FFF73FFF002123
:10CFC0000420FFF73BFF46E0C748844208D1012117
:10CFD0000820FFF733FF00210820FFF72FFF3AE07A
:10CFE000C248844208D101211020FFF727FF002109
:10CFF0001020FFF723FF2EE0BD48844208D1012115
:10D000002020FFF71BFF00212020FFF717FF22E061
:10D01000B848844208D101214020FFF70FFF0021CA
:10D020004020FFF70BFF16E0B348844208D10121EE
:10D030008020FFF703FF00218020FFF7FFFE0AE0BA
:10D04000AE48844207D101218015FFF7F7FE002189
:10D05000A015FFF7F3FE10BD10B501210846FFF73C
:10D06000EDFE00210120FFF7E9FE10BD2DE9F041A2
:10D07000024600250026002000230024002791F806
:10D0800003C00CF00F0591F803C00CF0100CBCF1BC
:10D09000000F03D091F802C04CEA050591F800C0DA
:10D0A000BCF1000F31D0146800202BE04FF0010CD0
:10D0B0000CFA00F3B1F800C00CEA03069E4220D13E
:10D0C00083004FF00F0C0CFA03F7BC4305FA03FC86
:10D0D0004CEA040491F803C0BCF1280F06D14FF0CC
:10D0E000010C0CFA00FCC2F814C00AE091F803C06D
:10D0F000BCF1480F05D14FF0010C0CFA00FCC2F84E
:10D1000010C0401C0828D1D31460B1F800C0BCF195
:10D11000FF0F34DD546800202EE000F1080C4FF0C2
:10D12000010808FA0CF3B1F800C00CEA03069E42AD
:10D1300021D183004FF00F0C0CFA03F7BC4305FA22
:10D1400003FC4CEA040491F803C0BCF1280F05D19C
:10D1500000F1080C08FA0CF8C2F8148091F803C02A
:10D16000BCF1480F07D100F1080C4FF0010808FA94
:10D170000CF8C2F81080401C0828CED35460BDE8DB
:10D18000F0814FF6FF710180022181700421C1708E
:10D1900070470246002093680B400BB1012000E06D
:10D1A000002070470146886880B270470246002020
:10D1B000D3680B400BB1012000E00020704701460E
:10D1C000C86880B2704701617047416170470AB119
:10D1D000016100E041617047C16070474FF48032E7
:10D1E0000A43826181618261826982697047024675
:10D1F0000020434B18684FF68073184040EA021035
:10D2000008433F4B186070473E49C8617047F0B50E
:10D210000A46002300240021002500F00046B6F154
:10D22000004F02D1364EF16901E0354E7168C0F30E
:10D23000034583B200F44016B6F5401F08D121F033
:10D2400070612F4E766826F070662D4F7E6012E07A
:10D2500000F48016B6F5801F06D1032606FA05F401
:10D26000A14341F0706106E0460D360103FA06F66F
:10D27000B14341F0706122B1460D360103FA06F662
:10D28000314300F00046B6F1004F02D11C4EF1616F
:10D2900001E01B4E7160F0BD30B500228B071C0F02
:10D2A0000F2303FA04F2164B08338C1053F8243082
:10D2B0009343134C08348D1044F8253023468C10CA
:10D2C00053F824308C07240F00FA04F423430C4C49
:10D2D00008348D1044F8253030BD0A49DC3108602F
:10D2E0007047000000080140000C014000100140A0
:10D2F0000014014000180140001C014000200140C2
:10D30000000001400000204210B50446FB48844262
:10D3100009D101218803FFF791FD00214FF48040DE
:10D32000FFF78CFD32E0F648844209D10121480420
:10D33000FFF791FD00214FF40030FFF78CFD25E051
:10D34000F048844209D101218804FFF784FD0021BF
:10D350004FF48020FFF77FFD18E0EB48844209D1AD
:10D360000121C804FFF777FD00214FF40020FFF7EB
:10D3700072FD0BE0E548844208D101210805FFF762
:10D380006AFD00214FF48010FFF765FD10BD2DE907
:10D39000F04786B005460E460024A24600BFA146CF
:10D3A0000027B08900B100BF2F462C8A4CF6FF70D1
:10D3B0000440F08804432C82AC894EF6F3100440FC
:10D3C000B08831890843718908430443AC81AC8A31
:10D3D0004FF6FF400440B0890443AC8201A8FFF738
:10D3E000A6FCC648874202D1DDF810A001E0DDF8B6
:10D3F0000CA0A88900F4004040B10AEBCA0000EB81
:10D400000A1031684900B0FBF1F807E00AEBCA00E6
:10D4100000EB0A1031688900B0FBF1F86420B8FB1A
:10D42000F0F004012009642101FB1089A88900F4AF
:10D43000004040B1322000EBC900B0FBF1F000F039
:10D440000700044308E0322000EB09106421B0FB20
:10D45000F1F000F00F0004432C8106B0BDE8F08726
:10D460004FF41651016000218180C18001810C219F
:10D47000418100218181704710B502460020108A49
:10D480004FF2FF0318400B884C8823438C882343BA
:10D49000CC8823431843108210BD002101804180B5
:10D4A0008180C180704721B1828942F4005282811B
:10D4B00004E082894DF6FF731A4082817047F0B50F
:10D4C0000346002400260025002040F66A17B942D2
:10D4D00000D100BF1846C1F3421401F01F06012716
:10D4E00007FA06F5012C01D10C3004E0022C01D121
:10D4F000103000E014301AB107682F43076002E0D3
:10D500000768AF430760F0BD1AB1838A0B4383827B
:10D5100002E0838A8B4383827047028A4FF6F0735E
:10D520001A400282028A0A430282704782894FF2BD
:10D53000FF731A40828182890A438281704721B138
:10D54000828942F00202828104E082894FF6FD73F3
:10D550001A4082817047028A4FF6DF731A400282B6
:10D56000028A0A430282704721B1028A42F4804251
:10D57000028204E0028A4BF6FF731A40028270476F
:10D58000C1F308028280704701468888C0F3080012
:10D590007047818941F0010181817047028BD2B2CD
:10D5A0000283028B42EA012202837047028B02F45B
:10D5B0007F420283028B0A430283704721B1828A31
:10D5C00042F02002828204E0828A4FF6DF731A4022
:10D5D0008282704721B1828A42F01002828204E086
:10D5E000828A4FF6EF731A408282704721B1828A95
:10D5F00042F00802828204E0828A4FF6F7731A40F2
:10D600008282704721B1828942F40042828103E024
:10D610008289C2F30E028281704721B1828A42F46C
:10D620000062828204E0828A4FF2FF731A40828293
:10D630007047828A4FF6FB731A408282828A0A43BD
:10D640008282704721B1828A42F00202828204E023
:10D65000828A4FF6FD731A4082827047024600208C
:10D66000B1F5007F00D100BF13880B400BB1012042
:10D6700000E00020704701F40072B2F5007F00D195
:10D6800000BFCA430280704770B5024600240023E1
:10D690000025002040F66A16B14200D100BFC1F358
:10D6A000421501F01F03012606FA03F3012D02D1F2
:10D6B0009689334006E0022D02D1168A334001E0FC
:10D6C000968A33400C12012606FA04F41688344078
:10D6D00013B10CB1012000E0002070BD10B5002294
:10D6E000002340F66A14A14200D100BF0A120124AF
:10D6F0009440A3B2DC43048010BD00000038014018
:10D700000044004000480040004C004000500040F1
:10D7100001460020FE4A106800F0380008431060FF
:10D720007047FB49096821F00801F94A1160114668
:10D730000968014311607047F549096821F010013B
:10D74000F34A116011460968014311607047F148BE
:10D75000EF494860F04848607047EE48EC4948603F
:10D76000ED4848607047EA48006940F08000E849A9
:10D7700008617047E648006940F08000E4490861AC
:10D7800070470420E249C96801F0010109B1012094
:10D790000EE0DF49C96801F0040109B1022007E089
:10D7A000DB49C96801F0100109B1032000E0042041
:10D7B000704700B502460423FFF7E3FF034603E08A
:10D7C000FFF7DFFF0346521E012B01D1002AF7D1DC
:10D7D00002B90523184600BD30B5044604254FF4B0
:10D7E0003020FFF7E6FF0546042D17D1C848006931
:10D7F00040F00200C649086108464461006940F0F3
:10D80000400008614FF43020FFF7D3FF0546C048C1
:10D81000006941F6FD710840BD490861284630BDE8
:10D8200010B504244FF43020FFF7C3FF0446042C46
:10D8300016D1B748006940F00400B54908610846B0
:10D84000006940F0400008614FF43020FFF7B1FF5D
:10D850000446AF48006941F6FB710840AC490861D5
:10D86000204610BD00B502460423FFF78AFF034699
:10D8700003E0FFF786FF0346521E012B01D1002A69
:10D88000F7D102B90523184600BD10B504244FF4A2
:10D890003020FFF7E7FF0446042C16D19C480069AE
:10D8A00040F004009A4908610846006940F04000D1
:10D8B00008614FF43020FFF7D5FF04469448006913
:10D8C00041F6FB71084092490861204610BD0020D6
:10D8D0008F49C96901F0020109B1012000E000206F
:10D8E000704730B5A5250424FFF7F1FF00B10025EE
:10D8F0004FF43020FFF75DFF0446042C3AD18548F1
:10D9000083498860844888600846006940F02000A8
:10D9100008610846006940F0400008614FF430207B
:10D92000FFF747FF0446042C1BD17948006941F6F4
:10D93000DF710840764908610846006940F0100030
:10D94000086176480580E002FFF733FF0446052CA6
:10D9500010D06F48006941F6EF7108406C490861CA
:10D9600008E0052C06D06A48006941F6EF710840CE
:10D9700067490861204630BD78B506460C46042547
:10D9800000200090E802FFF714FF0546042D24D183
:10D990005F48006940F001005D4908613480E80299
:10D9A000FFF707FF0546042D10D1B01C0090200C96
:10D9B00000990880E802FFF7FCFE0546544800691C
:10D9C00041F6FE7108405249086106E0504800697E
:10D9D00041F6FE7108404E490861284678BD70B591
:10D9E00004460D460426F002FFF7E3FE0646042E29
:10D9F00011D14748006940F0010045490861258080
:10DA0000F002FFF7D6FE06464148006941F6FE7176
:10DA100008403F490861304670BD70B505460E4666
:10DA20000424E002FFF7C5FE0446042C17D1394850
:10DA300037498860384888600846006940F010001F
:10DA400008612E80E002FFF7B4FE0446052C06D0E4
:10DA50002F48006941F6EF7108402D4908612046C2
:10DA600070BD2DE9F04304464FF6FF763746B046C9
:10DA7000B1460425E443E6B2C4F30727C4F30748DC
:10DA80004FEA1469E802FFF794FE0546042D49D1D8
:10DA900020481F498860204888600846006940F097
:10DAA00010000861FF2E06D01C4808300680E802EE
:10DAB000FFF77FFE0546042D08D1FF2F06D017483B
:10DAC0000A300780E802FFF774FE0546042D0AD1EC
:10DAD000B8F1FF0F07D011480C30A0F80080E80221
:10DAE000FFF767FE0546042D0AD1B9F1FF0F07D0F5
:10DAF0000A480E30A0F80090E802FFF75AFE0546EB
:10DB0000052D0FD00248006941F6EF71084007E08B
:10DB10000020024023016745AB89EFCD00F8FF1FCD
:10DB2000664908612846BDE8F08330B505460424FF
:10DB30004FF43020FFF73DFE0446042C41D16048ED
:10DB40005E4988605F4888600846006940F02000B0
:10DB500008610846006940F0400008614FF4302039
:10DB6000FFF727FE0446042C22D15448006941F6F1
:10DB7000DF710840514908610846006940F0100013
:10DB800008611DB100205049088002E0A5204E49DF
:10DB900008804FF43020FFF70CFE0446052C10D00F
:10DBA0004648006941F6EF7108404449086108E0C1
:10DBB000052C06D04148006941F6DF7108403F4915
:10DBC0000861204630BDF0B505460E4617460424D0
:10DBD0003B483A4988603B488860E002FFF7E9FD2E
:10DBE0000446042C19D13548006940F0100033492F
:10DBF000086147F0F800304328433349891C088006
:10DC0000E002FFF7D6FD0446052C06D02B4800693C
:10DC100041F6EF710840294908612046F0BD2748C8
:10DC2000C069800870472548006A70470020234972
:10DC3000096801F0200109B1012000E000207047CF
:10DC400029B11E4A126902431C4B1A6104E01B4AA7
:10DC500012698243194B1A6170470146002001295D
:10DC600008D1164AD26902F001020AB1012008E087
:10DC7000002006E0114AD2680A400AB1012000E003
:10DC8000002070470D49C860704704200B49C968DF
:10DC900001F0010109B101200EE00849C96801F055
:10DCA000040109B1022007E00449C96801F010012C
:10DCB00009B1032000E0042070470000002002406A
:10DCC00023016745AB89EFCD00F8FF1F10B504466F
:10DCD000BE48844208D101218014FFF7AFF800212B
:10DCE000A014FFF7ABF816E0B948844208D101212F
:10DCF0000014FFF7B0F800212014FFF7ACF80AE099
:10DD0000B448844207D10121C013FFF7A4F80021D1
:10DD1000E013FFF7A0F810BD10B50022028802F44E
:10DD200041520B884C8823438C882343CC8823435F
:10DD30000C8923434C8923438C892343CC89234377
:10DD40001A430280838B4FF2FF74234083830B8A34
:10DD5000038210BD2DE9F04F85B005460C464FF00B
:10DD6000000902274FF000084FF0010B0026B246D1
:10DD7000A88B4FF240010840A88302202884B5F800
:10DD80001C90A068022801D100BF38E0A08810B91B
:10DD90004FF0010B01E04FF0020B8D48854200D19E
:10DDA00000E000BF6846FEF7C2FFDDF800A0E08893
:10DDB000B0F5007F0AD14FEA1A2000EB8000400046
:10DDC000A168B0FBF1F0401D86B20BE04FEA4B10AA
:10DDD000BAFBF0F000EB80004000A168B0FBF1F06E
:10DDE000401D86B20A20B6FBF0F606F00108A6EB4D
:10DDF0000800C0F34F074FF6FF7000EA0828022F13
:10DE000001DBFF2F02DD02274FF00008E08840EA27
:10DE1000080038432884A088A18908436188084302
:10DE20002188084340F4006040EA0909A5F81C90E5
:10DE300005B0BDE8F08F0021018041808180C18064
:10DE4000018141818181C1810721018270470021C7
:10DE5000018041808180C180022181600021818117
:10DE6000704721B1028842F04002028004E002883B
:10DE70004FF6BF731A400280704721B1828B42F483
:10DE80008062828304E0828B4FF6FF331A408283E4
:10DE9000704730B5002400230C110125A540ABB21A
:10DEA0001AB185881D43858002E085889D43858061
:10DEB00030BD1AB183880B43838002E083888B4393
:10DEC00083807047818170470146888970474FF68B
:10DED000FF62914204D0028842F48072028004E022
:10DEE00002884FF6FF631A400280704721B1828892
:10DEF00042F00402828004E082884FF6FB731A40ED
:10DF00008280704702884FF2FF731A4002800288B5
:10DF10000A4302807047018841F4805101807047B4
:10DF200021B1028842F40052028004E002884DF6DA
:10DF3000FF731A400280704702460020012901D079
:10DF4000108B00E0908A70470146088A7047B1F54F
:10DF5000804F04D1028842F48042028004E00288AB
:10DF60004BF6FF731A400280704702460020138967
:10DF70000B400BB1012000E000207047CA43028132
:10DF80007047F0B50246002000240023002501F070
:10DF90000F070126BE40B4B20B1101269E40B3B25A
:10DFA000968806EA03051689264016B10DB10120B0
:10DFB00000E00020F0BD10B5002201F00F040123A5
:10DFC000A3409AB2D343038110BD0000003001404A
:10DFD00000380040003C004010B50446FE48844232
:10DFE00008D10121C014FEF729FF0021E014FEF73B
:10DFF00025FFC4E0B4F1804F08D101210846FEF7A7
:10E000002AFF00210120FEF726FFB8E0F3488442F2
:10E0100008D101210220FEF71EFF00210220FEF799
:10E020001AFFACE0EE48844208D101210420FEF73B
:10E0300012FF00210420FEF70EFFA0E0E948844211
:10E0400008D101210820FEF706FF00210820FEF775
:10E0500002FF94E0E448844208D101211020FEF739
:10E06000FAFE00211020FEF7F6FE88E0DF48844229
:10E0700008D101212020FEF7EEFE00212020FEF72E
:10E08000EAFE7CE0DA48844208D101214014FEF720
:10E09000D5FE00216014FEF7D1FE70E0D548844221
:10E0A00009D10121C804FEF7C9FE00214FF4002068
:10E0B000FEF7C4FE63E0D048844209D1012108057F
:10E0C000FEF7BCFE00214FF48010FEF7B7FE56E0CD
:10E0D000CA48844209D101214805FEF7AFFE00215C
:10E0E0004FF40010FEF7AAFE49E0C548844208D16B
:10E0F00001214020FEF7AFFE00214020FEF7ABFEDD
:10E100003DE0C048844208D101218020FEF7A3FEF3
:10E1100000218020FEF79FFE31E0BB48844208D1F9
:10E1200001218015FEF797FE0021A015FEF793FE52
:10E1300025E0B648844209D101210804FEF77EFE9D
:10E1400000214FF48030FEF779FE18E0B048844299
:10E1500009D101214804FEF771FE00214FF400307F
:10E16000FEF76CFE0BE0AB48844208D10121880425
:10E17000FEF764FE00214FF48020FEF75FFE10BD25
:10E1800000220288944B98420ED0994B98420BD0B3
:10E19000B0F1804F08D0914B984205D0904B9842F7
:10E1A00002D0904B984204D14FF68F731A404B889F
:10E1B0001A438D4B984207D08C4B984204D04FF6AF
:10E1C000FF431A40CB881A4302808B8883850B88D3
:10E1D0000385814B98420BD0854B984208D08B4BDE
:10E1E000984205D08A4B984202D08A4B984201D17E
:10E1F0000B7A038601238382704770B500240022C6
:10E200000023058C4FF6FE7635400584028C83880A
:10E21000048B4FF68F752C40B51E2C400D882C4377
:10E22000751E2A400D892A434D882A436A4DA8420B
:10E230000BD06F4DA84208D0744DA84205D0744D44
:10E24000A84202D0734DA84213D14FF6F7752A4069
:10E250004D892A434FF6FB752A408D882A434FF695
:10E26000FF652B404FF6FF552B408D892B43CD8901
:10E270002B4383800483CD888586028470BD70B56E
:10E28000002400220023058C4FF6EF7635400584EC
:10E29000028C8388048B48F6FF752C404FF6FF45AF
:10E2A0002C400D884FF6FF7606EA05252C434FF6E5
:10E2B000DF752A400D8906EA05152A434D8806EACE
:10E2C00005152A43444DA84202D0494DA8421DD10C
:10E2D0004FF67F752A404D894FF6FF7606EA051501
:10E2E0002A434FF6BF752A408D8806EA05152A4352
:10E2F0004FF6FF352B404FF2FF752B408D8906EA14
:10E3000085052B43CD8906EA85052B43838004834D
:10E31000CD880587028470BD70B5002400220023DB
:10E32000058C4FF6FF6635400584028C8388848B0C
:10E330004FF68F752C404FF6FC752C400D882C4302
:10E340004FF6FF552A400D894FF6FF7606EA052560
:10E350002A434D8806EA05252A431F4DA84202D0CC
:10E36000234DA8421DD14FF2FF752A404D894FF62B
:10E37000FF7606EA05252A434FF6FF352A408D88A9
:10E3800006EA05252A434EF6FF752B404DF6FF752C
:10E390002B408D8906EA05152B43CD8906EA051524
:10E3A0002B4383808483CD888587028470BD70B5BC
:10E3B000002200230024058C4EF6FF7635400584AC
:10E3C000038C8488828B48F6FF752A404FF6FF4500
:10E3D0002A400D8820E00000002C0140000400408D
:10E3E00000080040000C00400010004000140040F5
:10E3F00000340140004C01400050014000540140F5
:10E4000000180040001C0040002000400040014077
:10E4100000440140004801404FF6FF7606EA05251A
:10E420002A434DF6FF752B400D8906EA05352B432F
:10E430004D8806EA05352B43FA4DA84202D0FA4D25
:10E44000A84208D14BF6FF752C408D894FF6FF7618
:10E4500006EA85152C4384808283CD88A0F840503D
:10E46000038470BD828B4FF2FF331A408283828B0C
:10E470004FF6FF7303EA01231A4382837047F0B516
:10E480000C461546002200210026078C4EF6FF7C24
:10E4900007EA0C070784828B018C4FF6FF7707EAA7
:10E4A000043640F6FF473A404FF6FF7707EA052764
:10E4B0003A434FF6FF7707EA03373A43D94FB8425A
:10E4C0000ED0D94FB8420BD0B0F1804F08D0D74F03
:10E4D000B84205D0D64FB84202D0D64FB84206D186
:10E4E0004DF6FF77394046F48057394305E047F64B
:10E4F000FF57394044F48057394382830184F0BD8B
:10E50000828B4FF6F3731A408283828B0A43828395
:10E510007047F0B50C461546002200210026078CF6
:10E520004FF6FF6C07EA0C070784828B018C4FF6CD
:10E53000FF7707EA04264FF60C773A404FF6FF774D
:10E5400007EA03172F433A43B64FB8420ED0B64FEF
:10E55000B8420BD0B0F1804F08D0B44FB84205D0CC
:10E56000B34FB84202D0B34FB84206D14FF6FF576F
:10E57000394046F48077394305E04FF2FF57394080
:10E5800044F48077394382830184F0BD028B4FF2DB
:10E59000FF331A400283028B4FF6FF7303EA012315
:10E5A0001A4302837047F0B50C461546002200213D
:10E5B0000026078C4FF6EF7C07EA0C070784028BD6
:10E5C000018C4FF6FF7707EA041640F6FF473A4002
:10E5D0004FF6FF7707EA03373A434FF6FF7707EA2C
:10E5E00005273A438F4FB8420ED08F4FB8420BD019
:10E5F000B0F1804F08D08D4FB84205D08C4FB84253
:10E6000002D08C4FB84206D14FF6DF77394046F042
:10E610001007394305E04FF65F77394044F01007A3
:10E62000394302830184F0BD028B4FF6F3731A4025
:10E630000283028B0A4302837047F0B50C461546ED
:10E6400000220021068C4FF6FE773E400684028BA6
:10E65000018C4FF60C7632407E1C06EA03162E43E0
:10E660003243704EB0420ED06F4EB0420BD0B0F17C
:10E67000804F08D06D4EB04205D06D4EB04202D0F2
:10E680006C4EB04206D14FF6FD76314044F00106A3
:10E69000314305E04FF6F576314044F00106314351
:10E6A00002830184F0BD70B505460C465D48854285
:10E6B0000ED05D4885420BD0B5F1804F08D05B4845
:10E6C000854205D05A48854202D05A48854200D139
:10E6D00000E000BF208850B92389A28861882846BD
:10E6E000FFF7ABFFE1882846FFF79EFF25E0208873
:10E6F00004280AD12389A28861882846FFF753FF9E
:10E70000E1882846FFF742FF17E0208808280AD151
:10E710002389A28861882846FFF7FBFEE188284606
:10E72000FFF7EEFE09E02389A28861882846FFF7FB
:10E73000A6FEE1882846FFF795FE70BD2DE9F04161
:10E7400005460C4600260127608808B9022600E02D
:10E750000026A088012801D1022700E00127208897
:10E76000A0B92389A28861882846FFF766FFE1885F
:10E770002846FFF759FF23893A4631462846FFF7D6
:10E7800012FFE1882846FFF701FF13E02389A288E2
:10E7900061882846FFF707FFE1882846FFF7F6FE65
:10E7A00023893A4631462846FFF747FFE188284645
:10E7B000FFF73AFFBDE8F0810A884B881A438B883F
:10E7C0001A43CB881A430B891A434B891A438B8906
:10E7D0001A43A0F8442070474FF6FF718180002152
:10E7E0000180C18041800172704700210180418019
:10E7F0008180C180018141818181C1817047002177
:10E8000001804180012181800021C1800181704708
:10E810000021018041808180C1800181418181810D
:10E8200070470000002C014000340140000400400B
:10E8300000080040000C004021B1028842F00102B3
:10E84000028004E002884FF6FE731A40028070478F
:10E8500031B1B0F8442042F40042A0F8442005E071
:10E86000B0F84420C2F30E02A0F8442070471AB159
:10E8700083890B43838102E083898B4383817047C3
:10E880008182704741EA0203A0F8483070471AB10C
:10E8900083890B43838102E083898B4383817047A3
:10E8A00001894FF6F8721140018170470A46002134
:10E8B00001894FF68F73194011430181704730B5BC
:10E8C00004460D4629462046FFF7F0FF208940F018
:10E8D0000700208130BD2DE9F04104460D46164663
:10E8E0001F46602D06D13B46012231462046FFF7E8
:10E8F0005AFE05E03B46012231462046FFF79DFEC9
:10E9000029462046FFF7D2FF208940F007002081EA
:10E91000BDE8F08130B50C4600210189C9B24FF63F
:10E92000FF7505EA0325154325432943018130BDC1
:10E930002DE9F04105460E46174698460024434609
:10E940003A4631462846FFF7E5FF2C894FF6F87026
:10E95000044044F007044FF68F70044044F0700404
:10E960002C81BDE8F081F0B504460D4616461F46E1
:10E970003B46324629462046FFF7CCFF208940F42B
:10E9800080402081F0BD0185828270470A460021C7
:10E9900001884FF68F731940114301807047F0B51D
:10E9A0000C4615461E460021002200230189028BD9
:10E9B000038C4FF6F877394021434FF6FC473A4035
:10E9C00040F201173A434FF6DD773B404FF6FF77B1
:10E9D00007EA06172F433B43018102830384F0BDFE
:10E9E0000A460021018B4FF68F73194011430183B2
:10E9F00070470A460021018B48F6FF7319404FF615
:10EA0000FF7303EA02231943018370470A4600217A
:10EA1000818B4FF68F7319401143818370470A46EB
:10EA20000021818B48F6FF7319404FF6FF7303EA0C
:10EA3000022319438183704721B1028842F080028A
:10EA4000028004E002884FF67F731A40028070470C
:10EA500021B1828842F00402828004E082884FF66D
:10EA6000FB731A408280704721B1828842F008020D
:10EA7000828004E082884FF6F7731A4082807047E4
:10EA800021B1828842F00102828004E082884FF640
:10EA9000FE731A40828070470A460021018B4FF6B0
:10EAA000F77319401143018370470A460021018B17
:10EAB0004FF2FF7319404FF6FF7303EA0223194325
:10EAC000018370470A460021818B4FF6F773194086
:10EAD0001143818370470A460021818B4FF2FF73F7
:10EAE00019404FF6FF7303EA0223194381837047ED
:10EAF0000A460021018B4FF6FB7319401143018335
:10EB000070470A460021018B4FF6FF3319404FF63C
:10EB1000FF7303EA02231943018370470A46002169
:10EB2000818B4FF6FB7319401143818370470A466E
:10EB30000021818B4FF6FF3319404FF6FF7303EA34
:10EB400002231943818370470A460021018B4FF647
:10EB50007F7319401143018370470A460021018BDE
:10EB6000C1F30E014FF6FF7303EA02231943018339
:10EB700070470A460021818B4FF67F73194011437D
:10EB8000818370470A460021818BC1F30E014FF645
:10EB9000FF7303EA02231943818370470A46002169
:10EBA000018C4FF6FD7319401143018470470A46EA
:10EBB0000021018C4FF6F77319401143018470470F
:10EBC0000A460021018C4FF6DF7319404FF6FF73A0
:10EBD00003EA02131943018470470A460021018C9D
:10EBE0004FF67F7319404FF6FF7303EA0213194380
:10EBF000018470470A460021018C4FF6FF531940EB
:10EC00004FF6FF7303EA02231943018470470A4653
:10EC10000021018C4FF2FF7319404FF6FF7303EA96
:10EC200002231943018470470A460021018C4DF6E6
:10EC3000FF7319404FF6FF7303EA0233194301844F
:10EC4000704730B5002301248C40A3B2048C9C4350
:10EC50000484048C02FA01F5ADB22C43048430BD67
:10EC600030B5002304248C40A3B2048C9C4304845C
:10EC7000048C02FA01F5ADB22C43048430BD70B5AA
:10EC80000346002000241846183001258D40ACB200
:10EC90001D8CA5431D8409B1082909D100EB610031
:10ECA000056825F0700505600568154305600EE0F0
:10ECB0000D1FC5F34E052844056825F4E0450560A1
:10ECC00005684FF6FF7606EA02263543056070BDFB
:10ECD00021B1028842F00202028004E002884FF66D
:10ECE000FD731A400280704721B1028842F004028D
:10ECF000028004E002884FF6FB731A4002807047DE
:10ED000021B1828842F08002828004E082884FF63E
:10ED10007F731A408280704702884FF6F7731A405B
:10ED2000028002880A430280704782884FF68F7300
:10ED30001A40828082880A438280704702894FF697
:10ED4000F8731A40028102890A43028170470289DE
:10ED50004FF67F731A40028102890A43028170478D
:10ED6000818470478185704781867047018770472D
:10ED700081877047A0F84010704702884FF6FF4324
:10ED80001A40028002880A43028070470146888E3A
:10ED900070470146088F70470146888F70470146CB
:10EDA000B1F8400070470146888C70470146088DD5
:10EDB000704702460020138A0B400BB1012000E08F
:10EDC00000207047CA430282704730B502460020D7
:10EDD00000230024158A05EA0103958905EA010448
:10EDE00013B10CB1012000E0002030BDCA43028203
:10EDF00070470000002044490860091D0860091D93
:10EE00000860091D086041483F4914310860704797
:10EE100000213D498279002A3AD00A4612680368E7
:10EE20009A430B461A600A1D126803689A430B1D29
:10EE30001A60027911440A6803681A430A60324A68
:10EE40000832126803689A432F4B08331A601A1D60
:10EE5000126803689A432C4B0C331A604279102ACB
:10EE60000ED11A1F126803681A43274B08331A6021
:10EE70001A1D126803681A43234B0C331A600DE005
:10EE80002149427911440A6803681A430A6005E07F
:10EE9000027911440A6803689A430A6070470021A6
:10EEA000016001710C214171002181717047164987
:10EEB000103109680143144A10321160704701464D
:10EEC0000020114A143212680A400AB1012000E001
:10EED000002070470C49143108607047014600203B
:10EEE0000022094B1B6803EA0102074B14331B681D
:10EEF0000B4013B10AB1012000E000207047024925
:10EF0000143108607047000000040140FFFF0F004B
:10EF10000648804706480047FEE7FEE7FEE7FEE7B3
:10EF2000FEE7FEE7FEE7FEE7FEE7FEE72BCA000886
:10EF300031C90008014600BF70474AF6AA20F649C9
:10EF40000860704710B54FF4C060FDF7C1FF27207F
:10EF5000F24908700020487001208870C870084687
:10EF6000FDF7BBFF2620ED49087000204870022005
:10EF700088700120C8700846FDF7AFFF2520E749DB
:10EF8000087000204870032088700120C87008466F
:10EF9000FDF7A3FF3420E149087000204870887015
:10EFA0000120C8700846FDF798FF0320DB49087070
:10EFB00001204870002088700120C8700846FDF7C5
:10EFC0008CFF10BD704710B54FF08040FFF704F87C
:10EFD00040F6FF70D249888000200880C8800872FF
:10EFE00048804FF08040FFF7CBF87020CD49088073
:10EFF0000120488000208880C880022008810020ED
:10F0000048814FF4807088810020C8814FF0804093
:10F01000FFF735F901218807FFF70EFC0120C049F1
:10F020008880472008800020C88010204880BE4883
:10F03000FFF7A6F810BD08B50121BC48FEF7E7F8B8
:10F040004FF44240ADF8000003208DF80200142078
:10F050008DF803006946B648FEF708F84FF474705F
:10F06000ADF8000003208DF8020014208DF8030095
:10F070006946B048FDF7FAFF49F28010ADF800008C
:10F0800003208DF8020014208DF803006946AA4879
:10F09000FDF7ECFF02208DF802000420ADF800001F
:10F0A00014208DF803006946A248FDF7DFFF012018
:10F0B000ADF8000002208DF8020010208DF803004A
:10F0C00069469B48FDF7D2FF01209C49086030202B
:10F0D000ADF8000002208DF8020004208DF8030036
:10F0E00069469548FDF7C2FF8220ADF80000022076
:10F0F0008DF8020004208DF8030069468C48FDF766
:10F10000B5FF2020ADF8000002208DF80200042099
:10F110008DF8030069468748FDF7A8FF46F208000E
:10F12000ADF8000002208DF8020004208DF80300E5
:10F1300069468048FDF79AFF0320ADF800008DF87E
:10F14000020010208DF8030069467B48FDF78EFF12
:10F150000420ADF800008DF8030003208DF80200B4
:10F1600069467748FDF782FF4020ADF80000042093
:10F170008DF8030003208DF8020069466E48FDF704
:10F1800075FF4FF44050ADF8000010208DF80300DB
:10F1900003208DF8020069466548FDF767FF4FF4CC
:10F1A00080516348FEF70FF84FF400516048FEF7B6
:10F1B0000CF84FF41040ADF8000010208DF803005B
:10F1C00002208DF8020069465A48FDF74FFF4FF4C0
:10F1D0000060ADF8000010208DF8030003208DF8CA
:10F1E000020069465448FDF741FF4FF40041514881
:10F1F000FDF7E9FF4FF480514E48FDF7E4FF4FF46F
:10F2000000614D48FDF7DFFF4FF48070ADF800005E
:10F2100004208DF8030003208DF80200694644485D
:10F22000FDF724FF0120ADF8000002208DF8020058
:10F2300010208DF8030069463E48FDF717FF0121B5
:10F240003C48FDF7C2FF0220ADF800008DF8020037
:10F2500010208DF8030069463648FDF707FF0221AC
:10F260003448FDF7B2FF3820ADF8000003208DF8D8
:10F27000020018208DF8030069462D48FDF7F6FEC0
:10F280004020ADF8000003208DF8020010208DF81A
:10F29000030069462648FDF7E9FE40212448FDF7B2
:10F2A00092FF08BD10B501213D20FDF7ADFD012104
:10F2B0008803FDF7A9FD01214804FDF7B2FD0121F6
:10F2C0008804FDF7AEFD0121C804FDF7AAFD012168
:10F2D0000846FDF7A6FD01210220FDF7A2FD012150
:10F2E0000846FDF784FD01214802FDF78DFD01214F
:10F2F000C803FDF796FD10BD014648F6A04005E0A5
:10F3000000E0401E0028FCD148F6A0400A1EA1F1F2
:10F31000010399B2F4D1704700300040EC000020A6
:10F320006A290020742900200004004000023000F7
:10F33000000C014000100140000801408081214282
:10F3400000140140D148D24908604FF42F70FFF7F4
:10F35000D3FFFFF7A7FFFFF76EFE4FF49670FFF79E
:10F36000CBFFFFF79FFFFFF766FECA49481EB0F1CB
:10F37000807F00D31CE0481E4FF0E0225061501700
:10F380000122002808DA13071D0EC14B103300F0CC
:10F390000F04241F1D5503E013071C0EBE4B1C5405
:10F3A00000BF00204FF0E02290610720106100BFF5
:10F3B000FFF709FE0BF0AAFE2DF012FC00F0D0F9C9
:10F3C00000F00CFA00F039FBFFF7FCFD02F0DFFD66
:10F3D00004F0D9FA05F0D9F80AF08BFC2AF023FFE3
:10F3E0002AF086F9FFF7AEFD2DF0FAFB4FF400612D
:10F3F000AA48FDF7E8FE2BF06FF8A94908600968F4
:10F4000008688047A6490968886880470CF064F856
:10F4100002F0E4FC0120A34908704FF4487029F081
:10F42000CEF828F0F1FE00F097F900209E4988847C
:10F430004FF47A709D4908809B48C088012804D108
:10F440004FF4FA709A49088010E09748C08868B96C
:10F450009548408D012803D1C8209549088005E0D2
:10F460009148408D10B900209149088002219148AF
:10F47000FDF7A9FE01209049087090A00AF07FFBDB
:10F480002DF0F9FF0446214697A00AF078FB9A492F
:10F490009AA00AF074FB9D4801689DA00AF06FFBDA
:10F4A0002DF014FE2DF02EFE9DA02FF043F8A5E0C8
:10F4B00000F0C3FA02F002FB00F01FFC00F039FA82
:10F4C00000F0DBFB02F014FC7748623000F0704083
:10F4D00000F1007074496231C1F3130100EB411077
:10F4E000406A08B103F037FB02F075FD03F07CF8C9
:10F4F00004F0CFFF04F052FA04F0E2FC08F043FFFE
:10F5000007F050F808F072F90BF09DFA0AF009FCC8
:10F510000AF0E4FF0BF098FA0BF0B5FA6248808C21
:10F52000E0B96148203000F0704000F100705E49A1
:10F530002031C1F3130100EB4110006870B15A484B
:10F54000C088012806D10EF012F85748008A08B981
:10F550000FF05EFA0CF002F80DF019FE5248808CA4
:10F56000012801D10FF098F90FF077F8FFF7E5FCCB
:10F570006F48008C012802DB02F0AEFC00E000BF07
:10F580006C48007820B910F08AFB012069490870A6
:10F5900068480078012831D124F085F928F0DAF89C
:10F5A0004148223000F0704000F100703E492231A5
:10F5B000C1F3130100EB41100068F8B15E48007818
:10F5C000032803DB5C4800781B2802DB0AF005F8FF
:10F5D0000EE05A48007848B95948007830B959487F
:10F5E000007818B958480088642801DB09F0F5FF55
:10F5F00056480078022801D105F096F858E745F200
:10F600005552534B1A601A46506091604AF6AA222E
:10F610001A604CF6CC421A6070477047704731B59B
:10F62000BDF8004001214B48FFF706F92146494843
:10F63000FFF796FB03E04748FFF7B5FB0446012CB4
:10F64000F9DC00214348FFF7F7F838BD31B5002455
:10F6500005E04FF47A70FFF7E2FF601C84B2BDF85A
:10F6600000008442F5DB38BD31B5002405E04FF4DD
:10F670007A70FFF7D4FF601C84B2BDF800008442AA
:10F68000F5DB38BDC2684A40C260704700C8000858
:10F6900008ED00E04019010000E400E0000801402E
:10F6A000D4020020420100201E1600204403002046
:10F6B00042030020001001402F0300200D0A0D0A14
:10F6C0002A2A2A2A2A2A2A2A2ABFAACABCD4CBD062
:10F6D000D0D3C3BBA7B3CCD0F22A2A2A2A2A2A2AFB
:10F6E0002A2A0D0A00000000D3B2BCFEB0E6B1BE6B
:10F6F0003A25640D0A00000000E80308C9E8B1B823
:10F70000D0CDBAC53A25730D0A000000340400209C
:10F71000B9CCBCFEB0E6B1BE3A25730D0A000000BC
:10F72000757365722073746172740D0A00000000B5
:10F730005A0C0020F0000020B9010020BA0100207E
:10F74000BD01002089020020B60100209F01002099
:10F750000030004000040040704701467047704789
:10F7600040F21320F649A1F8900040F2E970A1F8A8
:10F770009200DD20A1F894006D20A1F88200002005
:10F78000F04908804FF47A70EF49A1F85A01EF4927
:10F790000880EF490880EF490880EF490880012080
:10F7A000EE4908800020EE49C884A1F87600A1F84F
:10F7B000C600A1F81601EB490870EB490870EB4947
:10F7C0000870EB490870EB490870EB490870EB4989
:10F7D0000870EB490870EB490870704710B50BF0E2
:10F7E000B9FC64220021D6480BF053FE0BF0B2FCAA
:10F7F0004FF490724FF48071E3480BF04AFED0480A
:10F80000C08FCF49A1F866000846B0F84800DF492C
:10F810004843DF490860CA4890F84A0040B208717E
:10F82000C74890F84C004871C54890F84E00887160
:10F83000C34890F85000C871C148B0F8520008B1F0
:10F84000012000E00020D2490872BD48B0F8540001
:10F8500008B1012000E00020CD494872B848B0F856
:10F86000560008B1012000E00020C9498872B44860
:10F87000B0F8580008B1012000E00020C449C87267
:10F88000AF4890F85A000873AD48B0F85E000861C0
:10F89000AB48B0F860004861A94890F85C00087671
:10F8A000A748808ABB49A1F85002A548C08AA1F8A0
:10F8B0005202A348008BA1F85402A148408BA1F842
:10F8C000560210BD2DE9F04105460C461646FDF7DF
:10F8D0003EFF3520FEF7D6F92846FDF77DFF0027CD
:10F8E00008E034F8028B2846AD1C4146FEF777F855
:10F8F000781C87B2B742F4DBFDF735FFBDE8F08135
:10F9000010B5002305E031F8024B20F8024B5C1CD7
:10F91000A3B29342F7DB10BD30B51346002405E0D7
:10F9200011F8012B00F8012B651CACB29C42F7DBEF
:10F9300030BD10B59848007801281ED1974800784E
:10F94000D8B900207E49A1F870000BF003FC6422B6
:10F9500000217B480BF07DFD4FF490724FF48071D5
:10F9600089480BF076FD11207549A1F8700001203F
:10F970008A4908700020884908707148B0F8700002
:10F9800041F28831884203D08248408A88421CD1A3
:10F9900082480078C8B900206949A1F870000BF0CE
:10F9A000D9FB6422002166480BF053FD4FF490729E
:10F9B0004FF4807174480BF04CFD41F2883060497F
:10F9C000A1F87000012075490870754840787549A4
:10F9D0000978884230D07148007868B37048407820
:10F9E0007049087070480088401C6F4908800846BC
:10F9F000008896280CDD69480078012808D102208B
:10FA00006649087041F270704D49A1F8700013E02A
:10FA100065480088B0F5967F0EDD604800780228C2
:10FA20000AD164205F49087000205F4908805B4963
:10FA300008704349A1F8700010BD2DE9FF4700256B
:10FA40003F48B0F87000B0F5FA6F0BD13C48B0F801
:10FA5000720041F2E101884204D15448007808B9AB
:10FA6000012533E03648C088B0F5FA6F0CDD344824
:10FA70008088B0F5FA6F07DD4C48007820B9022580
:10FA800001204549087021E02D48C08890B92C48D4
:10FA9000808878B92A48B0F84E0058B92848B0F89C
:10FAA000500038B94148007820B9032501203A496F
:10FAB00008700BE02248C08FB0F5614F06DD3B486F
:10FAC000007818B90425012033490870002D36DD6F
:10FAD000002407E004F122002B49085C0DF8040023
:10FAE000601CC4B20B2CF5DB4FF4907230492648F1
:10FAF000FFF712FF002407E01DF8041004F12200B4
:10FB0000214A1154601CC4B20B2CF5DB0C48068D45
:10FB1000478DB0F82C80B0F8129032222549FFF7BB
:10FB2000EFFE074806854785A0F82C80A0F81290C4
:10FB3000012D41D140F2DF300149488749E064E0BE
:10FB40001E1600200601002072080020520000202E
:10FB50005400002056000020580000201E01002004
:10FB60006E19002092000020BC000020BD00002083
:10FB7000BE000020BF000020C0000020C100002007
:10FB8000C2000020C30000204E18002040420F0099
:10FB9000F00300205A0C0020020100200001002088
:10FBA00058080020FD000020FE000020FC0000207E
:10FBB000D8FF030874FD0308022D04D14FF47870B8
:10FBC000FD49488705E0032D03D140F2E130FA49B1
:10FBD00048870025F948007860B94FF4FA60F64983
:10FBE000A1F8700041F2E100A1F872000120F4498F
:10FBF000087009E00020F34908704FF47A70EE496C
:10FC0000A1F87200FFF795FE00BFEF488078EF493A
:10FC1000097888422FD0EA48007860B3EA488078B3
:10FC2000EA490870EA480088401CE949088008460B
:10FC3000008802280CDDE2480078012808D1022063
:10FC4000DF49087041F27070DB49A1F8720012E0E0
:10FC5000DF48008804280EDDD948007802280AD140
:10FC60006420DA4908700020D9490880D449087016
:10FC7000D149A1F87200BDE8FF87CF48B0F8700005
:10FC8000B0F5FA6F1CD1D0488078D2490978884203
:10FC900016D0CD488078CF490870CF480088401CE6
:10FCA000CD49088008460088B0F5617F08DD6420F2
:10FCB000C84908700020C84908800120BF49087061
:10FCC00070472DE9F047044689462012C349C870A1
:10FCD0008C704FEA2920487081F8009008682EF057
:10FCE0003EF907460022BE4B2DF0D0FF05462EF010
:10FCF0001DF982465046BDE8F08700B58BB0AE488E
:10FD0000B0F84C000A2824D2DFE800F005080B0EFA
:10FD10001114171A1D20B34804901DE0B248049036
:10FD20001AE0B248049017E0B148049014E0B148DA
:10FD3000049011E0B04804900EE0B04804900BE04D
:10FD4000AF48049008E0AF48049005E0AE48049046
:10FD500002E0AB48049000BF00BF9748B0F85000E5
:10FD6000052815D2DFE800F003070A0D10004FF058
:10FD70007E5003900FE0A54803900CE0A448039048
:10FD800009E0A448039006E04FF07C50039002E0A5
:10FD90009F48039000BF00BF8748B0F84E00019015
:10FDA0002EF055F80290049902982DF058FE01901B
:10FDB00003992DF054FE02907F4890F84E100120D8
:10FDC000884080B20A900A982EF041F801460090CF
:10FDD00002982DF076FE904901902DF040FE0290A1
:10FDE00002982EF070F87449A1F8840001F1200007
:10FDF00000F0704000F100702031C1F3130100EBFE
:10FE00004110406868B100226B48223000F0704019
:10FE100000F1007068492231C1F3130100EB411079
:10FE200042606548223000F0704000F10070624985
:10FE30002231C1F3130100EB4110806868B1002248
:10FE40005D48223000F0704000F100705A492231C4
:10FE5000C1F3130100EB4110C2605748C088E8BBF2
:10FE60006E4800885449A1F8B0006C48408DA1F854
:10FE7000B2006A48008CA1F8B4006848008EA1F86E
:10FE8000B6006648C08DA1F8B8006448408FA1F85C
:10FE9000C2006248808FA1F8BA006048B0F8400004
:10FEA000A1F8BC005D48B0F86A00A1F8BE005B484C
:10FEB000B0F86C00A1F8C0005948B0F8B400A1F83F
:10FEC00000015748B0F8B600A1F802015448B0F854
:10FED000B000A1F804015248808D00E009E0A1F8CB
:10FEE00006014F48008EA1F808010846408AA1F893
:10FEF0000A014C48008800281CDD01204A4908609E
:10FF00003148407849490978884213D02E484078D2
:10FF10004649087043480088401C4249088008460A
:10FF2000008842F6E061884204DD00203D490880F7
:10FF30003D490860002008900A9012E00A9880303D
:10FF40003B49085C09903B490A98095C0998814241
:10FF500003DB0898401C80B208900A98401C80B2CD
:10FF60000A900A980428E9DB002007900A900CE028
:10FF700031490A98085C0A2803DB0798401C80B2C4
:10FF800007900A98401C80B20A900A980428EFDB78
:10FF90000948223000F0704000F10070064922311B
:10FFA000C1F3130100EB4110406820B90248223030
:10FFB00000F0704042E04BE01E16002002010020DD
:10FFC000FC0000200001002058080020F80000205C
:10FFD000FA00002001010020040100202801002077
:10FFE000000024409A99F940666626419A99794121
:10FFF0006666A6419A99F9416666264200007A42F1
:020000040801F1
:100000000000FA4200007A430000FA43CDCC4C3F96
:10001000ABAA2A3F2549123F0000C842F214002033
:100020005A0C00201E010020808121421C0100206A
:100030004E180020E40100200602002000F10070AC
:10004000FE49C1F3130100EB4110C06800287DD0C8
:10005000FB48008800F00400F8B1FA480078FA493B
:1000600009780144F94800780844F94909780844B6
:10007000F84909780844F849097801440898014486
:1000800007980844F54909780844F549097808446F
:10009000F4490978084400285CDDF3488078F34986
:1000A0000978884259D0F0488078F0490870F048C3
:1000B0000088401CEE4908800846008850284CDD26
:1000C0006420EA4908700020E9490880012240F2D2
:1000D0002551DB480C38FDF7F2F9D948008840F08B
:1000E0000400D74908800021D6480170D648017025
:1000F0000020D64908700A9007E00021DD4A0A98DE
:1001000011540A98401C80B20A900A980428F4DB23
:1001100000200A9007E00021D74A0A9811540A9853
:10012000401C80B20A900A980428F4DB0020D349CE
:1001300008700121D2480170D248FDF744F840F61A
:10014000B83028F03CFA0121CE4800E005E0FDF788
:100150003CF802E00020C6490880B84800F0704032
:1001600000F10070B549C1F3130100EB41100068C4
:1001700028B3BD488078C449097888421FD0BA485E
:100180008078C1490870C1480088401CBF49088078
:1001900008460088B0F5966F11DD00200880B74949
:1001A00008700121B6480170B648FDF70CF840F61A
:1001B000B83028F004FA0121B248FDF706F89F484C
:1001C000223800884EF6602188422AD0A648C0789E
:1001D000AF490988884224D0A348C078AC49088038
:1001E000AC480088401CAB490880944822380188FC
:1001F000A8480088814214DC0020A649088000211C
:100200009E48017001209E49087001219D48FCF71D
:10021000DAFF40F6B83028F0D2F901219948FCF70E
:10022000D4FF9D4890F8390009909B4890F83A1007
:10023000099801EB002081492239C887964890F837
:100240003B00A1F84000944890F83C00A1F842001F
:10025000914890F83D00A1F844008F4890F83E0086
:10026000A1F846000846C08FB1F86610884223D135
:1002700072482238B0F84010B0F8680081421BD1B3
:100280006E482238B0F84210B0F86A00814213D1AB
:100290006A482238B0F8440068492239B1F86C1035
:1002A000884209D165482238B0F8460063492239AE
:1002B000B1F86E1088421CD060482238C08F5F4968
:1002C0002239A1F866000846B0F84010A0F868107E
:1002D000B0F84210A0F86A10B0F84400574922392B
:1002E000A1F86C000846B0F84600A1F86E0003F0D3
:1002F000B1FA6A480088B0F5967F1ADD4F48223877
:10030000B0F88000082805DB4C482238B0F880009F
:1003100063280ED10020614908806148006820B13F
:1003200000205F498031086003E001205C49803192
:10033000086053480078112819DA012059490860EB
:1003400059480088B0F5967F21DD0021564801808C
:1003500054488C380068012804D1002051490C39D8
:10036000086014E001204F490C3908600FE0444850
:10037000007811280BDB424800781B2807DA0020A0
:1003800047498031086001204849C1F8B0013C4824
:1003900000781B2850DB46480078454949780844D6
:1003A0004349897808444249C978084490B93E488D
:1003B0000088322809DD00203B4908803948803810
:1003C000006818B100203749086097E001213548DE
:1003D000016093E0002005900A9015E048210A98FA
:1003E00001EB80002C49095C0A98C0EB40109D305D
:1003F000294A105C084418B10598401CC0B2059009
:100400000A98401C80B20A900A980428E6DB294822
:100410000178407808442749897808442549C978F3
:1004200001440598814255D11F480088B0F57A7F74
:1004300064DD00211C483FE071E000004016002010
:100440000C440040C5010020C601002068020020C5
:1004500084020020C7010020C80100205A020020A9
:100460005E020020620200205808002010010020D7
:1004700012010020E4010020060200206A02002090
:10048000B901002000100140180100201A010020CD
:1004900024010020260100204E1800200E0100201B
:1004A0002C012142BC01224208010020000022420E
:1004B0002F020020410200200180F748006820B18F
:1004C0000020F5498031086018E00120F2498031B0
:1004D000086013E0F1480088B0F5967F0EDD00213A
:1004E000EE480180EC48006820B10020EA498031E4
:1004F000086003E00120E84980310860E84801888D
:10050000E84800880844002805DD4FF48051E6489B
:10051000FFF7B8F803E00120DF4974310860E348D1
:100520000088E34909880844002804DD2021E148C7
:10053000FFF7A8F802E00121DF480160DF484078BA
:10054000DF490978884226D0D3480C380068C0B902
:10055000DA484078DA490870DA480088401CD949FE
:10056000088008460088B0F5FA6F14DD0021D548F0
:1005700001800121D448017040F6B83028F01FF8FE
:1005800009E0D0480088002805DDCE480088401EDC
:1005900081B2CC480180CD48008A00287ED1CC4869
:1005A000808F00B20690069800280EDA0698404226
:1005B000C749A1F83C050846B0F83C0542F2107165
:1005C0000844C349A1F83C0504E0C148808FC049F4
:1005D000A1F83C05BE48C08F00B2069006980028DE
:1005E0000EDA06984042BA49A1F83E050846B0F82E
:1005F0003E0542F210710844B549A1F83E0504E0F9
:10060000B348C08FB249A1F83E05B148B0F88C009C
:1006100000B20690069800280EDA06984042AC49CF
:10062000A1F840050846B0F8400542F210710844B0
:10063000A749A1F8400505E0A548B0F88C00A449F9
:10064000A1F84005A248B0F88E0000B206900698C6
:1006500000280EDA069840429D49A1F84205084656
:10066000B0F8420542F2107108449949A1F84205D8
:1006700005E09748B0F88E009549A1F842059448E6
:10068000B0F8DC0000B206900698002810DA069850
:1006900040428F49A1F84405084600E0A2E0B0F8C6
:1006A000440542F2107108448949A1F8440505E067
:1006B0008748B0F8DC008649A1F844058448B0F8C2
:1006C000DE0000B20690069800280EDA0698404236
:1006D0007F49A1F846050846B0F8460542F2107178
:1006E00008447B49A1F8460505E07948B0F8DE00EA
:1006F0007749A1F846057648B0F82C0100B206907B
:10070000069800280EDA069840427149A1F848057B
:100710000846B0F8480542F2107108446C49A1F847
:10072000480505E06A48B0F82C016949A1F8480578
:100730006748B0F82E0100B20690069800280EDA3D
:10074000069840426249A1F84A050846B0F84A05B1
:1007500042F2107108445E49A1F84A0505E05C4880
:10076000B0F82E015A49A1F84A055948B0F87C0161
:1007700000B20690069800280FDA069840425449C5
:10078000A1F84C050846B0F84C0542F21071084437
:1007900081B24F48A0F84C1505E04D48B0F87C01F7
:1007A0004B49A1F84C054A48B0F87E0100B20690CA
:1007B000069800280FDA069840424549A1F84E05F0
:1007C0000846B0F84E0542F2107108444049A1F8BD
:1007D0004E0501F070B93E48B0F87E013C49A1F8E1
:1007E0004E05F6E73948008A012803D03748008AC9
:1007F0000228EED13748B0F85C0200B206900698A5
:1008000000280FDA069840423249A1F8DC03084676
:10081000B0F8DC0342F21071084481B22D48A0F810
:10082000DC1305E02B48B0F85C022A49A1F8DC0390
:100830002848B0F85E0200B20690069800280EDA4A
:100840000698404281B22348A0F8DE13B0F8DE03D8
:1008500042F2107108441F49A1F8DE0305E01D486B
:10086000B0F85E021B49A1F8DE031A48B0F8600236
:1008700000B20690069800282EDA069840421549E4
:10088000A1F8E0030846B0F8E00342F21071084412
:100890001049A1F8E00324E03C01224208010020B5
:1008A0008A0100208C01002000100140A2010020DC
:1008B000A401002000140140948122425808002025
:1008C0000A0100200C010020B90100201E160020A2
:1008D0006E1900205A0C0020FE48B0F86012A0F8F3
:1008E000E013FC48B0F8620200B2069006980028B7
:1008F0000EDA06984042F749A1F8E2030846B0F83C
:10090000E21342F210700844F249A1F8E20304E055
:10091000F048B0F86212A0F8E213EE48B0F86402B2
:1009200000B20690069800280EDA0698404281B27E
:10093000E848A0F8E413B0F8E40342F21071084468
:10094000E449A1F8E40305E0E248B0F86402E149B3
:10095000A1F8E403DF48B0F8660200B206900698FA
:1009600000280FDA06984042DA49A1F8E603084663
:10097000B0F8E60342F21071084481B2D548A0F8FD
:10098000E61304E0D348B0F86612A0F8E613D148A5
:10099000B0F88C0200B20690069800280EDA06988D
:1009A000404281B2CB48A0F80C14B0F80C0442F2DB
:1009B00010710844C749A1F80C0405E0C548B0F817
:1009C0008C02C449A1F80C04C248B0F88E0200B2EF
:1009D0000690069800280EDA06984042BD49A1F814
:1009E0000E040846B0F80E1442F210700844B949DB
:1009F000A1F80E0405E0B748B0F88E02B549A1F899
:100A00000E04B448B0F8900200B206900698002890
:100A10000EDA0698404281B2AE48A0F81014B0F841
:100A2000100442F210710844AA49A1F8100405E02C
:100A3000A848B0F89002A749A1F81004A548B0F85A
:100A4000920200B20690069800280FDA06984042FB
:100A5000A049A1F812040846B0F8120442F210713D
:100A6000084481B29B48A0F8121404E09948B0F8F9
:100A70009212A0F812149748B0F8940200B20690AF
:100A8000069800280EDA0698404281B29148A0F8F4
:100A90001414B0F8141442F2107008448D49A1F8EF
:100AA000140405E08B48B0F894028A49A1F81404B4
:100AB0008848B0F8960200B20690069800280EDA30
:100AC000069840428349A1F816040846B0F8160477
:100AD00042F2107108447F49A1F8160405E07D48F0
:100AE000B0F896027B49A1F816047A48B0F8BC0227
:100AF00000B20690069800280FDA06984042754921
:100B0000A1F83C040846B0F83C0442F210710844D5
:100B100081B27048A0F83C1405E06E48B0F8BC0201
:100B20006C49A1F83C046B48B0F8BE0200B20690D4
:100B3000069800280EDA0698404281B26548A0F86F
:100B40003E14B0F83E0442F2107108446149A1F825
:100B50003E0404E05F48B0F8BE12A0F83E145D48C1
:100B6000B0F8C00200B20690069800280FDA069886
:100B7000404281B25748A0F84014B0F8400442F215
:100B80001071084481B25348A0F8401405E0514860
:100B9000B0F8C0024F49A1F840044E48B0F8C20274
:100BA00000B20690069800280EDA0698404249499D
:100BB000A1F842040846B0F8420442F21071084419
:100BC0004449A1F8420405E04248B0F8C202414954
:100BD000A1F842043F48B0F8C40200B2069006985B
:100BE00000280FDA069840423A49A1F84404084622
:100BF000B0F8440442F21071084481B23548A0F8BC
:100C0000441405E03348B0F8C4023249A1F8440462
:100C10003048B0F8C60200B20690069800280EDAF6
:100C20000698404281B22B48A0F84614B0F846041A
:100C300042F2107108442749A1F8460405E025480E
:100C4000B0F8C6022349A1F846042248B0F8EC02E5
:100C500000B20690069800280FDA069840421D4917
:100C6000A1F86C040846B0F86C0442F21071084414
:100C700081B21848A0F86C1404E01648B0F8EC12E1
:100C8000A0F86C141348B0F8EE0200B20690069873
:100C900000280EDA069840420E49A1F86E04084674
:100CA000B0F86E0442F2107108440A49A1F86E04CB
:100CB00004E00848B0F8EE12A0F86E140548B0F849
:100CC000F00200B206900698002811DA0698404219
:100CD000004901E05A0C0020A1F870040846B0F861
:100CE000700442F210710844F849A1F8700405E05C
:100CF000F648B0F8F002F549A1F87004F348B0F8EE
:100D0000F20200B20690069800280EDA06984042D9
:100D1000EE49A1F872040846B0F8721442F210705D
:100D20000844EA49A1F8720405E0E848B0F8F20284
:100D3000E649A1F87204E548B0F8F40200B2069062
:100D4000069800280FDA0698404281B2DF48A0F8E2
:100D50007414B0F8740442F21071084481B2DB4894
:100D6000A0F8741405E0D948B0F8F402D749A1F806
:100D70007404D648B0F8F60200B20690069800282F
:100D80000EDA06984042D149A1F876040846B0F838
:100D9000761442F210700844CC49A1F8760404E0BD
:100DA000CA48B0F8F612A0F87614C848B0F81C0388
:100DB00000B20690069800280FDA06984042C34910
:100DC000A1F89C040846B0F89C0442F21071084453
:100DD00081B2BE48A0F89C1405E0BC48B0F81C03E2
:100DE000BA49A1F89C04B948B0F81E0300B20690B5
:100DF000069800280EDA06984042B449A1F89E04ED
:100E00000846B0F89E0442F210710844AF49A1F8B8
:100E10009E0405E0AD48B0F81E03AC49A1F89E045D
:100E2000AA48B0F8200300B20690069800280EDA0F
:100E30000698404281B2A548A0F8A014B0F8A004DA
:100E400042F210710844A149A1F8A00405E09F48AE
:100E5000B0F820039D49A1F8A0049C48B0F82203F3
:100E600000B20690069800280EDA0698404297498C
:100E7000A1F8A2040846B0F8A21442F21070084487
:100E80009249A1F8A20404E09048B0F82213A0F817
:100E9000A2148E48B0F8240300B2069006980028E9
:100EA0000FDA069840428949A1F8A4040846B0F830
:100EB000A40442F21071084481B28448A0F8A4143A
:100EC00005E08248B0F824038049A1F8A4047F48D3
:100ED000B0F8260300B20690069800280EDA0698AD
:100EE00040427A49A1F8A6040846B0F8A60442F2A6
:100EF000107108447549A1F8A60404E07348B0F8DD
:100F00002613A0F8A6147148B0F84C0300B206905E
:100F1000069800280FDA0698404281B26B48A0F884
:100F2000CC14B0F8CC0442F21071084481B2674886
:100F3000A0F8CC1405E06548B0F84C036349A1F86B
:100F4000CC046248B0F84E0300B206900698002820
:100F50000EDA069840425D49A1F8CE040846B0F882
:100F6000CE1442F2107008445849A1F8CE0404E0AF
:100F70005648B0F84E13A0F8CE145448B0F85003B9
:100F800000B20690069800280FDA0698404281B217
:100F90004E48A0F8D014B0F8D00442F210710844C2
:100FA00081B24A48A0F8D01405E04848B0F8500390
:100FB0004649A1F8D0044548B0F8520300B2069063
:100FC000069800280EDA069840424049A1F8D2045B
:100FD0000846B0F8D20442F2107108443B49A1F827
:100FE000D20404E03948B0F85213A0F8D2143748BC
:100FF000B0F8540300B20690069800280EDA06985E
:10100000404281B23148A0F8D414B0F8D40442F27E
:10101000107108442D49A1F8D40405E02B48B0F81C
:1010200054032A49A1F8D4042848B0F8560300B262
:101030000690069800280EDA069840422349A1F847
:10104000D6040846B0F8D60442F2107108441F498D
:10105000A1F8D60404E01D48B0F85613A0F8D61441
:101060001A48B0F87C0300B20690069800280FDA00
:101070000698404281B21548A0F8FC14B0F8FC1460
:1010800042F21070084481B21048A0F8FC1405E048
:101090000E48B0F87C030D49A1F8FC040B48B0F8E9
:1010A0007E0300B206900698002811DA06984042A6
:1010B0000649A1F8FE040846B0F8FE0442F2107199
:1010C00008440249A1F8FE0407E000005A0C002081
:1010D000FE48B0F87E13A0F8FE14FC48B0F8800378
:1010E00000B20690069800280EDA0698404281B2B7
:1010F000F648A0F80015B0F8000542F21071084457
:10110000F249A1F8000505E0F048B0F88003EF4986
:10111000A1F80005ED48B0F8820300B206900698E9
:1011200000280EDA06984042E849A1F80205084670
:10113000B0F8021542F210700844E449A1F8020523
:1011400004E0E248B0F88213A0F80215DF48B0F8D6
:10115000840300B20690069800280EDA06984042F2
:1011600081B2DA48A0F80415B0F8040542F2107113
:101170000844D649A1F8040505E0D448B0F8840332
:10118000D249A1F80405D148B0F8860300B2069010
:10119000069800280EDA06984042CC49A1F80605C8
:1011A0000846B0F8060542F210710844C749A1F894
:1011B000060504E0C548B0F88613A0F80615C34834
:1011C000B0F8AC0300B20690069800280EDA069834
:1011D0004042BE49A1F82C050846B0F82C0542F261
:1011E00010710844B949A1F82C0505E0B748B0F8DA
:1011F000AC03B649A1F82C05B448B0F8AE0300B270
:101200000690069800280EDA0698404281B2AF4850
:10121000A0F82E15B0F82E1542F210700844AB4914
:10122000A1F82E0504E0A948B0F8AE13A0F82E15D9
:10123000A648B0F8B00300B20690069800280FDA6E
:101240000698404281B2A148A0F83015B0F8301598
:1012500042F21070084481B29C48A0F8301505E0B5
:101260009A48B0F8B0039949A1F830059748B0F80A
:10127000B20300B20690069800280EDA06984042A3
:101280009249A1F832050846B0F8320542F21071D1
:1012900008448E49A1F8320504E08C48B0F8B21336
:1012A000A0F832158948B0F8B40300B20690069849
:1012B00000280EDA069840428449A1F83405084611
:1012C000B0F8340542F2107108448049A1F83405A1
:1012D00005E07E48B0F8B4037C49A1F834057B48AA
:1012E000B0F8B60300B20690069800280EDA069809
:1012F00040427649A1F836050846B0F8361542F264
:10130000107008447149A1F8360505E06F48B0F83F
:10131000B6036E49A1F836056C48B0F86A02019030
:101320006A48B0F8680200900199FEF7CAFC0A21E9
:10133000B0FBF1F081B26548A0F8E813B0F86E0296
:1013400001906248B0F86C0200900199FEF7B9FC78
:101350000A21B0FBF1F081B25C48A0F8EA13B0F8C2
:10136000720201905948B0F8700200900199FEF79E
:10137000A8FC0A21B0FBF1F081B25448A0F8EC13AC
:10138000B0F8760201905148B0F8740200900199CB
:10139000FEF797FC4D49A1F8EE030846B0F87A0233
:1013A00001900846B0F8780200900199FEF789FC98
:1013B00081B24648A0F8F013B0F87E02019043488D
:1013C000B0F87C0200900199FEF77BFC81B23F48A7
:1013D000A0F8F213B0F8820201903C48B0F8800205
:1013E00000900199FEF76DFC3849A1F8F403084616
:1013F000B0F8860201900846B0F884020090019986
:10140000FEF75FFC3149A1F8F6030846B0F89A02EE
:1014100001900846B0F8980200900199FEF751FC3F
:101420000A21B0FBF1F081B22848A0F81814B0F8F6
:101430009E0201902548B0F89C0200900199FEF7A9
:1014400040FC0A21B0FBF1F081B22048A0F81A1448
:10145000B0F8A20201901D48B0F8A00200900199D6
:10146000FEF72FFC0A21B0FBF1F01849A1F81C048B
:101470000846B0F8A60201900846B0F8A402009011
:101480000199FEF71EFC81B21048A0F81E14B0F8B6
:10149000AA0201900D48B0F8A80200900199FEF749
:1014A00010FC0A49A1F820040846B0F8AE020190E9
:1014B0000846B0F8AC0200900199FEF702FC03491F
:1014C000A1F822040846B0F8B20201E05A0C00204C
:1014D00001900846B0F8B00200900199FEF7F1FBC8
:1014E00081B2FE48A0F82414B0F8B6020190FB487F
:1014F000B0F8B40200900199FEF7E3FBF749A1F8B8
:1015000026040846B0F8CA0201900846B0F8C8029E
:1015100000900199FEF7D5FB0A21B0FBF1F0EF49ED
:10152000A1F848040846B0F8CE0201900846B0F889
:10153000CC0200900199FEF7C4FB0A21B0FBF1F048
:10154000E649A1F84A040846B0F8D20201900846DC
:10155000B0F8D00200900199FEF7B3FB0A21B0FB6E
:10156000F1F0DE49A1F84C040846B0F8D60201902B
:101570000846B0F8D40200900199FEF7A2FBD749C3
:10158000A1F84E040846B0F8DA0201900846B0F817
:10159000D80200900199FEF794FBD049A1F85004BD
:1015A0000846B0F8DE0201900846B0F8DC02009070
:1015B0000199FEF786FBC949A1F852040846B0F824
:1015C000E20201900846B0F8E00200900199FEF7AF
:1015D00078FBC249A1F854040846B0F8E60201902D
:1015E0000846B0F8E40200900199FEF76AFBBB4997
:1015F000A1F856040846B0F8FA0201900846B0F87F
:10160000F80200900199FEF75CFB0A21B0FBF1F0B3
:10161000B249A1F878040846B0F8FE0201900846E5
:10162000B0F8FC0200900199FEF74BFB0A21B0FBD9
:10163000F1F0AA49A1F87A040846B0F80203019033
:101640000846B0F8000300900199FEF73AFB0A2122
:10165000B0FBF1F0A149A1F87C040846B0F80603FC
:1016600001900846B0F8040300900199FEF729FBA9
:101670009A49A1F87E040846B0F80A03019008468A
:10168000B0F8080300900199FEF71BFB9349A1F8FD
:1016900080040846B0F80E0301900846B0F80C0329
:1016A00000900199FEF70DFB8C49A1F882040846D1
:1016B000B0F8120301900846B0F8100300900199A9
:1016C000FEF7FFFA8549A1F884040846B0F816032E
:1016D00001900846B0F8140300900199FEF7F1FA62
:1016E0007E49A1F886040846B0F82A03019008460E
:1016F000B0F8280300900199FEF7E3FA0A21B0FB45
:10170000F1F081B27548A0F8A814B0F82E0301904A
:101710007248B0F82C0300900199FEF7D2FA0A2122
:10172000B0FBF1F081B26D48A0F8AA14B0F8320312
:1017300001906A48B0F8300300900199FEF7C1FAB1
:101740000A21B0FBF1F081B26448A0F8AC14B0F803
:10175000360301906148B0F8340300900199FEF718
:10176000B0FA5E49A1F8AE040846B0F83A03019019
:101770000846B0F8380300900199FEF7A2FA5749DD
:10178000A1F8B0040846B0F83E0301900846B0F84E
:101790003C0300900199FEF794FA81B24F48A0F8FB
:1017A000B214B0F8420301904C48B0F840030090E6
:1017B0000199FEF786FA4949A1F8B4040846B0F841
:1017C000460301900846B0F8440300900199FEF7E3
:1017D00078FA4249A1F8B6040846B0F85A030190D5
:1017E0000846B0F8580300900199FEF76AFA0A21FA
:1017F000B0FBF1F081B23948A0F8D814B0F85E031C
:1018000001903648B0F85C0300900199FEF759FA50
:101810000A21B0FBF1F081B23048A0F8DA14B0F838
:10182000620301902D48B0F8600300900199FEF723
:1018300048FA0A21B0FBF1F02849A1F8DC04084677
:10184000B0F8660301900846B0F86403009001996F
:10185000FEF737FA2149A1F8DE040846B0F86A031A
:1018600001900846B0F8680300900199FEF729FA44
:101870001A49A1F8E0040846B0F86E030190084642
:10188000B0F86C0300900199FEF71BFA1349A1F818
:10189000E2040846B0F8720301900846B0F87003FD
:1018A00000900199FEF70DFA0C49A1F8E4040846EE
:1018B000B0F8760301900846B0F8740300900199DF
:1018C000FEF7FFF981B20548A0F8E614B0F88A03E4
:1018D00001900248B0F88803009001E05A0C002003
:1018E0000199FEF7EEF90A21B0FBF1F0FE49A1F8EB
:1018F00008050846B0F88E0301900846B0F88C033E
:1019000000900199FEF7DDF90A21B0FBF1F0F649EC
:10191000A1F80A050846B0F8920301900846B0F80D
:10192000900300900199FEF7CCF90A21B0FBF1F089
:10193000ED49A1F80C050846B0F896030190084659
:10194000B0F8940300900199FEF7BBF9E649A1F8BD
:101950000E050846B0F89A0301900846B0F89803BF
:1019600000900199FEF7ADF9DF49A1F8100508468E
:10197000B0F89E0301900846B0F89C0300900199CE
:10198000FEF79FF9D849A1F812050846B0F8A2035E
:1019900001900846B0F8A00300900199FEF791F974
:1019A000D149A1F814050846B0F8A60301900846ED
:1019B000B0F8A40300900199FEF783F981B2CA48F8
:1019C000A0F81615B0F8BA030190C748B0F8B803EC
:1019D00000900199FEF775F90A21B0FBF1F0C249B8
:1019E000A1F838050846B0F8BE0301900846B0F8E3
:1019F000BC0300900199FEF764F90A21B0FBF1F0F5
:101A000081B2B948A0F83A15B0F8C2030190B648BF
:101A1000B0F8C00300900199FEF753F90A21B0FB1A
:101A2000F1F081B2B048A0F83C15B0F8C6030190BF
:101A3000AD48B0F8C40300900199FEF742F981B2B5
:101A4000A948A0F83E15B0F8CA030190A648B0F81E
:101A5000C80300900199FEF734F981B2A248A0F8BA
:101A60004015B0F8CE0301909F48B0F8CC03009029
:101A70000199FEF726F99C49A1F842050846B0F8FD
:101A8000D20301900846B0F8D00300900199FEF708
:101A900018F99549A1F844050846B0F8D603019015
:101AA0000846B0F8D40300900199FEF70AF981B214
:101AB0008D48A0F846150BB000BD70478B48C08F0D
:101AC000B0F5166F1CD08948C08FB0F5965F17D05F
:101AD0008648C08FB0F5165F12D08448C08FB0F52D
:101AE000964F0DD08148C08FB0F5164F08D07F4873
:101AF000C08FB0F5614F03D04FF416507B49C887B3
:101B00007A48008D032802DB002078490885774851
:101B1000408D50B17548408D012806D07348408DE6
:101B2000022802D00020714948857048808D032822
:101B300003DA6E48808D012802DA02206B4988851D
:101B40006A480089B0F57A7F02DB00206749088186
:101B500066484089B0F57A7F02DB002063494881FE
:101B600062488089B0F57A7F02DB00205F49888176
:101B70005E48C089B0F57A7F02DB00205B49C881EE
:101B80005A48B0F84800892805DB5848B0F84800A2
:101B9000B0F57F7F04DD4FF4D9705449A1F84800B7
:101BA0005248B0F84A0014280DD05048B0F84A0006
:101BB000072804DB4D48B0F84A000E2803DD142046
:101BC0004A49A1F84A004948B0F84C00092803DD09
:101BD00007204649A1F84C004448B0F84E000628BA
:101BE00004DB4248B0F84E000C2803DD07203F49D3
:101BF000A1F84E003D48B0F85000012804DB3B48F6
:101C0000B0F85000042803DD02203849A1F8500044
:101C10003648B0F85200012803DD01203349A1F80D
:101C200052003248B0F85400012803DD00202F494B
:101C3000A1F854002D48B0F85600012803DD00201B
:101C40002A49A1F856002948B0F85800012803DDB8
:101C500000202649A1F858002448B0F85E000A2860
:101C600006DB2248B0F85E0041F27071884204DD64
:101C70004FF47A701D49A1F85E001C48B0F860006E
:101C80000A2806DB1948B0F8600041F270718842FA
:101C900004DD4FF47A701549A1F860001348C0883C
:101CA000012802DD00201149C8801048C0880128A1
:101CB00009D00E48C08830B90C488088032802DA61
:101CC00003200A49888009480088052803DA4FF470
:101CD000F070064908800548008A022802DD0020CD
:101CE00002490882704700005A0C00201E1600208E
:101CF0007A4880783C283DDB002078498870084687
:101D0000C078401CC8700846C078754988867348FA
:101D1000C0783C282EDB00207049C8700846007946
:101D2000401C0871084600796D49C8866B480079E7
:101D300018281FDB00206949087108464079401CBB
:101D400048710846407966490887644840791E28EA
:101D500010DD01206149487108468079401C887176
:101D6000084680790C2805DD012088710846C07975
:101D7000401CC87159488078594948865748C078EE
:101D8000888656480079C8867047564A1268127885
:101D900003781A440379D21A037A1A440A70514A12
:101DA0001268527843781A4043795A40437A1A436A
:101DB0004A70827883795A40837A5A40494B1B682B
:101DC0009B781A438A70474A1268D278C378D21A2D
:101DD000C3791A44C37A1A40CA70704700B54248A2
:101DE000424908604248006880784249087040488B
:101DF0000068C07848703E480068807988703C4828
:101E00000068C079C8703A4800680079087138489D
:101E100000684079487136480068807A8871344893
:101E20000068C07AC871324800680078087230488B
:101E30000068407848722E480068007A88722C4802
:101E40000068407AC8722C492A48FFF79EFF2A484A
:101E500000782A4909680978884218D126484078CC
:101E6000264909684978884211D123488078234956
:101E70000968897888420AD11F48C0781F490968D3
:101E8000C978884203D101201D49087002E0002072
:101E90001B49087000BDF8B504460D466E4600208B
:101EA000184908800C21204600F07CF8009030781A
:101EB0002870707868700B4800688078A178484076
:101EC00061784840A87007480068C078E1784840C9
:101ED00021784840E870F8BD70470000580800209D
:101EE0001E1600203C010020FF00110034010020DC
:101EF0002C0100208429002038010020300100201E
:101F0000420100204001002008B54FF40070ADF8F8
:101F1000000003208DF8020018208DF803006946A8
:101F2000FE48FBF7A3F84FF48060ADF800000320F3
:101F30008DF8020004208DF803006946F748FBF78E
:101F400095F808BD1FB5F648FBF7DEF96846FBF7C4
:101F500087FAF448C08F00900020ADF80400ADF877
:101F60000600ADF80800ADF80C000C20ADF80A0032
:101F70006946EB48FBF70BFA012240F22551E8488D
:101F8000FBF79DFA0121E648FBF78DFA1FBD10B55E
:101F9000FFF7BAFFFFF7D6FF0020E3490880E349C7
:101FA000088010BDF0B50246FF23FF240025002065
:101FB00009E012F8016B86EA0305DD4E765D86EADC
:101FC0000403DC4E745D0E1EA1F10107F9B2F0D1DD
:101FD00044EA0320F0BD2DE9F0414FF00008D1485C
:101FE000008A18B1CF48008A022873D1CF480088F0
:101FF000002870DDD0480078D049097888426AD03E
:10200000CD480078CD490870CD480088401CCC49A7
:102010000880084600880528EBDD002240F22551A3
:10202000BF48FBF74CFAC1480088C6490880002029
:10203000C3490880C3480088B0F5006F6FDCC24810
:102040000078B8498988884203D0C04800780128C0
:102050006FD1BC480078801EC1B2BB48FFF7A2FF19
:1020600004462512E6B2B7480088801EB649085CCF
:10207000A84271D1B3480088401E085CB042F8D134
:1020800008464078032868D1B1488478C07800EBCE
:102090000420B0490880AD480078012870D1AE4FC7
:1020A00008460088092803D14FF48270088017E1A0
:1020B000A8480088172804D140F20510A5490880D7
:1020C0000EE1A44800880B2806D14FF48370A14983
:1020D000088005E1A0E114E29E4800889C2804D114
:1020E00040F207109B490880FAE09A4800889D2832
:1020F00004D14FF4847097490880F1E09548008836
:102100008E2804D140F2091092490880E8E09148F5
:102110000088012804D100028E490880E0E06FE1C8
:102120008C480088022805D140F2011089490880B6
:10213000D6E062E187480088032804D14FF481701B
:1021400084490880CCE083480088042806D140F206
:10215000031080490880C3E04CE124E17D480088F9
:10216000362804D14FF485707A490880B8E0794860
:1021700000883C2805D140F20B1076490880AFE07A
:10218000B6E074480088D42804D14FF486707149B1
:102190000880A5E06F480088D52804D140F20D10D2
:1021A0006C4908809CE06B480088DA2804D14FF421
:1021B00087706849088093E066480088E22804D167
:1021C00040F20F10634908808AE062480088E328E3
:1021D00004D14FF488705F49088081E05D48008831
:1021E000E42804D140F211105A49088078E0594897
:1021F0000088E52804D14FF48970564908806FE0C3
:1022000054480088E62804D140F213105149088050
:1022100066E050480088E72804D14FF48A704D49A1
:1022200008805DE04B480088E82804D140F2151092
:102230004849088054E047480088E92804D14FF411
:102240008B70444908804BE042480088EA2804D15A
:1022500040F217103F49088042E03E480088EB28D2
:1022600004D14FF48C703B49088039E0394800882C
:10227000EC2804D140F219103649088030E0354886
:102280000088ED2804D14FF48D703249088027E092
:1022900030480088EE2804D140F21B102D490880F8
:1022A0001EE02C48008840F2F511884204D14FF41A
:1022B0008F702849088013E02648008840F2812169
:1022C000884204D140F21F102249088008E02148CA
