:020000040800F2
:10000000C06700207D280008B9C00008BBC00008F8
:10001000BFC00008C3C00008C7C00008000000003F
:10002000000000000000000000000000CBC000083D
:10003000CDC0000800000000CFC00008D1C00008FB
:100040009728000897280008972800089728000894
:100050009728000897280008972800089728000884
:1000600019C6000897280008972800089728000854
:100070009728000897280008972800089728000864
:100080009728000897280008972800089728000854
:1000900097280008972800089728000835C6000808
:1000A0009728000897280008972800089728000834
:1000B00055C60008972800089728000897280008C8
:1000C0009728000897280008972800089728000814
:1000D000972800086DC2000831C30008CFC300088C
:1000E00097280008972800089728000897280008F4
:1000F00097280008972800089728000897280008E4
:1001000097280008972800089728000897280008D3
:100110008DC4000897280008972800089728000831
:1001200097280008972800089728000897280008B3
:1001300000F002F800F0B0F80AA090E8000C824449
:100140008344AAF10107DA4501D100F0A5F8AFF226
:10015000090EBAE80F0013F0010F18BFFB1A43F0A5
:1001600001031847F0AA020010AB02000A444FF046
:10017000000C10F8013B13F0070408BF10F8014B06
:100180001D1108BF10F8015B641E05D010F8016B4B
:10019000641E01F8016BF9D113F0080F1EBF10F8AF
:1001A000014BAD1C0C1B09D16D1E58BF01F801CBD2
:1001B000FAD505E014F8016B01F8016B6D1EF9D555
:1001C0009142D6D37047000000230024002500266A
:1001D000103A28BF78C1FBD8520728BF30C148BFAA
:1001E0000B6070476E2926F0BA85702926F02587A6
:1001F000662929F0B886652929F0B586672929F08E
:10020000B2866129AFF3008003681B0A28BF41F062
:100210008001692926F03283642926F02F8375290D
:1002200026F02C836F2926F0B286782926F0F186F5
:10023000E92926F04D86E42926F04A86F52926F09C
:100240004786EF2926F0AF86F82926F0F086036866
:10025000DB0928BF41F08001632926F0BC857329A2
:1002600026F0C185E32927F0C781F32927F0CC8147
:10027000002070471FB527F063FA0400002000211A
:1002800028F022FD401C60600020002128F032FD93
:10029000E0601FBD10B510BD27F02DFA1146FFF725
:1002A000E9FF02F019FD27F00FFB03B4FFF7F2FF9F
:1002B00003BC02F003FB00000CB50020019000908D
:1002C0006C48006840F480306A49086000BF6948A3
:1002D000006800F4003000900198401C01900098E4
:1002E00018B90198B0F5A06FF1D16248006800F428
:1002F000003010B10120009001E000200090009833
:10030000012843D15C48006840F010005A49086059
:100310000846006820F0030008600846006840F0C6
:1003200002000860534840685249486008464068E7
:1003300048600846406840F480604860084640686D
:1003400020F47C1048600846406840F4E81048609B
:100350000846006840F08070086000BF45480068AB
:1003600000F000700028F9D04248406820F00300F7
:10037000404948600846406840F00200486000BFBD
:100380003C48406800F00C000828F9D10CBD10B5BD
:10039000FFF792FF10BD10B53648006840F001002D
:1003A000344908600846406834490840314948608B
:1003B00008460068324908402E490860084600682F
:1003C00020F4802008600846406820F4FE00486061
:1003D0004FF41F008860FFF7DAFF4FF000602949F3
:1003E000086010BD10B5002100200022214B5B6881
:1003F00003F00C0121B1042906D0082928D107E017
:10040000214B224C236027E01F4B204C236023E02C
:10041000184B5B6803F47010164B5B6803F4803272
:10042000022303EB904022B9194B4343174C23603E
:100430000DE0104B5B6803F4003323B1144B4343CE
:10044000124C236003E0104B4343104C236003E045
:100450000D4B0E4C236000BF00BF064B5B68C3F31F
:1004600003130C4CE15C094B1B68CB40074C236029
:1004700010BD000000100240002002400000FFF804
:10048000FFFFF6FE08ED00E000127A0000000020F9
:1004900000093D0004000020DF48006840F0010032
:1004A000DD49086008464068DC490840DA49486090
:1004B00008460068DA490840D749086008460068DD
:1004C00020F4802008600846406820F4FE00486060
:1004D0004FF41F0088607047CF49096821F48031CC
:1004E000CD4A11601146096821F480211160B0F5F0
:1004F000803F03D0B0F5802F0ED106E0C6490968D1
:1005000041F48031C44A116007E0C349096841F4ED
:10051000A021C14A116000E000BF00BF704710B5C4
:1005200001460022002300204A11012A02D1BA4CC0
:10053000236806E0022A02D1B74C236A01E0B64CD8
:10054000636A01F01F02012494401C400CB1012099
:1005500000E0002010BD38B50020009000240025E8
:1005600000BF3120FFF7DBFF05460098401C0090DC
:100570000098B0F5A06F01D0002DF2D03120FFF728
:10058000CEFF08B1012400E00024204638BD01461A
:100590000020A14A106820F0F80040EAC100106075
:1005A0007047A04908607047024600209A4B58687F
:1005B00020F47C1042EA01031843974B58607047BF
:1005C00098490866704701460020934A506820F019
:1005D00003000843506070478F48406800F00C00EB
:1005E0007047014600208C4A506820F0F000084314
:1005F0005060704701460020874A506820F4E06050
:1006000008435060704701460020834A506820F438
:10061000605040EAC1005060704729B17E4A527A6A
:1006200002437D4B5A7204E07B4A527A82437A4BF2
:100630005A7270477B49D8310860704701460020E4
:10064000754A506820F440400843506070470021CC
:10065000714A20321170704A82F82010012802D0AD
:1006600004280AD104E001216B4A2032117005E010
:100670000521694A2032117000E000BF00BF7047B9
:100680006949086070476449096A0143624A116216
:100690007047654944390860704730B50021002231
:1006A000002400235C4D6D6805F00C0121B1042984
:1006B00005D0082923D105E05C4D056022E05B4DA3
:1006C00005601FE0544D6D6805F47012524D6D6861
:1006D00005F48034022505EB92421CB9544D554374
:1006E00005600BE04C4D6D6805F400351DB1504DB3
:1006F0005543056002E04D4D5543056002E04B4D0A
:10070000056000BF00BF444D6D6805F0F0010909A8
:10071000484D6B5C0568DD4045603F4D6D6805F4F4
:10072000E061090A434D6B5C4568DD4085603A4DE8
:100730006D6805F46051C90A3E4D6B5C4568DD404B
:10074000C560354D6D6805F44041890B3A4D6B5CD1
:10075000C568B5FBF3F5056130BD29B12E4A526974
:1007600002432D4B5A6104E02B4A526982432A4BC3
:100770005A61704729B1284A92690243264B9A610F
:1007800004E0254A92698243234B9A61704729B15C
:10079000214AD2690243204BDA6104E01E4AD26941
:1007A00082431D4BDA61704729B11B4AD26802436C
:1007B000194BDA6004E0184AD2688243164BDA60BB
:1007C000704729B1144A12690243134B1A6104E0BD
:1007D000114A12698243104B1A617047124940391D
:1007E000086070470F49C86470470B49C87170476B
:1007F0000948406A40F080700749486270470146E6
:100800000020054A92680A400AB1012000E0002059
:100810007047014988727047001002400000FFF8DD
:10082000FFFFF6FE000042428004424200127A00BE
:1008300000093D001400002024000020314901433C
:10084000314A1160704770B5002100230F22C4782F
:1008500004B32D4C246804F4E064C4F5E064210A78
:10086000C1F10403CA40447804FA03F184781440C7
:1008700021430901254C0678A155047804F01F0591
:100880000124AC4005786D11AD0005F1E025C5F8F7
:10089000004109E0047804F01F050124AC401C4D20
:1008A0000678761145F8264070BD1A4A0A40024380
:1008B000154B1B1F1A60704739B1134A121D12687D
:1008C0000243114B1B1D1A6006E00F4A121D1268ED
:1008D00082430D4B1B1D1A607047042808D14FF04E
:1008E000E021096941F004014FF0E022116107E0C5
:1008F0004FF0E021096921F004014FF0E02211617D
:10090000704700000000FA050CED00E000E400E094
:1009100080E100E080FFFF1F10B50446CC48844210
:1009200008D101210420FFF73FFF00210420FFF739
:100930003BFF46E0C748844208D101210820FFF769
:1009400033FF00210820FFF72FFF3AE0C24884421E
:1009500008D101211020FFF727FF00211020FFF709
:1009600023FF2EE0BD48844208D101212020FFF75B
:100970001BFF00212020FFF717FF22E0B848844228
:1009800008D101214020FFF70FFF00214020FFF791
:100990000BFF16E0B348844208D101218020FFF705
:1009A00003FF00218020FFF7FFFE0AE0AE488442EB
:1009B00007D101218015FFF7F7FE0021A015FFF7F1
:1009C000F3FE10BD10B501210846FFF7EDFE002132
:1009D0000120FFF7E9FE10BD2DE9F0410246002598
:1009E0000026002000230024002791F803C00CF00B
:1009F0000F0591F803C00CF0100CBCF1000F03D0F0
:100A000091F802C04CEA050591F800C0BCF1000F56
:100A100031D0146800202BE04FF0010C0CFA00F3E9
:100A2000B1F800C00CEA03069E4220D183004FF0CB
:100A30000F0C0CFA03F7BC4305FA03FC4CEA040460
:100A400091F803C0BCF1280F06D14FF0010C0CFA4D
:100A500000FCC2F814C00AE091F803C0BCF1480FD2
:100A600005D14FF0010C0CFA00FCC2F810C0401C7C
:100A70000828D1D31460B1F800C0BCF1FF0F34DDF9
:100A8000546800202EE000F1080C4FF0010808FA2D
:100A90000CF3B1F800C00CEA03069E4221D183009A
:100AA0004FF00F0C0CFA03F7BC4305FA03FC4CEAB9
:100AB000040491F803C0BCF1280F05D100F1080C23
:100AC00008FA0CF8C2F8148091F803C0BCF1480F82
:100AD00007D100F1080C4FF0010808FA0CF8C2F831
:100AE0001080401C0828CED35460BDE8F0814FF63A
:100AF000FF710180022181700421C170704702469C
:100B0000002093680B400BB1012000E000207047EB
:100B10000146886880B2704702460020D3680B40C7
:100B20000BB1012000E0002070470146C86880B288
:100B3000704701617047416170470AB1016100E08F
:100B400041617047C16070474FF480320A4382614F
:100B50008161826182698269704702460020434B4D
:100B600018684FF68073184040EA021008433F4B64
:100B7000186070473E49C8617047F0B50A460023C7
:100B800000240021002500F00046B6F1004F02D1FC
:100B9000364EF16901E0354E7168C0F3034583B20A
:100BA00000F44016B6F5401F08D121F070612F4EB9
:100BB000766826F070662D4F7E6012E000F4801695
:100BC000B6F5801F06D1032606FA05F4A14341F0CD
:100BD000706106E0460D360103FA06F6B14341F0B6
:100BE000706122B1460D360103FA06F6314300F07A
:100BF0000046B6F1004F02D11C4EF16101E01B4EE0
:100C00007160F0BD30B500228B071C0F0F2303FA73
:100C100004F2164B08338C1053F824309343134CD2
:100C200008348D1044F8253023468C1053F82430B6
:100C30008C07240F00FA04F423430C4C08348D1065
:100C400044F8253030BD0A49DC31086070470000A7
:100C500000080140000C0140001001400014014058
:100C600000180140001C014000200140000001402C
:100C70000000204210B50446FB48844209D10121FE
:100C80008803FFF791FD00214FF48040FFF78CFDB2
:100C900032E0F648844209D101214804FFF791FD72
:100CA00000214FF40030FFF78CFD25E0F04884422E
:100CB00009D101218804FFF784FD00214FF4802031
:100CC000FFF77FFD18E0EB48844209D10121C804F9
:100CD000FFF777FD00214FF40020FFF772FD0BE0D6
:100CE000E548844208D101210805FFF76AFD00218B
:100CF0004FF48010FFF765FD10BD2DE9F04786B079
:100D000005460E460024A24600BFA1460027B08932
:100D100000B100BF2F462C8A4CF6FF700440F088CB
:100D200004432C82AC894EF6F3100440B08831891C
:100D30000843718908430443AC81AC8A4FF6FF40F5
:100D40000440B0890443AC8201A8FFF7A6FCC64862
:100D5000874202D1DDF810A001E0DDF80CA0A889DF
:100D600000F4004040B10AEBCA0000EB0A10316801
:100D70004900B0FBF1F807E00AEBCA0000EB0A10EB
:100D800031688900B0FBF1F86420B8FBF0F0040191
:100D90002009642101FB1089A88900F4004040B1BA
:100DA000322000EBC900B0FBF1F000F00700044373
:100DB00008E0322000EB09106421B0FBF1F000F0F4
:100DC0000F0004432C8106B0BDE8F0874FF41651A4
:100DD000016000218180C18001810C2141810021BD
:100DE0008181704710B502460020108A4FF2FF0340
:100DF00018400B884C8823438C882343CC8823439A
:100E00001843108210BD0021018041808180C18083
:100E1000704721B1828942F40052828104E08289C4
:100E20004DF6FF731A4082817047F0B503460024E7
:100E300000260025002040F66A17B94200D100BF05
:100E40001846C1F3421401F01F06012707FA06F500
:100E5000012C01D10C3004E0022C01D1103000E053
:100E600014301AB107682F43076002E00768AF43E8
:100E70000760F0BD1AB1838A0B43838202E0838A44
:100E80008B4383827047028A4FF6F0731A400282C6
:100E9000028A0A430282704782894FF2FF731A4026
:100EA000828182890A438281704721B1828942F01E
:100EB0000202828104E082894FF6FD731A4082812A
:100EC0007047028A4FF6DF731A400282028A0A4391
:100ED0000282704721B1028A42F48042028204E019
:100EE000028A4BF6FF731A4002827047C1F3080270
:100EF0008280704701468888C0F308007047818966
:100F000041F0010181817047028BD2B20283028BD2
:100F100042EA012202837047028B02F47F4202837D
:100F2000028B0A430283704721B1828A42F0200279
:100F3000828204E0828A4FF6DF731A408282704711
:100F400021B1828A42F01002828204E0828A4FF646
:100F5000EF731A408282704721B1828A42F0080200
:100F6000828204E0828A4FF6F7731A4082827047C9
:100F700021B1828942F40042828103E08289C2F376
:100F80000E028281704721B1828A42F4006282821D
:100F900004E0828A4FF2FF731A4082827047828A8D
:100FA0004FF6FB731A408282828A0A43828270471C
:100FB00021B1828A42F00202828204E0828A4FF6E4
:100FC000FD731A408282704702460020B1F5007F0F
:100FD00000D100BF13880B400BB1012000E00020BE
:100FE000704701F40072B2F5007F00D100BFCA4320
:100FF0000280704770B502460024002300250020BF
:1010000040F66A16B14200D100BFC1F3421501F0AB
:101010001F03012606FA03F3012D02D196893340FE
:1010200006E0022D02D1168A334001E0968A334051
:101030000C12012606FA04F41688344013B10CB1E0
:10104000012000E0002070BD10B50022002340F612
:101050006A14A14200D100BF0A1201249440A3B235
:10106000DC43048010BD0000003801400044004013
:1010700000480040004C0040005000400146002065
:10108000FE4A106800F03800084310607047FB49C2
:10109000096821F00801F94A116011460968014305
:1010A00011607047F549096821F01001F34A116099
:1010B00011460968014311607047F148EF494860E3
:1010C000F04848607047EE48EC494860ED48486099
:1010D0007047EA48006940F08000E84908617047BD
:1010E000E648006940F08000E44908617047042048
:1010F000E249C96801F0010109B101200EE0DF49B0
:10110000C96801F0040109B1022007E0DB49C968A0
:1011100001F0100109B1032000E00420704700B580
:1011200002460423FFF7E3FF034603E0FFF7DFFF78
:101130000346521E012B01D1002AF7D102B9052323
:10114000184600BD30B5044604254FF43020FFF7A3
:10115000E6FF0546042D17D1C848006940F002009B
:10116000C649086108464461006940F040000861D2
:101170004FF43020FFF7D3FF0546C048006941F621
:10118000FD710840BD490861284630BD10B50424F2
:101190004FF43020FFF7C3FF0446042C16D1B748A4
:1011A000006940F00400B54908610846006940F054
:1011B000400008614FF43020FFF7B1FF0446AF480C
:1011C000006941F6FB710840AC490861204610BD3A
:1011D00000B502460423FFF78AFF034603E0FFF74A
:1011E00086FF0346521E012B01D1002AF7D102B916
:1011F0000523184600BD10B504244FF43020FFF736
:10120000E7FF0446042C16D19C48006940F0040016
:101210009A4908610846006940F0400008614FF4AF
:101220003020FFF7D5FF04469448006941F6FB7172
:10123000084092490861204610BD00208F49C969C5
:1012400001F0020109B1012000E00020704730B533
:10125000A5250424FFF7F1FF00B100254FF430204D
:10126000FFF75DFF0446042C3AD185488349886026
:10127000844888600846006940F0200008610846FC
:10128000006940F0400008614FF43020FFF747FF4D
:101290000446042C1BD17948006941F6DF710840EF
:1012A000764908610846006940F0100008617648F8
:1012B0000580E002FFF733FF0446052C10D06F488D
:1012C000006941F6EF7108406C49086108E0052C9F
:1012D00006D06A48006941F6EF7108406749086125
:1012E000204630BD78B506460C4604250020009007
:1012F000E802FFF714FF0546042D24D15F4800697A
:1013000040F001005D4908613480E802FFF707FF03
:101310000546042D10D1B01C0090200C00990880C7
:10132000E802FFF7FCFE05465448006941F6FE71ED
:1013300008405249086106E05048006941F6FE71D4
:1013400008404E490861284678BD70B504460D46F0
:101350000426F002FFF7E3FE0646042E11D14748AB
:10136000006940F00100454908612580F002FFF75F
:10137000D6FE06464148006941F6FE7108403F49E5
:101380000861304670BD70B505460E460424E00283
:10139000FFF7C5FE0446042C17D139483749886049
:1013A000384888600846006940F0100008612E80C7
:1013B000E002FFF7B4FE0446052C06D02F48006972
:1013C00041F6EF7108402D490861204670BD2DE9B6
:1013D000F04304464FF6FF763746B046B146042543
:1013E000E443E6B2C4F30727C4F307484FEA14699D
:1013F000E802FFF794FE0546042D49D120481F4915
:101400008860204888600846006940F01000086144
:10141000FF2E06D01C4808300680E802FFF77FFE4A
:101420000546042D08D1FF2F06D017480A30078043
:10143000E802FFF774FE0546042D0AD1B8F1FF0F4C
:1014400007D011480C30A0F80080E802FFF767FED3
:101450000546042D0AD1B9F1FF0F07D00A480E3016
:10146000A0F80090E802FFF75AFE0546052D0FD0C0
:101470000248006941F6EF71084007E00020024091
:1014800023016745AB89EFCD00F8FF1F664908616E
:101490002846BDE8F08330B5054604244FF43020DB
:1014A000FFF73DFE0446042C41D160485E49886048
:1014B0005F4888600846006940F0200008610846DF
:1014C000006940F0400008614FF43020FFF727FE2C
:1014D0000446042C22D15448006941F6DF710840CB
:1014E000514908610846006940F0100008611DB1CB
:1014F00000205049088002E0A5204E4908804FF4A2
:101500003020FFF70CFE0446052C10D04648006939
:1015100041F6EF7108404449086108E0052C06D007
:101520004148006941F6DF7108403F4908612046A3
:1015300030BDF0B505460E46174604243B483A49EF
:1015400088603B488860E002FFF7E9FD0446042C10
:1015500019D13548006940F010003349086147F05F
:10156000F800304328433349891C0880E002FFF724
:10157000D6FD0446052C06D02B48006941F6EF71D4
:101580000840294908612046F0BD2748C069800805
:1015900070472548006A704700202349096801F018
:1015A000200109B1012000E00020704729B11E4A46
:1015B000126902431C4B1A6104E01B4A1269824300
:1015C000194B1A61704701460020012908D1164ABB
:1015D000D26902F001020AB1012008E0002006E011
:1015E000114AD2680A400AB1012000E00020704789
:1015F0000D49C860704704200B49C96801F001011A
:1016000009B101200EE00849C96801F0040109B1DF
:10161000022007E00449C96801F0100109B1032064
:1016200000E00420704700000020024023016745CD
:10163000AB89EFCD00F8FF1F10B50446BE488442C9
:1016400008D101218014FFF7AFF80021A014FFF7A3
:10165000ABF816E0B948844208D101210014FFF725
:10166000B0F800212014FFF7ACF80AE0B448844237
:1016700007D10121C013FFF7A4F80021E013FFF701
:10168000A0F810BD10B50022028802F441520B8868
:101690004C8823438C882343CC8823430C892343E1
:1016A0004C8923438C892343CC8923431A430280EA
:1016B000838B4FF2FF74234083830B8A038210BD18
:1016C0002DE9F04F85B005460C464FF00009022782
:1016D0004FF000084FF0010B0026B246A88B4FF2E6
:1016E00040010840A88302202884B5F81C90A06817
:1016F000022801D100BF38E0A08810B94FF0010BDB
:1017000001E04FF0020B8D48854200D100E000BFA0
:101710006846FEF7C2FFDDF800A0E088B0F5007F64
:101720000AD14FEA1A2000EB80004000A168B0FB0C
:10173000F1F0401D86B20BE04FEA4B10BAFBF0F01F
:1017400000EB80004000A168B0FBF1F0401D86B2C4
:101750000A20B6FBF0F606F00108A6EB0800C0F37D
:101760004F074FF6FF7000EA0828022F01DBFF2F1A
:1017700002DD02274FF00008E08840EA0800384305
:101780002884A088A18908436188084321880843E8
:1017900040F4006040EA0909A5F81C9005B0BDE8D6
:1017A000F08F0021018041808180C18001814181D1
:1017B0008181C18107210182704700210180418020
:1017C0008180C1800221816000218181704721B127
:1017D000028842F04002028004E002884FF6BF73A4
:1017E0001A400280704721B1828B42F4806282836A
:1017F00004E0828B4FF6FF331A408283704730B586
:10180000002400230C110125A540ABB21AB1858834
:101810001D43858002E085889D43858030BD1AB1D7
:1018200083880B43838002E083888B4383807047E7
:10183000818170470146888970474FF6FF62914267
:1018400004D0028842F48072028004E002884FF6DD
:10185000FF631A400280704721B1828842F004027F
:10186000828004E082884FF6FB731A4082807047C2
:1018700002884FF2FF731A40028002880A430280F6
:101880007047018841F480510180704721B102887E
:1018900042F40052028004E002884DF6FF731A40C1
:1018A0000280704702460020012901D0108B00E021
:1018B000908A70470146088A7047B1F5804F04D17D
:1018C000028842F48042028004E002884BF6FF73F3
:1018D0001A40028070470246002013890B400BB16A
:1018E000012000E000207047CA4302817047F0B534
:1018F0000246002000240023002501F00F070126E6
:10190000BE40B4B20B1101269E40B3B2968806EADF
:1019100003051689264016B10DB1012000E0002014
:10192000F0BD10B5002201F00F040123A3409AB2CC
:10193000D343038110BD0000003001400038004057
:10194000003C004010B50446FE48844208D1012105
:10195000C014FEF729FF0021E014FEF725FFC4E0C4
:10196000B4F1804F08D101210846FEF72AFF00217B
:101970000120FEF726FFB8E0F348844208D1012198
:101980000220FEF71EFF00210220FEF71AFFACE046
:10199000EE48844208D101210420FEF712FF002105
:1019A0000420FEF70EFFA0E0E948844208D101219F
:1019B0000820FEF706FF00210820FEF702FF94E052
:1019C000E448844208D101211020FEF7FAFE0021EC
:1019D0001020FEF7F6FE88E0DF48844208D101219E
:1019E0002020FEF7EEFE00212020FEF7EAFE7CE03C
:1019F000DA48844208D101214014FEF7D5FE0021C7
:101A00006014FEF7D1FE70E0D548844209D101216F
:101A1000C804FEF7C9FE00214FF40020FEF7C4FE03
:101A200063E0D048844209D101210805FEF7BCFEDD
:101A300000214FF48010FEF7B7FE56E0CA488442FA
:101A400009D101214805FEF7AFFE00214FF4001037
:101A5000FEF7AAFE49E0C548844208D10121402092
:101A6000FEF7AFFE00214020FEF7ABFE3DE0C04890
:101A7000844208D101218020FEF7A3FE00218020AE
:101A8000FEF79FFE31E0BB48844208D1012180155A
:101A9000FEF797FE0021A015FEF793FE25E0B6485D
:101AA000844209D101210804FEF77EFE00214FF493
:101AB0008030FEF779FE18E0B048844209D1012158
:101AC0004804FEF771FE00214FF40030FEF76CFE73
:101AD0000BE0AB48844208D101218804FEF764FE84
:101AE00000214FF48020FEF75FFE10BD0022028827
:101AF000944B98420ED0994B98420BD0B0F1804F46
:101B000008D0914B984205D0904B984202D0904B10
:101B1000984204D14FF68F731A404B881A438D4B6D
:101B2000984207D08C4B984204D04FF6FF431A409E
:101B3000CB881A4302808B8883850B880385814B71
:101B400098420BD0854B984208D08B4B984205D0D9
:101B50008A4B984202D08A4B984201D10B7A038675
:101B600001238382704770B5002400220023058C76
:101B70004FF6FE7635400584028C8388048B4FF641
:101B80008F752C40B51E2C400D882C43751E2A40A5
:101B90000D892A434D882A436A4DA8420BD06F4DC8
:101BA000A84208D0744DA84205D0744DA84202D076
:101BB000734DA84213D14FF6F7752A404D892A4339
:101BC0004FF6FB752A408D882A434FF6FF652B4060
:101BD0004FF6FF552B408D892B43CD892B438380B6
:101BE0000483CD888586028470BD70B500240022F0
:101BF0000023058C4FF6EF7635400584028C8388F0
:101C0000048B48F6FF752C404FF6FF452C400D889D
:101C10004FF6FF7606EA05252C434FF6DF752A407E
:101C20000D8906EA05152A434D8806EA05152A435B
:101C3000444DA84202D0494DA8421DD14FF67F75B0
:101C40002A404D894FF6FF7606EA05152A434FF6DE
:101C5000BF752A408D8806EA05152A434FF6FF35E1
:101C60002B404FF2FF752B408D8906EA85052B43EB
:101C7000CD8906EA85052B4383800483CD880587BB
:101C8000028470BD70B5002400220023058C4FF63D
:101C9000FF6635400584028C8388848B4FF68F75F0
:101CA0002C404FF6FC752C400D882C434FF6FF5509
:101CB0002A400D894FF6FF7606EA05252A434D880E
:101CC00006EA05252A431F4DA84202D0234DA8420B
:101CD0001DD14FF2FF752A404D894FF6FF7606EA77
:101CE00005252A434FF6FF352A408D8806EA05254B
:101CF0002A434EF6FF752B404DF6FF752B408D891C
:101D000006EA05152B43CD8906EA05152B4383808A
:101D10008483CD888587028470BD70B5002200233E
:101D20000024058C4EF6FF7635400584038C8488AC
:101D3000828B48F6FF752A404FF6FF452A400D88F2
:101D400020E00000002C014000040040000800409A
:101D5000000C00400010004000140040003401401E
:101D6000004C014000500140005401400018004068
:101D7000001C0040002000400040014000440140A1
:101D8000004801404FF6FF7606EA05252A434DF646
:101D9000FF752B400D8906EA05352B434D8806EA71
:101DA00005352B43FA4DA84202D0FA4DA84208D17E
:101DB0004BF6FF752C408D894FF6FF7606EA8515A8
:101DC0002C4384808283CD88A0F84050038470BD6A
:101DD000828B4FF2FF331A408283828B4FF6FF7360
:101DE00003EA01231A4382837047F0B50C46154677
:101DF000002200210026078C4EF6FF7C07EA0C0724
:101E00000784828B018C4FF6FF7707EA043640F691
:101E1000FF473A404FF6FF7707EA05273A434FF668
:101E2000FF7707EA03373A43D94FB8420ED0D94F6C
:101E3000B8420BD0B0F1804F08D0D74FB84205D090
:101E4000D64FB84202D0D64FB84206D14DF6FF77F2
:101E5000394046F48057394305E047F6FF5739408B
:101E600044F48057394382830184F0BD828B4FF65E
:101E7000F3731A408283828B0A4382837047F0B5E2
:101E80000C461546002200210026078C4FF6FF6CF9
:101E900007EA0C070784828B018C4FF6FF7707EA6D
:101EA00004264FF60C773A404FF6FF7707EA031700
:101EB0002F433A43B64FB8420ED0B64FB8420BD07C
:101EC000B0F1804F08D0B44FB84205D0B34FB842FC
:101ED00002D0B34FB84206D14FF6FF57394046F40F
:101EE0008077394305E04FF2FF57394044F480775B
:101EF000394382830184F0BD028B4FF2FF331A40D5
:101F00000283028B4FF6FF7303EA01231A43028315
:101F10007047F0B50C461546002200210026078CBC
:101F20004FF6EF7C07EA0C070784028B018C4FF613
:101F3000FF7707EA041640F6FF473A404FF6FF776F
:101F400007EA03373A434FF6FF7707EA05273A4394
:101F50008F4FB8420ED08F4FB8420BD0B0F1804FA8
:101F600008D08D4FB84205D08C4FB84202D08C4F6C
:101F7000B84206D14FF6DF77394046F010073943B3
:101F800005E04FF65F77394044F01007394302838C
:101F90000184F0BD028B4FF6F3731A400283028B6B
:101FA0000A4302837047F0B50C4615460022002113
:101FB000068C4FF6FE773E400684028B018C4FF66E
:101FC0000C7632407E1C06EA03162E433243704ED6
:101FD000B0420ED06F4EB0420BD0B0F1804F08D05F
:101FE0006D4EB04205D06D4EB04202D06C4EB04244
:101FF00006D14FF6FD76314044F00106314305E04D
:102000004FF6F576314044F00106314302830184F6
:10201000F0BD70B505460C465D4885420ED05D4862
:1020200085420BD0B5F1804F08D05B48854205D082
:102030005A48854202D05A48854200D100E000BF8C
:10204000208850B92389A28861882846FFF7ABFF12
:10205000E1882846FFF79EFF25E0208804280AD162
:102060002389A28861882846FFF753FFE188284624
:10207000FFF742FF17E0208808280AD12389A288A9
:1020800061882846FFF7FBFEE1882846FFF7EEFE51
:1020900009E02389A28861882846FFF7A6FEE18827
:1020A0002846FFF795FE70BD2DE9F04105460C4628
:1020B00000260127608808B9022600E00026A088D3
:1020C000012801D1022700E001272088A0B9238937
:1020D000A28861882846FFF766FFE1882846FFF757
:1020E00059FF23893A4631462846FFF712FFE18817
:1020F0002846FFF701FF13E02389A288618828465C
:10210000FFF707FFE1882846FFF7F6FE23893A46E6
:1021100031462846FFF747FFE1882846FFF73AFF98
:10212000BDE8F0810A884B881A438B881A43CB8814
:102130001A430B891A434B891A438B891A43A0F817
:10214000442070474FF6FF71818000210180C180DB
:102150004180017270470021018041808180C180EF
:10216000018141818181C1817047002101804180CD
:10217000012181800021C1800181704700210180FF
:1021800041808180C180018141818181704700004F
:10219000002C0140003401400004004000080040D1
:1021A000000C004021B1028842F00102028004E0EC
:1021B00002884FF6FE731A400280704731B1B0F8C2
:1021C000442042F40042A0F8442005E0B0F8442046
:1021D000C2F30E02A0F8442070471AB183890B4362
:1021E000838102E083898B438381704781827047BA
:1021F00041EA0203A0F8483070471AB183890B43C3
:10220000838102E083898B438381704701894FF684
:10221000F8721140018170470A46002101894FF68A
:102220008F73194011430181704730B504460D4644
:1022300029462046FFF7F0FF208940F00700208163
:1022400030BD2DE9F04104460D4616461F46602D6F
:1022500006D13B46012231462046FFF75AFE05E0F3
:102260003B46012231462046FFF79DFE2946204687
:10227000FFF7D2FF208940F007002081BDE8F08100
:1022800030B50C4600210189C9B24FF6FF7505EA49
:102290000325154325432943018130BD2DE9F04134
:1022A00005460E4617469846002443463A463146B0
:1022B0002846FFF7E5FF2C894FF6F870044044F0FC
:1022C00007044FF68F70044044F070042C81BDE881
:1022D000F081F0B504460D4616461F463B46324691
:1022E00029462046FFF7CCFF208940F4804020811A
:1022F000F0BD0185828270470A46002101884FF6B1
:102300008F731940114301807047F0B50C46154694
:102310001E460021002200230189028B038C4FF608
:10232000F877394021434FF6FC473A4040F2011715
:102330003A434FF6DD773B404FF6FF7707EA061743
:102340002F433B43018102830384F0BD0A460021F1
:10235000018B4FF68F7319401143018370470A4672
:102360000021018B48F6FF7319404FF6FF7303EA13
:1023700002231943018370470A460021818B4FF6DF
:102380008F7319401143818370470A460021818B66
:1023900048F6FF7319404FF6FF7303EA022319430F
:1023A0008183704721B1028842F08002028004E0FC
:1023B00002884FF67F731A400280704721B18288ED
:1023C00042F00402828004E082884FF6FB731A40D8
:1023D0008280704721B1828842F00802828004E046
:1023E00082884FF6F7731A408280704721B1828845
:1023F00042F00102828004E082884FF6FE731A40A8
:10240000828070470A460021018B4FF6F77319400E
:102410001143018370470A460021018B4FF2FF737D
:1024200019404FF6FF7303EA0223194301837047F3
:102430000A460021818B4FF6F773194011438183BF
:1024400070470A460021818B4FF2FF7319404FF607
:10245000FF7303EA02231943818370470A46002170
:10246000018B4FF6FB7319401143018370470A46F5
:102470000021018B4FF6FF3319404FF6FF7303EA3B
:1024800002231943018370470A460021818B4FF6CE
:10249000FB7319401143818370470A460021818BE9
:1024A0004FF6FF3319404FF6FF7303EA0223194337
:1024B000818370470A460021018B4FF67F731940D4
:1024C0001143018370470A460021018BC1F30E01BD
:1024D0004FF6FF7303EA02231943018370470A464C
:1024E0000021818B4FF67F73194011438183704720
:1024F0000A460021818BC1F30E014FF6FF7303EAF8
:1025000002231943818370470A460021018C4FF64C
:10251000FD7319401143018470470A460021018C64
:102520004FF6F77319401143018470470A460021A2
:10253000018C4FF6DF7319404FF6FF7303EA021365
:102540001943018470470A460021018C4FF67F73BE
:1025500019404FF6FF7303EA0213194301847047D1
:102560000A460021018C4FF6FF5319404FF6FF73C6
:1025700003EA02231943018470470A460021018CB3
:102580004FF2FF7319404FF6FF7303EA022319431A
:10259000018470470A460021018C4DF6FF731940F3
:1025A0004FF6FF7303EA023319430184704730B5D5
:1025B000002301248C40A3B2048C9C430484048C2B
:1025C00002FA01F5ADB22C43048430BD30B50023CE
:1025D00004248C40A3B2048C9C430484048C02FA2F
:1025E00001F5ADB22C43048430BD70B50346002024
:1025F00000241846183001258D40ACB21D8CA5432F
:102600001D8409B1082909D100EB6100056825F096
:10261000700505600568154305600EE00D1FC5F3E4
:102620004E052844056825F4E045056005684FF629
:10263000FF7606EA02263543056070BD21B10288A7
:1026400042F00202028004E002884FF6FD731A4055
:102650000280704721B1028842F00402028004E047
:1026600002884FF6FB731A400280704721B18288BE
:1026700042F08002828004E082884FF67F731A4025
:102680008280704702884FF6F7731A4002800288F2
:102690000A430280704782884FF68F731A40828007
:1026A00082880A438280704702894FF6F8731A4085
:1026B000028102890A430281704702894FF67F73C3
:1026C0001A40028102890A4302817047818470475F
:1026D0008185704781867047018770478187704781
:1026E000A0F84010704702884FF6FF431A4002805E
:1026F00002880A43028070470146888E704701466F
:10270000088F70470146888F70470146B1F8400036
:1027100070470146888C70470146088D7047024615
:102720000020138A0B400BB1012000E0002070470D
:10273000CA430282704730B50246002000230024BD
:10274000158A05EA0103958905EA010413B10CB164
:10275000012000E0002030BDCA4302827047000023
:10276000002044490860091D0860091D0860091D12
:10277000086041483F4914310860704700213D49D5
:102780008279002A3AD00A46126803689A430B46B7
:102790001A600A1D126803689A430B1D1A600279B9
:1027A00011440A6803681A430A60324A0832126800
:1027B00003689A432F4B08331A601A1D1268036886
:1027C0009A432C4B0C331A604279102A0ED11A1FEF
:1027D000126803681A43274B08331A601A1D1268DF
:1027E00003681A43234B0C331A600DE021494279E8
:1027F00011440A6803681A430A6005E0027911442B
:102800000A6803689A430A607047002101600171F9
:102810000C214171002181717047164910310968FE
:102820000143144A10321160704701460020114ADA
:10283000143212680A400AB1012000E000207047FB
:102840000C49143108607047014600200022094BF2
:102850001B6803EA0102074B14331B680B4013B1DA
:102860000AB1012000E000207047024914310860DD
:102870007047000000040140FFFF0F000948804737
:1028800009480047FEE7FEE7FEE7FEE7FEE7FEE752
:10289000FEE7FEE7FEE7FEE704480549054A064B6A
:1028A000704700009703000831010008C061002054
:1028B000C0670020C0630020C0630020014600BF45
:1028C00070474AF6AA20F9490860704710B5002100
:1028D0004FF00060FDF7E9FF4FF4C060FDF7AEFF79
:1028E0002720F34908700020487001208870C870C4
:1028F0000846FDF7A8FF2620ED4908700020487023
:10290000022088700120C8700846FDF79CFF252032
:10291000E749087000204870032088700120C870C3
:102920000846FDF790FF3420E14908700020487008
:1029300088700120C8700846FDF785FF0320DC4938
:10294000087001204870002088700120C870084677
:10295000FDF779FF10BD704710B54FF08040FEF7CE
:10296000F1FF40F6FF70D349888000200880C880BE
:10297000087248804FF08040FFF7B8F87020CE49C9
:1029800008800120488000208880C88002200881BB
:10299000002048814FF4807088810020C8814FF06A
:1029A0008040FFF722F901218807FFF7FBFB012098
:1029B000C0498880472008800020C88010204880B7
:1029C000BE48FFF793F810BD08B50121BC48FEF7DB
:1029D000D4F84FF44240ADF8000003208DF8020017
:1029E00014208DF803006946B648FDF7F5FF4FF453
:1029F0007470ADF8000003208DF8020014208DF8EB
:102A000003006946B048FDF7E7FF49F28010ADF8D2
:102A1000000003208DF8020014208DF803006946A1
:102A2000AA48FDF7D9FF02208DF802000420ADF876
:102A3000000014208DF803006946A348FDF7CCFF81
:102A40000120ADF8000002208DF8020010208DF862
:102A5000030069469B48FDF7BFFF01209C490860C1
:102A60003020ADF8000002208DF8020004208DF81F
:102A7000030069469548FDF7AFFF8220ADF80000DE
:102A800002208DF8020004208DF8030069468D486D
:102A9000FDF7A2FF2020ADF8000002208DF8020013
:102AA00004208DF8030069468748FDF795FF46F23C
:102AB0000800ADF8000002208DF8020004208DF817
:102AC000030069468048FDF787FF0320ADF800004A
:102AD0008DF8020010208DF8030069467B48FDF751
:102AE0007BFF0420ADF800008DF8030003208DF873
:102AF000020069467748FDF76FFF4020ADF80000FF
:102B000004208DF8030003208DF8020069466F4809
:102B1000FDF762FF4FF44050ADF8000010208DF833
:102B2000030003208DF8020069466648FDF754FF54
:102B30004FF480516348FDF7FCFF4FF400516148AA
:102B4000FDF7F9FF4FF41040ADF8000010208DF8AC
:102B5000030002208DF8020069465B48FDF73CFF48
:102B60004FF40060ADF8000010208DF80300032042
:102B70008DF8020069465548FDF72EFF4FF40041DD
:102B80005148FDF7D6FF4FF480514F48FDF7D1FF74
:102B90004FF400614D48FDF7CCFF4FF48070ADF865
:102BA000000004208DF8030003208DF80200694620
:102BB0004448FDF711FF0120ADF8000002208DF818
:102BC000020010208DF8030069463F48FDF704FF1E
:102BD00001213D48FDF7AFFF0220ADF800008DF860
:102BE000020010208DF8030069463748FDF7F4FE17
:102BF00002213548FDF79FFF3820ADF80000032083
:102C00008DF8020018208DF8030069462D48FDF765
:102C1000E3FE4020ADF8000003208DF802001020F4
:102C20008DF8030069462748FDF7D6FE4021254868
:102C3000FDF77FFF08BD10B501213D20FDF79AFD8E
:102C400001218803FDF796FD01214804FDF79FFD52
:102C500001218804FDF79BFD0121C804FDF797FDC4
:102C600001210846FDF793FD01210220FDF78FFDAC
:102C700001210846FDF771FD01214802FDF77AFDAB
:102C80000121C803FDF783FD10BD014648F6A040B1
:102C900005E000E0401E0028FCD148F6A0400A1ED6
:102CA000A1F1010399B2F4D1704700000030004057
:102CB0009C000020462000205020002000040040FE
:102CC00000023000000C01400010014000080140EB
:102CD00080812142001401404FF42F70FFF7D5FF8F
:102CE000FFF7A9FFFFF770FE4FF49670FFF7CDFFD7
:102CF000FFF7A1FFFFF768FEB649481EB0F1807FDD
:102D000000D31BE0481E4FF0E02250615017012213
:102D1000002807DA13071D0EAF4B00F00F04241F25
:102D20001D5503E013071C0EAC4B1C5400BF0020C4
:102D30004FF0E02290610720106100BFFFF70CFE0A
:102D400009F09AFC23F09AFB00F072F900F09DF96B
:102D500000F0CEFAFFF7FFFD01F089FB02F0FDFD68
:102D600003F062FA08F063FC20F0ABFE20F00EF9ED
:102D7000FFF7ACFD23F082FB4FF400619848FDF7AC
:102D8000D8FE20F0F7FF9749086009680868804777
:102D9000944909688868804709F054FE01F06EFA8A
:102DA0000120914908704FF448701FF0E2F91FF0BC
:102DB00005F800F039F900208C4988844FF47A70C6
:102DC0008B4908808948C088012804D14FF4FA70E3
:102DD0008849088010E08548C08868B98348408DDC
:102DE000012803D1C8208349088005E07F48408D31
:102DF00010B900207F49088002217F48FDF799FE25
:102E000001207E4908709CE000F072FA01F0A9F8F8
:102E100000F0A7FB00F0E8F900F07FFB01F0AFF94C
:102E20007248623000F0704000F100706F4962310A
:102E3000C1F3130100EB4110406A08B101F0B5FE87
:102E400001F039FB01F0B6FD03F082F902F090FDCC
:102E500003F020F806F02DFF05F0F6F906F051F921
:102E600009F00AF908F0FBFB08F0D6FF5F48808CF8
:102E7000B8B95E48203000F0704000F100705B4946
:102E80002031C1F3130100EB4110006848B15748ED
:102E9000C088012801D10AF050FD09F015FE0AF0A2
:102EA0001FFB5248808C012801D10BF049FC0BF02C
:102EB00024FBFFF706FD5248008C012802DB01F0DD
:102EC0005BFA00E000BF4F48007820B90CF097FA99
:102ED00001204C4908704B480078012831D11CF082
:102EE00045FF1EF0A6FA4148223000F0704000F184
:102EF00000703E492231C1F3130100EB411000681C
:102F0000F8B141480078032803DB3F4800781B28CC
:102F100002DB07F0EAFF0EE03C48007848B93C4885
:102F2000007830B93B48007818B93B4800886428DD
:102F300001DB07F0DAFF39480078022801D103F0FD
:102F400042FA61E745F25552354B1A601A46506015
:102F500091604AF6AA221A604CF6CC421A60704779
:102F60007047704731B5BDF8004001212D48FFF78B
:102F700019F921462B48FFF7A9FB03E02948FFF781
:102F8000C8FB0446012CF9DC00212648FFF70AF9AA
:102F900038BD31B5002405E04FF47A70FFF7E2FF49
:102FA000601C84B2BDF800008442F5DB38BD31B549
:102FB000002405E04FF47A70FFF7D4FF601C84B260
:102FC000BDF800008442F5DB38BDC2684A40C260EB
:102FD000704700004019010018ED00E000E400E037
:102FE0000008014084020020F2000020C20D0020F1
:102FF000F4020020F202002000100140DF02002055
:10300000E6070020A0000020690100206A010020DE
:103010006D01002039020020660100204F010020D0
:103020000030004000040040704701467047704780
:1030300040F20E20FE49A1F890004FF4FD60A1F887
:10304000920040F25740A1F894006D20A1F8820050
:103050000020F84908804FF47A70F749A1F85A0126
:10306000F6490880F6490880F6490880F649088044
:103070000120F64908800020F549C884A1F87600AF
:10308000A1F8C600A1F81601704710B509F018FBA9
:1030900064220021E64809F0B2FC09F011FB4FF46C
:1030A00090724FF48071EB4809F0A9FCE048808FE2
:1030B000DF49A1F864000846C08FA1F86600084601
:1030C000B0F84800E4494843E4490860D84890F81B
:1030D0004A0040B20871D64890F84C004871D44874
:1030E00090F84E008871D24890F85000C871D048CE
:1030F000B0F8520008B1012000E00020D749087262
:10310000CB48B0F8540008B1012000E00020D349BA
:103110004872C748B0F8560008B1012000E000200E
:10312000CE498872C248B0F8580008B1012000E0CA
:103130000020CA49C872BE4890F85A000873BC48BB
:10314000B0F85E000861BA48B0F860004861B8485D
:1031500090F85C000876B648808AC149A1F8500210
:10316000B348C08AA1F85202B148008BA1F85402BA
:10317000AF48408BA1F8560210BD2DE9F04105463D
:103180000C461646FDF799FF3520FEF731FA284622
:10319000FDF7D8FF002708E034F8028B2846AD1C65
:1031A0004146FEF7D2F8781C87B2B742F4DBFDF750
:1031B00090FFBDE8F08110B5002305E031F8024B27
:1031C00020F8024B5C1CA3B29342F7DB10BD30B574
:1031D0001346002405E011F8012B00F8012B651CB3
:1031E000ACB29C42F7DB30BD10B59E480078012898
:1031F0001ED19D480078D8B900208D49A1F87000F3
:1032000009F05EFA64220021894809F0D8FB4FF4E6
:1032100090724FF480718F4809F0D1FB11208449DE
:10322000A1F8700001209049087000208D490870B5
:103230007F48B0F8700041F28831884203D0884856
:10324000408A88421CD188480078C8B90020784953
:10325000A1F8700009F034FA64220021744809F0E2
:10326000AEFB4FF490724FF480717A4809F0A7FBDF
:1032700041F288306E49A1F8700001207A49087047
:103280007A4840787A490978884230D07648007880
:1032900068B3764840787649087076480088401CC4
:1032A000744908800846008896280CDD6E4800782E
:1032B000012808D102206C49087041F270705C4905
:1032C000A1F8700013E06B480088B0F5967F0EDD22
:1032D0006548007802280AD16420654908700020FA
:1032E00064490880604908705149A1F8700010BD18
:1032F0002DE9FF4700254E48B0F87000B0F5FA6F91
:103300000BD14B48B0F8720041F2E101884204D180
:103310005948007808B9012538E04548C088B0F51B
:10332000FA6F0CDD42488088B0F5FA6F07DD52482D
:10333000007820B9022501204A49087026E03C485F
:10334000C08890B93A48808878B93948B0F84E00BA
:1033500058B93748B0F8500038B94748007820B914
:10336000032501203F49087010E03148808FB0F5F7
:10337000614F0BDD2E48C08FB0F5614F06DD3E4832
:10338000007818B90425012036490870002D79DD30
:10339000002407E004F122002E49085C0DF8040027
:1033A000601CC4B20B2CF5DB4FF4907233492948F2
:1033B000FFF70DFF002407E01DF8041004F12200C0
:1033C000244A1154601CC4B20B2CF5DB1848068D3E
:1033D000478DB0F82C80B0F8129032222849FFF7C0
:1033E000EAFE134806854785A0F82C80A0F81290C5
:1033F000012D04D140F2DF300D4948870CE0022D49
:1034000004D14FF478700A49488705E0032D03D1B1
:1034100040F2E1300649488700251248007890BB09
:103420004FF4FA600249A1F8700041F2E1002BE08C
:10343000C20D0020B6000020FE0300205200002034
:10344000540000205600002058000020CE0000202C
:103450004A1000202A0F002040420F00A003002045
:10346000E6070020B2000020B0000020E4030020A6
:10347000AD000020AE000020AC000020BEA202087B
:103480005AA0020811E005E0A1F872000120FD49F0
:10349000087009E00020FC4908704FF47A70FB497D
:1034A000A1F87200FFF7A0FE00BFF9488078F94943
:1034B000097888422FD0F348007860B3F4488078C8
:1034C000F4490870F4480088401CF3490880084615
:1034D000008802280CDDEB480078012808D1022082
:1034E000E849087041F27070E849A1F8720012E0F2
:1034F000E948008804280EDDE248007802280AD155
:103500006420E44908700020E3490880DD49087020
:10351000DE49A1F87200BDE8FF87DC48B0F8700012
:10352000B0F5FA6F1CD1DA488078DC490978884216
:1035300016D0D7488078D9490870D9480088401CEF
:10354000D749088008460088B0F5617F08DD64200F
:10355000D24908700020D24908800120D149087062
:1035600070472DE9FE4FC948B0F84C000A281AD21E
:10357000DFE800F00507090B0D0F11131517CA4EF0
:1035800013E0CA4E11E0CA4E0FE0CA4E0DE0CA4E1B
:103590000BE0CA4E09E0CA4E07E0CA4E05E0CA4E2B
:1035A00003E0CA4E01E0C74E00BF00BFB748B0F805
:1035B0005000052810D2DFE800F00306080A0C00CE
:1035C0004FF07E570AE0C24F08E0C24F06E0C24FFC
:1035D00004E04FF07C5701E0BE4F00BF00BFAB4995
:1035E000B1F84E0026F06AFB02903146029826F0B0
:1035F00079FB3946019026F075FB0290A34890F8BC
:103600004E100120884084B2204626F057FB014628
:103610000090029826F054FAB049019026F062FB1F
:103620000290029826F02AFB9849A1F8840001F143
:10363000200000F0704000F100702031C1F3130150
:1036400000EB4110406858B100229048223000F051
:10365000704101F10071C0F3130001EB40104260B2
:103660008A48223000F0704000F100708749223112
:10367000C1F3130100EB4110806868B10022834858
:10368000223000F0704000F1007080492231C1F317
:10369000130100EB4110C2607C48C088E8BB904831
:1036A00000887A49A1F8B0008D48408DA1F8B20099
:1036B0008B48008CA1F8B4008948008EA1F8B600B0
:1036C0008748C08DA1F8B8008548408FA1F8C20096
:1036D0008348808FA1F8BA008148B0F84000A1F873
:1036E000BC007F48B0F86A00A1F8BE007C48B0F882
:1036F0006C00A1F8C0007B48B0F8B400A1F800014C
:103700007848B0F8B600A1F802017648B0F8B000E9
:10371000A1F804017348808D00E009E0A1F80601DA
:103720007048008EA1F808010846408AA1F80A01F5
:103730006D48008800281CDD01206C490860544851
:1037400040786B490978884213D0514840786849DD
:10375000087065480088401C634908800846008856
:1037600042F6E061884204DD00205F4908805F493D
:1037700008604FF0000900240EE004F180005D496C
:1037800011F800805C48005D404503DB09F1010051
:103790001FFA80F9601C84B2042CEEDB4FF0000AA3
:1037A000002409E05548005D0A2803DB0AF1010006
:1037B0001FFA80FA601C84B2042CF3DB33482230F9
:1037C00000F0704000F1007030492231C1F3130164
:1037D00000EB4110406870B92C48223000F0704076
:1037E00000F1007029492231C1F3130100EB4110AF
:1037F000C068002845D04248008800F00400E8B1C5
:10380000404800784049097808444049097808440C
:103810003F49097808443F49097808443E490978F6
:103820000844484450443D49097808443C490978D3
:1038300008443C4909780844002879DD1448807818
:103840003949097888421CD0114880783649087077
:1038500036480088401C35490880084600885028B2
:103860000FDD6420304908700020304908800122B3
:1038700040F2255122480C38FDF7D7FA204800883D
:1038800057E089E0AC000020B0000020C20D00200D
:10389000E4030020A8000020AA000020B1000020BE
:1038A000B4000020B20000209A99F94066662641D3
:1038B0009A9979416666A6419A99F94166662642C7
:1038C00000007A420000FA4200007A430000FA4306
:1038D000CDCC4C3FABAA2A3F2549123F0000C8423D
:1038E000960C0020E6070020CE00002080812142B7
:1038F000CC0000202A0F002094010020B6010020F7
:103900000C440040750100207601002018020020C0
:103910003402002077010020780100200A020020F4
:103920000E02002012020020C0000020C200002071
:103930002FE040F00400FD4908800020FC49087099
:10394000FC490870FC490870002404E00020FB4991
:103950000855601C84B2042CF8DB002404E000202D
:10396000F7490855601C84B2042CF8DB0020F549A7
:1039700008700120F44908700121F448FDF7D9F8D6
:1039800040F6B8301EF0F5FB0121F048FDF7D3F802
:1039900002E00020EE490880EE4800F0704000F19F
:1039A0000070EC49C1F3130100EB4110006830B323
:1039B000E9488078E9490978884220D0E64880784B
:1039C000E6490870E6480088401CE549088008463A
:1039D0000088B0F5966F12DD00200880D949087084
:1039E0000120D94908700121D848FDF7A2F840F616
:1039F000B8301EF0BEFB0121D448FDF79CF8D54835
:103A0000223800884EF66021884228D0D248C078FB
:103A1000D4490988884222D0CF48C078D14908804B
:103A2000D1480088401CD0490880CA482238008804
:103A30000988884213DC0020CB490880C1490870FE
:103A40000120C14908700121C048FDF772F840F615
:103A5000B8301EF08EFB0121BC48FDF76CF8C3485E
:103A600090F8398090F83A0000EB0820B9492239E3
:103A7000C887BE4890F83B00A1F84000BB4890F8CA
:103A80003C00A1F84200B94890F83D00A1F844007C
:103A9000B64890F83E00A1F846000846C08FB1F83D
:103AA0006610884227D1AB482238B0F84000A949B7
:103AB0002239B1F8681088421DD1A6482238B0F8E2
:103AC0004200A4492239B1F86A10884213D1A148B2
:103AD0002238B0F844009F492239B1F86C1088426E
:103AE00009D19C482238B0F846009A492239B1F8E9
:103AF0006E1088421CD097482238C08F95492239D1
:103B0000A1F866000846B0F84000A1F86800084631
:103B1000B0F84200A1F86A000846B0F84400A1F8E5
:103B20006C000846B0F84600A1F86E0001F07CFE7B
:103B30008F480088B0F5967F1ADD86482238B0F8A5
:103B40008000082805DB83482238B0F8800063280D
:103B50000ED10020864908808648006820B10020E8
:103B600084498031086003E0012082498031086087
:103B700075480078112819DA01207F4908607F48CC
:103B80000088B0F5967F21DD00207C4908807A48C6
:103B90008C380068012804D1002077490C3908606E
:103BA00014E0012074490C3908600FE06648007881
:103BB00011280BDB644800781B2807DA00206D49C8
:103BC0008031086001206E49C1F8B0015E4800787C
:103BD0001B287BDB6B4800786A49497808446949AF
:103BE000897808446749C978084490B963480088CF
:103BF00032285ADD0020614908805F48803800681B
:103C000018B100205C4908604FE001205A49086063
:103C10004BE04FF0000B002411E0482000EB840043
:103C20005249095CC4EB44109D30504A105C084472
:103C300018B10BF1010000F0FF0B601C84B2042CE2
:103C4000EBDB514800785049497808444E4989785F
:103C500008444D49C9780844584513D1474800885D
:103C6000B0F57A7F21DD0020444908804248803841
:103C7000006818B100204049086016E001203E4964
:103C8000086012E03D480088B0F5967F0DDD002009
:103C90003A49088038488038006818B10020364911
:103CA000086002E00120344908603848008838493B
:103CB00009880844002805DD4FF480512348FFF7A8
:103CC00084F903E001202C490C3908603148008850
:103CD000314909880844002804DD20212F48FFF7D6
:103CE00074F902E001202E4908601B4840782D49F4
:103CF0000978884266D020488C380068A8B91648F0
:103D000040782849087028480088401C26490880C7
:103D100008460088B0F5FA6F54DD002008800120C5
:103D20000949087040F6B83040E042E00C440040D9
:103D30007501002076010020180200209401002067
:103D4000B60100201A020020690100200010014085
:103D5000C2000020E40D0020E4030020C800002081
:103D6000CA000020D4000020D60000202A0F002026
:103D7000BE0000202C012142BC012242B8000020DC
:103D800000002242DF010020F10100203A01002062
:103D90003C01002052010020540100200014014089
:103DA00094812242BA000020BC0000201EF0E1F9FC
:103DB00008E0FE480088002804DDFC480088401E1A
:103DC000FA490880FA48808F05B2002D0DDA684262
:103DD000F749A1F83C050846B0F83C0542F21071DD
:103DE0000844F349A1F83C0504E0F148808FF0490C
:103DF000A1F83C05EE48C08F05B2002D0DDA6842EF
:103E0000EB49A1F83E050846B0F83E0542F21071B4
:103E10000844E749A1F83E0504E0E548C08FE449BD
:103E2000A1F83E05E248B0F88C0005B2002D0DDA8D
:103E30006842DF49A1F840050846B0F8400542F263
:103E400010710844DA49A1F8400505E0D848B0F8F7
:103E50008C00D749A1F84005D548B0F88E0005B2CE
:103E6000002D0DDA6842D249A1F842050846B0F8A3
:103E7000420542F210710844CD49A1F8420505E01F
:103E8000CB48B0F88E00CA49A1F84205C848B0F83E
:103E9000DC0005B2002D0DDA6842C549A1F84405E1
:103EA0000846B0F8440542F210710844C049A1F830
:103EB000440505E0BE48B0F8DC00BD49A1F8440562
:103EC000BB48B0F8DE0005B2002D0DDA6842B849F3
:103ED000A1F846050846B0F8460542F210710844BC
:103EE000B349A1F8460505E0B148B0F8DE00B04995
:103EF000A1F84605AE48B0F82C0105B2002D0DDA48
:103F00006842AB49A1F848050846B0F8480542F2B6
:103F100010710844A649A1F8480505E0A448B0F886
:103F20002C01A349A1F84805A148B0F82E0105B21B
:103F3000002D0DDA68429E49A1F84A050846B0F8FE
:103F40004A0542F2107108449949A1F84A0505E072
:103F50009748B0F82E019649A1F84A05BDE8FE8FB2
:103F600070479448C08FB0F5166F1CD09148C08F31
:103F7000B0F5965F17D08F48C08FB0F5165F12D09E
:103F80008C48C08FB0F5964F0DD08A48C08FB0F5E1
:103F9000164F08D08748C08FB0F5614F03D04FF45B
:103FA00016508449C8878348008D032802DB00200F
:103FB000804908857F48408D50B17E48408D01285A
:103FC00006D07C48408D022802D0002079494885DF
:103FD0007848808D032803DA7648808D012802DA3C
:103FE00002207449888573480089B0F57A7F02DB26
:103FF0000020704908816F484089B0F57A7F02DB64
:1040000000206C4948816B488089B0F57A7F02DBDB
:104010000020684988816748C089B0F57A7F02DB53
:1040200000206449C8816348B0F84800892805DB4E
:104030006048B0F84800B0F57F7F04DD4FF4D970D8
:104040005C49A1F848005B48B0F84A0014280DD03C
:104050005848B0F84A00072804DB5648B0F84A0030
:104060000E2803DD14205349A1F84A005148B0F846
:104070004C00092803DD07204E49A1F84C004D48AB
:10408000B0F84E00062804DB4A48B0F84E000C2871
:1040900003DD07204749A1F84E004648B0F850001C
:1040A000012804DB4348B0F85000042803DD022057
:1040B0004049A1F850003F48B0F85200012803DD04
:1040C00001203C49A1F852003A48B0F854000128B8
:1040D00003DD00203749A1F854003648B0F85600F7
:1040E000012803DD00203349A1F856003148B0F81B
:1040F0005800012803DD00202E49A1F858002D4862
:10410000B0F85E000A2806DB2A48B0F85E0041F2EB
:104110007071884204DD4FF47A702649A1F85E0080
:104120002448B0F860000A2806DB2248B0F8600096
:1041300041F27071884204DD4FF47A701D49A1F894
:1041400060001C48C088012802DD00201949C88091
:104150001848C088012809D01648C08830B91548C9
:104160008088032802DA03201249888011480088D9
:10417000052803DA4FF4F0700E49088070470E48A6
:1041800080783C2846DB00200B4988700846C078C0
:10419000401CC8700846C078064988860648C07822
:1041A0003C2837DB00200449C87007E0BC00002031
:1041B0004A100020C20D0020E403002008460079C8
:1041C000401C0871084600797A49C8867A48007907
:1041D00018281FDB00207849087108464079401CE8
:1041E00048710846407973490887734840791E280A
:1041F00010DD01207049487108468079401C8871A3
:10420000084680790C2805DD012088710846C079B0
:10421000401CC87168488078664948866648C078FE
:10422000888665480079C8867047644A12681278A3
:1042300003781A440379D21A037A1A440A705F4A3F
:104240001268527843781A4043795A40437A1A43A5
:104250004A70827883795A40837A5A40574B1B6858
:104260009B781A438A70554A1268D278C378D21A5A
:10427000C3791A44C37A1A40CA70704700B55048CF
:1042800050490860504800688078504908704E488E
:104290000068C07848704C480068807988704A4847
:1042A0000068C079C87048480068007908714648BD
:1042B00000684079487144480068807A88714248B3
:1042C0000068C07AC87140480068007808723E48AB
:1042D0000068407848723C480068007A88723A4822
:1042E0000068407AC8723A493848FFF79EFF38485C
:1042F0000078384909680978884218D134484078EC
:10430000344909684978884211D131488078314967
:104310000968897888420AD12D48C0782D490968F2
:10432000C978884203D101202B49087002E000209F
:104330002949087000BDF8B504460D466E460020B8
:10434000264908800C21204600F09CF80090307827
:10435000287070786870194800688078A1784840A3
:1043600061784840A87015480068C078E1784840F6
:1043700021784840E870F8BD70472DE9F0470446C1
:10438000894620121649C8708C704FEA292048705F
:1043900081F80090086825F005FB07460022114BC4
:1043A00024F096FF054624F0FFFE82465046BDE805
:1043B000F0870000C20D0020E4030020EC00002084
:1043C000FF001100E4000020DC000020602000203D
:1043D000E8000020E0000020F2000020F0000020B3
:1043E000D80000200000244008B54FF40070ADF85C
:1043F000000003208DF8020018208DF803006946A4
:10440000FE48FCF7E9FA4FF48060ADF800000320A5
:104410008DF8020004208DF803006946F748FCF788
:10442000DBFA08BD1FB5F648FCF724FC6846FCF72C
:10443000CDFCF448C08F00900020ADF80400ADF82A
:104440000600ADF80800ADF80C000C20ADF80A002D
:104450006946EB48FCF751FC012240F22551E8483F
:10446000FCF7E3FC0121E648FCF7D3FC1FBD10B5C7
:10447000FFF7BAFFFFF7D6FF0020E3490880E349C2
:10448000088010BDF0B50246FF23FF240025002060
:1044900009E012F8016B86EA0305DD4E765D86EAD7
:1044A0000403DC4E745D0E1EA1F10107F9B2F0D1D8
:1044B00044EA0320F0BD2DE9F0414FF00008D34855
:1044C000008800286FDDD4480078D44909788842F4
:1044D00069D0D1480078D1490870D1480088401C83
:1044E000CF490880084600880528EBDD002240F20D
:1044F0002551C348FCF799FCC4480088C949088085
:104500000020C7490880C7480088B0F5006F6EDCFE
:10451000C5480078BB498988884203D0C3480078E1
:1045200001286ED1BF480078801EC1B2BE48FFF797
:10453000A9FF04462512E6B2BA480088801EBA498F
:10454000085CA84270D1B7480088401E085CB042A1
:10455000F8D108464078032867D1B5488478C078F8
:1045600000EB0420B3490880B048007801286FD1DF
:10457000B14F08460088092803D14FF482700880A3
:1045800016E1AC480088172804D140F20510A9496B
:1045900008800DE1A74800880B2805D14FF48370EF
:1045A000A449088004E1A4E1A24800889C2804D121
:1045B00040F207109F490880FAE09E4800889D2835
:1045C00004D14FF484709B490880F1E09948008839
:1045D0008E2804D140F2091096490880E8E09548F9
:1045E0000088012804D1000292490880E0E075E1CA
:1045F00090480088022805D140F201108D490880BA
:10460000D6E068E18B480088032804D14FF481701C
:1046100088490880CCE087480088042806D140F209
:10462000031084490880C3E052E12AE181480088F0
:10463000362804D14FF485707E490880B8E07D4863
:1046400000883C2805D140F20B107A490880AFE081
:10465000B6E078480088D42804D14FF486707549B4
:104660000880A5E073480088D52804D140F20D10D9
:10467000704908809CE06F480088DA2804D14FF424
:1046800087706C49088093E06A480088E22804D16A
:1046900040F20F10674908808AE066480088E328E6
:1046A00004D14FF488706349088081E06148008834
:1046B000E42804D140F211105E49088078E05D489A
:1046C0000088E52804D14FF489705A4908806FE0CA
:1046D00058480088E62804D140F213105549088054
:1046E00066E054480088E72804D14FF48A705149A5
:1046F00008805DE04F480088E82804D140F215109A
:104700004C49088054E04B480088E92804D14FF414
:104710008B70484908804BE046480088EA2804D15D
:1047200040F217104349088042E042480088EB28D5
:1047300004D14FF48C703F49088039E03D4800882F
:10474000EC2804D140F219103A49088030E0394889
:104750000088ED2804D14FF48D703649088027E099
:1047600034480088EE2804D140F21B1031490880FB
:104770001EE03048008840F2F511884204D14FF421
:104780008F702C49088013E02A48008840F281216C
:10479000884204D140F21F102649088008E02548CD
:1047A0000088B0F5207F03D14FF490702149088034
:1047B0002048008807EB400700201C4908708FE064
:1047C0001048623000F0704000F100700D49623115
:1047D000C1F3130100EB4110406AC8B3012017492F
:1047E000087064201649087000201649088064206B
:1047F000154908700020154908802AE0000801408A
:1048000000380140C20D0020F6000020F400002016
:10481000BEA00208BEA10208E40300200F01002090
:1048200010010020F80000206C2600201D0100204F
:104830006C2000204C000020E607002034010020FE
:1048400026010020280100202A0100202C01002040
:104850000CE06420FE4908700020FE490880FE49F3
:104860000870FE490870FE49087039E00120FD49D2
:104870000870FD488478C07800EB0420FB4908806C
:104880002EE0F948407806280DD10020F84908802C
:104890000120F8490870F4488478C07800EB0420BF
:1048A000F24908801CE0F048407810280DD1002023
:1048B000EF4908800120F0490870EB488478C078FF
:1048C00000EB0420E94908800AE04FF0010807E006
:1048D0004FF0020804E04FF0030801E04FF0040835
:1048E000012240F22551E548FCF79FFA0020E449F7
:1048F0000880B8F1000F0EDD002404E00020DA4942
:104900000855601C84B2142CF8DB012240F22551BA
:10491000DA48FCF78AFABDE8F081014642F21072EB
:10492000914204DAD7480A4600EB420041E042F2E5
:104930001072914208DB5200914205DAD248A1EB95
:10494000620200EB420034E044F6206291420ADB4E
:1049500047F23052914206DACC48A1F59C42203A07
:1049600000EB420025E047F2305291420ADB49F663
:104970004042914206DAC648A1F5EA42303A00EBDD
:10498000420016E049F6404291420ADB4CF25032B6
:10499000914206DABF48A1F51C42403A00EB4200C2
:1049A00007E04CF25032914203DBBB488A1A00EB1D
:1049B000420070472DE9F047AA48007800285CD0F3
:1049C000B4480079B5490870A74840784870A648AF
:1049D00040794006000E8870A3488778C07800EBC5
:1049E000072086B23046FFF798FF8046DFF8AC928A
:1049F00000250BE038F81540211209F1030000F8FA
:104A0000151000EB45004470681CC5B2964840790B
:104A1000A842EFDCA1488078C01CC1B29F48FFF7D4
:104A200031FD9F4908800846008801129B48807824
:104A3000C01C9A4A11549A48017810468078001D8B
:104A4000115410468078401D964908800020854901
:104A5000087095490880084602880088401C0B466B
:104A600018808E48815C8548FCF740FA012240F2AC
:104A700026618248FCF7D9F995E07F48007818B99B
:104A80007C4800780028F7D07A48007840B3764810
:104A90008778C07800EB072086B242F21070864219
:104AA0000EDB3046FFF739FF82466F4804794079C4
:104AB00000EB0420AAF8000001207C4908702FE0D8
:104AC0007048A0F8666568480479407900EB0420D6
:104AD00084B26C48A0F868450120754908701FE051
:104AE00065480078E0B160488079022815D15E48B9
:104AF0008478C07800EB042084B26248A0F8664550
:104B00005948C479007A00EB042084B25D48A0F8CB
:104B1000684501206649087002E000206449087079
:104B20005548007818B95348007800283BD05948B8
:104B300000795A4908704C48407848704A48807853
:104B400088704948C078C87047480079087146485D
:104B50004079487106215148FFF794FC504908807C
:104B60000846008800124D4988714D480078C87188
:104B700008204C49088000203F4908703D490870D2
:104B800049490880084602880088401C0B46188066
:104B90004248815C3948FCF7A9F9012240F22661BC
:104BA0003648FCF742F9BDE8F08770B500240025CF
:104BB00002204049088003203F4908803D48008882
:104BC000002801DD601CC4B23B480088002801DDDC
:104BD000601CC4B2002C77DD38480078002874D0FF
:104BE00037480078401C364908700846007802288B
:104BF00001DD012008702F48008800280FDD3048B3
:104C0000007801280BD100202C490870012013499D
:104C100008702848007821490870012512E02648CC
:104C2000008800280EDD2648007802280AD10020DE
:104C3000224908700120234908701F48007817494D
:104C400008700225012D71D10320144948703DE000
:104C50001F010020200100208F0000202E010020D5
:104C6000300100200A0100206C260020FE000020F8
:104C7000B40000200D0100200B010020003801408D
:104C8000F40000204A100020E6070020CE0B002090
:104C9000960C0020C20D0020FE0300206C20002096
:104CA000FC000020FA000020F6000020B2000020E6
:104CB000610000203601002038010020330100206F
:104CC000320100202F010020D1E02FE00120887068
:104CD0005320C87000200871202048710621FE482A
:104CE000FFF7D0FBFD490880084600880012FA490A
:104CF0008871FA480078C8710820F94908800020B6
:104D0000F84908800120F8490870F64802880088B0
:104D1000401CF44B1880F048815CF448FCF7E6F83E
:104D2000012240F22661F148FCF77FF8EE48007856
:104D300058B9EF480078012801D1EE490870EE48D3
:104D40000078012801D1ED490870ED48007820B3C2
:104D5000EC480078EC49097888421ED0E948007890
:104D6000E9490870E9480088401CE849088008467D
:104D70000088082811DD0020E14908706420E2491C
:104D800008700020E14908806420E1490870002093
:104D9000E04908800120E0490870D3480078F0B964
:104DA000DD480078D8B9D7480078D94909788842D1
:104DB00015D0D4480078D6490870D6480088401CE1
:104DC000D449088008460088FA2808DD6420D049C4
:104DD00008700020CF4908800120CF490870C548DD
:104DE000007801281FD1CD480078E0B9C548007887
:104DF000CB490978884216D0C2480078C849087063
:104E0000C8480088401CC749088008460088B0F59B
:104E10007A6F08DD6420C24908700020C14908800B
:104E20000120BE490870B548007801281FD1BE484E
:104E30000078E0B9B3480078BC490978884216D0B8
:104E4000B0480078B9490870B9480088401CB84992
:104E5000088008460088B0F57A6F08DD6420B34901
:104E600008700020B24908800120AF490870B1489D
:104E7000008830B900209F490870A8490870A949E6
:104E80000880AD48008830B900209C490870A649C8
:104E90000870A749088070BD70B504460D46A74844
:104EA0000078C0B997484078A5490978884212D05F
:104EB00094484078A2490870A2480088401CA14943
:104EC0000880084600880A2805DD01209B490870F3
:104ED00000209C49088099480078012835D102209B
:104EE000964908707C490870032048702012887029
:104EF000CC70281208714D7106217748FFF7C2FA6D
:104F000091490880084600880012734988718E48CC
:104F10000078C87108207249088000207149088013
:104F200001208A490870012240F226616F48FBF790
:104F30007CFF6C4802880088401C6A4B18806648D9
:104F4000815C6A48FBF7D2FF4AE07C48007802287F
:104F500046D17E4800780A2819D100207B49087084
:104F6000764908707A4908807A4908707A4800784A
:104F700028B97A480078401C7849087030E07648B3
:104F8000007801282CD164207549087028E05D481C
:104F9000407874490978884222D05A48407871494B
:104FA00008706B480088401C6949088008460088E2
:104FB000502815DD002008806748007840B901209E
:104FC0005E49087063480078401C6249087007E039
:104FD00000205A4908705F490870642060490870D1
:104FE0005C480078032806DB0020544908705849C3
:104FF00008805849087070BD70B504460D464F488A
:10500000007810B965204D4908704C480078652833
:1050100036D166204949087002202F4908700620C1
:10502000487020128870CC70281208714D710621CA
:105030002948FFF727FA44490880084600880012EB
:105040002549887140480078C871082024490880A3
:1050500000202449088001203C490870012240F2C8
:1050600026612248FBF7E1FE1E4802880088401CAA
:105070001C4B18801848815C1C48FBF737FF9DE0EB
:105080002E480078662875D1304800780B2877D1F3
:1050900000202E490870294908702D4908802D49A3
:1050A00008702F480078012803D02D480078022886
:1050B0000AD101202C4908702C480078401C2B494B
:1050C000087000202A49087025480078642802D119
:1050D0000020214908704FE06C20002000010020D2
:1050E000FA000020F60000201E01002000380140D8
:1050F0002E010020300100202F010020310100206E
:1051000034010020E40300202601002028010020B3
:105110002A0100202C010020330100208F000020F4
:105120001F0100202001002090000020220100200B
:105130002401002036010020380100201301002046
:10514000180100201A010020FC000020140100209A
:1051500016010020120100200A0300201C0100207B
:105160004A00002015010020F7020020F80200206C
:105170000003002022E003E00020F74908701DE052
:10518000F6480078F6490978884217D0F348007845
:10519000F3490870F3480088401CF249088008462B
:1051A0000088B0F5487F09DD002008806520EE49C1
:1051B0000870EE480078401CEC490870EB48007815
:1051C000032810DB0020E8490870E6490880E74919
:1051D0000870E1480078642802D10020E449087092
:1051E0000020DD49087070BD2DE9F04106460D46EE
:1051F0001746DD48007810B9C920DB490870DA4845
:105200000078C9285BD1CA20D74908700220D94943
:1052100008701020487030128870CE702812087103
:105220004D716806000E8871002410E037F81400F4
:105230000012072101EB4401CE4A505417F8141014
:10524000072000EB4400401C1154601C84B2AC42A7
:10525000ECDB072000EB4400C1B2C648FFF712F9AF
:10526000C5490880084600880012072101EB440167
:10527000C04A5054C0480178072000EB4400401C4D
:105280001154072000EB4400801CBC49088000201A
:10529000BB4908800120BB490870012240F2266109
:1052A000B948FBF7C2FDB64802880088401CB44BE1
:1052B0001880B048815CB448FBF718FE31E0AA487A
:1052C0000078CA282DD1AF4800780C280BD10020D7
:1052D000AC490870A4490870A2490880A349087025
:1052E0009D4908701DE09D4800789D4909788842D5
:1052F00017D09A4800789A4908709A480088401C4C
:105300009849088008460088B0F5487F09DD0020EC
:105310000880C9209449087094480078401C93493B
:10532000087092480078032808DB00208E49087036
:105330008C4908808D49087087490870BDE8F08164
:105340000246881AC0F34F00704710B504460B465A
:1053500000208E49087033B921468D48FFF7F0FFD1
:105360008C4908808AE1012B09D121468A48FFF740
:10537000E7FF42F210710844864908807EE1022B63
:1053800009D121468548FFF7DBFF44F62061084438
:105390008049088072E1032B09D121468048FFF73C
:1053A000CFFF47F2305108447A49088066E1042B68
:1053B00009D121467B48FFF7C3FF49F64041084425
:1053C000744908805AE1082BCCD121467248FFF776
:1053D000B7FF7049088001206C4908706D4800884B
:1053E000B0F5827F03D109206A49088046E1694807
:1053F000008840F20511884203D1172065490880D2
:105400003CE164480088B0F5837F03D10B206149FB
:10541000088033E15F48008840F20711884203D1D9
:105420009C205C49088029E15A480088B0F5847FB7
:1054300003D19D205749088020E15648008840F25A
:105440000911884203D18E205249088016E1514843
:105450000088B0F5807F03D101204E4908800DE11E
:105460004C48008840F20111884203D1022049498A
:10547000088003E147480088B0F5817F03D103200D
:1054800044490880FAE04348008840F2031188420A
:1054900003D104203F490880F0E03E480088B0F581
:1054A000857F03D136203B490880E7E039480088F2
:1054B00040F20B11884203D13C2036490880DDE0E0
:1054C00034480088B0F5867F03D1D4203149088064
:1054D000D4E03048008840F20D11884203D1D52035
:1054E0002C490880CAE02B480088B0F5877F03D19B
:1054F000DA2028490880C1E02648008840F20F11D0
:10550000884203D1E22023490880B7E0214800887F
:10551000B0F5887F03D1E3201E490880AEE01D4826
:10552000008840F21111884203D1E4201949088013
:10553000A4E018480088B0F5897F03D1E52015491B
:1055400008809BE01348008840F2131188422BD159
:10555000E6201049088091E04A000020E403002082
:105560001501002016010020130100201201002067
:105570000A0300206C200020FC000020FA0000201C
:10558000F600002014010020003801401D01002019
:10559000FE0300204C000020E6070020CE0B002078
:1055A000960C0020C20D00208B480088B0F58A7F41
:1055B00003D1E7208849088060E08748008840F2EE
:1055C0001511884203D1E8208349088056E08248BB
:1055D0000088B0F58B7F03D1E9207F4908804DE03A
:1055E0007D48008840F21711884203D1EA207A49A9
:1055F000088043E078480088B0F58C7F03D1EB2029
:10560000754908803AE07448008840F219118842D0
:1056100003D1EC207049088030E06F480088B0F575
:105620008D7F03D1ED206C49088027E06A4800880F
:1056300040F21B11884203D1EE20674908801DE02B
:1056400065480088B0F58F7F04D140F2F5106249BB
:10565000088013E06048008840F21F11884204D19E
:1056600040F281205C49088008E05B480088B0F582
:10567000907F03D14FF42070574908805648008826
:1056800010BD5549098842F21072914205DA53481B
:105690005149098800EB410048E04F49098842F22E
:1056A000107291420CDB4C4909885200914207DA92
:1056B0004B4849490988A1EB620100EB410035E004
:1056C0004549098844F6206291420EDB4249098827
:1056D00047F23052914208DA42483F490988A1F521
:1056E0009C41203900EB410020E03B49098847F20A
:1056F000305291420EDB3849098849F640429142C6
:1057000008DA394834490988A1F5EA41303900EB13
:1057100041000BE03049098849F64042914205DBDF
:1057200032482D490988891A00EB4100704701462B
:1057300042F21072914204DA28480A4600EB420015
:1057400032E042F21072914208DB5200914205DAD7
:105750002348A1EB620200EB420025E044F6206200
:1057600091420ADB47F23052914206DA1D48A1F518
:105770009C42203A00EB420016E047F23052914240
:105780000ADB49F64042914206DA1748A1F5EA429F
:10579000303A00EB420007E049F64042914203DB19
:1057A00012488A1A00EB4200704770B504460D4655
:1057B00029462046FBF79AFB00BF80212046FBF7D5
:1057C00003FC0028F9D000BF40212046FBF7FCFB7A
:1057D0000028F9D070BD00004C000020FE0300201E
:1057E000E6070020CE0B0020960C0020C20D002002
:1057F00008B50820ADF8000003208DF80200042051
:105800008DF803006946FE48FBF7E6F80420ADF882
:10581000000003208DF8020018208DF8030069466F
:10582000F748FBF7D9F808BD1FB5F648FBF722FA91
:105830006846FBF7CBFAF448C08F0090F248B0F806
:10584000440038B90020ADF804000320EE49A1F867
:10585000400011E0EC48B0F84400082804D0EA48C1
:10586000B0F84400182807D10320E749A1F8400008
:105870004FF48050ADF80400E348B0F8420018B986
:105880000020ADF806000EE0DF48B0F84200042822
:1058900003D1C002ADF8060005E00020DA49A1F806
:1058A0004200ADF80600D848B0F8440018B900200E
:1058B000ADF8080019E0D448B0F84400082804D135
:1058C0004FF4C060ADF808000FE0CF48B0F84400D6
:1058D000182804D14FF48060ADF8080005E00020DE
:1058E000C949A1F84400ADF80800C748B0F846001F
:1058F000032803D10020ADF80C0010E0C248B0F836
:105900004600022804D14FF44070ADF80C0006E0C8
:105910000320BD49A1F846000020ADF80C000C2082
:10592000ADF80A000020ADF80400ADF80600ADF8AF
:105930000800ADF80C000C20ADF80A006946B1482B
:10594000FBF7DBF9012240F22551AE48FBF76DFA77
:105950000121AC48FBF75DFA1FBD10B5FFF748FF0A
:10596000FFF762FF0020A9490880A949088010BDFF
:105970002DE9F0410027A648008800287DDDA548D4
:105980000078A5490978884277D0A2480078A249D2
:105990000870A2480088401CA0490880084600887A
:1059A0000528EBDD002240F225519648FBF73DFA31
:1059B000974800889A4908800020984908809848AC
:1059C0000088B0F5006F72DC8F48203000F0704026
:1059D00000F100708C492031C1F3130100EB41103C
:1059E000406800287DD18848223000F0704000F1E6
:1059F000007085492231C1F3130100EB411040686A
:105A000000286ED18048223000F0704000F1007014
:105A10007D492231C1F3130100EB411000690028D8
:105A20005FD18048007878498988884257D17C487E
:105A30000078801EC1B27B48FEF724FD0446251283
:105A4000E6B277480088801E7649085CA84244D1B7
:105A500073480088401E085CB0423ED1084640783A
:105A600003280BD10120704908706E488478C078F3
:105A700000EB04206D490880F0E1F8E169484078C6
:105A800010280DD100206A4908800120694908705A
:105A900064488478C07800EB042064490880DDE124
:105AA00060484078012803D163490870D6E1D4E109
:105AB0005C48407806280ED100205D49088001200E
:105AC0005E49087057488478C07800EB0420574935
:105AD0000880C3E105E00127C0E10227BEE10327FA
