:020000040800F2
:10000000806000207D28000889BF00088BBF0008A1
:100010008FBF000893BF000897BF000800000000D2
:100020000000000000000000000000009BBF00086E
:100030009DBF0008000000009FBF0008A1BF00088E
:100040009728000897280008972800089728000894
:100050009728000897280008972800089728000884
:10006000E5C400089728000897280008972800088A
:100070009728000897280008972800089728000864
:100080009728000897280008972800089728000854
:1000900097280008972800089728000801C500083D
:1000A0009728000897280008972800089728000834
:1000B00021C50008972800089728000897280008FD
:1000C0009728000897280008972800089728000814
:1000D000972800083DC10008FDC100089BC2000828
:1000E00097280008972800089728000897280008F4
:1000F00097280008972800089728000897280008E4
:1001000097280008972800089728000897280008D3
:1001100059C3000897280008972800089728000866
:1001200097280008972800089728000897280008B3
:1001300000F002F800F0B0F80AA090E8000C824449
:100140008344AAF10107DA4501D100F0A5F8AFF226
:10015000090EBAE80F0013F0010F18BFFB1A43F0A5
:100160000103184760A3020080A302000A444FF075
:10017000000C10F8013B13F0070408BF10F8014B06
:100180001D1108BF10F8015B641E05D010F8016B4B
:10019000641E01F8016BF9D113F0080F1EBF10F8AF
:1001A000014BAD1C0C1B09D16D1E58BF01F801CBD2
:1001B000FAD505E014F8016B01F8016B6D1EF9D555
:1001C0009142D6D37047000000230024002500266A
:1001D000103A28BF78C1FBD8520728BF30C148BFAA
:1001E0000B6070476E2926F0F081702926F05B8342
:1001F000662929F0EE82652929F0EB82672929F02A
:10020000E8826129AFF3008003681B0A28BF41F030
:100210008001692925F06887642925F0658775299B
:1002200025F062876F2926F0E882782926F0278357
:10023000E92926F08382E42926F08082F52926F038
:100240007D82EF2926F0E582F82926F026830368CF
:10025000DB0928BF41F08001632926F0F281732970
:1002600026F0F781E32926F0FD85F32926F00286A2
:10027000002070471FB526F099FE040000200021E1
:1002800028F058F9401C60600020002128F068F92F
:10029000E0601FBD10B510BD26F063FE1146FFF7EC
:1002A000E9FF02F015FD26F045FF03B4FFF7F2FF6A
:1002B00003BC02F003FB00000CB50020019000908D
:1002C0006C48006840F480306A49086000BF6948A3
:1002D000006800F4003000900198401C01900098E4
:1002E00018B90198B0F5A06FF1D16248006800F428
:1002F000003010B10120009001E000200090009833
:10030000012843D15C48006840F010005A49086059
:100310000846006820F0030008600846006840F0C6
:1003200002000860534840685249486008464068E7
:1003300048600846406840F480604860084640686D
:1003400020F47C1048600846406840F4E81048609B
:100350000846006840F08070086000BF45480068AB
:1003600000F000700028F9D04248406820F00300F7
:10037000404948600846406840F00200486000BFBD
:100380003C48406800F00C000828F9D10CBD10B5BD
:10039000FFF792FF10BD10B53648006840F001002D
:1003A000344908600846406834490840314948608B
:1003B00008460068324908402E490860084600682F
:1003C00020F4802008600846406820F4FE00486061
:1003D0004FF41F008860FFF7DAFF4FF000602949F3
:1003E000086010BD10B5002100200022214B5B6881
:1003F00003F00C0121B1042906D0082928D107E017
:10040000214B224C236027E01F4B204C236023E02C
:10041000184B5B6803F47010164B5B6803F4803272
:10042000022303EB904022B9194B4343174C23603E
:100430000DE0104B5B6803F4003323B1144B4343CE
:10044000124C236003E0104B4343104C236003E045
:100450000D4B0E4C236000BF00BF064B5B68C3F31F
:1004600003130C4CE15C094B1B68CB40074C236029
:1004700010BD000000100240002002400000FFF804
:10048000FFFFF6FE08ED00E000127A0000000020F9
:1004900000093D0004000020DF48006840F0010032
:1004A000DD49086008464068DC490840DA49486090
:1004B00008460068DA490840D749086008460068DD
:1004C00020F4802008600846406820F4FE00486060
:1004D0004FF41F0088607047CF49096821F48031CC
:1004E000CD4A11601146096821F480211160B0F5F0
:1004F000803F03D0B0F5802F0ED106E0C6490968D1
:1005000041F48031C44A116007E0C349096841F4ED
:10051000A021C14A116000E000BF00BF704710B5C4
:1005200001460022002300204A11012A02D1BA4CC0
:10053000236806E0022A02D1B74C236A01E0B64CD8
:10054000636A01F01F02012494401C400CB1012099
:1005500000E0002010BD38B50020009000240025E8
:1005600000BF3120FFF7DBFF05460098401C0090DC
:100570000098B0F5A06F01D0002DF2D03120FFF728
:10058000CEFF08B1012400E00024204638BD01461A
:100590000020A14A106820F0F80040EAC100106075
:1005A0007047A04908607047024600209A4B58687F
:1005B00020F47C1042EA01031843974B58607047BF
:1005C00098490866704701460020934A506820F019
:1005D00003000843506070478F48406800F00C00EB
:1005E0007047014600208C4A506820F0F000084314
:1005F0005060704701460020874A506820F4E06050
:1006000008435060704701460020834A506820F438
:10061000605040EAC1005060704729B17E4A527A6A
:1006200002437D4B5A7204E07B4A527A82437A4BF2
:100630005A7270477B49D8310860704701460020E4
:10064000754A506820F440400843506070470021CC
:10065000714A20321170704A82F82010012802D0AD
:1006600004280AD104E001216B4A2032117005E010
:100670000521694A2032117000E000BF00BF7047B9
:100680006949086070476449096A0143624A116216
:100690007047654944390860704730B50021002231
:1006A000002400235C4D6D6805F00C0121B1042984
:1006B00005D0082923D105E05C4D056022E05B4DA3
:1006C00005601FE0544D6D6805F47012524D6D6861
:1006D00005F48034022505EB92421CB9544D554374
:1006E00005600BE04C4D6D6805F400351DB1504DB3
:1006F0005543056002E04D4D5543056002E04B4D0A
:10070000056000BF00BF444D6D6805F0F0010909A8
:10071000484D6B5C0568DD4045603F4D6D6805F4F4
:10072000E061090A434D6B5C4568DD4085603A4DE8
:100730006D6805F46051C90A3E4D6B5C4568DD404B
:10074000C560354D6D6805F44041890B3A4D6B5CD1
:10075000C568B5FBF3F5056130BD29B12E4A526974
:1007600002432D4B5A6104E02B4A526982432A4BC3
:100770005A61704729B1284A92690243264B9A610F
:1007800004E0254A92698243234B9A61704729B15C
:10079000214AD2690243204BDA6104E01E4AD26941
:1007A00082431D4BDA61704729B11B4AD26802436C
:1007B000194BDA6004E0184AD2688243164BDA60BB
:1007C000704729B1144A12690243134B1A6104E0BD
:1007D000114A12698243104B1A617047124940391D
:1007E000086070470F49C86470470B49C87170476B
:1007F0000948406A40F080700749486270470146E6
:100800000020054A92680A400AB1012000E0002059
:100810007047014988727047001002400000FFF8DD
:10082000FFFFF6FE000042428004424200127A00BE
:1008300000093D001400002024000020314901433C
:10084000314A1160704770B5002100230F22C4782F
:1008500004B32D4C246804F4E064C4F5E064210A78
:10086000C1F10403CA40447804FA03F184781440C7
:1008700021430901254C0678A155047804F01F0591
:100880000124AC4005786D11AD0005F1E025C5F8F7
:10089000004109E0047804F01F050124AC401C4D20
:1008A0000678761145F8264070BD1A4A0A40024380
:1008B000154B1B1F1A60704739B1134A121D12687D
:1008C0000243114B1B1D1A6006E00F4A121D1268ED
:1008D00082430D4B1B1D1A607047042808D14FF04E
:1008E000E021096941F004014FF0E022116107E0C5
:1008F0004FF0E021096921F004014FF0E02211617D
:10090000704700000000FA050CED00E000E400E094
:1009100080E100E080FFFF1F10B50446CC48844210
:1009200008D101210420FFF73FFF00210420FFF739
:100930003BFF46E0C748844208D101210820FFF769
:1009400033FF00210820FFF72FFF3AE0C24884421E
:1009500008D101211020FFF727FF00211020FFF709
:1009600023FF2EE0BD48844208D101212020FFF75B
:100970001BFF00212020FFF717FF22E0B848844228
:1009800008D101214020FFF70FFF00214020FFF791
:100990000BFF16E0B348844208D101218020FFF705
:1009A00003FF00218020FFF7FFFE0AE0AE488442EB
:1009B00007D101218015FFF7F7FE0021A015FFF7F1
:1009C000F3FE10BD10B501210846FFF7EDFE002132
:1009D0000120FFF7E9FE10BD2DE9F0410246002598
:1009E0000026002000230024002791F803C00CF00B
:1009F0000F0591F803C00CF0100CBCF1000F03D0F0
:100A000091F802C04CEA050591F800C0BCF1000F56
:100A100031D0146800202BE04FF0010C0CFA00F3E9
:100A2000B1F800C00CEA03069E4220D183004FF0CB
:100A30000F0C0CFA03F7BC4305FA03FC4CEA040460
:100A400091F803C0BCF1280F06D14FF0010C0CFA4D
:100A500000FCC2F814C00AE091F803C0BCF1480FD2
:100A600005D14FF0010C0CFA00FCC2F810C0401C7C
:100A70000828D1D31460B1F800C0BCF1FF0F34DDF9
:100A8000546800202EE000F1080C4FF0010808FA2D
:100A90000CF3B1F800C00CEA03069E4221D183009A
:100AA0004FF00F0C0CFA03F7BC4305FA03FC4CEAB9
:100AB000040491F803C0BCF1280F05D100F1080C23
:100AC00008FA0CF8C2F8148091F803C0BCF1480F82
:100AD00007D100F1080C4FF0010808FA0CF8C2F831
:100AE0001080401C0828CED35460BDE8F0814FF63A
:100AF000FF710180022181700421C170704702469C
:100B0000002093680B400BB1012000E000207047EB
:100B10000146886880B2704702460020D3680B40C7
:100B20000BB1012000E0002070470146C86880B288
:100B3000704701617047416170470AB1016100E08F
:100B400041617047C16070474FF480320A4382614F
:100B50008161826182698269704702460020434B4D
:100B600018684FF68073184040EA021008433F4B64
:100B7000186070473E49C8617047F0B50A460023C7
:100B800000240021002500F00046B6F1004F02D1FC
:100B9000364EF16901E0354E7168C0F3034583B20A
:100BA00000F44016B6F5401F08D121F070612F4EB9
:100BB000766826F070662D4F7E6012E000F4801695
:100BC000B6F5801F06D1032606FA05F4A14341F0CD
:100BD000706106E0460D360103FA06F6B14341F0B6
:100BE000706122B1460D360103FA06F6314300F07A
:100BF0000046B6F1004F02D11C4EF16101E01B4EE0
:100C00007160F0BD30B500228B071C0F0F2303FA73
:100C100004F2164B08338C1053F824309343134CD2
:100C200008348D1044F8253023468C1053F82430B6
:100C30008C07240F00FA04F423430C4C08348D1065
:100C400044F8253030BD0A49DC31086070470000A7
:100C500000080140000C0140001001400014014058
:100C600000180140001C014000200140000001402C
:100C70000000204210B50446FB48844209D10121FE
:100C80008803FFF791FD00214FF48040FFF78CFDB2
:100C900032E0F648844209D101214804FFF791FD72
:100CA00000214FF40030FFF78CFD25E0F04884422E
:100CB00009D101218804FFF784FD00214FF4802031
:100CC000FFF77FFD18E0EB48844209D10121C804F9
:100CD000FFF777FD00214FF40020FFF772FD0BE0D6
:100CE000E548844208D101210805FFF76AFD00218B
:100CF0004FF48010FFF765FD10BD2DE9F04786B079
:100D000005460E460024A24600BFA1460027B08932
:100D100000B100BF2F462C8A4CF6FF700440F088CB
:100D200004432C82AC894EF6F3100440B08831891C
:100D30000843718908430443AC81AC8A4FF6FF40F5
:100D40000440B0890443AC8201A8FFF7A6FCC64862
:100D5000874202D1DDF810A001E0DDF80CA0A889DF
:100D600000F4004040B10AEBCA0000EB0A10316801
:100D70004900B0FBF1F807E00AEBCA0000EB0A10EB
:100D800031688900B0FBF1F86420B8FBF0F0040191
:100D90002009642101FB1089A88900F4004040B1BA
:100DA000322000EBC900B0FBF1F000F00700044373
:100DB00008E0322000EB09106421B0FBF1F000F0F4
:100DC0000F0004432C8106B0BDE8F0874FF41651A4
:100DD000016000218180C18001810C2141810021BD
:100DE0008181704710B502460020108A4FF2FF0340
:100DF00018400B884C8823438C882343CC8823439A
:100E00001843108210BD0021018041808180C18083
:100E1000704721B1828942F40052828104E08289C4
:100E20004DF6FF731A4082817047F0B503460024E7
:100E300000260025002040F66A17B94200D100BF05
:100E40001846C1F3421401F01F06012707FA06F500
:100E5000012C01D10C3004E0022C01D1103000E053
:100E600014301AB107682F43076002E00768AF43E8
:100E70000760F0BD1AB1838A0B43838202E0838A44
:100E80008B4383827047028A4FF6F0731A400282C6
:100E9000028A0A430282704782894FF2FF731A4026
:100EA000828182890A438281704721B1828942F01E
:100EB0000202828104E082894FF6FD731A4082812A
:100EC0007047028A4FF6DF731A400282028A0A4391
:100ED0000282704721B1028A42F48042028204E019
:100EE000028A4BF6FF731A4002827047C1F3080270
:100EF0008280704701468888C0F308007047818966
:100F000041F0010181817047028BD2B20283028BD2
:100F100042EA012202837047028B02F47F4202837D
:100F2000028B0A430283704721B1828A42F0200279
:100F3000828204E0828A4FF6DF731A408282704711
:100F400021B1828A42F01002828204E0828A4FF646
:100F5000EF731A408282704721B1828A42F0080200
:100F6000828204E0828A4FF6F7731A4082827047C9
:100F700021B1828942F40042828103E08289C2F376
:100F80000E028281704721B1828A42F4006282821D
:100F900004E0828A4FF2FF731A4082827047828A8D
:100FA0004FF6FB731A408282828A0A43828270471C
:100FB00021B1828A42F00202828204E0828A4FF6E4
:100FC000FD731A408282704702460020B1F5007F0F
:100FD00000D100BF13880B400BB1012000E00020BE
:100FE000704701F40072B2F5007F00D100BFCA4320
:100FF0000280704770B502460024002300250020BF
:1010000040F66A16B14200D100BFC1F3421501F0AB
:101010001F03012606FA03F3012D02D196893340FE
:1010200006E0022D02D1168A334001E0968A334051
:101030000C12012606FA04F41688344013B10CB1E0
:10104000012000E0002070BD10B50022002340F612
:101050006A14A14200D100BF0A1201249440A3B235
:10106000DC43048010BD0000003801400044004013
:1010700000480040004C0040005000400146002065
:10108000FE4A106800F03800084310607047FB49C2
:10109000096821F00801F94A116011460968014305
:1010A00011607047F549096821F01001F34A116099
:1010B00011460968014311607047F148EF494860E3
:1010C000F04848607047EE48EC494860ED48486099
:1010D0007047EA48006940F08000E84908617047BD
:1010E000E648006940F08000E44908617047042048
:1010F000E249C96801F0010109B101200EE0DF49B0
:10110000C96801F0040109B1022007E0DB49C968A0
:1011100001F0100109B1032000E00420704700B580
:1011200002460423FFF7E3FF034603E0FFF7DFFF78
:101130000346521E012B01D1002AF7D102B9052323
:10114000184600BD30B5044604254FF43020FFF7A3
:10115000E6FF0546042D17D1C848006940F002009B
:10116000C649086108464461006940F040000861D2
:101170004FF43020FFF7D3FF0546C048006941F621
:10118000FD710840BD490861284630BD10B50424F2
:101190004FF43020FFF7C3FF0446042C16D1B748A4
:1011A000006940F00400B54908610846006940F054
:1011B000400008614FF43020FFF7B1FF0446AF480C
:1011C000006941F6FB710840AC490861204610BD3A
:1011D00000B502460423FFF78AFF034603E0FFF74A
:1011E00086FF0346521E012B01D1002AF7D102B916
:1011F0000523184600BD10B504244FF43020FFF736
:10120000E7FF0446042C16D19C48006940F0040016
:101210009A4908610846006940F0400008614FF4AF
:101220003020FFF7D5FF04469448006941F6FB7172
:10123000084092490861204610BD00208F49C969C5
:1012400001F0020109B1012000E00020704730B533
:10125000A5250424FFF7F1FF00B100254FF430204D
:10126000FFF75DFF0446042C3AD185488349886026
:10127000844888600846006940F0200008610846FC
:10128000006940F0400008614FF43020FFF747FF4D
:101290000446042C1BD17948006941F6DF710840EF
:1012A000764908610846006940F0100008617648F8
:1012B0000580E002FFF733FF0446052C10D06F488D
:1012C000006941F6EF7108406C49086108E0052C9F
:1012D00006D06A48006941F6EF7108406749086125
:1012E000204630BD78B506460C4604250020009007
:1012F000E802FFF714FF0546042D24D15F4800697A
:1013000040F001005D4908613480E802FFF707FF03
:101310000546042D10D1B01C0090200C00990880C7
:10132000E802FFF7FCFE05465448006941F6FE71ED
:1013300008405249086106E05048006941F6FE71D4
:1013400008404E490861284678BD70B504460D46F0
:101350000426F002FFF7E3FE0646042E11D14748AB
:10136000006940F00100454908612580F002FFF75F
:10137000D6FE06464148006941F6FE7108403F49E5
:101380000861304670BD70B505460E460424E00283
:10139000FFF7C5FE0446042C17D139483749886049
:1013A000384888600846006940F0100008612E80C7
:1013B000E002FFF7B4FE0446052C06D02F48006972
:1013C00041F6EF7108402D490861204670BD2DE9B6
:1013D000F04304464FF6FF763746B046B146042543
:1013E000E443E6B2C4F30727C4F307484FEA14699D
:1013F000E802FFF794FE0546042D49D120481F4915
:101400008860204888600846006940F01000086144
:10141000FF2E06D01C4808300680E802FFF77FFE4A
:101420000546042D08D1FF2F06D017480A30078043
:10143000E802FFF774FE0546042D0AD1B8F1FF0F4C
:1014400007D011480C30A0F80080E802FFF767FED3
:101450000546042D0AD1B9F1FF0F07D00A480E3016
:10146000A0F80090E802FFF75AFE0546052D0FD0C0
:101470000248006941F6EF71084007E00020024091
:1014800023016745AB89EFCD00F8FF1F664908616E
:101490002846BDE8F08330B5054604244FF43020DB
:1014A000FFF73DFE0446042C41D160485E49886048
:1014B0005F4888600846006940F0200008610846DF
:1014C000006940F0400008614FF43020FFF727FE2C
:1014D0000446042C22D15448006941F6DF710840CB
:1014E000514908610846006940F0100008611DB1CB
:1014F00000205049088002E0A5204E4908804FF4A2
:101500003020FFF70CFE0446052C10D04648006939
:1015100041F6EF7108404449086108E0052C06D007
:101520004148006941F6DF7108403F4908612046A3
:1015300030BDF0B505460E46174604243B483A49EF
:1015400088603B488860E002FFF7E9FD0446042C10
:1015500019D13548006940F010003349086147F05F
:10156000F800304328433349891C0880E002FFF724
:10157000D6FD0446052C06D02B48006941F6EF71D4
:101580000840294908612046F0BD2748C069800805
:1015900070472548006A704700202349096801F018
:1015A000200109B1012000E00020704729B11E4A46
:1015B000126902431C4B1A6104E01B4A1269824300
:1015C000194B1A61704701460020012908D1164ABB
:1015D000D26902F001020AB1012008E0002006E011
:1015E000114AD2680A400AB1012000E00020704789
:1015F0000D49C860704704200B49C96801F001011A
:1016000009B101200EE00849C96801F0040109B1DF
:10161000022007E00449C96801F0100109B1032064
:1016200000E00420704700000020024023016745CD
:10163000AB89EFCD00F8FF1F10B50446BE488442C9
:1016400008D101218014FFF7AFF80021A014FFF7A3
:10165000ABF816E0B948844208D101210014FFF725
:10166000B0F800212014FFF7ACF80AE0B448844237
:1016700007D10121C013FFF7A4F80021E013FFF701
:10168000A0F810BD10B50022028802F441520B8868
:101690004C8823438C882343CC8823430C892343E1
:1016A0004C8923438C892343CC8923431A430280EA
:1016B000838B4FF2FF74234083830B8A038210BD18
:1016C0002DE9F04F85B005460C464FF00009022782
:1016D0004FF000084FF0010B0026B246A88B4FF2E6
:1016E00040010840A88302202884B5F81C90A06817
:1016F000022801D100BF38E0A08810B94FF0010BDB
:1017000001E04FF0020B8D48854200D100E000BFA0
:101710006846FEF7C2FFDDF800A0E088B0F5007F64
:101720000AD14FEA1A2000EB80004000A168B0FB0C
:10173000F1F0401D86B20BE04FEA4B10BAFBF0F01F
:1017400000EB80004000A168B0FBF1F0401D86B2C4
:101750000A20B6FBF0F606F00108A6EB0800C0F37D
:101760004F074FF6FF7000EA0828022F01DBFF2F1A
:1017700002DD02274FF00008E08840EA0800384305
:101780002884A088A18908436188084321880843E8
:1017900040F4006040EA0909A5F81C9005B0BDE8D6
:1017A000F08F0021018041808180C18001814181D1
:1017B0008181C18107210182704700210180418020
:1017C0008180C1800221816000218181704721B127
:1017D000028842F04002028004E002884FF6BF73A4
:1017E0001A400280704721B1828B42F4806282836A
:1017F00004E0828B4FF6FF331A408283704730B586
:10180000002400230C110125A540ABB21AB1858834
:101810001D43858002E085889D43858030BD1AB1D7
:1018200083880B43838002E083888B4383807047E7
:10183000818170470146888970474FF6FF62914267
:1018400004D0028842F48072028004E002884FF6DD
:10185000FF631A400280704721B1828842F004027F
:10186000828004E082884FF6FB731A4082807047C2
:1018700002884FF2FF731A40028002880A430280F6
:101880007047018841F480510180704721B102887E
:1018900042F40052028004E002884DF6FF731A40C1
:1018A0000280704702460020012901D0108B00E021
:1018B000908A70470146088A7047B1F5804F04D17D
:1018C000028842F48042028004E002884BF6FF73F3
:1018D0001A40028070470246002013890B400BB16A
:1018E000012000E000207047CA4302817047F0B534
:1018F0000246002000240023002501F00F070126E6
:10190000BE40B4B20B1101269E40B3B2968806EADF
:1019100003051689264016B10DB1012000E0002014
:10192000F0BD10B5002201F00F040123A3409AB2CC
:10193000D343038110BD0000003001400038004057
:10194000003C004010B50446FE48844208D1012105
:10195000C014FEF729FF0021E014FEF725FFC4E0C4
:10196000B4F1804F08D101210846FEF72AFF00217B
:101970000120FEF726FFB8E0F348844208D1012198
:101980000220FEF71EFF00210220FEF71AFFACE046
:10199000EE48844208D101210420FEF712FF002105
:1019A0000420FEF70EFFA0E0E948844208D101219F
:1019B0000820FEF706FF00210820FEF702FF94E052
:1019C000E448844208D101211020FEF7FAFE0021EC
:1019D0001020FEF7F6FE88E0DF48844208D101219E
:1019E0002020FEF7EEFE00212020FEF7EAFE7CE03C
:1019F000DA48844208D101214014FEF7D5FE0021C7
:101A00006014FEF7D1FE70E0D548844209D101216F
:101A1000C804FEF7C9FE00214FF40020FEF7C4FE03
:101A200063E0D048844209D101210805FEF7BCFEDD
:101A300000214FF48010FEF7B7FE56E0CA488442FA
:101A400009D101214805FEF7AFFE00214FF4001037
:101A5000FEF7AAFE49E0C548844208D10121402092
:101A6000FEF7AFFE00214020FEF7ABFE3DE0C04890
:101A7000844208D101218020FEF7A3FE00218020AE
:101A8000FEF79FFE31E0BB48844208D1012180155A
:101A9000FEF797FE0021A015FEF793FE25E0B6485D
:101AA000844209D101210804FEF77EFE00214FF493
:101AB0008030FEF779FE18E0B048844209D1012158
:101AC0004804FEF771FE00214FF40030FEF76CFE73
:101AD0000BE0AB48844208D101218804FEF764FE84
:101AE00000214FF48020FEF75FFE10BD0022028827
:101AF000944B98420ED0994B98420BD0B0F1804F46
:101B000008D0914B984205D0904B984202D0904B10
:101B1000984204D14FF68F731A404B881A438D4B6D
:101B2000984207D08C4B984204D04FF6FF431A409E
:101B3000CB881A4302808B8883850B880385814B71
:101B400098420BD0854B984208D08B4B984205D0D9
:101B50008A4B984202D08A4B984201D10B7A038675
:101B600001238382704770B5002400220023058C76
:101B70004FF6FE7635400584028C8388048B4FF641
:101B80008F752C40B51E2C400D882C43751E2A40A5
:101B90000D892A434D882A436A4DA8420BD06F4DC8
:101BA000A84208D0744DA84205D0744DA84202D076
:101BB000734DA84213D14FF6F7752A404D892A4339
:101BC0004FF6FB752A408D882A434FF6FF652B4060
:101BD0004FF6FF552B408D892B43CD892B438380B6
:101BE0000483CD888586028470BD70B500240022F0
:101BF0000023058C4FF6EF7635400584028C8388F0
:101C0000048B48F6FF752C404FF6FF452C400D889D
:101C10004FF6FF7606EA05252C434FF6DF752A407E
:101C20000D8906EA05152A434D8806EA05152A435B
:101C3000444DA84202D0494DA8421DD14FF67F75B0
:101C40002A404D894FF6FF7606EA05152A434FF6DE
:101C5000BF752A408D8806EA05152A434FF6FF35E1
:101C60002B404FF2FF752B408D8906EA85052B43EB
:101C7000CD8906EA85052B4383800483CD880587BB
:101C8000028470BD70B5002400220023058C4FF63D
:101C9000FF6635400584028C8388848B4FF68F75F0
:101CA0002C404FF6FC752C400D882C434FF6FF5509
:101CB0002A400D894FF6FF7606EA05252A434D880E
:101CC00006EA05252A431F4DA84202D0234DA8420B
:101CD0001DD14FF2FF752A404D894FF6FF7606EA77
:101CE00005252A434FF6FF352A408D8806EA05254B
:101CF0002A434EF6FF752B404DF6FF752B408D891C
:101D000006EA05152B43CD8906EA05152B4383808A
:101D10008483CD888587028470BD70B5002200233E
:101D20000024058C4EF6FF7635400584038C8488AC
:101D3000828B48F6FF752A404FF6FF452A400D88F2
:101D400020E00000002C014000040040000800409A
:101D5000000C00400010004000140040003401401E
:101D6000004C014000500140005401400018004068
:101D7000001C0040002000400040014000440140A1
:101D8000004801404FF6FF7606EA05252A434DF646
:101D9000FF752B400D8906EA05352B434D8806EA71
:101DA00005352B43FA4DA84202D0FA4DA84208D17E
:101DB0004BF6FF752C408D894FF6FF7606EA8515A8
:101DC0002C4384808283CD88A0F84050038470BD6A
:101DD000828B4FF2FF331A408283828B4FF6FF7360
:101DE00003EA01231A4382837047F0B50C46154677
:101DF000002200210026078C4EF6FF7C07EA0C0724
:101E00000784828B018C4FF6FF7707EA043640F691
:101E1000FF473A404FF6FF7707EA05273A434FF668
:101E2000FF7707EA03373A43D94FB8420ED0D94F6C
:101E3000B8420BD0B0F1804F08D0D74FB84205D090
:101E4000D64FB84202D0D64FB84206D14DF6FF77F2
:101E5000394046F48057394305E047F6FF5739408B
:101E600044F48057394382830184F0BD828B4FF65E
:101E7000F3731A408283828B0A4382837047F0B5E2
:101E80000C461546002200210026078C4FF6FF6CF9
:101E900007EA0C070784828B018C4FF6FF7707EA6D
:101EA00004264FF60C773A404FF6FF7707EA031700
:101EB0002F433A43B64FB8420ED0B64FB8420BD07C
:101EC000B0F1804F08D0B44FB84205D0B34FB842FC
:101ED00002D0B34FB84206D14FF6FF57394046F40F
:101EE0008077394305E04FF2FF57394044F480775B
:101EF000394382830184F0BD028B4FF2FF331A40D5
:101F00000283028B4FF6FF7303EA01231A43028315
:101F10007047F0B50C461546002200210026078CBC
:101F20004FF6EF7C07EA0C070784028B018C4FF613
:101F3000FF7707EA041640F6FF473A404FF6FF776F
:101F400007EA03373A434FF6FF7707EA05273A4394
:101F50008F4FB8420ED08F4FB8420BD0B0F1804FA8
:101F600008D08D4FB84205D08C4FB84202D08C4F6C
:101F7000B84206D14FF6DF77394046F010073943B3
:101F800005E04FF65F77394044F01007394302838C
:101F90000184F0BD028B4FF6F3731A400283028B6B
:101FA0000A4302837047F0B50C4615460022002113
:101FB000068C4FF6FE773E400684028B018C4FF66E
:101FC0000C7632407E1C06EA03162E433243704ED6
:101FD000B0420ED06F4EB0420BD0B0F1804F08D05F
:101FE0006D4EB04205D06D4EB04202D06C4EB04244
:101FF00006D14FF6FD76314044F00106314305E04D
:102000004FF6F576314044F00106314302830184F6
:10201000F0BD70B505460C465D4885420ED05D4862
:1020200085420BD0B5F1804F08D05B48854205D082
:102030005A48854202D05A48854200D100E000BF8C
:10204000208850B92389A28861882846FFF7ABFF12
:10205000E1882846FFF79EFF25E0208804280AD162
:102060002389A28861882846FFF753FFE188284624
:10207000FFF742FF17E0208808280AD12389A288A9
:1020800061882846FFF7FBFEE1882846FFF7EEFE51
:1020900009E02389A28861882846FFF7A6FEE18827
:1020A0002846FFF795FE70BD2DE9F04105460C4628
:1020B00000260127608808B9022600E00026A088D3
:1020C000012801D1022700E001272088A0B9238937
:1020D000A28861882846FFF766FFE1882846FFF757
:1020E00059FF23893A4631462846FFF712FFE18817
:1020F0002846FFF701FF13E02389A288618828465C
:10210000FFF707FFE1882846FFF7F6FE23893A46E6
:1021100031462846FFF747FFE1882846FFF73AFF98
:10212000BDE8F0810A884B881A438B881A43CB8814
:102130001A430B891A434B891A438B891A43A0F817
:10214000442070474FF6FF71818000210180C180DB
:102150004180017270470021018041808180C180EF
:10216000018141818181C1817047002101804180CD
:10217000012181800021C1800181704700210180FF
:1021800041808180C180018141818181704700004F
:10219000002C0140003401400004004000080040D1
:1021A000000C004021B1028842F00102028004E0EC
:1021B00002884FF6FE731A400280704731B1B0F8C2
:1021C000442042F40042A0F8442005E0B0F8442046
:1021D000C2F30E02A0F8442070471AB183890B4362
:1021E000838102E083898B438381704781827047BA
:1021F00041EA0203A0F8483070471AB183890B43C3
:10220000838102E083898B438381704701894FF684
:10221000F8721140018170470A46002101894FF68A
:102220008F73194011430181704730B504460D4644
:1022300029462046FFF7F0FF208940F00700208163
:1022400030BD2DE9F04104460D4616461F46602D6F
:1022500006D13B46012231462046FFF75AFE05E0F3
:102260003B46012231462046FFF79DFE2946204687
:10227000FFF7D2FF208940F007002081BDE8F08100
:1022800030B50C4600210189C9B24FF6FF7505EA49
:102290000325154325432943018130BD2DE9F04134
:1022A00005460E4617469846002443463A463146B0
:1022B0002846FFF7E5FF2C894FF6F870044044F0FC
:1022C00007044FF68F70044044F070042C81BDE881
:1022D000F081F0B504460D4616461F463B46324691
:1022E00029462046FFF7CCFF208940F4804020811A
:1022F000F0BD0185828270470A46002101884FF6B1
:102300008F731940114301807047F0B50C46154694
:102310001E460021002200230189028B038C4FF608
:10232000F877394021434FF6FC473A4040F2011715
:102330003A434FF6DD773B404FF6FF7707EA061743
:102340002F433B43018102830384F0BD0A460021F1
:10235000018B4FF68F7319401143018370470A4672
:102360000021018B48F6FF7319404FF6FF7303EA13
:1023700002231943018370470A460021818B4FF6DF
:102380008F7319401143818370470A460021818B66
:1023900048F6FF7319404FF6FF7303EA022319430F
:1023A0008183704721B1028842F08002028004E0FC
:1023B00002884FF67F731A400280704721B18288ED
:1023C00042F00402828004E082884FF6FB731A40D8
:1023D0008280704721B1828842F00802828004E046
:1023E00082884FF6F7731A408280704721B1828845
:1023F00042F00102828004E082884FF6FE731A40A8
:10240000828070470A460021018B4FF6F77319400E
:102410001143018370470A460021018B4FF2FF737D
:1024200019404FF6FF7303EA0223194301837047F3
:102430000A460021818B4FF6F773194011438183BF
:1024400070470A460021818B4FF2FF7319404FF607
:10245000FF7303EA02231943818370470A46002170
:10246000018B4FF6FB7319401143018370470A46F5
:102470000021018B4FF6FF3319404FF6FF7303EA3B
:1024800002231943018370470A460021818B4FF6CE
:10249000FB7319401143818370470A460021818BE9
:1024A0004FF6FF3319404FF6FF7303EA0223194337
:1024B000818370470A460021018B4FF67F731940D4
:1024C0001143018370470A460021018BC1F30E01BD
:1024D0004FF6FF7303EA02231943018370470A464C
:1024E0000021818B4FF67F73194011438183704720
:1024F0000A460021818BC1F30E014FF6FF7303EAF8
:1025000002231943818370470A460021018C4FF64C
:10251000FD7319401143018470470A460021018C64
:102520004FF6F77319401143018470470A460021A2
:10253000018C4FF6DF7319404FF6FF7303EA021365
:102540001943018470470A460021018C4FF67F73BE
:1025500019404FF6FF7303EA0213194301847047D1
:102560000A460021018C4FF6FF5319404FF6FF73C6
:1025700003EA02231943018470470A460021018CB3
:102580004FF2FF7319404FF6FF7303EA022319431A
:10259000018470470A460021018C4DF6FF731940F3
:1025A0004FF6FF7303EA023319430184704730B5D5
:1025B000002301248C40A3B2048C9C430484048C2B
:1025C00002FA01F5ADB22C43048430BD30B50023CE
:1025D00004248C40A3B2048C9C430484048C02FA2F
:1025E00001F5ADB22C43048430BD70B50346002024
:1025F00000241846183001258D40ACB21D8CA5432F
:102600001D8409B1082909D100EB6100056825F096
:10261000700505600568154305600EE00D1FC5F3E4
:102620004E052844056825F4E045056005684FF629
:10263000FF7606EA02263543056070BD21B10288A7
:1026400042F00202028004E002884FF6FD731A4055
:102650000280704721B1028842F00402028004E047
:1026600002884FF6FB731A400280704721B18288BE
:1026700042F08002828004E082884FF67F731A4025
:102680008280704702884FF6F7731A4002800288F2
:102690000A430280704782884FF68F731A40828007
:1026A00082880A438280704702894FF6F8731A4085
:1026B000028102890A430281704702894FF67F73C3
:1026C0001A40028102890A4302817047818470475F
:1026D0008185704781867047018770478187704781
:1026E000A0F84010704702884FF6FF431A4002805E
:1026F00002880A43028070470146888E704701466F
:10270000088F70470146888F70470146B1F8400036
:1027100070470146888C70470146088D7047024615
:102720000020138A0B400BB1012000E0002070470D
:10273000CA430282704730B50246002000230024BD
:10274000158A05EA0103958905EA010413B10CB164
:10275000012000E0002030BDCA4302827047000023
:10276000002044490860091D0860091D0860091D12
:10277000086041483F4914310860704700213D49D5
:102780008279002A3AD00A46126803689A430B46B7
:102790001A600A1D126803689A430B1D1A600279B9
:1027A00011440A6803681A430A60324A0832126800
:1027B00003689A432F4B08331A601A1D1268036886
:1027C0009A432C4B0C331A604279102A0ED11A1FEF
:1027D000126803681A43274B08331A601A1D1268DF
:1027E00003681A43234B0C331A600DE021494279E8
:1027F00011440A6803681A430A6005E0027911442B
:102800000A6803689A430A607047002101600171F9
:102810000C214171002181717047164910310968FE
:102820000143144A10321160704701460020114ADA
:10283000143212680A400AB1012000E000207047FB
:102840000C49143108607047014600200022094BF2
:102850001B6803EA0102074B14331B680B4013B1DA
:102860000AB1012000E000207047024914310860DD
:102870007047000000040140FFFF0F000948804737
:1028800009480047FEE7FEE7FEE7FEE7FEE7FEE752
:10289000FEE7FEE7FEE7FEE704480549054A064B6A
:1028A000704700009703000831010008805A00209B
:1028B00080600020805C0020805C0020014600BF1A
:1028C00070474AF6AA20F7490860704710B5002102
:1028D0004FF00060FDF7E9FF4FF4C060FDF7AEFF79
:1028E0002720F14908700020487001208870C870C6
:1028F0000846FDF7A8FF2620EB4908700020487025
:10290000022088700120C8700846FDF79CFF252032
:10291000E549087000204870032088700120C870C5
:102920000846FDF790FF3420DF490870002048700A
:1029300088700120C8700846FDF785FF0320DA493A
:10294000087001204870002088700120C870084677
:10295000FDF779FF10BD704710B54FF08040FEF7CE
:10296000F1FF40F6FF70D149888000200880C880C0
:10297000087248804FF08040FFF7B8F87020CC49CB
:1029800008800120488000208880C88002200881BB
:10299000002048814FF4807088810020C8814FF06A
:1029A0008040FFF722F901218807FFF7FBFB012098
:1029B000BE498880472008800020C88010204880B9
:1029C000BC48FFF793F810BD08B50121BA48FEF7DF
:1029D000D4F84FF44240ADF8000003208DF8020017
:1029E00014208DF803006946B448FDF7F5FF4FF455
:1029F0007470ADF8000003208DF8020014208DF8EB
:102A000003006946AE48FDF7E7FF49F28010ADF8D4
:102A1000000003208DF8020014208DF803006946A1
:102A2000A848FDF7D9FF02208DF802000420ADF878
:102A3000000014208DF803006946A148FDF7CCFF83
:102A40000120ADF8000002208DF8020010208DF862
:102A5000030069469948FDF7BFFF01209A490860C5
:102A60003020ADF8000002208DF8020004208DF81F
:102A7000030069469348FDF7AFFF8220ADF80000E0
:102A800002208DF8020004208DF8030069468B486F
:102A9000FDF7A2FF2020ADF8000002208DF8020013
:102AA00004208DF8030069468548FDF795FF46F23E
:102AB0000800ADF8000002208DF8020004208DF817
:102AC000030069467E48FDF787FF0320ADF800004C
:102AD0008DF8020010208DF8030069467948FDF753
:102AE0007BFF0420ADF800008DF8030003208DF873
:102AF000020069467548FDF76FFF4020ADF8000001
:102B000004208DF8030003208DF8020069466D480B
:102B1000FDF762FF4FF44050ADF8000010208DF833
:102B2000030003208DF8020069466448FDF754FF56
:102B30004FF480516148FDF7FCFF4FF400515F48AE
:102B4000FDF7F9FF4FF41040ADF8000010208DF8AC
:102B5000030002208DF8020069465948FDF73CFF4A
:102B60004FF40060ADF8000010208DF80300032042
:102B70008DF8020069465348FDF72EFF4FF40041DF
:102B80004F48FDF7D6FF4FF480514D48FDF7D1FF78
:102B90004FF400614B48FDF7CCFF4FF48070ADF867
:102BA000000004208DF8030003208DF80200694620
:102BB0004248FDF711FF0120ADF8000002208DF81A
:102BC000020004208DF8030069463D48FDF704FF2C
:102BD0000220ADF800008DF8020010208DF80300EF
:102BE00069463748FDF7F8FE02213548FDF7A3FF97
:102BF0003820ADF8000003208DF8020018208DF871
:102C0000030069462D48FDF7E7FE4020ADF80000BF
:102C100003208DF8020010208DF803006946274834
:102C2000FDF7DAFE40212548FDF783FF08BD10B50A
:102C300001213D20FDF79EFD01218803FDF79AFD4E
:102C400001214804FDF7A3FD01218804FDF79FFD44
:102C50000121C804FDF79BFD01210846FDF797FD02
:102C600001210220FDF793FD01210846FDF775FDC6
:102C700001214802FDF77EFD0121C803FDF787FD14
:102C800010BD014648F6A04005E000E0401E0028C7
:102C9000FCD148F6A0400A1EA1F1010399B2F4D17B
:102CA00070470000003000409C0000203E200020C3
:102CB000482000200004004000023000000C0140C9
:102CC00000100140000801408081214200140140B1
:102CD0004FF42F70FFF7D5FFFFF7A9FFFFF774FE42
:102CE0004FF49670FFF7CDFFFFF7A1FFFFF76CFEE3
:102CF000AF49481EB0F1807F00D31BE0481E4FF063
:102D0000E022506150170122002807DA13071D0E38
:102D1000A84B00F00F04241F1D5503E013071C0EE1
:102D2000A54B1C5400BF00204FF0E022906107200B
:102D3000106100BFFFF710FE09F004FC22F0D4FF81
:102D400000F064F900F086F900F0B7FAFFF703FE2F
:102D500001F05DFB02F0CDFD03F02AFA08F0D3FB91
:102D600020F0E5FA1FF048FDFFF7B0FD22F0BCFFB0
:102D70004FF400619148FDF7DCFE20F031FC9049F2
:102D800008600968086880478D4909688868804735
:102D900009F0BEFD01F043FA01208A4908704FF4A2
:102DA00048701EF01CFE1EF03FFC00F02BF90020C6
:102DB000854988844FF47A70844908808248C088A5
:102DC000012804D14FF4FA708149088010E07E4850
:102DD000C08868B97C48408D012803D1C8207C494F
:102DE000088005E07848408D10B9002078490880B7
:102DF00002217848FDF79DFE0120774908708EE09A
:102E000000F05BFA01F076F800F08DFB00F0D1F9EC
:102E100000F065FB01F086F901F094FE01F01BFB68
:102E200001F097FD03F05AF902F06EFD02F0FCFF8D
:102E300006F004FF05F0CCF906F023F909F087F855
:102E400008F079FB08F054FF5F48808CB8B95E4801
:102E5000203000F0704000F100705B492031C1F378
:102E6000130100EB4110006848B15748C0880128A1
:102E700001D10AF0A3FA09F08DFD0AF059F9524880
:102E8000808C012801D10BF063F80AF0EFFEFFF708
:102E900018FD5248008C012802DB01F03EFA00E0E8
:102EA00000BF4F48007820B90BF07DFE01204C494F
:102EB00008704B480078012831D11CF058FB1DF0F8
:102EC00006FF4148223000F0704000F100703E499A
:102ED0002231C1F3130100EB41100068F8B1414801
:102EE0000078032803DB3F4800781B2802DB07F04B
:102EF000BAFF0EE03C48007848B93C48007830B949
:102F00003B48007818B93B480088642801DB07F08B
:102F1000AAFF39480078022801D103F018FA6FE7B8
:102F200045F25552354B1A601A46506091604AF688
:102F3000AA221A604CF6CC421A607047704770475C
:102F400031B5BDF8004001212D48FFF72BF921468E
:102F50002B48FFF7BBFB03E02948FFF7DAFB0446E9
:102F6000012CF9DC00212648FFF71CF938BD31B5EA
:102F7000002405E04FF47A70FFF7E2FF601C84B292
:102F8000BDF800008442F5DB38BD31B5002405E012
:102F90004FF47A70FFF7D4FF601C84B2BDF80000D4
:102FA0008442F5DB38BDC2684A40C2607047000009
:102FB0004019010018ED00E000E400E000080140C5
:102FC00084020020F2000020BA0D0020F20200204E
:102FD000F002002000100140DD020020DE0700208A
:102FE000A0000020690100206A0100206D0100207E
:102FF00039020020660100204F010020003000400F
:103000000004004070470146704770474FF402705B
:10301000FC49A1F8900040F2E770A1F8920040F25C
:10302000B640A1F894006D20A1F882000020F64976
:1030300008804FF47A70F549A1F85A01F4490880E4
:10304000F4490880F4490880F44908800120F449D3
:103050000880704710B509F099FA64220021E94808
:1030600009F033FC09F092FA4FF490724FF480713A
:10307000EC4809F02AFCE348808FE249A1F864009B
:103080000846C08FA1F866000846B0F84800E64937
:103090004843E6490860DB4890F84A0040B20871AE
:1030A000D84890F84C004871D64890F84E00887186
:1030B000D44890F85000C871D248B0F8520008B116
:1030C000012000E00020D9490872CE48B0F8540031
:1030D00008B1012000E00020D4494872C948B0F886
:1030E000560008B1012000E00020D0498872C54890
:1030F000B0F8580008B1012000E00020CB49C872A8
:10310000C04890F85A000873BE48B0F85E000861E5
:10311000BC48B0F860004861BA4890F85C00087696
:10312000B848808AC249A1F85002B648C08AA1F8BE
:103130005202B448008BA1F85402B248408BA1F867
:10314000560210BD2DE9F04105460C461646FDF726
:10315000B4FF3520FEF74CFA2846FDF7F3FF0027B1
:1031600008E034F8028B2846AD1C4146FEF7EDF826
:10317000781C87B2B742F4DBFDF7ABFFBDE8F08106
:1031800010B5002305E031F8024B20F8024B5C1C1F
:10319000A3B29342F7DB10BD30B51346002405E01F
:1031A00011F8012B00F8012B651CACB29C42F7DB37
:1031B00030BD10B59F48007801281ED19E48007888
:1031C000D8B900208F49A1F8700009F0DFF9642216
:1031D00000218C4809F059FB4FF490724FF4807134
:1031E000904809F052FB11208649A1F87000012097
:1031F0009149087000208F4908708248B0F870002B
:1032000041F28831884203D08948408A88421CD1E3
:1032100089480078C8B900207A49A1F8700009F0FF
:10322000B5F964220021774809F02FFB4FF4907222
:103230004FF480717B4809F028FB41F288307149D6
:10324000A1F8700001207C4908707C4840787C49D6
:103250000978884230D07848007868B37748407859
:103260007749087077480088401C764908800846EE
:10327000008896280CDD70480078012808D10220CB
:103280006D49087041F270705E49A1F8700013E05A
:103290006C480088B0F5967F0EDD674800780228FC
:1032A0000AD1642066490870002066490880624996
:1032B00008705449A1F8700010BD2DE9FF470025A2
:1032C0005048B0F87000B0F5FA6F0BD14D48B0F827
:1032D000720041F2E101884204D15B48007808B9EC
:1032E000012538E04748C088B0F5FA6F0CDD454845
:1032F0008088B0F5FA6F07DD5348007820B90225C1
:1033000001204C49087026E03E48C08890B93D48ED
:10331000808878B93B48B0F84E0058B93948B0F8C1
:10332000500038B94848007820B9032501204149A8
:10333000087010E03348808FB0F5614F0BDD3148E5
:10334000C08FB0F5614F06DD3F48007818B90425FD
:10335000012038490870002D7CDD002407E004F1CD
:1033600022003049085C0DF80400601CC4B20B2C2C
:10337000F5DB4FF4907235492A48FFF70DFF002422
:1033800007E01DF8041004F12200264A1154601CC5
:10339000C4B20B2CF5DB1B48068D478DB0F82C8092
:1033A000B0F8129032222A49FFF7EAFE1548068546
:1033B0004785A0F82C80A0F81290012D04D140F28E
:1033C000DF30104948870CE0022D04D14FF47870AB
:1033D0000C49488705E0032D03D140F2E13009494B
:1033E0004887002513480078A8BB4FF4FA600549C8
:1033F000A1F8700041F2E100A1F872000120124929
:10340000087033E0BA0D0020B6000020F60300205B
:1034100052000020540000205600002058000020D8
:10342000CE000020220F002040420F009803002011
:10343000DE070020B2000020B0000020DC030020E6
:10344000AD000020AE000020AC0000202A9B020846
:10345000C69802080BE0FFE70020FE4908704FF411
:103460007A70FD49A1F87200FFF7A3FE00BFFB4888
:103470008078FB49097888422FD0FA48007860B3F9
:10348000F6488078F6490870F7480088401CF649ED
:1034900008800846008802280CDDF24800780128E0
:1034A00008D10220EF49087041F27070EA49A1F892
:1034B000720012E0EC48008804280EDDE94800782C
:1034C00002280AD16420E64908700020E6490880F5
:1034D000E4490870E049A1F87200BDE8FF87DE48C2
:1034E000B0F87000B0F5FA6F1CD1DC488078DF4985
:1034F0000978884216D0D9488078DC490870DC48C1
:103500000088401CDA49088008460088B0F5617FD1
:1035100008DD6420D54908700020D54908800120C5
:10352000D449087070472DE9FE4FCB48B0F84C00E5
:103530000A281AD2DFE800F00507090B0D0F111356
:103540001517CD4E13E0CD4E11E0CD4E0FE0CD4E10
:103550000DE0CD4E0BE0CD4E09E0CD4E07E0CD4E57
:1035600005E0CD4E03E0CD4E01E0CA4E00BF00BFE6
:10357000B948B0F85000052810D2DFE800F0030683
:10358000080A0C004FF07E570AE0C54F08E0C54F0F
:1035900006E0C54F04E04FF07C5701E0C14F00BF8B
:1035A00000BFAD49B1F84E0025F0BEFF0290314694
:1035B000029825F0CDFF3946019025F0C9FF029011
:1035C000A54890F84E100120884084B2204625F08E
:1035D000ABFF01460090029825F0A8FEB349019088
:1035E00025F0B6FF0290029825F07EFF9A49A1F8D7
:1035F000840001F1200000F0704000F100702031E3
:10360000C1F3130100EB4110406858B10022924809
:10361000223000F0704101F10071C0F3130001EBA2
:10362000401042608C48223000F0704000F1007081
:1036300089492231C1F3130100EB4110806868B160
:1036400000228548223000F0704000F1007082496D
:103650002231C1F3130100EB4110C2607E48C088E3
:10366000E8BB934800887C49A1F8B0009048408DA1
:10367000A1F8B2008E48008CA1F8B4008C48008EEE
:10368000A1F8B6008A48C08DA1F8B8008848408FDC
:10369000A1F8C2008648808FA1F8BA008448B0F82B
:1036A0004000A1F8BC008248B0F86A00A1F8BE0052
:1036B0007F48B0F86C00A1F8C0007E48B0F8B400B4
:1036C000A1F800017B48B0F8B600A1F802017948E2
:1036D000B0F8B000A1F804017648808D00E009E060
:1036E000A1F806017348008EA1F808010846408A37
:1036F000A1F80A017048008800281CDD01206F49EC
:103700000860564840786E490978884213D053487B
:1037100040786B49087068480088401C66490880FA
:103720000846008842F6E061884204DD00206249D4
:103730000880624908604FF0000900240EE004F19F
:103740008000604911F800805F48005D404503DB60
:1037500009F101001FFA80F9601C84B2042CEEDB31
:103760004FF0000A002409E05848005D0A2803DBF6
:103770000AF101001FFA80FA601C84B2042CF3DB0A
:103780003548223000F0704000F10070324922319B
:10379000C1F3130100EB4110406870B92E4822308C
:1037A00000F0704000F100702B492231C1F3130189
:1037B00000EB4110C06800284AD04548008800F05E
:1037C0000400E8B143480078434909780844434974
:1037D000097808444249097808444249097808446C
:1037E000414909780844484450444049097808440C
:1037F0003F49097808443F4909780844002828DDF2
:10380000164880783C490978884221D0134880784E
:103810003949087039480088401C384908800846F2
:103820000088B0F5E16F13DD642033490870002093
:1038300032490880012240F2255125480C38FDF715
:10384000F4FA2348008840F004002149088057E03A
:103850007DE079E0B0000020BA0D0020DC030020FC
:10386000A8000020AC000020AA000020B100002029
:10387000B4000020B20000209A99F9406666264103
:103880009A9979416666A6419A99F94166662642F7
:1038900000007A420000FA4200007A430000FA4336
:1038A000CDCC4C3FABAA2A3F2549123F0000C8426D
:1038B0008E0C0020DE070020CE00002080812142F7
:1038C000CC000020220F002094010020B60100202F
:1038D0000C440040750100207601002018020020F1
:1038E0003402002077010020780100200A02002025
:1038F0000E02002012020020C0000020C2000020A2
:103900000020FE490870FE490870FE490870002436
:1039100004E00020FC490855601C84B2042CF8DB4C
:10392000002404E00020F9490855601C84B2042CEE
:10393000F8DB0020F64908700120F649087040F6CF
:10394000B8301EF04CF802E00020F3490880F3483C
:1039500000F0704000F10070F049C1F3130100EB7A
:1039600041100068F0B1EE488078EE49097888424D
:1039700018D0EB488078EB490870EB480088401C71
:10398000E949088008460088B0F5E16F0ADD0020AB
:103990000880DF4908700120DE49087040F6B83021
:1039A0001EF01DF8DD48223800884EF6602188425E
:1039B00020D0DB48C078DD49098888421AD0D84831
:1039C000C078DA490880DA480088401CD849088065
:1039D000D24822380088098888420BDC0020D4496C
:1039E0000880CB4908700120CA49087040F6B830F9
:1039F0001DF0F5FFCF4890F8398090F83A0000EBC1
:103A00000820C6492239C887CA4890F83B00A1F867
:103A10004000C84890F83C00A1F84200C54890F822
:103A20003D00A1F84400C34890F83E00A1F84600CC
:103A30000846C08FB1F86610884227D1B7482238AF
:103A4000B0F84000B5492239B1F8681088421DD15C
:103A5000B2482238B0F84200B0492239B1F86A10B1
:103A6000884213D1AD482238B0F84400AB4922391E
:103A7000B1F86C10884209D1A8482238B0F8460045
:103A8000A6492239B1F86E1088421CD0A3482238CA
:103A9000C08FA2492239A1F866000846B0F840005C
:103AA000A1F868000846B0F84200A1F86A0008468C
:103AB000B0F84400A1F86C000846B0F84600A1F840
:103AC0006E0001F07DFE9C480088B0F5967F1ADDFF
:103AD00092482238B0F88000082805DB8F48223849
:103AE000B0F8800063280ED10020934908809348E5
:103AF000006820B1002091498031086003E0012076
:103B00008E498031086083480078112819DA012035
:103B10008B4908608B480088B0F5967F21DD002036
:103B20008849088086488C380068012804D1002024
:103B300083490C39086014E0012081490C39086080
:103B40000FE07448007811280BDB724800781B28BE
:103B500007DA002079498031086001207A49C1F8EC
:103B6000B0016C4800781B287BDB784800787749E7
:103B7000497808447549897808447449C9780844E3
:103B800090B97048008832285ADD00206D490880BD
:103B90006B488038006818B10020694908604FE020
:103BA0000120674908604BE04FF0000B002411E052
:103BB000482000EB84005F49095CC4EB44109D3051
:103BC0005C4A105C084418B10BF1010000F0FF0BD7
:103BD000601C84B2042CEBDB5D4800785C494978BA
:103BE00008445B49897808445949C97808445845CC
:103BF00013D154480088B0F57A7F21DD0020514967
:103C000008804F488038006818B100204C4908608F
:103C100016E001204A49086012E04A480088B0F5E1
:103C2000967F0DDD002047490880454880380068B0
:103C300018B100204249086002E0012040490860B4
:103C400044480088444909880844002805DD4FF4A9
:103C500080514248FFF7A7F903E0012038490C39A9
:103C600008603F4800883F4909880844002804DD6F
:103C700020213D48FFF797F902E001203B49086009
:103C8000274840783A490978884224D02C488C3813
:103C90000068B8B92248407835490870354800882E
:103CA000401C3449088008460088B0F5FA6F12DDE0
:103CB0000020088001201749087040F6B8301DF038
:103CC0008EFE08E02B480088002804DD2948008883
:103CD000401E284908802848808F05B2002D4DDA03
:103CE00068422549A1F83C050846B0F83C0542F277
:103CF000107108442049A1F83C0544E075010020FA
:103D0000760100201802002094010020B601002056
:103D10001A02002069010020C2000020DC0D0020F2
:103D2000DC030020C8000020CA000020D4000020CE
:103D3000D6000020220F0020BE0000202C012142CE
:103D4000BC012242B800002000002242DF01002016
:103D5000F10100203A0100203C0100200010014048
:103D6000520100205401002000140140948122429D
:103D7000BA000020BC00002042100020FE48808FC6
:103D8000FD49A1F83C05FC48C08F05B2002D0DDAB5
:103D90006842F949A1F83E050846B0F83E0542F2EE
:103DA00010710844F449A1F83E0504E0F248C08FC0
:103DB000F149A1F83E05F048B0F88C0005B2002D9D
:103DC0000DDA6842EC49A1F840050846B0F8400514
:103DD00042F210710844E849A1F8400505E0E648C0
:103DE000B0F88C00E449A1F84005E348B0F88E0033
:103DF00005B2002D0DDA6842DF49A1F842050846F8
:103E0000B0F8420542F210710844DB49A1F84205BE
:103E100005E0D948B0F88E00D749A1F84205D64848
:103E2000B0F8DC0005B2002D0DDA6842D249A1F8E5
:103E300044050846B0F8440542F210710844CE49E2
:103E4000A1F8440505E0CC48B0F8DC00CA49A1F867
:103E50004405C948B0F8DE0005B2002D0DDA68420D
:103E6000C549A1F846050846B0F8460542F210716A
:103E70000844C149A1F8460505E0BF48B0F8DE0096
:103E8000BD49A1F84605BC48B0F82C0105B2002D8B
:103E90000DDA6842B849A1F848050846B0F8480567
:103EA00042F210710844B449A1F8480505E0B2484F
:103EB000B0F82C01B049A1F84805AF48B0F82E0180
:103EC00005B2002D0DDA6842AB49A1F84A05084653
:103ED000B0F84A0542F210710844A749A1F84A0512
:103EE00005E0A548B0F82E01A349A1F84A05BDE8B0
:103EF000FE8F7047A148C08FB0F5166F1CD09F4849
:103F0000C08FB0F5965F17D09C48C08FB0F5165F94
:103F100012D09A48C08FB0F5964F0DD09748C08FF9
:103F2000B0F5164F08D09548C08FB0F5614F03D05B
:103F30004FF416509149C8879048008D032802DB42
:103F400000208E4908858D48408D50B18B48408DAA
:103F5000012806D08948408D022802D000208749D8
:103F600048858648808D032803DA8448808D01289F
:103F700002DA02208149888580480089B0F57A7F7D
:103F800002DB00207D4908817C484089B0F57A7FBA
:103F900002DB00207949488178488089B0F57A7F32
:103FA00002DB0020754988817448C089B0F57A7FAA
:103FB00002DB00207149C8817048B0F848008928A8
:103FC00005DB6E48B0F84800B0F57F7F04DD4FF4A4
:103FD000D9706A49A1F848006848B0F84A00142826
:103FE0000DD06648B0F84A00072804DB6348B0F8F3
:103FF0004A000E2803DD14206049A1F84A005F48FA
:10400000B0F84C00092803DD07205C49A1F84C00FA
:104010005A48B0F84E00062804DB5848B0F84E0065
:104020000C2803DD07205549A1F84E005348B0F88D
:104030005000012804DB5148B0F85000042803DD8B
:1040400002204E49A1F850004C48B0F85200012817
:1040500003DD01204949A1F852004848B0F8540056
:10406000012803DD00204549A1F854004348B0F879
:104070005600012803DD00204049A1F856003F48C2
:10408000B0F85800012803DD00203C49A1F8580091
:104090003A48B0F85E000A2806DB3848B0F85E00FF
:1040A00041F27071884204DD4FF47A703349A1F80F
:1040B0005E003248B0F860000A2806DB2F48B0F8EE
:1040C000600041F27071884204DD4FF47A702B4930
:1040D000A1F860002948C088012802DD0020274996
:1040E000C8802648C088012809D102202349888039
:1040F0000846008903280CDA0320088109E01F48DC
:10410000C08830B91D488088032802DA03201B4983
:1041100088801A480088052803DA4FF4F0701749A0
:1041200008807047164880783C2844DB00201449FA
:1041300088700846C078401CC8700846C0780F498F
:1041400088860F48C0783C2835DB00200C49C870B1
:1041500008460079401C0871084600790749C8865E
:1041600007480079182826DB002005490871084611
:104170004079401C487105E042100020BA0D002033
:10418000DC0300200846407972490887724840796C
:104190001E2810DD01207049487108468079401CB6
:1041A0008871084680790C2805DD01208871084651
:1041B000C079401CC871684880786649488666485E
:1041C000C078888664480079C8867047634A126858
:1041D000127803781A440379D21A037A1A440A70BF
:1041E0005E4A1268527843781A4043795A40437ABB
:1041F0001A434A70827883795A40837A5A40574BDF
:104200001B689B781A438A70544A1268D278C37824
:10421000D21AC3791A44C37A1A40CA70704700B5DB
:104220004F48504908605048006880784F490870EE
:104230004D480068C07848704B48006880798870A5
:1042400049480068C079C87047480068007908711B
:10425000454800684079487143480068807A887111
:1042600041480068C07AC8713F4800680078087209
:104270003D480068407848723B480068007A887280
:1042800039480068407AC87239493848FFF79EFFBC
:1042900037480078374909680978884218D1344886
:1042A0004078344909684978884211D1304880788B
:1042B00030490968897888420AD12D48C0782D494B
:1042C0000968C978884203D101202B49087002E0AF
:1042D00000202949087000BDF8B504460D466E4619
:1042E0000020264908800C21204600F09BF8009011
:1042F0003078287070786870184800688078A178E5
:10430000484061784840A87014480068C078E17857
:10431000484021784840E870F8BD70472DE9F047E3
:104320000446894620121649C8708C704FEA29202D
:10433000487081F80090086824F06AFF0746002260
:10434000104B24F0FBFB054624F064FB82465046EC
:10435000BDE8F087BA0D0020DC030020EC0000204F
:10436000FF001100E4000020DC00002058200020A5
:10437000E8000020E0000020F2000020F000002013
:10438000D80000200000244008B54FF40070ADF8BC
:10439000000003208DF8020018208DF80300694604
:1043A000FE48FCF719FB4FF48060ADF800000320D5
:1043B0008DF8020004208DF803006946F748FCF7E9
:1043C0000BFB08BD1FB5F648FCF754FC6846FCF72C
:1043D000FDFCF448C08F00900020ADF80400ADF85B
:1043E0000600ADF80800ADF80C000C20ADF80A008E
:1043F0006946EB48FCF781FC012240F22551E84870
:10440000FCF713FD0121E648FCF703FD1FBD10B5C5
:10441000FFF7BAFFFFF7D6FF0020E3490880E34922
:10442000088010BDF0B50246FF23FF2400250020C0
:1044300009E012F8016B86EA0305DD4E765D86EA37
:104440000403DC4E745D0E1EA1F10107F9B2F0D138
:1044500044EA0320F0BD2DE9F0414FF00008D348B5
:104460000088002875DDD4480078D449097888424E
:104470006FD0D1480078D1490870D1480088401CDD
:10448000CF490880084600880528EBDD002240F26D
:104490002551C348FCF7C9FCC4480088C9490880B5
:1044A0000020C7490880C7480088C82875DCC6486E
:1044B0000078022803D0C548007801286ED1C14891
:1044C0000078801EC1B2C048FFF7ACFF0446251239
:1044D000E6B2BC480088801EBB49085CA84270D187
:1044E000B8480088401E085CB042F8D108464078C1
:1044F000032867D1B6488478C07800EB0420B5491A
:104500000880B248007801286FD1B34F0846008870
:10451000092803D14FF48270088016E1AD48008865
:10452000172804D140F20510AA4908800DE1A948D6
:1045300000880B2804D14FF48370A649088004E159
:10454000A44800889C2805D140F20710A1490880A2
:10455000FBE09DE19F4800889D2804D14FF48470C2
:104560009C490880F1E09B4800888E2804D140F2E5
:10457000091098490880E8E096480088012803D18E
:10458000000294490880E0E092480088022806D1A1
:1045900040F201108F490880D7E06EE16AE18D4852
:1045A0000088032804D14FF481708A490880CCE048
:1045B00088480088042806D140F203108549088005
:1045C000C3E054E12CE183480088362804D14FF43D
:1045D000857080490880B8E07E4800883C2805D175
:1045E00040F20B107B490880AFE0B6E079480088C4
:1045F000D42804D14FF4867076490880A5E0754828
:104600000088D52804D140F20D10724908809CE042
:1046100070480088DA2804D14FF487706D4908800B
:1046200093E06C480088E22804D140F20F106949F9
:1046300008808AE067480088E32804D14FF4887036
:104640006449088081E063480088E42804D140F28E
:1046500011106049088078E05E480088E52804D1A0
:104660004FF489705B4908806FE05A480088E6285B
:1046700004D140F213105749088066E0554800887D
:10468000E72804D14FF48A70524908805DE0514810
:104690000088E82804D140F215104E49088054E003
:1046A0004C480088E92804D14FF48B7049490880B0
:1046B0004BE048480088EA2804D140F217104549E9
:1046C000088042E043480088EB2804D14FF48C7006
:1046D0004049088039E03F480088EC2804D140F286
:1046E00019103C49088030E03A480088ED2804D190
:1046F0004FF48D703749088027E036480088EE284F
:1047000004D140F21B10334908801EE03148008874
:1047100040F2F511884204D14FF48F702D49088082
:1047200013E02C48008840F28121884204D140F2F5
:104730001F102849088008E026480088B0F5207F2F
:1047400003D14FF49070234908802248008807EB7A
:10475000400700201D49087091E01248623000F0C7
:10476000704000F100700F496231C1F3130100EB9A
:104770004110406AF0B301201849087064201849BC
:10478000087000201749088064201749087000202D
:10479000164908806420164908702CE00008014082
:1047A00000380140BA0D0020F6000020F40000207F
:1047B0002A9902082A9A0208DC0300200F0100202F
:1047C00010010020F8000020642600201D010020B8
:1047D000642000204C000020DE070020340100206F
:1047E00026010020280100202A0100202C010020A1
:1047F0001F01002009E00020FE490880FE490870E2
:10480000FE490870FE49087039E00120FD49087032
:10481000FD488478C07800EB0420FC4908802EE035
:10482000F948407806280DD10020F9490880012078
:10483000F8490870F4488478C07800EB0420F34904
:1048400008801CE0F048407810280DD10020F04985
:1048500008800120F0490870EB488478C07800EBAC
:104860000420EA4908800AE04FF0010807E04FF011
:10487000020804E04FF0030801E04FF004080122B1
:1048800040F22551E548FCF7D0FA0020E4490880C1
:10489000B8F1000F0EDD002404E00020DA490855CD
:1048A000601C84B2142CF8DB012240F22551DB4855
:1048B000FCF7BBFABDE8F081014642F2107291426A
:1048C00004DAD8480A4600EB420041E042F2107296
:1048D000914208DB5200914205DAD348A1EB620213
:1048E00000EB420034E044F6206291420ADB47F2DA
:1048F0003052914206DACD48A1F59C42203A00EBB5
:10490000420025E047F2305291420ADB49F640422C
:10491000914206DAC648A1F5EA42303A00EB42007D
:1049200016E049F6404291420ADB4CF25032914285
:1049300006DAC048A1F51C42403A00EB420007E00D
:104940004CF25032914203DBBB488A1A00EB420022
:1049500070472DE9F047AB48007800285BD0022073
:10496000B6490870A84840784870A7484079400682
:10497000000E8870A4488778C07800EB072086B2C4
:104980003046FFF799FF8046DFF8B09200250BE034
:1049900038F81540211209F1030000F8151000EB5A
:1049A00045004470681CC5B297484079A842EFDCC6
:1049B000A2488078C01CC1B2A048FFF733FDA049CF
:1049C00008800846008801129C488078C01C9B4AD9
:1049D00011549B48017810468078001D11541046F0
:1049E0008078401D974908800020864908709649C4
:1049F0000880084602880088401C0B4618808F48B3
:104A0000815C8648FCF772FA012240F226618348F5
:104A1000FCF70BFA94E08048007818B97D480078DC
:104A20000028F7D07B48007840B377488778C07873
:104A300000EB072086B242F2107086420EDB304651
:104A4000FFF73AFF824670480479407900EB042072
:104A5000AAF8000001207D4908702FE07148A0F8F5
:104A6000666569480479407900EB042084B26D489A
:104A7000A0F868450120764908701FE06648007874
:104A8000E0B161488079022815D15F488478C07808
:104A900000EB042084B26348A0F866455A48C47904
:104AA000007A00EB042084B25E48A0F8684501203B
:104AB0006749087002E00020654908705648007890
:104AC00018B95448007800283AD002205B49087091
:104AD0004D48407848704C48807888704A48C07883
:104AE000C8704948007908714748407948710621E3
:104AF0005248FFF797FC5249088008460088001288
:104B00004E4988714E480078C87108204D49088088
:104B10000020414908703F4908704B490880084609
:104B200002880088401C0B4618804448815C3B4842
:104B3000FCF7DCF9012240F226613848FCF775F9F0
:104B4000BDE8F08770B500240025022041490880A7
:104B50000320414908803F480088002801DD601C8F
:104B6000C4B23D480088002801DD601CC4B2002C9E
:104B70007ADD3A480078002877D039480078401C20
:104B80003749087008460078022801DD01200870C6
:104B90003048008800280FDD3148007801280BD10B
:104BA00000202E4908700120144908702948007817
:104BB00022490870012512E02748008800280EDDF0
:104BC0002748007802280AD10020244908700120D3
:104BD0002449087020480078184908700225012DE2
:104BE0006FD1032015494870012088705320C87088
:104BF00000203BE0200100208F0000202E0100203B
:104C0000300100200A01002064260020FE00002060
:104C1000B40000200D0100200B01002000380140ED
:104C2000F400002042100020DE070020C60B002008
:104C30008E0C0020BA0D0020F60300206420002016
:104C4000FC000020FA000020F6000020B200002046
:104C500061000020360100203801002033010020CF
:104C6000320100202F010020CCE02AE00871202032
:104C700048710621FE48FFF7D5FBFE49088008462B
:104C800000880012FA498871FA480078C871082033
:104C9000F94908800020F94908800120F849087086
:104CA000F64802880088401CF44B1880F048815C6C
:104CB000F448FCF71BF9012240F22661F148FCF7A9
:104CC000B4F8EF48007858B9EF480078012801D1CE
:104CD000EE490870EE480078012801D1ED490870CE
:104CE000ED48007820B3ED480078ED490978884216
:104CF0001ED0EA480078EA490870EA480088401C5B
:104D0000E849088008460088082811DD0020E249AB
:104D100008706420E24908700020E249088064209D
:104D2000E14908700020E14908800120E04908704D
:104D3000D3480078F0B9DE480078D8B9D748007871
:104D4000D9490978884215D0D4480078D6490870E6
:104D5000D6480088401CD549088008460088FA28B3
:104D600008DD6420D04908700020D0490880012067
:104D7000CF490870C548007801281FD1CD48007878
:104D8000E0B9C6480078CC490978884216D0C348B3
:104D90000078C9490870C9480088401CC749088084
:104DA00008460088B0F57A6F08DD6420C2490870B3
:104DB0000020C24908800120BE490870B54800782B
:104DC00001281FD1BE480078E0B9B4480078BD4939
:104DD0000978884216D0B1480078BA490870BA48B4
:104DE0000088401CB849088008460088B0F57A6FF2
:104DF00008DD6420B34908700020B3490880012011
:104E0000AF490870B148008830B900209F49087048
:104E1000A8490870A9490880AD48008830B9002029
:104E20009C490870A6490870A749088070BD70B5F4
:104E300004460D46A7480078C0B998484078A6496E
:104E40000978884212D095484078A3490870A34851
:104E50000088401CA1490880084600880A2805DD12
:104E600001209C49087000209C49088099480078DE
:104E7000012835D10220974908707D490870032028
:104E8000487020128870CC70281208714D7106216C
:104E90007748FFF7C7FA9249088008460088001251
:104EA000734988718E480078C8710820724908805B
:104EB00000207249088001208A490870012240F2CE
:104EC00026617048FBF7B1FF6C4802880088401CDF
:104ED0006A4B18806648815C6A48FCF707F84AE02C
:104EE0007C480078022846D17E4800780A2819D1EB
:104EF00000207C490870774908707B4908807B490D
:104F000008707B48007828B97A480078401C7949B5
:104F1000087030E07648007801282CD1642076496A
:104F2000087028E05D48407874490978884222D0AA
:104F30005A484078714908706B480088401C6A499B
:104F4000088008460088502815DD00200880684841
:104F5000007840B901205F49087064480078401C1F
:104F60006249087007E000205A4908705F490870DC
:104F70006420614908705D480078032806DB002042
:104F800054490870584908805849087070BD70B578
:104F900004460D464F48007810B965204D49087009
:104FA0004C480078652836D166204A4908700220AE
:104FB0002F4908700620487020128870CC70281283
:104FC00008714D7106212A48FFF72CFA44490880E0
:104FD0000846008800122649887141480078C87147
:104FE00008202549088000202449088001203D49E7
:104FF0000870012240F226612248FBF716FF1F4885
:1050000002880088401C1D4B18801948815C1D488F
:10501000FBF76CFF9DE02F480078662876D1314879
:1050200000780B2877D100202E4908702949087094
:105030002D4908802D4908702F480078012803D099
:105040002D48007802280AD101202D4908702D48EA
:105050000078401C2B49087000202B490870264816
:105060000078642802D100202149087000204FE018
:105070006420002000010020FA000020F60000203B
:105080001E010020003801402E01002030010020C8
:105090002F0100203101002034010020DC0300201A
:1050A00026010020280100202A0100202C010020D8
:1050B000330100208F0000201F010020200100206C
:1050C0009000002022010020240100203601002051
:1050D0003801002013010020180100201A010020CF
:1050E000FC00002014010020160100201201002005
:1050F000080300201C0100204A00002015010020A8
:10510000F5020020F6020020FE02002021E002E06D
:10511000F74908701DE0F7480078F7490978884298
:1051200017D0F4480078F4490870F4480088401C0F
:10513000F249088008460088B0F5487F09DD002064
:1051400008806520EE490870EE480078401CED4963
:105150000870EC480078032810DB0020E84908704C
:10516000E6490880E7490870E1480078642802D1E0
:105170000020E54908700020DD49087070BD2DE968
:10518000F04106460D461746DD48007810B9C920A3
:10519000DB490870DA480078C9285BD1CA20D849B1
:1051A00008700220D94908701020487030128870A9
:1051B000CE70281208714D716806000E88710024A7
:1051C00010E037F814000012072101EB4401CF4A28
:1051D000505417F81410072000EB4400401C1154E1
:1051E000601C84B2AC42ECDB072000EB4400C1B28F
:1051F000C648FFF717F9C64908800846008800121C
:10520000072101EB4401C14A5054C14801780720ED
:1052100000EB4400401C1154072000EB4400801CAC
:10522000BC4908800020BC4908800120BB490870A7
:10523000012240F22661BA48FBF7F7FDB648028822
:105240000088401CB44B1880B048815CB448FBF720
:105250004DFE31E0AA480078CA282DD1AF48007829
:105260000C280BD10020AD490870A5490870A3494E
:105270000880A44908709E4908701DE09D48007888
:105280009D490978884217D09A4800789A49087051
:105290009A480088401C9949088008460088B0F563
:1052A000487F09DD00200880C9209549087095488D
:1052B0000078401C9349087092480078032808DB66
:1052C00000208F4908708D4908808E4908708849F0
:1052D0000870BDE8F0810246881AC0F34F0070479D
:1052E00010B504460B4600208E49087033B921469C
:1052F0008D48FFF7F0FF8D4908808BE1012B09D124
:1053000021468B48FFF7E7FF42F2107108448749B6
:1053100008807FE1022B09D121468648FFF7DBFF99
:1053200044F6206108448149088073E1032B09D1C8
:1053300021468148FFF7CFFF47F2305108447B49AF
:10534000088067E1042B09D121467C48FFF7C3FFA1
:1053500049F640410844754908805BE1082BCCD1EF
:1053600021467348FFF7B7FF7049088001206D4957
:1053700008706E480088B0F5827F03D109206B4920
:10538000088047E16948008840F20511884203D14E
:105390001720664908803DE164480088B0F5837FA6
:1053A00003D10B206149088034E16048008840F255
:1053B0000711884203D19C205C4908802AE15B48A0
:1053C0000088B0F5847F03D19D205849088021E1F1
:1053D0005648008840F20911884203D18E20534973
:1053E000088017E151480088B0F5807F03D1012083
:1053F0004E4908800EE14D48008840F20111884274
:1054000003D102204949088004E148480088B0F5EA
:10541000817F03D1032045490880FBE04348008891
:1054200040F20311884203D1042040490880F1E092
:105430003E480088B0F5857F03D136203B4908807F
:10544000E8E03A48008840F20B11884203D13C2042
:1054500036490880DEE035480088B0F5867F03D104
:10546000D42032490880D5E03048008840F20D1140
:10547000884203D1D5202D490880CBE02B480088F5
:10548000B0F5877F03D1DA2028490880C2E0274899
:10549000008840F20F11884203D1E220234908809E
:1054A000B8E022480088B0F5887F03D1E3201F4987
:1054B0000880AFE01D48008840F21111884203D1F6
:1054C000E4201A490880A5E018480088B0F5897FD3
:1054D00003D1E520154908809CE01448008840F27B
:1054E000131188422CD1E6201049088092E0000078
:1054F0004A000020DC0300201501002016010020D6
:105500001301002012010020080300206420002065
:10551000FC000020FA000020F6000020140100200A
:10552000003801401D010020F60300204C0000203F
:10553000DE070020C60B00208E0C0020BA0D0020D4
:105540008B480088B0F58A7F03D1E720884908801E
:1055500060E08748008840F21511884203D1E820B6
:105560008349088056E082480088B0F58B7F03D1DC
:10557000E9207F4908804DE07D48008840F21711FE
:10558000884203D1EA207A49088043E078480088BD
:10559000B0F58C7F03D1EB20754908803AE0744860
:1055A000008840F21911884203D1EC20704908802C
:1055B00030E06F480088B0F58D7F03D1ED206C4955
:1055C000088027E06A48008840F21B11884203D116
:1055D000EE20674908801DE065480088B0F58F7FA0
:1055E00004D140F2F5106249088013E06048008859
:1055F00040F21F11884204D140F281205C490880AA
:1056000008E05B480088B0F5907F03D14FF420702C
:10561000574908805648008810BD5549098842F20C
:105620001072914205DA53485149098800EB410054
:1056300048E04F49098842F2107291420CDB4C4914
:1056400009885200914207DA4B4849490988A1EB81
:10565000620100EB410035E04549098844F62062CB
:1056600091420EDB4249098847F23052914208DAF2
:1056700042483F490988A1F59C41203900EB41008F
:1056800020E03B49098847F2305291420EDB38490D
:10569000098849F64042914208DA39483449098874
:1056A000A1F5EA41303900EB41000BE030490988AF
:1056B00049F64042914205DB32482D490988891A52
:1056C00000EB41007047014642F21072914204DA49
:1056D00028480A4600EB420032E042F21072914242
:1056E00008DB5200914205DA2348A1EB620200EB8D
:1056F000420025E044F6206291420ADB47F2305234
:10570000914206DA1D48A1F59C42203A00EB420086
:1057100016E047F2305291420ADB49F6404291428C
:1057200006DA1748A1F5EA42303A00EB420007E0FA
:1057300049F64042914203DB12488A1A00EB4200CC
:10574000704770B504460D4629462046FBF7CEFB50
:1057500000BF80212046FBF737FC0028F9D000BFAE
:1057600040212046FBF730FC0028F9D070BD000036
:105770004C000020F6030020DE070020C60B0020AE
:105780008E0C0020BA0D002008B50820ADF80000EE
:1057900003208DF8020004208DF803006946FE48BE
:1057A000FBF71AF90420ADF8000003208DF8020081
:1057B00018208DF803006946F748FBF70DF908BD7E
:1057C0001FB5F648FBF756FA6846FBF7FFFAF448B0
:1057D000C08F0090F248B0F8440038B90020ADF80E
:1057E00004000320EE49A1F8400011E0EC48B0F8B5
:1057F0004400082804D0EA48B0F84400182807D12B
:105800000320E749A1F840004FF48050ADF80400B0
:10581000E348B0F8420018B90020ADF806000EE0E9
:10582000DF48B0F84200042803D1C002ADF80600FA
:1058300005E00020DA49A1F84200ADF80600D8489A
:10584000B0F8440018B90020ADF8080019E0D448B9
:10585000B0F84400082804D14FF4C060ADF8080047
:105860000FE0CF48B0F84400182804D14FF480600E
:10587000ADF8080005E00020C949A1F84400ADF8E2
:105880000800C748B0F84600032803D10020ADF84F
:105890000C0010E0C248B0F84600022804D14FF4D2
:1058A0004070ADF80C0006E00320BD49A1F84600A9
:1058B0000020ADF80C000C20ADF80A000020ADF877
:1058C0000400ADF80600ADF80800ADF80C000C209F
:1058D000ADF80A006946B148FBF70FFA012240F221
:1058E0002551AE48FBF7A1FA0121AC48FBF791FA2C
:1058F0001FBD10B5FFF748FFFFF762FF0020A94961
:105900000880A949088010BD2DE9F0410027A6486C
:10591000008800287BDDA5480078A54909788842E1
:1059200075D0A2480078A2490870A2480088401C9F
:10593000A0490880084600880528EBDD002240F2D7
:1059400025519648FBF771FA974800889A490880D4
:1059500000209849088098480088B0F5006F70DCF6
:105960008F48203000F0704000F100708C492031E9
:10597000C1F3130100EB4110406800287BD1884837
:10598000223000F0704000F1007085492231C1F3EF
:10599000130100EB4110406800286CD18048223090
:1059A00000F0704000F100707D492231C1F3130115
:1059B00000EB4110006900285DD180480078022882
:1059C00057D17D480078801EC1B27C48FEF72AFD81
:1059D00004462512E6B278480088801E7749085CA4
:1059E000A84244D174480088401E085CB0423ED1B1
:1059F0000846407803280BD10120714908706F4890
:105A00008478C07800EB04206E490880F0E1F8E16A
:105A10006A48407810280DD100206B490880012089
:105A20006A49087065488478C07800EB04206549AD
:105A30000880DDE161484078012803D1644908709D
:105A4000D6E1D4E15D48407806280ED100205E49B9
:105A5000088001205F49087058488478C07800EBBE
:105A6000042058490880C3E105E00127C0E102276E
:105A7000BEE10327BCE14A48203000F0704000F14D
:105A8000007047492031C1F3130100EB4110406819
:105A900078B1002408E04948005D4F4908550220CC
:105AA0004E490870601C84B2434800888442F2DB8F
:105AB0009EE13B48223000F0704000F10070384910
:105AC0002231C1F3130100EB41104068002861D07E
:105AD00039480088B0F5006F5DDC38480078402810
